:020000040800F2
:10000000880400209D010008A5010008A701000840
:10001000A9010008AB010008AD01000800000000C4
:10002000000000000000000000000000AF01000818
:10003000B101000800000000B30100089517000896
:10004000B7010008B7010008B7010008B7010008B0
:10005000B7010008B7010008B7010008B7010008A0
:10006000B7010008B7010008B7010008B701000890
:10007000B7010008B7010008B7010008B701000880
:10008000B7010008B7010008B7010008B701000870
:10009000B7010008B7010008B7010008B701000860
:1000A000B7010008B7010008B7010008B701000850
:1000B000B7010008B7010008B7010008B701000840
:1000C000B7010008B7010008B7010008B701000830
:1000D000B7010008B7010008B7010008B701000820
:1000E000B7010008B7010008B7010008B701000810
:1000F000B7010008B7010008B7010008B701000800
:10010000B7010008B7010008B7010008B7010008EF
:10011000B7010008B7010008B7010008B7010008DF
:10012000B7010008B7010008B7010008B7010008CF
:10013000B7010008B7010008B7010008B7010008BF
:10014000B7010008B7010008B7010008B7010008AF
:10015000B7010008B7010008B7010008B70100089F
:10016000B7010008B7010008B7010008B70100088F
:10017000B7010008B7010008B7010008000000003F
:10018000B7010008B7010008DFF80CD000F06CF8E8
:1001900000480047B11C000888040020064880473A
:1001A00006480047FEE7FEE7FEE7FEE7FEE7FEE75C
:1001B000FEE7FEE7FEE7FEE72D18000889010008CC
:1001C0002DE9F05F0546002092469B46884606468C
:1001D000814640241BE0284641464746224600F01F
:1001E00032F853465A46C01A914110D31146184668
:1001F000224600F019F82D1A67EB01084F462246F7
:100200000120002100F010F817EB00094E41201EDC
:10021000A4F10104DFDC484631462A46434600F09B
:1002200000B830BCBDE8C09F202A04DB203A00FAA9
:1002300002F1002070479140C2F1200320FA03F33D
:10024000194390407047202A04DB203A21FA02F03B
:100250000021704721FA02F3D040C2F12002914000
:100260000843194670470000064C074D06E0E06859
:1002700040F0010394E8070098471034AC42F6D3ED
:10028000FFF786FF381D0008581D0008FEE7000034
:1002900070B5054600F0F6F84FEA000400F0F2F8F9
:1002A000001BA842FAD370BD2DE9F84FDFF898B1D2
:1002B00000234FF0010C4FF0030A4FF00F090BF130
:1002C000040EB9E00CFA03F4224070D04D68022D00
:1002D00001D0122D0ED1DD0800EB8508D8F8205092
:1002E0005E07F70E09FA07F6B5430E69BE402E43C6
:1002F000C8F8206007685E0091F804800AFA06F5E5
:1003000008F00308AF4308FA06F848EA0708C0F8FF
:1003100000804F68012F05D0022F03D0112F01D08C
:10032000122F13D1D0F80880CF6828EA0508B7400B
:1003300047EA08078760D0F804800F7928EA0408A4
:10034000C7F300179F4047EA08074760D1F80480C9
:100350006FEA0807BF0706D1C76AA743C8F3C004FE
:100360009C403C43C462C468AC438D68B54025439F
:10037000C5604C68E4005ED5344C256E45F001053F
:100380002566246E23F0030504F001040094304C2C
:100390002E19B4689D072F0F09FA07F5AC43B0F189
:1003A000904F05D02B4DA84204D101251CE042E01E
:1003B000002519E0284DA84201D1022514E0274D5F
:1003C000A84201D103250FE0254DA84201D1042503
:1003D0000AE0244DA84201D1052505E0224DA8429E
:1003E00001D1062500E00725BD402543B560DBF8B7
:1003F00000405D464E689443F60300D514432C60DC
:10040000DEF8004075464E689443B60300D51443A9
:100410002C600D4D08352C684E689443F60200D5CB
:1004200014432C60084D0C352C684E689443B6027A
:1004300000D514432C605B1C0A6832FA03F57FF484
:1004400041AF00F013B8000000040140001002406A
:10045000000001400004004800080048000C00486B
:1004600000100048001400480018004818BCBDE8FF
:10047000E08F42694A40426170470AB1816170472A
:100480008162704701480068704700000C0000203E
:1004900002480168491C0160704700000C00002000
:1004A000074810B5016841F480710160032000F035
:1004B0007DF8002000F006F800F018F8002010BDCC
:1004C0000020024010B5044607484FF47A710068D6
:1004D000B0FBF1F000F04FFE00222146501E00F06C
:1004E00045F8002010BD0000100000201E4808B58F
:1004F000016E41F001010166016E01F00101009100
:10050000816D41F080518165806D00F080500090D8
:10051000032000F04BF8002211466FF00B0000F0B2
:1005200025F8002211466FF00A0000F01FF80022A3
:1005300011466FF0090000F019F800221146501F13
:1005400000F014F800221146101F00F00FF80022EE
:100550001146901E00F00AF80022BDE8084011463E
:10056000501E00F003B8000000100240F0B40E4B23
:100570001B680C46C3F30223C3F10705042D00D901
:100580000425191D072901D2002300E0DB1E0126E6
:1005900006FA05F1491E214099409E40761E1640FC
:1005A0003143F0BC00F056BF0CED00E0064900F00E
:1005B000070208684FF6FF03184040EA0220034A8A
:1005C00010430860704700000CED00E00000FA05E1
:1005D0001549B0F5007F0868C0F3412009D0022812
:1005E00005D0086820F4C06040F4806008600020F6
:1005F00070470128FBD0086820F4C06040F4007008
:1006000008600A480A4A0068B0FBF2F03222504300
:1006100000E0401E10B14A695205FAD4486940050D
:10062000E5D5032070470000007000401000002056
:1006300040420F000248006800F4C06070470000AC
:10064000007000402DE9F84F044600270088E54D72
:100650003E46010504F1200B1DD5606E78B1B0F562
:10066000800F11D0B0F5000F04D0B0F5400F22D0AC
:1006700001270FE0E86840F48030E8601BE00021CB
:10068000201D00F0F7FE03E00021584600F0A6FF11
:10069000070010D03E462088C00426D5A06EC0B109
:1006A000B0F1807F1AD0B0F1007F0DD0B0F1407F63
:1006B00019D0012718E0D5F88800616E20F44000B9
:1006C0000843C5F88800E6E7E86840F48030E86051
:1006D00009E00021201D00F0CDFE03E00021584676
:1006E00000F07CFF0746F7B13E46206880033AD50C
:1006F000A86D4FF00008C00009D4A86D40F08050EC
:10070000A865A86D4FF0010800F080500090DFF858
:10071000D8A2DAF8001041F48071CAF80010FFF78F
:10072000B1FE814610E0D5F88800A16E20F040703F
:100730000843C5F88800D8E7FFF7A4FEA0EB09003E
:10074000022801D9032705E0DAF80000C005F3D537
:10075000002F7CD04FEA0706B8F1000F03D0A86D38
:1007600020F08050A8652078C00707D0D5F8880011
:10077000A16B20F003000843C5F8880020788007AB
:1007800007D5D5F88800E16B20F00C000843C5F8C8
:1007900088002078400707D5D5F88800216C20F024
:1007A00030000843C5F888002078000707D5D5F841
:1007B0008800616C20F0C0000843C5F888002078EC
:1007C000C00607D5D5F88800A16C20F44070084316
:1007D000C5F888002078800607D5D5F88800E16C38
:1007E00020F440600843C5F888002088800507D5BC
:1007F000D5F88800E16D20F440200843C5F8880052
:100800002088400507D5D5F88800216E20F44010D7
:100810000843C5F888002078400607D5D5F8880039
:10082000216D20F440500843C5F888002078000668
:1008300007D5D5F88800616D20F440400843C5F81D
:1008400088002088C00509D5D5F8880000E01CE0A4
:10085000A16D20F440300843C5F8880020884FF08F
:10086000006780044FF080684FD5D5F88800E16EAE
:1008700020F040600843C5F88800E06EB8423CD1E3
:10088000E86840F48010E8603FE0D5F8900010F48C
:10089000407015D0D4F88410814211D0D5F8900062
:1008A000D5F8901020F4407041F48031C5F89010D4
:1008B000D5F8901021F48031C5F89010C5F890005B
:1008C000C00710D0FFF7DEFD074641F2883906E089
:1008D000FFF7D8FDC11B494501D903263CE7D5F8F0
:1008E00090008007F4D5D5F89000D4F8841020F457
:1008F00040700843C5F890002EE7404505D101211E
:10090000201D00F0B7FD00B106462068000317D592
:10091000D5F88800216F20F040600843C5F88800B2
:10092000206FB84204D1E86840F48010E86007E026
:10093000404505D10121201D00F09CFD00B1064677
:100940002068400317D5D5F88800616F20F040601B
:100950000843C5F88800606FB84204D1E86840F4E5
:100960008010E86007E0404505D10121201D00F01E
:1009700081FD00B10646208840041AD5D5F88800CC
:10098000A16F20F040500843C5F88800A06FB0F177
:10099000805F03D0B0F1005F05D00AE00221201D86
:1009A00000F068FD03E00221584600F017FE00B198
:1009B00006462088000407D5D5F88800E16F20F0AE
:1009C00080400843C5F888002068C00307D555F863
:1009D000880FD4F8801020F000400843286030468B
:1009E00000F004B8001002400070004018BCBDE8E0
:1009F000E08F00002DE9F047DFF8688105460E46DC
:100A0000D8F8000000F00700B0420CD2D8F800106F
:100A100021F007013143C8F80010D8F8000000F0B9
:100A20000700B04274D128784F4C800705D5A068E4
:100A3000A96820F0F0000843A0602878C00756D0CD
:100A40006868022818D0032819D02168D0B1490558
:100A500000295DDAA16821F003010143A160FFF7DD
:100A600011FD6968074641F28830022912D0032936
:100A70001ED0814649B335E021688903E8E7216843
:100A80008901E5E78907E3E7FFF7FCFCC11B49455E
:100A900001D924E08146A068C0F381000228F3D187
:100AA00025E000BFFFF7EEFCC11B494501D916E068
:100AB0008146A068C0F381000328F3D117E000BF8E
:100AC000FFF7E0FCC11B494509D8A06810F00C0FE6
:100AD000F6D10CE0FFF7D6FCC11B494502D9032033
:100AE000BDE8F087A068C0F381000128F2D1D8F8F2
:100AF0000010404601F00701B1420BD9016821F016
:100B0000070131430160006800F00700B04201D0E6
:100B10000120E5E72878400705D5A068E96820F4BA
:100B2000E0600843A0602878000706D5A06829691E
:100B300020F4605040EAC100A06000F051F8A168C4
:100B4000F02292FAA2F201F0F001B2FA82F2D14060
:100B5000064A515CC840064908600020FFF7B2FC15
:100B60000020BDE70020024000100240F01C0008F9
:100B700010000020014800687047000010000020AD
:100B800008480949006889684FF4E06292FAA2F2C5
:100B900001F4E061B2FA82F2D140044A515CC840EB
:100BA000704700001000002000100240301D0008B7
:100BB00008480949006889684FF4605292FAA2F225
:100BC00001F46051B2FA82F2D140044A515CC8404B
:100BD000704700001000002000100240301D000887
:100BE00070B53B49002318468A683A4C12F00C0F46
:100BF0004FEA640514D08A68C2F38102032A04D143
:100C0000CA6802F00302012A0AD08A68C2F381028C
:100C1000012A21D08A68C2F38102022A1ED01EE076
:100C20000A68120706D4D1F894204FF4706302F4D6
:100C3000706203E00A68F02302F0F00293FAA3F373
:100C4000B3FA83F3DA40244B53F822308A6812F067
:100C50000C0F04D1184602E0204600E028468A68BE
:100C6000C2F38102032A31D1C868CA6800F00300C8
:100C7000702696FAA6F602F07002B6FA86F6F240F0
:100C8000521C4FF4FE46022804D0032805D0B3FBC3
:100C9000F2F004E0B4FBF2F001E0B5FBF2F0CA6858
:100CA00096FAA6F302F4FE42B3FA83F3DA40C96877
:100CB00050434FF0C06292FAA2F201F0C061B2FA62
:100CC00082F2D140491C4900B0FBF1F070BD000038
:100CD000001002400024F400001D00082DE9F84334
:100CE00004460078FE4DC00663D5A86810F00C0FCE
:100CF0000AD0A0690028286878D040F00100286058
:100D0000FFF7C0FB06465AE02868800702D5A069B5
:100D100000286AD0216A28684FF0F006000703D542
:100D2000286800F0F00003E0D5F8940006EA1010FF
:100D3000814216D9084600F0EFFC002855D12868FA
:100D400040F0080028602868216A20F0F00008437D
:100D500028606868E16920F47F4040EA012068600B
:100D600015E0286840F0080028602868216A20F013
:100D7000F000084328606868E16920F47F4040EA99
:100D800001206860206A00F0C7FC0028D6D1FFF778
:100D900027FFA96896FAA6F201F0F001B2FA82F2F2
:100DA000D140D04A515CC840CF4908600020FFF7CD
:100DB00089FB2BE0FFF766FB801B02287ED82868A2
:100DC0008007F7D5286840F0080028602868216A65
:100DD00020F0F000084328606868E16920F47F4053
:100DE00040EA0120686011E000E0B7E020F0010077
:100DF0002860FFF747FB064605E000BFFFF742FB10
:100E0000801B0228DAD828688007F7D42078C0072A
:100E100048D0A868C0F3810002281DD0A868C0F39C
:100E20008100032803D1E868C043800714D06068BC
:100E3000B0F5803F17D0B0F5A02F286817D020F468
:100E400080302860286820F4802028606068E0B145
:100E5000FFF718FB064614E02868800322D5606877
:100E600000287BD01EE0286840F48030EDE740F495
:100E700080202860F7E700BFFFF704FB801B642891
:100E80009CD828688003F7D50CE0FFF7FBFA0646EC
:100E900005E000BFFFF7F6FA801B64288ED82868AB
:100EA0008003F7D42078800748D5A8684FF0F8571A
:100EB000C0F38100012816D0A86800E0AFE0C0F3BD
:100EC0008100032804D1E86800F0030002280AD05A
:100ED000E0680028286821D040F480702860FFF77F
:100EE000D1FA06460BE0286840050BD5E0680028DB
:100EF000B7D007E0FFF7C6FA801B0228C0D82868E1
:100F00004005F7D5686897FAA7F22169B2FA82F22C
:100F100020F0F8509140084368600FE020F48070A2
:100F20002860FFF7AFFA064605E000BFFFF7AAFA10
:100F3000801B022873D828684005F7D42078000762
:100F400029D560690028D5F8940013D040F001003D
:100F5000C5F89400FFF796FA064606E0FBE000BFEE
:100F6000FFF790FA801B022859D8D5F89400800723
:100F7000F6D510E020F00100C5F89400FFF782FAE2
:100F8000064604E0FFF77EFA801B022847D8D5F812
:100F900094008007F6D42078400763D5A86D00261A
:100FA000C00008D4A86D40F08050A865A86D012647
:100FB00000F0805000904D480168C90511D40168C7
:100FC000804641F480710160FFF75CFA074604E057
:100FD000FFF758FAC01B022821D8D8F80000C00536
:100FE000F6D5A068012815D00528D5F8900017D0AF
:100FF00020F00100C5F89000D5F8900020F0040022
:10100000C5F89000A06841F28838C8B1FFF73AFAF5
:10101000074610E0D5F8900040F00100F0E75EE0F0
:1010200040F00400C5F89000F4E700BFFFF72AFA8B
:10103000C11B414553D8D5F890008007F6D50CE088
:10104000FFF720FA074604E0FFF71CFAC11B4145F1
:1010500079D8D5F890008007F6D41EB1A86D20F09D
:101060008050A865A06AC8B3A968C1F381010329AB
:1010700072D00228286820F08070286011D028687B
:10108000000106D42868800003D4E86820F003003B
:10109000E860E86816490840E860FFF7F3F904469D
:1010A00054E0FFF7EFF9064605E000BFFFF7EAF965
:1010B000801B022847D828688001F7D4206BE16A9A
:1010C000000110380843616BA26B0902120941EA62
:1010D00042410843A18F074A49080DE039E032E058
:1010E00000100240F01C00081000002000700040BA
:1010F000FFFFEEFE0000E0FF02EB4151084394F8D1
:1011000040104908120102EB41610843E860286879
:1011100040F080702860E86840F08070E860FFF779
:10112000B1F9044605E000BFFFF7ACF9001B022847
:1011300009D828688001F7D50BE000BFFFF7A2F9B6
:10114000001B022802D90320BDE8F883286880012B
:10115000F4D40020F8E7FFE70120F5E74FF0E021A5
:101160000428086903D020F004000861704740F0AB
:101170000400FAE7704710B5401EB0F1807F01D33C
:10118000012010BD4FF0E02460610F21601700F0D6
:1011900061F90020A06107202061002010BD10B57A
:1011A000FFF7E8FF10BD10B5040003D094F8690004
:1011B00010B107E0012010BD002084F8680020462F
:1011C00000F026F8242084F869002068016821F0E6
:1011D00001010160204600F0DDFB0128EBD0606AD0
:1011E00010B1204600F044FB2068416821F4904192
:1011F00041602068816821F02A01816020680168CF
:1012000041F0010101602046BDE8104000F094BBB0
:10121000F0B50068144987B0884223D11348816D26
:1012200041F400318165806D022400F400300590A6
:101230000420CDE9000402AA01200325072682E844
:1012400061004FF0904769463846FFF72DF80820B7
:10125000CDE9000402AA002082E861006946384610
:10126000FFF722F807B0F0BD004400400010024034
:101270002DE9F843044690F869001F4616460D46CE
:1012800020284DD1CDB1C6B194F86800012847D0CF
:10129000012084F868004FF00008C4F86C80212019
:1012A00084F869005034FFF7EDF824F8026B8146AA
:1012B00024F852694FF4805618E00120BDE8F88305
:1012C000B4F85200401EA4F852004B460022802180
:1012D0002046009700F0AAFCA0B9A068B04201D156
:1012E000206988B115F8010B21680885B4F852000F
:1012F0000028E5D14B46002240212046009700F00F
:1013000095FC30B10320D9E735F8020BC0F3080093
:10131000EAE7202084F8690084F868800020CDE79F
:101320000220CBE770B5364886B0C16C41F00401AD
:10133000C164C16C01F004010591C16C41F08001F0
:10134000C164C16C01F080010591C16C41F00101E3
:10135000C164C16C01F001010591C16C41F0020151
:10136000C164C16C01F002010591C16C41F008013A
:10137000C164C06C002400F0080005904FF40050D8
:1013800000902048CDE901041F4E69463046FEF723
:101390008BFF41F6FF700325CDE9000569460294F5
:1013A0003046FEF781FF49F6D370CDE900054FF0D6
:1013B0009046694602943046FEF776FF2020009062
:1013C0000120CDE90104694630460394FEF76CFF25
:1013D0004FF6F770CDE90005694602940B48FEF719
:1013E00063FF0420CDE90005694602940848FEF732
:1013F0005BFF002220213046FFF73FF806B070BDAA
:1014000000100240000012100008004800040048CC
:10141000000C00480E4810B50C4901604FF4E13152
:101420004160C904816000210C22C160C0E904123E
:101430008161C16101624162FFF7B5FE002803D0FE
:10144000BDE81040FEF722BF10BD00000044004080
:10145000140000200907090E002806DA00F00F002A
:1014600000F1E02080F8141D704700F1E02080F8C2
:10147000001470472DE9F041544C05460F46E068D2
:101480000026820728684FF0700112D0E26802F04F
:10149000030282421BD1D0B1E06891FAA1F100F0C1
:1014A0007000B1FA81F1C8406968401C88420ED1D1
:1014B00022E0012804D0022805D0032807D108E043
:1014C0002268920701E022685205002A07DB012604
:1014D00078E02268920302D422685203F5E7E268BA
:1014E00091FAA1F122F073036A68B1FA81F1521EF8
:1014F0008A4013430343E360206820F0806020604B
:10150000FEF7C0FF804605E0FEF7BCFFA0EB080039
:1015100002284ED820680001F6D44FF4FE4017B3DD
:1015200090FAA0F0A968012FB0FA80F04FF0FF32D6
:1015300001FA00F12AD0686902EB50004FF0C06256
:1015400092FAA2F2B2FA82F2904001432069204A54
:10155000104001432161206840F080602060FEF768
:1015600091FF074627E090FAA0F0A968B0FA80F052
:101570008140E8684FF4003292FAA2F20009B2FA10
:1015800082F2904001432069124AE1E7286902EBA8
:1015900050004FF4C00292FAA2F2B2FA82F29040E6
:1015A000014320690C4AD3E7FEF76CFFC01B0228F9
:1015B00001D9032606E020680001F5D52069A96954
:1015C000084320613046BDE8F08100000010024071
:1015D000FF80FFF9FF80FDFFFF809FFF2DE9F041B5
:1015E0004A4C06468846E0680025810730684FF07F
:1015F000700312D0E16801F0030181421BD1D0B128
:10160000E06893FAA3F100F07000B1FA81F1C840EC
:101610007168401C88420ED122E0012804D00228C3
:1016200005D0032807D108E02168890701E0216877
:101630004905002907DB012564E02168890302D4FC
:1016400021684903F5E7E16893FAA3F321F07302F7
:101650007168B3FA83F3491E99400A430243E2607A
:10166000206820F080502060FEF70CFF074604E061
:10167000FEF708FFC01B02283BD820688000F7D483
:101680004FF4FE4191FAA1F1B068B8F1000FB1FA40
:1016900081F100FA01F019D031694FF0FF3202EB0D
:1016A00051014FF0C06292FAA2F2B2FA82F2914076
:1016B00008436169164A114008436061206840F0A0
:1016C00080502060FEF7DEFE074614E0F1684FF41C
:1016D000003292FAA2F20909B2FA82F2914008436A
:1016E00061690C4AE7E700BFFEF7CCFEC01B022889
:1016F00001D9032506E020688000F5D5606971698D
:10170000084360612846BDE8F081000000100240F7
:10171000FF80FFF9FF80FDFFF8B51C4D0646002451
:10172000A86DC00002D5FEF785FF0DE0A86D40F062
:101730008050A865A86D00F080500090FEF77AFFF9
:10174000A96D21F08051A965B0F5007F04D0802EED
:1017500007D94FF003040AE0802E08D9A02E01D843
:1017600004E001D1022402E0702E00D101240848D7
:10177000016821F0070121430160006800F00700C3
:10178000A04201D00120F8BD0020F8BD00100240A9
:101790000020024010B5FEF77BFEBDE81040FFF7C9
:1017A000FEBC30B5B9B00224E0012590102022948F
:1017B00026902C940120CDE92D400A202F9007205F
:1017C000CDE9300422A83294FFF788FA00B1FEE791
:1017D0000F20002533900320CDE9340536950421F0
:1017E00033A83795FFF706F900B1FEE70F95684675
:1017F0000094FEF727FF00B1FEE74FF40070FEF7FC
:10180000E7FE00B1FEE7FFF7B5F94FF47A71B0FBE0
:10181000F1F0FFF7B0FC0420FFF7A0FC0022114616
:10182000501EFEF7A3FE39B030BD00000D48016820
:1018300041F4700101600C48016841F00101016050
:10184000002181600268094B1A4002608214C26064
:10185000026822F48022026081610249C00380395B
:101860000860704788ED00E000100240FFFFF6EAD4
:1018700090F82410C90706D001684A68836A22F4E8
:1018800000321A434A6090F82410890706D501688F
:101890004A68C36A22F480321A434A6090F82410DE
:1018A000490706D501684A68036B22F480221A436F
:1018B0004A6090F82410090706D501684A68436B0E
:1018C00022F400421A434A6090F82410C90606D553
:1018D00001688A68836B22F480521A438A6090F808
:1018E0002410890606D501688A68C36B22F4005269
:1018F0001A438A6090F82410490611D501684A6895
:10190000036C22F480121A434A60016CB1F5801F07
:1019100006D101684A68436C22F4C0021A434A6047
:1019200090F82410090606D501684A68806C22F4F4
:10193000002202434A607047F8B500260446C66696
:10194000FEF7A0FD0546206800686FF07E4700079F
:1019500008D52B4600224FF400112046009700F0D6
:1019600065F960B92068006840070AD52B46002257
:101970004FF480012046009700F058F908B1032089
:10198000F8BD202084F8690084F86A0084F8686053
:101990000020F8BD2DE9F041044601688068266901
:1019A000D4F81CC0304366691025002246EA0C06B4
:1019B0003043924B0E681746DFF844C206EA0C0625
:1019C00006430E6020684168E66821F440513143C7
:1019D00041602168A069994201D0266A30438E682F
:1019E00026F4306606438E60864E21688648B142F2
:1019F0000DD1D0F8880010F0030006D001285AD08D
:101A0000022856D0032859D157E0012556E07F4ED1
:101A1000B1420BD1D0F8880010F00C0047D0042858
:101A200049D0082845D00C2848D146E0784EB1422C
:101A30000BD1D0F8880010F0300038D010283AD000
:101A4000202836D0302839D137E0724EB1420BD140
:101A5000D0F8880010F0C00029D040282BD0802872
:101A600027D0C0282AD128E06B4EB1420ED1D0F841
:101A7000880010F440701AD0B0F5807F1BD0B0F50C
:101A8000007F16D0B0F5407F18D116E0994215D1ED
:101A9000D0F8880010F4406009D0B0F5806F0AD00B
:101AA000B0F5006F05D0B0F5406F07D105E0002517
:101AB00004E0022502E0042500E00825574E4FF41B
:101AC0000040994244D135B1022D07D0042D07D0F2
:101AD000082D10D107E0FFF753F803E0304602E08D
:101AE000FFF77EF898B3626802EB4201814202D8A8
:101AF000B0EB023F01D901277CE000266DB1022D39
:101B00000ED0042D13D0082D1AD00127444AA0F579
:101B100040719142EFD821686BE0FFF731F808E09F
:101B2000500840490FE00023FEF74AFBEEE7FFF7BD
:101B300057F86268010E0302500818187141F2E765
:101B400050084FF40001401846F10001EBE751E066
:101B5000E369834227D1092D1ED2DFE805F005088D
:101B6000131D161D1D1D1900FFF70AF801E0FFF7F0
:101B70001FF84100D4F8040001EB5001B1FBF0F074
:101B800082B20AE028496068F6E7FFF729F8F0E733
:101B90004FF480316068EFE7012722F00F00C2F3B5
:101BA00042010843B7E7092DA5D2DFE805F0060991
:101BB0000C05120505051C009DE7FEF7E1FF0AE094
:101BC000FEF7F6FF07E0606806EB5002B2FBF0F0AC
:101BD0000EE0FFF705F80146606801EB5001B1FB2C
:101BE000F0F080B297E7626800EB5200B0FBF2F0D1
:101BF00080B2C8603846BDE8F08100000080004037
:101C0000F369FFEF0038014000100240004400403B
:101C100000480040004C0040005000400024F40008
:101C2000FFFC0F00000024F40048E8012DE9F0411A
:101C3000984617460E460446069D1DE0681C1BD0BC
:101C40002DB1FEF71FFCA0EB0800A84214D92068B4
:101C5000016821F4D07101602068816821F00101E0
:101C60008160202084F8690084F86A00002084F8EC
:101C700068000320BDE8F0812068C06936EA0000F2
:101C800004D00020B842D9D00020F3E70120F9E7C2
:101C900002E008C8121F08C1002AFAD17047704735
:101CA000002001E001C1121F002AFBD17047000093
:101CB000FEF7F6FBFFF775FDFFF734FBFFF7AAFB16
:101CC000094E4FF47A744FF0904507492346327815
:101CD000491C0648FFF7CCFA20212846FEF7C9FB2D
:101CE0002046FEF7D5FAF0E700000020140000209F
:101CF00000000000000000000102030406070809BC
:101D0000A0860100400D0300801A060000350C007B
:101D100040420F0080841E0000093D0000127A003E
:101D20000024F40000366E010048E801006CDC027B
:101D30000000000001020304581D000800000020FC
:101D400014000000901C00086C1D00081400002006
:101D500074040000A01C00080A010000000000003C
:0C1D6000000000000000000000093D0031
:040000050800018965
:00000001FF
