:020000040800F2
:10000000480500209D010008AF0E0008AB0E000857
:10001000AD0E0008E50100087110000800000000A6
:10002000000000000000000000000000510F000868
:10003000E701000800000000D10E0008530F00087F
:10004000B7010008B7010008B7010008B7010008B0
:10005000B7010008B7010008B7010008B7010008A0
:10006000B7010008B7010008B7010008B701000890
:10007000B7010008B7010008B7010008B701000880
:10008000B7010008B7010008B7010008B701000870
:10009000B7010008B7010008B7010008B701000860
:1000A000B7010008B7010008B7010008B701000850
:1000B000B7010008B7010008B7010008B701000840
:1000C000B7010008B7010008B7010008B701000830
:1000D000B701000845100008B7010008B701000883
:1000E000B7010008B7010008B7010008B701000810
:1000F000B7010008B7010008B7010008B701000800
:10010000B7010008B7010008B7010008B7010008EF
:10011000B7010008B7010008B7010008B7010008DF
:10012000B7010008B7010008B7010008B7010008CF
:10013000B7010008B7010008B7010008B7010008BF
:10014000B7010008B7010008B7010008B7010008AF
:10015000B7010008B7010008B7010008B70100089F
:10016000B7010008B7010008B7010008B70100088F
:10017000B7010008B7010008B7010008000000003F
:10018000B7010008B7010008DFF80CD000F018F83C
:1001900000480047911000084805002006488047A5
:1001A00006480047FEE7FEE7FEE7FEE7FEE7FEE75C
:1001B000FEE7FEE7FEE7FEE7590F000889010008A9
:1001C000064C074D06E0E06840F0010394E80700A4
:1001D00098471034AC42F6D3FFF7DAFF88110008D5
:1001E000A8110008FEE7704701B50098411E009174
:1001F000FBD208BD10B590F825100024022903D0C9
:100200000421C163012418E001680A6822F00E028B
:100210000A6001680A6822F001020A6090F844202E
:10022000036C012101FA02F25A6080F825100021C6
:1002300080F82410816B01B18847204610BD000072
:100240002DE9F84FDFF898B100234FF0010C4FF083
:10025000030A4FF00F090BF1040EB9E00CFA03F496
:10026000224070D04D68022D01D0122D0ED1DD0834
:1002700000EB8508D8F820505E07F70E09FA07F65C
:10028000B5430E69BE402E43C8F8206007685E0083
:1002900091F804800AFA06F508F00308AF4308FA5B
:1002A00006F848EA0708C0F800804F68012F05D01B
:1002B000022F03D0112F01D0122F13D1D0F80880B4
:1002C000CF6828EA0508B74047EA08078760D0F8F2
:1002D00004800F7928EA0408C7F300179F4047EA13
:1002E00008074760D1F804806FEA0807BF0706D106
:1002F000C76AA743C8F3C0049C403C43C462C468B7
:10030000AC438D68B5402543C5604C68E4005ED5BC
:10031000344C256E45F001052566246E23F0030557
:1003200004F001040094304C2E19B4689D072F0F7F
:1003300009FA07F5AC43B0F1904F05D02B4DA84218
:1003400004D101251CE042E0002519E0284DA84217
:1003500001D1022514E0274DA84201D103250FE069
:10036000254DA84201D104250AE0244DA84201D11F
:10037000052505E0224DA84201D1062500E007250C
:10038000BD402543B560DBF800405D464E689443B0
:10039000F60300D514432C60DEF8004075464E6825
:1003A0009443B60300D514432C600D4D08352C68DA
:1003B0004E689443F60200D514432C60084D0C356A
:1003C0002C684E689443B60200D514432C605B1C25
:1003D0000A6832FA03F57FF441AF00F013B8000069
:1003E00000040140001002400000014000040048E9
:1003F00000080048000C00480010004800140048A5
:100400000018004818BCBDE8E08F0AB18161704750
:1004100081627047014800687047000004000020B6
:1004200002480168491C0160704700000400002078
:10043000074810B5016841F480710160052000F0A3
:100440003FF8002000F006F800F018F8002010BD7A
:100450000020024010B5044607484FF47A71006846
:10046000B0FBF1F000F0C4FB00222146501E00F06A
:1004700007F8002010BD00000000002070470000B9
:10048000F0B40E4B1B680C46C3F30223C3F10705FF
:10049000042D00D90425191D072901D2002300E0ED
:1004A000DB1E012606FA05F1491E214099409E40B7
:1004B000761E16403143F0BC00F0FABC0CED00E0B3
:1004C000064900F0070208684FF6FF03184040EAAB
:1004D0000220034A10430860704700000CED00E062
:1004E0000000FA050248006800F4C0607047000090
:1004F000007000402DE9F047DFF8688105460E46A0
:10050000D8F8000000F00700B0420CD2D8F8001074
:1005100021F007013143C8F80010D8F8000000F0BE
:100520000700B04274D128784F4C800705D5A068E9
:10053000A96820F0F0000843A0602878C00756D0D2
:100540006868022818D0032819D02168D0B149055D
:1005500000295DDAA16821F003010143A160FFF7E2
:1005600059FF6968074641F28830022912D00329F1
:100570001ED0814649B335E021688903E8E7216848
:100580008901E5E78907E3E7FFF744FFC11B494518
:1005900001D924E08146A068C0F381000228F3D18C
:1005A00025E000BFFFF736FFC11B494501D916E022
:1005B0008146A068C0F381000328F3D117E000BF93
:1005C000FFF728FFC11B494509D8A06810F00C0FA0
:1005D000F6D10CE0FFF71EFFC11B494502D90320ED
:1005E000BDE8F087A068C0F381000128F2D1D8F8F7
:1005F0000010404601F00701B1420BD9016821F01B
:10060000070131430160006800F00700B04201D0EB
:100610000120E5E72878400705D5A068E96820F4BF
:10062000E0600843A0602878000706D5A068296923
:1006300020F4605040EAC100A06000F01BF8A168FF
:10064000F02292FAA2F201F0F001B2FA82F2D14065
:10065000064A515CC840064908600020FFF7FAFED0
:100660000020BDE7002002400010024048110008B1
:100670000000002070B53B49002318468A683A4CB8
:1006800012F00C0F4FEA640514D08A68C2F381029D
:10069000032A04D1CA6802F00302012A0AD08A6838
:1006A000C2F38102012A21D08A68C2F38102022AA0
:1006B0001ED01EE00A68120706D4D1F894204FF429
:1006C000706302F4706203E00A68F02302F0F00243
:1006D00093FAA3F3B3FA83F3DA40244B53F82230AE
:1006E0008A6812F00C0F04D1184602E0204600E0A0
:1006F00028468A68C2F38102032A31D1C868CA68D1
:1007000000F00300702696FAA6F602F07002B6FA20
:1007100086F6F240521C4FF4FE46022804D003280D
:1007200005D0B3FBF2F004E0B4FBF2F001E0B5FB5E
:10073000F2F0CA6896FAA6F302F4FE42B3FA83F323
:10074000DA40C96850434FF0C06292FAA2F201F059
:10075000C061B2FA82F2D140491C4900B0FBF1F00D
:1007600070BD0000001002400024F4005811000881
:100770002DE9F84304460078FE4DC00663D5A8680D
:1007800010F00C0F0AD0A0690028286878D040F03B
:1007900001002860FFF73EFE06465AE02868800701
:1007A00002D5A06900286AD0216A28684FF0F006B7
:1007B000000703D5286800F0F00003E0D5F89400A6
:1007C00006EA1010814216D9084600F083FB002883
:1007D00055D1286840F0080028602868216A20F078
:1007E000F000084328606868E16920F47F4040EA2F
:1007F0000120686015E0286840F00800286028683B
:10080000216A20F0F000084328606868E16920F45C
:100810007F4040EA01206860206A00F05BFB00280E
:10082000D6D1FFF727FFA96896FAA6F201F0F001EA
:10083000B2FA82F2D140D04A515CC840CF49086038
:100840000020FFF707FE2BE0FFF7E4FD801B0228E6
:100850007ED828688007F7D5286840F0080028600F
:100860002868216A20F0F000084328606868E16980
:1008700020F47F4040EA0120686011E000E0B7E02A
:1008800020F001002860FFF7C5FD064605E000BF27
:10089000FFF7C0FD801B0228DAD828688007F7D44C
:1008A0002078C00748D0A868C0F3810002281DD076
:1008B000A868C0F38100032803D1E868C04380071B
:1008C00014D06068B0F5803F17D0B0F5A02F28682D
:1008D00017D020F480302860286820F48020286019
:1008E0006068E0B1FFF796FD064614E028688003D3
:1008F00022D5606800287BD01EE0286840F4803054
:10090000EDE740F480202860F7E700BFFFF782FDA5
:10091000801B64289CD828688003F7D50CE0FFF77B
:1009200079FD064605E000BFFFF774FD801B6428D3
:100930008ED828688003F7D42078800748D5A86827
:100940004FF0F857C0F38100012816D0A86800E0E6
:10095000AFE0C0F38100032804D1E86800F0030091
:1009600002280AD0E0680028286821D040F480706E
:100970002860FFF74FFD06460BE0286840050BD5C1
:10098000E0680028B7D007E0FFF744FD801B02288D
:10099000C0D828684005F7D5686897FAA7F221699A
:1009A000B2FA82F220F0F8509140084368600FE0FC
:1009B00020F480702860FFF72DFD064605E000BF9B
:1009C000FFF728FD801B022873D828684005F7D45C
:1009D0002078000729D560690028D5F8940013D045
:1009E00040F00100C5F89400FFF714FD064606E04C
:1009F000FBE000BFFFF70EFD801B022859D8D5F899
:100A000094008007F6D510E020F00100C5F89400AE
:100A1000FFF700FD064604E0FFF7FCFC801B022800
:100A200047D8D5F894008007F6D42078400763D5DE
:100A3000A86D0026C00008D4A86D40F08050A865BD
:100A4000A86D012600F0805000904D480168C9054E
:100A500011D40168804641F480710160FFF7DAFC2F
:100A6000074604E0FFF7D6FCC01B022821D8D8F8BF
:100A70000000C005F6D5A068012815D00528D5F8D6
:100A8000900017D020F00100C5F89000D5F8900034
:100A900020F00400C5F89000A06841F28838C8B181
:100AA000FFF7B8FC074610E0D5F8900040F00100D1
:100AB000F0E75EE040F00400C5F89000F4E700BF06
:100AC000FFF7A8FCC11B414553D8D5F8900080071B
:100AD000F6D50CE0FFF79EFC074604E0FFF79AFC12
:100AE000C11B414579D8D5F890008007F6D41EB1D6
:100AF000A86D20F08050A865A06AC8B3A968C1F3AA
:100B00008101032972D00228286820F080702860B3
:100B100011D02868000106D42868800003D4E86852
:100B200020F00300E860E86816490840E860FFF735
:100B300071FC044654E0FFF76DFC064605E000BF7B
:100B4000FFF768FC801B022847D828688001F7D48B
:100B5000206BE16A000110380843616BA26B090247
:100B6000120941EA42410843A18F074A49080DE0B2
:100B700039E032E000100240481100080000002077
:100B800000700040FFFFEEFE0000E0FF02EB41516D
:100B9000084394F840104908120102EB41610843F0
:100BA000E860286840F080702860E86840F0807055
:100BB000E860FFF72FFC044605E000BFFFF72AFCC2
:100BC000001B022809D828688001F7D50BE000BF78
:100BD000FFF720FC001B022802D90320BDE8F883A0
:100BE00028688001F4D40020F8E7FFE70120F5E74A
:100BF00010B5401EB0F1807F01D3012010BD4FF031
:100C0000E02460610F21601700F052F90020A0611C
:100C100007202061002010BD7047704710F8691F41
:100C2000407808437047000070B501680446C86901
:100C30000A6810F00F0508D1830606D5930604D57F
:100C40002046BDE8704000F0C1B98B68002D66D029
:100C500003F0010502F490762E4360D0C60707D05A
:100C6000D60505D501260E62E16E41F00101E1666F
:100C7000810708D5D90706D0266802213162E16EC6
:100C800041F00401E166410708D5D90706D0236881
:100C900004211962E16E41F00201E16601070AD503
:100CA00002F02001294306D0236808211962E16E71
:100CB00041F00801E166E16E002929D0800604D5E3
:100CC000900602D5204600F081F9E06E000703D4BB
:100CD0002068806840061CD5204600F069F920682D
:100CE0008168490611D5816821F040018160606EFC
:100CF00058B133498163606EFFF77CFA002807D052
:100D0000606E816BBDE8704008472046FFF785FFA5
:100D100070BD2046FFF781FF0020E06670BD8D6842
:100D2000C6024FF020030CD56D020AD5D803086225
:100D300084F8693084F86A302046BDE87040FFF7D7
:100D40006BBF05062ED515062CD594F86900212811
:100D5000E4D1B4F8520020B1A068B0F5805F0AD0A9
:100D60000BE0086820F0800008602068016841F00E
:100D70004001016070BD206958B1E06C411CE16424
:100D800021680078A1F8280034F8520F401E208016
:100D900070BDE06C0088C0F308000885E06C801C22
:100DA000E064F1E74006F3D55006F1D5086820F07D
:100DB0004000086084F86930204600F075F870BD86
:100DC0009D0F000890F86A30202B3FD1B9B1B2B125
:100DD00090F86830012B39D0012380F868304165E4
:100DE000A0F85820A0F85A208168FF22B1F5805F52
:100DF00007D07F2351B1B1F1805F0CD010E001200A
:100E00007047016921B940F2FF1107E00169D1B9CA
:100E1000A0F85C2004E00169A9B13F21A0F85C10B2
:100E20000021C166222280F86A2080F868100168DB
:100E30008A6842F001028A600068016841F490719A
:100E4000016000207047A0F85C30E9E7022070479D
:100E500030B50068114988420CD1114841880A0414
:100E600008D402464C0412784FF0000306D50A2A33
:100E700001D0438030BD41F400410DE00D2A09D07E
:100E8000C1F30D04074D491C89B22A554180C72979
:100E9000EFD830BD41F48041418030BD0038014081
:100EA000080000200C0000207047FEE7FEE77047B6
:100EB0000907090E002806DA00F00F0000F1E02013
:100EC00080F8141D704700F1E02080F8001470478E
:100ED00070470000F8B51C4D06460024A86DC00000
:100EE00002D5FFF7FFFA0DE0A86D40F08050A8652D
:100EF000A86D00F080500090FFF7F4FAA96D21F082
:100F00008051A965B0F5007F04D0802E07D94FF03D
:100F100003040AE0802E08D9A02E01D804E001D1F4
:100F2000022402E0702E00D101240848016821F05B
:100F3000070121430160006800F00700A04201D0D2
:100F40000120F8BD0020F8BD001002400020024042
:100F50007047FFF765BA00000D48016841F4700161
:100F600001600C48016841F00101016000218160CD
:100F70000268094B1A4002608214C260026822F4BF
:100F80008022026081610249C00380390860704795
:100F900088ED00E000100240FFFFF6EA10B5806A1D
:100FA0000021A0F85A10A0F85210FFF736FE10BD2D
:100FB00001680A6822F490720A6001688A6822F067
:100FC00001028A60202180F86A10704710B5B0F8DD
:100FD0005C2090F86A300168222B05D0088B40F025
:100FE00008000883022010BD898C8368B3F5805FF8
:100FF00001D103696BB11140426D531C43651170FF
:10100000B0F85A10491E0904090CA0F85A1007D06C
:1010100015E0436D11401980416D891C4165EFE772
:1010200001680A6822F490720A6001688A6822F0F6
:1010300001028A60202180F86A10FFF709FF002072
:1010400010BD000010B50848FFF7EEFD0648FFF799
:10105000E5FD2028FAD1012204490348FFF7B2FE3A
:101060000028F8D110BD0000D400002008000020A6
:10107000FEE702E008C8121F08C1002AFAD1704733
:101080007047002001E001C1121F002AFBD1704708
:101090009CB0FFF7CDF91020009006A9012460262E
:1010A000002581E870000220CDE90A041090282173
:1010B0000C940720CDE90D1004200F906846FFF72F
:1010C00057FB00B1FEE70F2016900327CDE91775F7
:1010D0001995042116A81A95FFF70CFA00B1FEE73E
:1010E0001748C16C41F00101C164C06C4FF09045DC
:1010F00000F001000090CDE91164CDE9134711A97A
:101100002846FFF79DF80F4C012220212846FFF7C3
:101110007CF9012240212846FFF777F92046FFF7A6
:1011200063F8002220212846FFF76FF900224021B2
:101130002846FFF76AF92046FFF756F8E4E7000073
:1011400000100240FFFF7F000000000000000000D0
:101150000102030406070809A0860100400D0300F0
:10116000801A060000350C0040420F0080841E00EB
:1011700000093D0000127A000024F40000366E01E0
:101180000048E801006CDC02A81100080000002003
:101190000C00000072100008B41100080C000020C0
:1011A0003C0500008210000800093D00000000001E
:0411B000000000003B
:040000050800018965
:00000001FF
