:020000040800F2
:1000000060090020890200088B230008792200087B
:100010008923000875080008C132000800000000AC
:10002000000000000000000000000000852800081B
:100030007708000800000000AD23000887280008AA
:10004000A3020008A3020008A30200087928000800
:10005000A3020008A302000879080008A302000810
:10006000A3020008A3020008A3020008A3020008DC
:10007000A3020008A3020008A3020008A3020008CC
:10008000A3020008A3020008A3020008A3020008BC
:10009000A3020008A3020008A3020008A3020008AC
:1000A000A3020008A3020008A3020008A30200089C
:1000B000A3020008A30200084D2C0008A3020008B8
:1000C000A3020008A3020008A3020008A30200087C
:1000D000A302000855320008A3020008A30200088A
:1000E0007F080008D1260008A3020008A302000828
:1000F000A3020008A3020008A3020008A30200084C
:10010000A3020008A3020008A3020008A30200083B
:10011000A3020008A3020008A3020008A30200082B
:10012000A3020008A3020008A3020008A30200081B
:10013000A3020008A3020008A3020008A30200080B
:10014000A3020008A3020008A3020008A3020008FB
:10015000A3020008A3020008A3020008A3020008EB
:10016000A3020008A3020008A3020008A3020008DB
:10017000A3020008A3020008A30200080000000078
:10018000A3020008A302000800F002F800F06DF8D6
:100190000AA090E8000C82448344AAF10107DA45E2
:1001A00001D100F062F8AFF2090EBAE80F0013F0C7
:1001B000010F18BFFB1A43F0010318473033010049
:1001C000503301000A444FF0000C10F8013B13F0CB
:1001D000070408BF10F8014B1D1108BF10F8015BA0
:1001E000641E05D010F8016B641E01F8016BF9D193
:1001F00013F0080F1EBF10F8014BAD1C0C1B09D1EA
:100200006D1E58BF01F801CBFAD505E014F8016B5B
:1002100001F8016B6D1EF9D59142D6D370470000ED
:100220000023002400250026103A28BF78C1FBD8FF
:10023000520728BF30C148BF0B607047642900F0E7
:100240001781752900F01481782900F04D81632908
:1002500000F0A482732900F0A982002070471FB526
:1002600004F0AEF81FBD10B510BD00F0D1FA114674
:10027000FFF7F5FF03F06CF800F0EFFA03B4FFF7B7
:10028000F2FF03BC03F024F80948804709480047FF
:10029000FEE7FEE7FEE7FEE7FEE7FEE7FEE7FEE736
:1002A000FEE7FEE704480549054A064B7047000093
:1002B0001D29000889010008600300206009002052
:1002C0006005002060050020704753EA020C00F032
:1002D00069802DE9F04B4FF00006002B1FBFB3FAE9
:1002E00083F503FA05F424FA05F65E4012BF1643BF
:1002F000B2FA82F502FA05F4C5F120051EBF22FA12
:1003000005FC44EA0C04203556EA044C4FEA144438
:1003100018BF641C4FF000084FF00009904271EBC9
:10032000030C39D3002919BFB1FA81F701FA07F696
:10033000B0FA80F700FA07F6C7F120071EBF20FACF
:1003400007FC46EA0C062037B6FBF4FCA7EB0507D2
:10035000103F07F01F0BCBF120060CFA0BFB2CFA19
:1003600006F644BFB3460026202FA4BF5E464FF0DA
:10037000000B5BEA060C08BF4FF0010B19EB0B09F1
:10038000ABFB027C48EB0608C01B06FB02CC0BFB58
:1003900003CC71EB0C01C1E70B46024641464846CF
:1003A000BDE8F08B13B54FF000004FF00001AFF344
:1003B0000080BDE81C4070470FB4044910B503AA83
:1003C000029800F0F7F910BC5DF814FB1000002053
:1003D00070B5044685690068C10601D5302600E085
:1003E0002026C00707D070BDD4E9012130469047D0
:1003F000206A401C20626D1EF6D570BD70B50446A3
:1004000085690078C00707D170BDD4E9012120209B
:100410009047206A401C20626D1EF6D570BD70B5F5
:100420000C460546012A05D02878800600D5EA69E1
:10043000002302E0012305E05B1C934202D2E05C52
:100440000028F9D1A869E618C01AA861286A1844DA
:1004500028622846FFF7BCFF04E0D5E9012114F823
:10046000010B9047B442F8D32846FFF7C7FF70BD91
:100470002DE9F0410646002410687529314616A57D
:1004800010D0AFF30080002802DA404213A507E045
:1004900031688A0701D512A502E0490704D511A5E4
:1004A000012401E0AFF3008000210A2206F12407B5
:1004B00009E0B0FBF2FCB0FBF2F302FB1C003030B1
:1004C00078541846491C0028F3D123462A46304662
:1004D000BDE8F04100F0FFB8000000002D00000072
:1004E0002B0000002000000070B504460D46214698
:1004F0001068AFF300802188090502D50F4A7A44BD
:1005000002E00E4A7A440E32002104F1240305E091
:1005100000F00F060009965D5E54491C0028F7D1D3
:1005200020780023000704D5702D02D009B10223E2
:1005300011322046BDE8704000F0CDB85A2E0100BF
:100540002DE9F05F894604464FF0000ADFF874B1E8
:10055000FB44C0F820A02046E1688847002874D0FA
:10056000252806D0D4E901219047206A401C20624A
:10057000F1E700265F462046E168884720280546C7
:1005800007DB312D05D2781910F8200C08B106438D
:10059000F1E7B00701D526F00406C4F81CA0002737
:1005A000C4F818A02A2D09D0284602F08AFE38B3D4
:1005B00004EB8708303DC8F8185019E059F8041BBF
:1005C000204604EB87029161E1688847012F0546C8
:1005D00018D1E069002820DA26F020061DE0D8F8BE
:1005E000180000EB800005EB40003038C8F8180018
:1005F0002046E1688847054602F063FE0028EED1F8
:10060000012F0AD02E2D08D12046E16888477F1C93
:100610000546022F46F02006C4DBA069002803DA55
:10062000404246F00106A061F00701D026F0100616
:100630006C2D0BD0682D09D04C2D39D06A2D35D0BA
:10064000742D35D07A2D33D016E038E0E1682F468E
:1006500020468847B842054609D16C2F26D04FF472
:100660008060E168064320468847054604E06C2F19
:100670001AD04FF4807006430DB3A5F1410019283C
:1006800002D8203546F400664A46294620462660B0
:100690004E46FFF7D3FD80B101280BD0F61D26F0A2
:1006A000070000F1080956E74020E4E78020D8E77A
:1006B0000020D6E706F104094DE7284652E7206AF4
:1006C00000F002B8302E010030BCBDE8C09F70477A
:1006D0007047704770472DE9F0470D46994692469E
:1006E000044600F124080168880604D5E06921F079
:1006F0001001216000E00120A84201DD471B00E05D
:100700000027A1697A1902EB0900081AA061207874
:10071000C00602D42046FFF75BFE002608E0D4E9BD
:1007200001211AF806009047206A401C761C2062BE
:100730004E45F4DB2078C0060AD52046FFF748FE78
:1007400006E0D4E9012130209047206A401C206255
:10075000381EA7F10107F4DC07E0D4E9012118F8FD
:1007600005009047206A401C2062281EA5F1010563
:10077000F3DC2046FFF742FE2078000602D5022077
:10078000BDE8F0870120FBE710B5436913B1AFF373
:10079000008001E0FFF743FE012010BD127800F158
:1007A00024010A7000224A700122EDE711684FF01F
:1007B000FF32E9E7074B70B50D467B4400F011F8B6
:1007C0000446284600F020F810B14FF0FF3070BD0D
:1007D000204670BD7B2B000001694A1C026108782D
:1007E000704700B58FB0CDE9013100210591054971
:1007F0007944CDE9031011466846FFF7A1FE0FB01A
:1008000000BD0000E5FFFFFF007B00F080007047A7
:10081000754600F02BF8AE4605006946534620F0B9
:100820000700854618B020B5FFF73CFDBDE8204025
:100830004FF000064FF000074FF000084FF0000B9C
:1008400021F00701AC46ACE8C009ACE8C009ACE84F
:10085000C009ACE8C0098D46704710B50446AFF337
:1008600000802046BDE81040FFF708BD00487047F3
:10087000FC020020FEE77047012000F05BB84FF457
:10088000005000F057B810B514460B460246491EFA
:10089000401E02F088F90023204602F0C3F95B1CD9
:1008A000102BF9DB10BD10B590F82510002402299B
:1008B00003D00421C163012418E001680A6822F012
:1008C0000E020A6001680A6822F001020A6090F8CC
:1008D0004420036C012101FA02F25A6080F82510CD
:1008E000002180F82410816B01B18847204610BD9B
:1008F00070B50546642002F0F7FC4FF480764FF0A7
:100900009044012D0DD071018D4210D1084800F0A6
:1009100002F900280BD131462046BDE8704000F0B6
:10092000FFB80121204600F0F6F80128F3D070BD91
:1009300000080048044910B50A68024202D0086065
:10094000FFF7D6FF10BD0000140401402DE9F84F59
:10095000DFF898B100234FF0010C4FF0030A4FF07D
:100960000F090BF1040EB9E00CFA03F4224070D029
:100970004D68022D01D0122D0ED1DD0800EB850847
:10098000D8F820505E07F70E09FA07F6B5430E694E
:10099000BE402E43C8F8206007685E0091F80480CE
:1009A0000AFA06F508F00308AF4308FA06F848EA21
:1009B0000708C0F800804F68012F05D0022F03D030
:1009C000112F01D0122F13D1D0F80880CF6828EA58
:1009D0000508B74047EA08078760D0F804800F7918
:1009E00028EA0408C7F300179F4047EA0807476052
:1009F000D1F804806FEA0807BF0706D1C76AA7438A
:100A0000C8F3C0049C403C43C462C468AC438D68D6
:100A1000B5402543C5604C68E4005ED5344C256E76
:100A200045F001052566246E23F0030504F001045A
:100A30000094304C2E19B4689D072F0F09FA07F562
:100A4000AC43B0F1904F05D02B4DA84204D1012505
:100A50001CE042E0002519E0284DA84201D1022502
:100A600014E0274DA84201D103250FE0254DA842EF
:100A700001D104250AE0244DA84201D1052505E055
:100A8000224DA84201D1062500E00725BD4025439F
:100A9000B560DBF800405D464E689443F60300D530
:100AA00014432C60DEF8004075464E689443B6034C
:100AB00000D514432C600D4D08352C684E689443C6
:100AC000F60200D514432C60084D0C352C684E6896
:100AD0009443B60200D514432C605B1C0A6832FABA
:100AE00003F57FF441AF00F013B8000000040140AB
:100AF00000100240000001400004004800080048C7
:100B0000000C00480010004800140048001800487D
:100B100018BCBDE8E08F0069084000D00120704794
:100B200042694A40426170470AB1816170478162FF
:100B30007047000001480068704700000400002072
:100B400002480168491C0160704700000400002051
:100B5000074810B5016841F480710160052000F07C
:100B600049F8002000F006F800F018F8002010BD49
:100B70000020024010B5044607484FF47A7100681F
:100B8000B0FBF1F001F077F900222146501E00F091
:100B900011F8002010BD000000000020704700F098
:100BA0001F02012191404009800000F1E020C0F8BF
:100BB00000117047F0B40E4B1B680C46C3F30223C0
:100BC000C3F10705042D00D90425191D072901D2F9
:100BD000002300E0DB1E012606FA05F1491E214034
:100BE00099409E40761E16403143F0BC01F0CEBBCA
:100BF0000CED00E0064900F0070208684FF6FF031D
:100C0000184040EA0220034A104308607047000081
:100C10000CED00E00000FA050248006800F4C06036
:100C200070470000007000400248016841F4807184
:100C300001607047007000402DE9F84F044600271E
:100C40000088E54D3E46010504F1200B1DD5606E80
:100C500078B1B0F5800F11D0B0F5000F04D0B0F529
:100C6000400F22D001270FE0E86840F48030E860B0
:100C70001BE00021201D01F09BFB03E000215846F2
:100C800001F04AFC070010D03E462088C00426D55B
:100C9000A06EC0B1B0F1807F1AD0B0F1007F0DD04E
:100CA000B0F1407F19D0012718E0D5F88800616EB7
:100CB00020F440000843C5F88800E6E7E86840F4FF
:100CC0008030E86009E00021201D01F071FB03E0A5
:100CD0000021584601F020FC0746F7B13E46206847
:100CE00080033AD5A86D4FF00008C00009D4A86D64
:100CF00040F08050A865A86D4FF0010800F08050CA
:100D00000090DFF8D8A2DAF8001041F48071CAF838
:100D10000010FFF70FFF814610E0D5F88800A16EA4
:100D200020F040700843C5F88800D8E7FFF702FFBD
:100D3000A0EB0900022801D9032705E0DAF800003A
:100D4000C005F3D5002F7CD04FEA0706B8F1000F9D
:100D500003D0A86D20F08050A8652078C00707D088
:100D6000D5F88800A16B20F003000843C5F888007F
:100D70002078800707D5D5F88800E16B20F00C00BB
:100D80000843C5F888002078400707D5D5F88800C3
:100D9000216C20F030000843C5F888002078000757
:100DA00007D5D5F88800616C20F0C0000843C5F86D
:100DB00088002078C00607D5D5F88800A16C20F4FB
:100DC00040700843C5F888002078800607D5D5F81C
:100DD0008800E16C20F440600843C5F88800208852
:100DE000800507D5D5F88800E16D20F44020084340
:100DF000C5F888002088400507D5D5F88800216E01
:100E000020F440100843C5F888002078400607D534
:100E1000D5F88800216D20F440500843C5F88800BB
:100E20002078000607D5D5F88800616D20F4404091
:100E30000843C5F888002088C00509D5D5F8880082
:100E400000E01CE0A16D20F440300843C5F88800A4
:100E500020884FF0006780044FF080684FD5D5F8A8
:100E60008800E16E20F040600843C5F88800E06E1D
:100E7000B8423CD1E86840F48010E8603FE0D5F823
:100E8000900010F4407015D0D4F88410814211D035
:100E9000D5F89000D5F8901020F4407041F48031DE
:100EA000C5F89010D5F8901021F48031C5F8901055
:100EB000C5F89000C00710D0FFF73CFE074641F28E
:100EC000883906E0FFF736FEC11B494501D90326E4
:100ED0003CE7D5F890008007F4D5D5F89000D4F819
:100EE000841020F440700843C5F890002EE7404578
:100EF00005D10121201D01F05BFA00B106462068F2
:100F0000000317D5D5F88800216F20F04060084312
:100F1000C5F88800206FB84204D1E86840F480101A
:100F2000E86007E0404505D10121201D01F040FAAD
:100F300000B106462068400317D5D5F88800616FD8
:100F400020F040600843C5F88800606FB84204D1C3
:100F5000E86840F48010E86007E0404505D10121D1
:100F6000201D01F025FA00B10646208840041AD55C
:100F7000D5F88800A16F20F040500843C5F88800DC
:100F8000A06FB0F1805F03D0B0F1005F05D00AE040
:100F90000221201D01F00CFA03E00221584601F065
:100FA000BBFA00B106462088000407D5D5F88800B2
:100FB000E16F20F080400843C5F888002068C00336
:100FC00007D555F8880FD4F8801020F0004008436A
:100FD0002860304600F004B8001002400070004065
:100FE00018BCBDE8E08F00002DE9F047DFF868810C
:100FF00005460E46D8F8000000F00700B0420CD2BB
:10100000D8F8001021F007013143C8F80010D8F8D3
:10101000000000F00700B04274D128784F4C8007E0
:1010200005D5A068A96820F0F0000843A0602878E2
:10103000C00756D06868022818D0032819D0216844
:10104000D0B1490500295DDAA16821F0030101430F
:10105000A160FFF76FFD6968074641F288300229F9
:1010600012D003291ED0814649B335E02168890397
:10107000E8E721688901E5E78907E3E7FFF75AFD1B
:10108000C11B494501D924E08146A068C0F3810015
:101090000228F3D125E000BFFFF74CFDC11B4945F5
:1010A00001D916E08146A068C0F381000328F3D17E
:1010B00017E000BFFFF73EFDC11B494509D8A068F6
:1010C00010F00C0FF6D10CE0FFF734FDC11B4945C1
:1010D00002D90320BDE8F087A068C0F38100012891
:1010E000F2D1D8F80010404601F00701B1420BD907
:1010F000016821F0070131430160006800F007003A
:10110000B04201D00120E5E72878400705D5A06866
:10111000E96820F4E0600843A0602878000706D55D
:10112000A068296920F4605040EAC100A06000F086
:101130004BF8A168F02292FAA2F201F0F001B2FAA3
:1011400082F2D140064A515CC8400649086000203E
:10115000FFF710FD0020BDE7002002400010024014
:101160001433010800000020084809490068896814
:101170004FF4E06292FAA2F201F4E061B2FA82F274
:10118000D140044A515CC840704700000000002074
:101190000010024054330108084809490068896872
:1011A0004FF4605292FAA2F201F46051B2FA82F264
:1011B000D140044A515CC840704700000000002044
:1011C000001002405433010870B53B490023184613
:1011D0008A683A4C12F00C0F4FEA640514D08A6802
:1011E000C2F38102032A04D1CA6802F00302012A71
:1011F0000AD08A68C2F38102012A21D08A68C2F328
:101200008102022A1ED01EE00A68120706D4D1F815
:1012100094204FF4706302F4706203E00A68F023D4
:1012200002F0F00293FAA3F3B3FA83F3DA40244B0B
:1012300053F822308A6812F00C0F04D1184602E0ED
:10124000204600E028468A68C2F38102032A31D191
:10125000C868CA6800F00300702696FAA6F602F085
:101260007002B6FA86F6F240521C4FF4FE4602288F
:1012700004D0032805D0B3FBF2F004E0B4FBF2F095
:1012800001E0B5FBF2F0CA6896FAA6F302F4FE425A
:10129000B3FA83F3DA40C96850434FF0C06292FA60
:1012A000A2F201F0C061B2FA82F2D140491C4900B9
:1012B000B0FBF1F070BD0000001002400024F4000B
:1012C000243301082DE9F84304460078FE4DC0069A
:1012D00063D5A86810F00C0F0AD0A0690028286810
:1012E00078D040F001002860FFF724FC06465AE061
:1012F0002868800702D5A06900286AD0216A28687A
:101300004FF0F006000703D5286800F0F00003E076
:10131000D5F8940006EA1010814216D9084601F06B
:1013200099F9002855D1286840F0080028602868FD
:10133000216A20F0F000084328606868E16920F421
:101340007F4040EA0120686015E0286840F008000E
:1013500028602868216A20F0F00008432860686847
:10136000E16920F47F4040EA01206860206A01F0D2
:1013700071F90028D6D1FFF727FFA96896FAA6F2DF
:1013800001F0F001B2FA82F2D140D04A515CC8407B
:10139000CF4908600020FFF7EDFB2BE0FFF7CAFB09
:1013A000801B02287ED828688007F7D5286840F07F
:1013B000080028602868216A20F0F00008432860AF
:1013C0006868E16920F47F4040EA0120686011E02C
:1013D00000E0B7E020F001002860FFF7ABFB064615
:1013E00005E000BFFFF7A6FB801B0228DAD82868BB
:1013F0008007F7D42078C00748D0A868C0F38100E0
:1014000002281DD0A868C0F38100032803D1E86832
:10141000C043800714D06068B0F5803F17D0B0F5A6
:10142000A02F286817D020F480302860286820F486
:10143000802028606068E0B1FFF77CFB064614E07E
:101440002868800322D5606800287BD01EE02868C9
:1014500040F48030EDE740F480202860F7E700BFDB
:10146000FFF768FB801B64289CD828688003F7D5A9
:101470000CE0FFF75FFB064605E000BFFFF75AFBF5
:10148000801B64288ED828688003F7D420788007D2
:1014900048D5A8684FF0F857C0F38100012816D04E
:1014A000A86800E0AFE0C0F38100032804D1E86839
:1014B00000F0030002280AD0E0680028286821D044
:1014C00040F480702860FFF735FB06460BE0286883
:1014D00040050BD5E0680028B7D007E0FFF72AFBEE
:1014E000801B0228C0D828684005F7D5686897FA9D
:1014F000A7F22169B2FA82F220F0F8509140084335
:1015000068600FE020F480702860FFF713FB064648
:1015100005E000BFFFF70EFB801B022873D8286888
:101520004005F7D42078000729D560690028D5F850
:10153000940013D040F00100C5F89400FFF7FAFAC8
:10154000064606E0FBE000BFFFF7F4FA801B022826
:1015500059D8D5F894008007F6D510E020F00100A6
:10156000C5F89400FFF7E6FA064604E0FFF7E2FA52
:10157000801B022847D8D5F894008007F6D420783D
:10158000400763D5A86D0026C00008D4A86D40F0C0
:101590008050A865A86D012600F0805000904D484D
:1015A0000168C90511D40168804641F48071016069
:1015B000FFF7C0FA074604E0FFF7BCFAC01B022899
:1015C00021D8D8F80000C005F6D5A068012815D0AC
:1015D0000528D5F8900017D020F00100C5F890003C
:1015E000D5F8900020F00400C5F89000A06841F202
:1015F0008838C8B1FFF79EFA074610E0D5F890008A
:1016000040F00100F0E75EE040F00400C5F8900013
:10161000F4E700BFFFF78EFAC11B414553D8D5F858
:1016200090008007F6D50CE0FFF784FA074604E047
:10163000FFF780FAC11B414579D8D5F890008007A3
:10164000F6D41EB1A86D20F08050A865A06AC8B37A
:10165000A968C1F38101032972D00228286820F00B
:101660008070286011D02868000106D428688000A6
:1016700003D4E86820F00300E860E86816490840F1
:10168000E860FFF757FA044654E0FFF753FA0646BE
:1016900005E000BFFFF74EFA801B022847D82868F4
:1016A0008001F7D4206BE16A000110380843616BB8
:1016B000A26B0902120941EA42410843A18F074A7D
:1016C00049080DE039E032E000100240143301080F
:1016D0000000002000700040FFFFEEFE0000E0FF71
:1016E00002EB4151084394F840104908120102EB03
:1016F00041610843E860286840F080702860E8682D
:1017000040F08070E860FFF715FA044605E000BF7E
:10171000FFF710FA001B022809D828688001F7D5C6
:101720000BE000BFFFF706FA001B022802D90320D6
:10173000BDE8F88328688001F4D40020F8E7FFE7CB
:101740000120F5E770470068503050F821007047DD
:101750000068503040F82120704700002DE9F74F15
:10176000044690F820008B4601281CD04FF0010859
:1017700084F82080022084F821002168CA20486271
:10178000206853214162206880684FF000054005C1
:101790004FF0FF064FF0030A4FF47A790FD5FFF7A9
:1017A000C9F9074607E0022000F050B8FFF7C2F978
:1017B000C01B484511D82068C0684007F6D420688F
:1017C000816821F480618160FFF7B4F907460CE07D
:1017D000FFF7B0F9C01B484507D92068466284F876
:1017E00021A084F820500320DEE72068C06840076D
:1017F000EED52168C1F814B02068816821F0070196
:10180000816020688168029A114381600E480168F6
:1018100041F4801101600C480830016841F48011E6
:1018200001602068816841F480418160206881689E
:1018300041F4806181602068466284F8218084F8E8
:1018400020500020B0E70000000401401EBCBDE8AD
:10185000E08F4FF480714FF09040FFF761B90000C6
:1018600010B50B4904464FF4801008602068C16829
:10187000490508D5C16801F0800161F49061C1603B
:101880002046FFF7E6FF012084F8210010BD00008C
:101890001404014001A0FEF78FBD0000414C4152ED
:1018A0004D2041210D0A000010B51B4904464FF49C
:1018B000802008601EE08868C0040BD5C868C00599
:1018C00008D5C86800F0800060F4C070C860204689
:1018D000FFF7E0FF2068816889040BD5C16889059E
:1018E00008D5C16801F0800161F42071C160204613
:1018F000FFF728FF21688868C00402D5C868C005C2
:10190000D9D48868800402D5C8688005D3D4012062
:1019100084F8210010BD00001404014010B50068D7
:101920000B4641680D480140080CD870C1F30424EF
:101930005C7001F03F049C70C1F34231197052B9E0
:1019400000F0CCFED870587800F0C8FE5870987837
:1019500000F0C4FE9870002010BD00003FFFFF00A3
:1019600010B50B460168896A596001680969C1F3BD
:101970000E019960006801680E480140C1F30540FE
:101980001870C1F306245C7001F07F049C70402441
:1019900004EA1141D97052B900F0A0FE18705878CD
:1019A00000F09CFE5870987800F098FE9870002027
:1019B00010BD00007F7F7F0070B5040003D094F855
:1019C000210010B107E0012070BD002084F8200044
:1019D000204600F045F8022084F821002168CA2042
:1019E0004862216853204862204600F08BFEFF21A8
:1019F0000028206804D04162042084F82100E2E736
:101A00008268164B1A408260226890686368A569F4
:101A1000184323692B43184390602268E0681061E3
:101A200020680269238942EA034202612068C26891
:101A300022F08002C2602068C26C22F00302C264FD
:101A4000E269606902432068C36C1A43C26420687B
:101A50004162012084F82100002070BDBFFF8FFF8C
:101A600010B5124CB4B054F8580F40F080502060BC
:101A7000206800F080503390FFF7D6F804202290C1
:101A800000202C900120249022A8FFF71BFC4FF48B
:101A900000300090401221906846FFF7CDF8A06B0F
:101AA00040F40040A06334B010BD000000100240BC
:101AB0002DE9F05F044690F820000B46012849D03C
:101AC0004FF0010A84F820A0022084F82100206849
:101AD000002680684FEA4060DAB3002857DA1878A9
:101AE00000F0FCFD93F8200000F0F8FD98781978DC
:101AF000DA7840EA01405978090241EA0241084394
:101B000093F8201040EA0165D8695F680543586979
:101B10002168054398690743CA2048622168532019
:101B20004862586A4FF0FF08B0F5807F20684FF494
:101B30007A7B81682DD021F4007181602068C168B2
:101B400001F0800161F42071C160FEF7F3FF81466E
:101B500055E002E0022000F07BB8002800DBDE70D8
:101B6000187800F0C4FD0204587800F0C0FD42EA85
:101B70000022987800F0BBFD0243D87842EA004288
:101B800093F8200000F0B3FD42EA0065BCE7DE7088
:101B9000A8E721F4807181602068C16801F08001AC
:101BA00061F4C071C160FEF7C5FF814606E000BF69
:101BB000FEF7C0FFA0EB0900584517D82068C068A1
:101BC000C007F5D02068C561206847642068816837
:101BD00041F4807181602068816841F480511FE088
:101BE000FEF7A8FFA0EB0900584508D92168C1F805
:101BF0002480032084F8210084F82060ABE720686B
:101C0000C0688007ECD5206805622068876420687A
:101C1000816841F4007181602068816841F400515D
:101C200081600A48016841F480210160074808305A
:101C3000016841F4802101602168C1F8248084F8A2
:101C400021A084F82060002085E700000004014006
:101C500030BCBDE8C09F00002DE9F047044690F875
:101C600020000B46012826D04FF0010984F820906F
:101C7000022084F82100587802B300F02FFD9878F4
:101C800000F02CFD9878D97840EA01455878197809
:101C9000000240EA413005432168CA2048622168B9
:101CA00053204862204600F02DFD0026FF274FF00C
:101CB000040858BB19E00220BDE8F087C10603D52F
:101CC00000F0EF000A305870D87800F010FD0204E0
:101CD000587800F00CFD42EA0022987800F007FDE9
:101CE0000243187842EA4035D6E71048054020689C
:101CF00045602068C16821F08001C160206880686B
:101D000080060BD4204600F08FF838B12068476277
:101D100084F8218084F820600120CDE720684762A4
:101D200084F8219084F820600020C5E73FFFFF0081
:101D30002DE9F047044690F820000D46012812D006
:101D40004FF0010A84F820A0022084F821002068C6
:101D5000002680684FEA406042B100281ADA2878ED
:101D600000F0BCFC17E00220BDE8F087002800DB93
:101D7000EE70287800F0BBFC0204687800F0B7FC35
:101D800042EA0022A87800F0B2FC0243E87842EA76
:101D900000470AE0EE70A878297840EA01476878A1
:101DA000E978000240EA014007432168CA204862FE
:101DB000216853204862204600F0A4FC4FF0FF0841
:101DC0004FF00409E0B91748074020680760206811
:101DD000816821F480218160D5E9030108432168ED
:101DE0008A68104388602068C16821F08001C16062
:101DF0002068806880060CD4204600F015F840B1B9
:101E00002168C1F8248084F8219084F820600120A2
:101E1000AAE72168C1F8248084F821A084F8206012
:101E20000020A1E77F7F7F0070B504460068C1688D
:101E300021F0A001C160FEF77DFE05464FF47A76E1
:101E400007E000BFFEF776FE401BB04201D9032039
:101E500070BD2068C0688006F4D5002070BD4FF0CA
:101E6000E0210428086903D020F0040008617047CD
:101E700040F00400FAE710B5401EB0F1807F01D3B6
:101E8000012010BD4FF0E02460610F21601700F0C9
:101E90007DFA0020A06107202061002010BD10B550
:101EA000040003D094F8390010B107E0012010BD00
:101EB000002084F83800204600F00CF8022084F856
:101EC0003900211D206800F0DBFE012084F8390074
:101ED000002010BD70470168CA6842F00102CA6064
:101EE0000068016841F001010160002070477047FF
:101EF0007047000070B501680446C8690A6810F0B0
:101F00000F0508D1830606D5930604D52046BDE803
:101F1000704000F0E5BF8B68002D66D003F001052E
:101F200002F490762E4360D0C60707D0D60505D5BB
:101F300001260E62E16E41F00101E166810708D5DC
:101F4000D90706D0266802213162E16E41F0040112
:101F5000E166410708D5D90706D023680421196234
:101F6000E16E41F00201E16601070AD502F02001AD
:101F7000294306D0236808211962E16E41F0080167
:101F8000E166E16E002929D0800604D5900602D5CD
:101F9000204600F0A5FFE06E000703D420688068AB
:101FA00040061CD5204600F08DFF20688168490658
:101FB00011D5816821F040018160606E58B13349CC
:101FC0008163606EFEF76FFC002807D0606E816B46
:101FD000BDE8704008472046FFF78AFF70BD2046E5
:101FE000FFF786FF0020E06670BD8D68C6024FF0E7
:101FF00020030CD56D020AD5D803086284F8693035
:1020000084F86A302046BDE87040FFF770BF0506CF
:102010002ED515062CD594F869002128E4D1B4F802
:10202000520020B1A068B0F5805F0AD00BE00868CC
:1020300020F0800008602068016841F040010160E4
:1020400070BD206958B1E06C411CE16421680078E2
:10205000A1F8280034F8520F401E208070BDE06CBB
:102060000088C0F308000885E06C801CE064F1E79C
:102070004006F3D55006F1D5086820F0400008600E
:1020800084F86930204600F0F6F870BDB12E0008E3
:1020900010B5040003D094F8690010B107E00120E6
:1020A00010BD002084F86800204600F027F82420A6
:1020B00084F869002068016821F001010160204670
:1020C00000F04AFF0128EBD0606A10B1204600F012
:1020D0005DFE2068416821F490414160206881687C
:1020E00021F02A0181602068016841F0010101604E
:1020F0002046BDE8104000F0ADBE000030B50446FB
:1021000000681F4987B0884238D11E49C86C40F02A
:102110000100C864C86C00F001000590086E40F42E
:1021200080400866086E4FF0904500F480400590AE
:102130004815009002200121CDE9010103900720FC
:10214000049069462846FEF701FC4FF48060009039
:1021500069462846FEF7FAFB2068016821F0400135
:1021600001602068016841F0200101602520FEF730
:1021700016FD032211462520FEF71CFD07B030BDD9
:1021800000380140001002402DE9F84F044690F855
:102190006A009A4616460D46202866D1EDB1E6B192
:1021A00094F86800012860D0012084F868000027B6
:1021B000E766222084F86A004C34FEF7BBFCA68157
:1021C0008146E68154F8440C4FF48058FF214C3C82
:1021D000404508D1206918B10DE0012000F047B852
:1021E00040F2FF100DE07F2218B1B0F1805F05D002
:1021F00009E0206950B9A4F85C1004E0206928B116
:102200003F20A4F85C00B4F85C601DE0A4F85C20FA
:10221000F9E700BFB4F85A00401EA4F85A004B4634
:10222000002220212046CDF800A000F0E1FF08B1F7
:102230000320D3E7A068404501D1206978B1206828
:10224000808C304005F8010BB4F85A000028E1D129
:10225000202084F86A0084F868700020BEE72068B7
:10226000808C304025F8020BEEE70220B6E718BC60
:10227000BDE8E08F70477047FEE7000070B5154875
:1022800086B0C16C41F00101C164C16C01F0010173
:102290000591C16C41F00401C164C06C012400F0DF
:1022A0000400009405900326002502200396CDE942
:1022B000015069464FF09040FEF748FB6003CDE9BE
:1022C0000005CDE9024669460348FEF73FFB06B02C
:1022D00070BD0000001002400008004870B51D46A7
:1022E00014464B190219521E5B1E049E00F05BFC43
:1022F00000236C43241D09E006EB430016F813107D
:10230000407841EA002000F08DFC5B1C9C42F3DC2D
:1023100070BD00002DE9F041194886B0C16C41F054
:102320000101C164C16C01F001010591C16C41F072
:102330000801C164C06C4FF4807400F0080005907F
:102340000125022603278DE8F0004FF090486946EA
:102350004046FEF7FBFA04208DE8E100094D69468E
:102360002846FEF7F3FA002221464046FEF7DCFB42
:10237000002204212846FEF7D7FB06B0BDE8F08115
:1023800000100240000C0048FEE770470907090EE4
:10239000002806DA00F00F0000F1E02080F8141D9C
:1023A000704700F1E02080F800147047704700008B
:1023B0002DE9F041544C05460F46E068002682079F
:1023C00028684FF0700112D0E26802F003028242E6
:1023D0001BD1D0B1E06891FAA1F100F07000B1FA20
:1023E00081F1C8406968401C88420ED122E0012872
:1023F00004D0022805D0032807D108E022689207FC
:1024000001E022685205002A07DB012678E02268F5
:10241000920302D422685203F5E7E26891FAA1F12F
:1024200022F073036A68B1FA81F1521E8A401343A5
:102430000343E360206820F080602060FEF77AFBB1
:10244000804605E0FEF776FBA0EB080002284ED898
:1024500020680001F6D44FF4FE4017B390FAA0F0C4
:10246000A968012FB0FA80F04FF0FF3201FA00F1B5
:102470002AD0686902EB50004FF0C06292FAA2F2D3
:10248000B2FA82F2904001432069204A1040014391
:102490002161206840F080602060FEF74BFB07461A
:1024A00027E090FAA0F0A968B0FA80F08140E868CF
:1024B0004FF4003292FAA2F20009B2FA82F290408E
:1024C00001432069124AE1E7286902EB50004FF40A
:1024D000C00292FAA2F2B2FA82F29040014320695D
:1024E0000C4AD3E7FEF726FBC01B022801D90326BE
:1024F00006E020680001F5D52069A969084320613C
:102500003046BDE8F081000000100240FF80FFF976
:10251000FF80FDFFFF809FFF2DE9F0414A4C0646FA
:102520008846E0680025810730684FF0700312D0BC
:10253000E16801F0030181421BD1D0B1E06893FA58
:10254000A3F100F07000B1FA81F1C8407168401C3D
:1025500088420ED122E0012804D0022805D00328A9
:1025600007D108E02168890701E0216849050029B1
:1025700007DB012564E02168890302D4216849034F
:10258000F5E7E16893FAA3F321F073027168B3FAF7
:1025900083F3491E99400A430243E260206820F019
:1025A00080502060FEF7C6FA074604E0FEF7C2FA44
:1025B000C01B02283BD820688000F7D44FF4FE41AE
:1025C00091FAA1F1B068B8F1000FB1FA81F100FA07
:1025D00001F019D031694FF0FF3202EB51014FF099
:1025E000C06292FAA2F2B2FA82F2914008436169A3
:1025F000164A114008436061206840F08050206016
:10260000FEF798FA074614E0F1684FF4003292FAA8
:10261000A2F20909B2FA82F29140084361690C4AB8
:10262000E7E700BFFEF786FAC01B022801D90325A1
:1026300006E020688000F5D5606971690843606133
:102640002846BDE8F081000000100240FF80FFF93D
:10265000FF80FDFFF8B51C4D06460024A86DC000A4
:1026600002D5FEF7D9FA0DE0A86D40F08050A865BC
:10267000A86D00F080500090FEF7CEFAA96D21F011
:102680008051A965B0F5007F04D0802E07D94FF0A6
:1026900003040AE0802E08D9A02E01D804E001D15D
:1026A000022402E0702E00D101240848016821F0C4
:1026B000070121430160006800F00700A04201D03B
:1026C0000120F8BD0020F8BD0010024000200240AB
:1026D0000148FFF7E9B800009C020020010901EB66
:1026E000810100F00F0000EB4100C0B270470021F3
:1026F00002E00A38C0B2491C0A28FAD2090740EAA7
:102700001160704770B504460068C168490614D46A
:102710004FF0FF31C160FEF70DFA05464FF47A76AF
:1027200007E000BFFEF706FA401BB04201D90320C4
:1027300070BD2068C0684006F4D5002070BD000060
:10274000174810B51549016000217F22C0E9011228
:10275000FF22C0E903218161C161FFF72DF908B1B2
:10276000022010BD00210E48FEF7EDFF45F2500497
:10277000A04210D0402332223A210E2000F04CF823
:10278000012317221946102000F034F822460021B8
:102790000348FEF7DDFF002010BD000000280040C8
:1027A0009C02002000B58BB08DF800108DF8012040
:1027B00000218DF802308DF80310019105914FF042
:1027C000706106914FF080418DF8200088150791C7
:1027D0000990002269460648FFF76AF902220121A2
:1027E0002920FEF7E7F92920FEF7D9F90BB000BD43
:1027F0009C02002008B58DF802208DF801108DF89C
:1028000000308DF80300002269460248FFF724FAE1
:1028100008BD00009C02002000B585B08DF80000C6
:102820008DF8011000208DF80220039002460490DC
:102830008DF8033069460248FFF77AFA05B000BD0B
:102840009C0200200B4A10B51268D36803F0800385
:1028500063F49063D36002460648FEF77FFF0222CE
:1028600011460320FEF7A6F9BDE810400320FEF74D
:1028700096B900009C0200200148FEF7F1BF00005D
:102880009C0200207047FEF75BB9000070B5214C38
:10289000BAB03E9DA66D46F08056A665A46D04F0C4
:1028A000805438941C4C266826F4C06646F40076A2
:1028B000266024682EAE04F4C06438940124229467
:1028C0002404239402242C9403242D94329286E829
:1028D0002B0022A8FEF7F6FC00B1FEE70F20CDE9A1
:1028E00033040020359036903790042133A8FEF74A
:1028F0007BFB00B1FEE74FF4804000904FF040506A
:102900001E906846FEF798F9002800D0FEE73AB01E
:1029100070BD000000100240007000400D480168CA
:1029200041F4700101600C48016841F0010101604F
:10293000002181600268094B1A4002608214C26063
:10294000026822F48022026081610249C00380395A
:102950000860704788ED00E000100240FFFFF6EAD3
:10296000134800B5C16C87B041F00201C164C16C6D
:1029700001F002010591C16C41F00401C164C06C19
:10298000694600F0040005900120019002900320A8
:1029900003904FF6FF7000900648FDF7D7FF4FF405
:1029A0007470009069460448FDF7D0FF07B000BD81
:1029B00000100240000400480008004810B5FFF76E
:1029C000CFFF4FF40041E52000F022F90121002063
:1029D00000F01EF94FF48071012000F019F94FF456
:1029E000E061022000F014F93021032000F010F91A
:1029F0000021042000F00CF940F20221082000F030
:102A000007F90021092000F003F900210A2000F055
:102A1000FFF800210C2000F0FBF800210D2000F051
:102A2000F7F800210F2000F0F3F80021102000F04B
:102A3000EFF80721112000F0EBF80021122000F040
:102A4000E7F80021132000F0E3F8C82000F04CFC68
:102A500041F2B071102000F0DBF83721112000F0B6
:102A6000D7F8322000F040FC4FF49F71122000F0A4
:102A7000CFF8322000F038FC4FF4F851132000F06A
:102A8000C7F81321292000F0C3F8322000F02CFCF5
:102A90000021202000F0BCF80021212000F0B8F82F
:102AA0000021302000F0B4F840F2044421463120E7
:102AB00000F0AEF82146322000F0AAF804213520BB
:102AC00000F0A6F82146362000F0A2F82146372073
:102AD00000F09EF82146382000F09AF840F2077185
:102AE000392000F095F84FF4A0613C2000F090F8F8
:102AF00040F207613D2000F08BF80021502000F0EB
:102B000087F8EF21512000F083F80021522000F0D7
:102B10007FF840F23F11532000F07AF84FF41C5137
:102B2000602000F075F80121612000F071F80021AB
:102B30006A2000F06DF80021802000F069F8002183
:102B4000812000F065F80021822000F061F800216A
:102B5000832000F05DF80021842000F059F8002166
:102B6000852000F055F81021902000F051F8002148
:102B7000922000F04DF80321932000F049F84FF423
:102B80008871952000F044F80021972000F040F86B
:102B90000021982000F03CF8BDE8104040F273118D
:102BA000072000F035B870B50C4601461D461646A4
:102BB000502000F02DF82146522000F029F831462F
:102BC000512000F025F82946532000F021F8314625
:102BD000202000F01DF82946212000F019F8BDE85A
:102BE00070402220AFF3008007494FF000720A6066
:102BF00052100A60054A10604FF4000008608020FF
:102C000008608000086070471808004814040048F5
:102C100000B50B46FFF7E8FF18465DF804EB00F03F
:102C200001B8000007494FF000720A6052140A60B0
:102C3000054A10604FF400000860802008608000A2
:102C400008607047180800481404004810B50A4C82
:102C50002068C068C043C00709D1084800698047A0
:102C600021680020486221686420C862E060216811
:102C70006FF00100086110BDC0020020700000204C
:102C80002DE9F0470268244B244D254E254F264C54
:102C90004FF0804A984209D0504507D0A84205D04D
:102CA000B04203D0B84201D0A04204D122F0700C4F
:102CB0004A6842EA0C02DFF874C0DFF87480DFF87B
:102CC000749098420FD050450DD0A8420BD0B0421E
:102CD00009D0B84207D0A04205D0604503D0404596
:102CE00001D0484503D122F44075CA682A430260E6
:102CF0008A68C2620A688262984207D0A04205D000
:102D0000604503D0404501D0484501D109690163C0
:102D100001214161BDE8F087002C01400004004022
:102D200000080040000C0040003401400040014019
:102D3000004401400048014038B5114A05460C46A0
:102D4000906D40F004009065906D032200F0040047
:102D5000009011461E20FDF72DFF1E20FDF71FFFDE
:102D6000094A0848C2E900040020C2E902051061CE
:102D70001046FFF794F8BDE838400348FFF7ABB8BA
:102D80000010024000080040C002002090F824100B
:102D9000C90706D001684A68836A22F400321A43E0
:102DA0004A6090F82410890706D501684A68C36A0A
:102DB00022F480321A434A6090F82410490706D55D
:102DC00001684A68036B22F480221A434A6090F833
:102DD0002410090706D501684A68436B22F40042B3
:102DE0001A434A6090F82410C90606D501688A681B
:102DF000836B22F480521A438A6090F8241089066B
:102E000006D501688A68C36B22F400521A438A60AF
:102E100090F82410490611D501684A68036C22F421
:102E200080121A434A60016CB1F5801F06D1016817
:102E30004A68436C22F4C0021A434A6090F8241096
:102E4000090606D501684A68806C22F40022024314
:102E50004A607047F8B500260446C666FDF76AFE6C
:102E60000546206800686FF07E47000708D52B46AE
:102E700000224FF400112046009700F0B9F960B924
:102E80002068006840070AD52B4600224FF48001D5
:102E90002046009700F0ACF908B10320F8BD2020CF
:102EA00084F8690084F86A0084F868600020F8BD3E
:102EB00010B5806A0021A0F85A10A0F85210FFF750
:102EC00017F810BD01680A6822F490720A60016860
:102ED0008A6822F001028A60202180F86A10704717
:102EE00010B5B0F85C2090F86A300168222B05D04C
:102EF000088B40F008000883022010BD898C83688D
:102F0000B3F5805F01D103696BB11140426D531C71
:102F100043651170B0F85A10491E0904090CA0F855
:102F20005A1007D015E0436D11401980416D891C7E
:102F30004165EFE701680A6822F490720A6001684F
:102F40008A6822F001028A60202180F86A10FFF767
:102F500091F9002010BD00002DE9F0410446016800
:102F600080682669D4F81CC03043666910250022A9
:102F700046EA0C063043924B0E681746DFF844C20F
:102F800006EA0C0606430E6020684168E66821F4F4
:102F90004051314341602168A069994201D0266ABD
:102FA00030438E6826F4306606438E60864E216874
:102FB0008648B1420DD1D0F8880010F0030006D049
:102FC00001285AD0022856D0032859D157E00125AC
:102FD00056E07F4EB1420BD1D0F8880010F00C00C3
:102FE00047D0042849D0082845D00C2848D146E0CD
:102FF000784EB1420BD1D0F8880010F0300038D0B4
:1030000010283AD0202836D0302839D137E0724EF7
:10301000B1420BD1D0F8880010F0C00029D0402870
:103020002BD0802827D0C0282AD128E06B4EB1426F
:103030000ED1D0F8880010F440701AD0B0F5807F1F
:103040001BD0B0F5007F16D0B0F5407F18D116E048
:10305000994215D1D0F8880010F4406009D0B0F53D
:10306000806F0AD0B0F5006F05D0B0F5406F07D182
:1030700005E0002504E0022502E0042500E0082523
:10308000574E4FF40040994244D135B1022D07D03C
:10309000042D07D0082D10D107E0FEF765F803E0F6
:1030A000304602E0FEF790F898B3626802EB420106
:1030B000814202D8B0EB023F01D901277CE0002613
:1030C0006DB1022D0ED0042D13D0082D1AD001277A
:1030D000444AA0F540719142EFD821686BE0FEF7B9
:1030E00043F808E0500840490FE00023FDF7EDF8F1
:1030F000EEE7FEF769F86268010E0302500818183F
:103100007141F2E750084FF40001401846F1000108
:10311000EBE751E0E369834227D1092D1ED2DFE8B6
:1031200005F00508131D161D1D1D1900FEF71CF8DE
:1031300001E0FEF731F84100D4F8040001EB500142
:10314000B1FBF0F082B20AE028496068F6E7FEF7CA
:103150003BF8F0E74FF480316068EFE7012722F099
:103160000F00C2F342010843B7E7092DA5D2DFE8FB
:1031700005F006090C05120505051C009DE7FDF785
:10318000F3FF0AE0FEF708F807E0606806EB50027C
:10319000B2FBF0F00EE0FEF717F80146606801EBB5
:1031A0005001B1FBF0F080B297E7626800EB52008B
:1031B000B0FBF2F080B2C8603846BDE8F081000094
:1031C00000800040F369FFEF00380140001002402A
:1031D0000044004000480040004C004000500040C7
:1031E0000024F400FFFC0F00000024F40048E80174
:1031F0002DE9F041984617460E460446069D1DE00F
:10320000681C1BD02DB1FDF795FCA0EB0800A8426F
:1032100014D92068016821F4D071016020688168A8
:1032200021F001018160202084F8690084F86A009F
:10323000002084F868000320BDE8F0812068C069A0
:1032400036EA000004D00020B842D9D00020F3E7CD
:103250000120F9E738B518480068C069C043800606
:1032600022D44FF47A73012269461348FEF78CFF8B
:10327000124801880A0417D44B049DF800304FF01F
:10328000000204D50A2B0ED141F4004112E00D2BAF
:103290000ED0C1F30D04084D491CC83D89B22B5511
:1032A0000180C72900D902800348FEF723FE38BDFC
:1032B00041F480410180F7E72C0200200C0000203F
:1032C000FEE730380A2801D20120704700207047FD
:1032D0007047000010B504460420FEF7C0FD014809
:1032E000046010BD0800002070B5054600244FF4AE
:1032F0007A7603E0304600F005F8641CAC42F9D35E
:1033000070BD000070B54FF0E024002265690949E6
:10331000A36909684843A1699942FCD002D2A3EB92
:10332000010302E0A5EB010633441A440B46824236
:10333000F1D370BD0800002004490A685206FCD58C
:10334000024AC1B20C321180704700001C380140A3
:1033500088B00024FDF7FCFB022000900723042224
:1033600014210120FFF792FA2820FFF7B3FFFFF79F
:1033700025FB4FF4E13000F085F82AA0FDF71CF89A
:103380002D48416828208847FEF7C4FFFEF776FFE6
:10339000FFF7D6F900210420FFF754FA274D4FF428
:1033A00078464FF480774FF090484FF47A790022B6
:1033B00001A92348FEF7D4FA9DF806309DF80520B0
:1033C0009DF804101FA0FCF7F7FF002206A91C4877
:1033D000FEF7A4FA9DF81A309DF819209DF81B10ED
:1033E0001EA0FCF7E9FF9DF8181022A0FCF7E4FFEF
:1033F000C82314211A4608460095FEF76FFF0A21DC
:1034000032460846FDF73FFA641CE4B20C2C00D1AA
:10341000002439464046FDF783FB4846FFF764FF2A
:10342000C5E700003E3E73797374656D2072657365
:1034300065742E0D0A00000070000020CA430008C9
:103440009C0200203E3E54696D653A253032643A54
:10345000253032643A2530326420000044617465BE
:103460003A3230253032642D253032642D25303209
:10347000642000005765656B3A256420200D0A0022
:10348000006870470749064AC1E9002000208860AB
:10349000C860086188610C2048610846FEF7F8BDE5
:1034A000003801402C02002070B596B0054614ABE0
:1034B00001AA03A900F0DEF9002824D18DF84C0000
:1034C0001D4C042615E000BF216806EBC00014ABBC
:1034D00008586A460BA900F0CDF9002813D103A9BA
:1034E0000BA800F00CFC80B19DF84C00401C8DF83E
:1034F0004C00217DC0B28142E6D8207D9DF84C1061
:1035000088420ED1042016B070BD9DF800009DF8D1
:103510000410884201D90220F5E79DF84C00A075FF
:10352000EBE713A9284600F061FA0028EBD19DF8DB
:103530004C0060750020E6E7700000202DE9F041A6
:103540007F4C9AB0A57D207DA8427DD904212068BA
:1035500001EBC50119AB405810AA11A900F08AF976
:1035600011A978A0FCF728FF00270DF1180833E017
:10357000208B0121B940084217D0222173A0FCF70B
:103580001BFF384600F09CFA011971A02431FCF7AA
:1035900013FF22216DA0FCF70FFF384600F090FAD0
:1035A0002044243048F827000CE0384600F088FA20
:1035B0002044416A48F82710E07D08B365A000BFA9
:1035C000FCF7FAFE9DF84000401E874202D063A03F
:1035D000FCF7F2FE7F1CFFB29DF840008742C7D384
:1035E0005FA0FCF7E9FE00F0B1FA607D0B2814D271
:1035F000DFE800F0080D31384048525E6B788800F3
:1036000058A0DDE7206850F83500804704E02068C6
:1036100050F8351006988847064600F063FA9DF882
:10362000640001287DD050A0FCF7C6FE94F8EC00A1
:1036300000280DD0D4F8F0100A20B1FBF0F200FB06
:103640001212B1FBF0F100E002E048A0FCF7B4FE7A
:103650001AB0BDE8F081206850F83520DDE9060198
:103660009047D9E7206806AE50F8353096E8070055
:103670009847D1E7206806AE50F8355096E80F001D
:10368000A847C9E70A980090206806AE50F8355060
:1036900096E80F00A847BFE7DDE90A01CDE9000180
:1036A000206806AE50F8355096E80F00A847B3E7FB
:1036B0000AAB06AE93E807008DE80700206850F8D3
:1036C000355096E80F00A847A6E70AAE96E80F0027
:1036D0008DE80F00206806AE50F8355096E80F00D0
:1036E000A84799E70BAE96E80F0001AE86E80F00F9
:1036F0000A980090206806AE50F8355096E80F0002
:10370000A84789E70CAE96E80F0002AE86E80F00E6
:10371000DDE90A01CDE90001206806AE50F8355018
:1037200000E003E096E80F00A84775E7E07D31462A
:1037300018B116A0FCF740FE78E717A0FAE70000E2
:10374000700000200D0A257328000000256300008A
:103750002573000030582558000000002C000000A0
:1037600029000000256C64003B0D0A0046756E635D
:1037700074696F6E2052756E2054696D653A2564C8
:103780002E2531646D730D0A000000003D30582570
:10379000583B0D0A000000003D256C753B0D0A00EA
:1037A000F0B50446002007460646054623782C2B34
:1037B00003D0292B04D01BB103E015B9012700E089
:1037C00015B31EB1222B2BD0F7B92FE0A3F1300C8B
:1037D000BCF1090F19D92D2B17D02B2B15D0A3F124
:1037E000610CBCF1050F10D9A3F1410CBCF1050F20
:1037F0000BD9582B09D0782B07D0222B0CD0202B9B
:103800001DD02C2B1BD0FF260CE05FB9612B00D301
:10381000203B01F8013B12E027B9012635460EE0B6
:10382000002567B100230B701670F0BD3DB15C2B15
:1038300002D1401CC0B2641C237801F8013B401C3B
:10384000C0B2641CB2E730B5002515700AE001F87B
:10385000014B1478401C641CE4B214709C4201D3E8
:10386000012030BD0478202C01D0002CEFD10D7048
:10387000002030BD2DE9FF4F002582B09846044658
:103880002F462E464FF0010BAA462A46A94615E0C0
:10389000202910D002F07F03052B0CD202B9802220
:1038A00002F07F03042B01D12A290AD1521C0DF802
:1038B0000310D2B201E0852A04D0401C017800290F
:1038C000E6D162B102F07F0244A10DF80290684691
:1038D00000F015FA38B1012188F8001000224FF0ED
:1038E0000008234614E088F80090F7E708F101008B
:1038F00000F0FF0813F8010F202801D02A2807D173
:10390000184600F089F9282802D02A2800D0474616
:103910001878282801D00028E8D10FB13C44641C55
:1039200000273946207888B1282804D0292806D0D5
:1039300022280FD010E079B96D1CEDB20CE059B916
:1039400025B16D1E15F0FF0501D00CE00127012EF9
:1039500032D039E049B100214DB12C280FD02028B8
:103960001FD028281DD07AB117E00121F4E72028C4
:1039700020D0039B18700398401C03901AE0521C3F
:103980004FF0010BD2B20CE0BAF1050F05D20DF8E1
:103990000A000AF1010000F0FF0A0BF1010000F03B
:1039A000FF0B012D06D1BBF1020F03D1761C4FF0A6
:1039B000030BF6B2641CB5E70DF80A9007A1684640
:1039C00000F09DF900B9002604980670039880F86D
:1039D000009006B0384600F005B80000766F6964C4
:1039E0000000000030BCBDE8C08F00002DE9F043AE
:1039F00000248946314DB5B0214622466B18491C3A
:103A0000C9B29A760A29F9D303E000BF10F8011F62
:103A100091B101782829F9D1461C012733AA6946BA
:103A20003046FFF7BDFE06449DF8CC0040B10128AA
:103A300024D0FF2839D10BE0012035B0BDE8F08358
:103A40009DF8000080B334A9684600F0EDF808B195
:103A50000220F2E7204600F033F82844349941620E
:103A6000288B07FA04F188432883042029198876D3
:103A7000641CE4B20A2C18D90320DEE7684600F083
:103A800053F900F10108204600F01AF84119684680
:103A9000243100F040F9288B07FA04F10843291972
:103AA000288381F81A80E3E7FFE73078292801D0DE
:103AB0000028B3D189F800400020BEE77000002044
:103AC000024610B500200146054B05E05C18491C74
:103AD000A47EC9B22044C0B29142F7D310BD000009
:103AE00070000020094800680169C943CA070849F5
:103AF000D1F8F02004D14FF6FF731A44C1F8F0203A
:103B0000406A1044C1F8F00070470000C002002075
:103B10007000002000EBC00101EB00104FF0FF31FE
:103B200001EB800010B581B24FF47A70FFF704F911
:103B300001490120C87510BD700000200246012017
:103B400000E05043491EC9B2FBD2704707486FF0EE
:103B50000101026811610268090CD162C16000684C
:103B6000002141620248C0F8F0107047C0020020F6
:103B7000700000202DE9F041164D2888010426D55B
:103B80001549C0B2154F00260E54B968124888472F
:103B900004000FD0104800F0D1F8012801D0040033
:103BA00014D0012C09D0022C09D0032C09D0042CEC
:103BB0000CD108E0F868804708E009A004E00BA0F9
:103BC00002E00DA000E00FA0FCF7F6FB2E80BDE8A0
:103BD000F08100000C000020640100207000002033
:103BE000BAAFCAFDB4EDCEF3210D0A00B2CECAFDC4
:103BF000B4EDCEF3210D0A00B2CECAFDCCABB6E0D7
:103C0000210D0A00CEB4D5D2B5BDC6A5C5E4B5C454
:103C1000BAAFCAFD210D0A0010F8011F202901D1F9
:103C20000028F9D1C8B270472DE9F0430D460024B1
:103C30004FF00A09264601462C600A78A2F13003AB
:103C4000092B14D903782D2B01D02B2B00D174B163
:103C5000A2F14103052B0AD9582A05D012F0FF0F13
:103C600017D00120BDE8F083012C02D0F9E7412AEA
:103C700001D34FF0100902782D2A04D02B2A04D04A
:103C8000641CE4B203E0022600E00126401C491C4B
:103C9000D3E70746B9F1100F01D084B112E0032C2D
:103CA00001D20220DEE73878302802D1787858280F
:103CB00001D00320D6E7A41EE4B2BF1C01E004201B
:103CC000D0E70CB1641EE4B23878A0F130010929C4
:103CD00001D8884601E0A0F1370821464846FFF7A1
:103CE0002DFF2A6808FB0020286017F8011F002913
:103CF000E7D1022E01D1404228600020B2E70278CD
:103D00000B789A4201D00120704712B1401C491C27
:103D1000F5E70020704702780A700278002A02D086
:103D2000401C491CF7E77047002102781AB1491C72
:103D3000C9B2401CF9E7084670470000F0B58DB0E5
:103D400004461E236A4602A9FFF77DFD0190002864
:103D500072D19DF80000271800263E4C8DF80060B7
:103D60009DF8000054F8201002A8FFF7C8FF38B1F2
:103D70009DF80000401CC0B28DF800000728EFD36A
:103D80009DF800000425344C072855D2DFE800F0E8
:103D90000404395A605F5E0030A0FCF70DFB30A0D0
:103DA000FCF70AFB3EA0FCF707FB4DA0FCF704FB69
:103DB0005BA0FCF701FB6AA0FCF7FEFA78A0FCF719
:103DC000FBFA86A0FCF7F8FA8BA0FCF7F5FA93A0B3
:103DD000FCF7F2FA97A0FCF7EFFA9CA0FCF7ECFADC
:103DE000A1A0FCF7E9FAA7A0FCF7E6FAB3A0FCF75C
:103DF000E3FAC0A0FCF7E0FACBA0FCF7DDFAD7A00D
:103E00001BE016A0FCF7D8FAE4A0FCF7D5FA8DF871
:103E100000600BE0216805EBC0000958EFA0FCF73B
:103E2000CBFA9DF80000401C8DF80000217D9DF824
:103E300000008142EED856E257E2FCF7BDFA0020BE
:103E40000DB0F0BD05A0FCF7B7FACBE12CE20CE217
:103E5000EBE1000014000020700000200D0A0000BB
:103E60002D2D2D2D2D2D2D2D2D2D2D2D2D2D2D2D82
:103E70002D2D2D2D2D2D2D2D55534D415254205688
:103E8000332E332D2D2D2D2D2D2D2D2D2D2D2D2D55
:103E90002D2D2D2D2D2D2D2D2D2D2D200D0A0000FC
:103EA0002020202055534D415254CAC7D3C9414CFC
:103EB00049454E54454BBFAAB7A2B5C4D2BBB8F6CC
:103EC000C1E9C7C9B5C4B4AEBFDAB5F7CAD4BBA59A
:103ED000BDBBD7E9BCFE2CCDA8B9FD200D0A000062
:103EE000CBFC2CC4E3BFC9D2D4CDA8B9FDB4AEBFBE
:103EF000DAD6FACAD6B5F7D3C3B3CCD0F2C0EFC383
:103F0000E6B5C4C8CEBACEBAAFCAFD2CB2A2D6B4FA
:103F1000D0D02ED2F2B4CB2CC4E3BFC90D0A00001E
:103F2000D2D4CBE6D2E2B8FCB8C4BAAFCAFDB5C4AD
:103F3000CAE4C8EBB2CECAFD28D6A7B3D6CAFDD70D
:103F4000D62831302F3136BDF8D6C62CD6A7B3D6F9
:103F5000B8BACAFD29A1A2D7D6B7FBB4AE0D0A00E4
:103F6000A1A2BAAFCAFDC8EBBFDAB5D8D6B7B5C8FB
:103F7000D7F7CEAAB2CECAFD292CB5A5B8F6BAAFEE
:103F8000CAFDD7EEB6E0D6A7B3D63130B8F6CAE44C
:103F9000C8EBB2CECAFD2CB2A2D6A7B3D60D0A008A
:103FA000BAAFCAFDB7B5BBD8D6B5CFD4CABE2ED628
:103FB000A7B3D6B2CECAFDCFD4CABEBDF8D6C6C945
:103FC000E8D6C3B9A6C4DC2CD6A7B3D6BDF8D6C6EE
:103FD000D7AABBBBB9A6C4DC2E0D0A00BCBCCAF56F
:103FE000D6A7B3D63A7777772E6F70656E6564760D
:103FF0002E636F6D0D0A000055534D415254D3D0BE
:1040000037B8F6CFB5CDB3C3FCC1EE28B1D8D0EBED
:10401000D0A1D0B4293A0D0A000000003F3A202078
:1040200020202020BBF1C8A1B0EFD6FAD0C5CFA286
:104030000D0A000068656C703A202020BBF1C8A111
:10404000B0EFD6FAD0C5CFA20D0A00006C69737428
:104050003A202020BFC9D3C3B5C4BAAFCAFDC1D06E
:10406000B1ED0D0A0A00000069643A2020202020EA
:10407000BFC9D3C3BAAFCAFDB5C44944C1D0B1EDBD
:104080000D0A0A006865783A20202020B2CECAFDC9
:104090003136BDF8D6C6CFD4CABE2CBAF3B8FABFF3
:1040A000D5B8F12BCAFDD7D6BCB4D6B4D0D0BDF8A4
:1040B000D6C6D7AABBBB0D0A0A0000006465633AE6
:1040C00020202020B2CECAFD3130BDF8D6C6CFD4D4
:1040D000CABE2CBAF3B8FABFD5B8F12BCAFDD7D6F1
:1040E000BCB4D6B4D0D0BDF8D6C6D7AABBBB0D0AD7
:1040F0000A00000072756E74696D653A312CBFAAB2
:10410000C6F4BAAFCAFDD4CBD0D0BCC6CAB13B301E
:104110002CB9D8B1D5BAAFCAFDD4CBD0D0BCC6CAA1
:10412000B13B0D0A0A000000C7EBB0B4D5D5B3CC43
:10413000D0F2B1E0D0B4B8F1CABDCAE4C8EBBAAFAE
:10414000CAFDC3FBBCB0B2CECAFDB2A2D2D4BBD8AA
:10415000B3B5BCFCBDE1CAF82E0D0A002D2D2D2DE6
:104160002D2D2D2D2D2D2D2D2D2D2D2D2D2D2D2D7F
:104170002D2D2D2D2D2D414C49454E54454B2D2D8A
:104180002D2D2D2D2D2D2D2D2D2D2D2D2D2D2D2D5F
:104190002D2D2D2D2D2D2D200D0A00002D2D2D2DF9
:1041A0002D2D2D2D2D2D2D2D2D2D2D2D2D2D2D2D3F
:1041B0002D2D2D2D2DBAAFCAFDC7E5B5A52D2D2D61
:1041C0002D2D2D2D2D2D2D2D2D2D2D2D2D2D2D2D1F
:1041D0002D2D2D2D2D2D2D2D200D0A0025730D0A91
:1041E0000000000042A0FCF7E7F88DF8006016E040
:1041F000216805EBC0000BAB08580AAA02A9FFF71B
:1042000039FB9DF80010206850F8312002A948A021
:10421000FCF7D2F89DF80000401C8DF80000217DCD
:104220009DF800008142E3D85DE0AFF2D030FCF7AA
:10423000C3F86A4602A93846FFF7B2FA9DF80000B3
:10424000002843D101A902A8FFF7EEFC8DF8000079
:1042500010B104283AD102E03AA001991CE03CA038
:10426000FCF7AAF80120E0753DE038A0FCF7A4F8BF
:104270006A4602A93846FFF793FA9DF8000028BB6A
:1042800001A902A8FFF7D0FC8DF8000010B10428A6
:104290001CD104E033A00199FCF78EF823E034A090
:1042A000FCF78AF8E6751EE028A0FCF785F86A4658
:1042B00002A93846FFF774FA9DF8000030B901A949
:1042C00002A8FFF7B1FC8DF8000008B10220B7E5A5
:1042D000019810F0FF0084F8EC0001D029A000E064
:1042E0002FA0FCF769F819A0A7E50120A8E50000B8
:1042F0002D2D2D2D2D2D2D2D2D2D2D2D2D2D2D2DEE
:104300002D2D2D2D2D2D2D2D2DBAAFCAFD2049443B
:10431000202D2D2D2D2D2D2D2D2D2D2D2D2D2D2DDA
:104320002D2D2D2D2D2D2D2D2D2D2D2D200D0A003A
:1043300025732069642069733A0D0A305825303896
:10434000580D0A004845583A305825580D0A0000C3
:104350003136BDF8D6C6B2CECAFDCFD4CABE210D05
:104360000A0000004445433A256C750D0A00000020
:104370003130BDF8D6C6B2CECAFDCFD4CABE210DEB
:104380000A00000052756E2054696D652043616C0F
:1043900063756C6174696F6E204F4E0D0A000000EA
:1043A00052756E2054696D652043616C63756C6154
:1043B00074696F6E204F46460D0A00000160704719
:1043C0004FF04070E1EE100A70470010AF00AF00F0
:1043D000011BC008C008C008C008C008C008C00849
:1043E000C008C008C008C008C008C008C008A008AD
:1043F0008008800880088008800880088008A11054
:104400004008400020004000400020002000200024
:10441000200020002000200000002000600060003C
:10442000600060006000600060006000600060008C
:10443000600060006000600060006000600060007C
:1044400040004000400020006000800080008000AC
:10445000A000C000C000200060006000600860088C
:1044600040104008A010C008A010C008A0086000BC
:1044700060002000C018A010A010A008C010C0103C
:10448000C018A010801060104008400040002008B4
:104490006010C110A11060108010A010C118E218A7
:1044A000401060108010601060106010401080108C
:1044B000A01866526E94EF9CEF9C2C8471ADEB7348
:1044C000A329A0088008A008A010200060086008A8
:1044D0006008601060106010601060108010801024
:1044E000801080108010801080108010801080104C
:1044F000801080108010801080108010801080103C
:10450000801080108010801080108010801080102B
:1045100080108010801060108010A020A0208118D2
:1045200060186010400840084008400840084008F3
:10453000C008C008C008C008C008C008C008C0083B
:10454000C008C008C008C008C008C008C008A0084B
:10455000A008A0088010801080108010A1104008D2
:1045600040002000400040002000200020002000EB
:10457000200020002000000020006000600060009B
:10458000600060006000600060006000600060002B
:10459000600060006000600060006000600040003B
:1045A0004000400040006000800080008000A000CB
:1045B000A000C000600060004000600840082008C3
:1045C00020106008A008A010C010C010C010C010BB
:1045D000A01080088008A010C010C010A018A0185B
:1045E000801040086010601060108010A0188018C3
:1045F00040082008200840104010A018C110801862
:1046000060108018A018C020C018A018A01862312F
:10461000E44146528A73296BE4410C7C4963C431FE
:1046200001198010C018C118C1186008600860081E
:10463000601060106010601060108010801080109A
:1046400080108010801080108010801080108010EA
:1046500080108010801080108010801080108010DA
:1046600080108010801080108010801080108010CA
:104670008010801060108010A020A0208118601889
:104680006010400840084008400840084008C00842
:10469000C008C008C008C008C008C008C008C008DA
:1046A000C008C008C008C008C008C008A008A0080A
:1046B000A008A008A00880108010A11040084000A9
:1046C00020004000400020002000200020002000AA
:1046D00020002000000020006000600060006000FA
:1046E00060006000600060006000600060006000CA
:1046F00060006000600060006000600040004000FA
:10470000400040006000800080008000A000800029
:10471000C0008000A0008000400840084010201821
:10472000401080088018A018E018E018E020C01899
:1047300040088010E018E018E018C018C0184010B9
:104740004010401060106018A018E118C0188018C0
:104750008018801880188018A018C1186018802050
:10476000A020C020E020E020C0208018E441E441E7
:104770004231E862296B254A464A053A42298010AF
:10478000400840006008C1184008600860086008E0
:104790006010401060106010801080108010801039
:1047A0008010801080108010801080108010801089
:1047B0008010801080108010801080108010801079
:1047C0008010801080108010801080108010801069
:1047D000801060108010A020A02081186018601048
:1047E000400840084008400840084008C008C00889
:1047F000C008C008C008C008C008C008C008C00879
:10480000C008C008C008C008C008A010A010A010B0
:10481000A010A010A010A010A00840084000200088
:104820004000400020002000200020002000200048
:104830002000000020006000600060006000600058
:104840006000600060006000600060006000600068
:1048500060004008400060006000400840004000E8
:1048600060006000600060008000A0008000A00088
:10487000C008C010A0108010801060106018601078
:104880008010A018C018A018A018A018A018C02048
:104890002029603181396039403120310029C02818
:1048A000C020A020A02080188018A020C020A02018
:1048B000C020A018A01880188018C0288020A01838
:1048C000A020A0208020A020C020034A655AA34138
:1048D000865AC7620D8C454A8331C018801020105B
:1048E00020084008A11840084008400860086008F7
:1048F0006010601080108010801080108010801078
:104900008010801080108010801080108010801027
:104910008010801080108010801080108010801017
:104920008010801080108010801080108010801007
:1049300060108010A020A02081186018601040082E
:1049400040084008400840084008C008C008C008A7
:10495000C008C008C008C008C008C008C008C00817
:10496000C008C008C008C008C010C010C010C018DF
:10497000C018C018C010A008400840002000400027
:104980004000200020002000200020002000200007
:1049900000002000600060006000600060006000B7
:1049A0006000600060006000600060006000600007
:1049B000400040004000400060006000600040088F
:1049C00040086000600080008000A008A000A008EF
:1049D000A0108010601040108018A020A020C020DF
:1049E000C020002940396139A141A1410252635AD6
:1049F000C46AE56AC46AA362836A635A025AC141FF
:104A000080390031E028A020C028A020C020E02864
:104A1000A020C028A028C020603960394039E0308B
:104A2000C028C028E0282131E3498662A76283417B
:104A30008339EC8B8A7B054AC120A010C018A018CE
:104A40008018C11860106010400860106010600885
:104A500060108018801080108010801080108010EE
:104A600080108010801080108010801080108010C6
:104A700080108010801080108010801080108010B6
:104A800080108010801080108010801080106010C6
:104A90008010A020A02081186018601040084008F5
:104AA0004008400840084008C008C008C008C008C6
:104AB000C008C008C008C008C008C008C008C008B6
:104AC000C008C008C008E018E010E010E010E110D5
:104AD000E018E118A0084008400020004000400015
:104AE00020002000200020002000200020000000E6
:104AF00020006000600060006000600060006000F6
:104B000060006000600060006000600060004000C5
:104B100040004000400060006000600060006000F5
:104B200060004008600880088008A008A01080107D
:104B3000A010A0180129A341E3496562856AE772C4
:104B4000477BC8932A9C6AA48AAC8AB48AB4AAB464
:104B50008AB4AAB48AB48AB48AAC49AC299CA78B1B
:104B60004583247BC472C572C57A0683668B8783AE
:104B7000A88BA78BA78BA78B67836683257BE472A3
:104B8000C46A8462C149235AA56A077B487B89832A
:104B9000E872665A012940188018802020102010E1
:104BA00060106010601040084010601060086010D5
:104BB000801880108010801080108010801080106D
:104BC0008010801080108010801080108010801065
:104BD0008010801080108010801080108010801055
:104BE0008010801080108010801080106010801065
:104BF000A020A020811860186010400840084008DC
:104C0000400840084008C008C008C008C008C008E4
:104C1000A008C008C008C008C008C008C008C00874
:104C2000C008C008E018C018E010E010E010E01064
:104C3000E010A0104008400020004000400020008C
:104C40002000200020002000200020000000200084
:104C50006000600060006000600060006000600054
:104C60006000600060006000600060004000400084
:104C70004000200060006000600060006000600094
:104C80006008800880088008A010A018A010C01834
:104C9000C020C028A249E251846AA472E67A6683E1
:104CA000C89B29A449AC49AC8AB48AB489B489B4F4
:104CB00089B489B489B469AC48A4079CC693458378
:104CC000037BE37AA372C372E47A25838793879385
:104CD000A793A68BC793878B668B25830573A46ADE
:104CE000846AA1512362C672077B698BAA8B6662B4
:104CF000665AC02000108020C020201000086018D4
:104D0000601060104008600860086008400880106B
:104D10008010801080106010801080108010801033
:104D20008010801080108010801080108010801003
:104D30006018601880108010801080108010801023
:104D40008010801080108010801060108018A118D2
:104D5000A118801860106010400840084008400802
:104D600040084008E010E010E010E008C008A0088B
:104D7000A008A008A008A008A008A008A008A008F3
:104D8000A0080119E118E110E010E010E010E110B6
:104D900080088008A0104000400040002000200053
:104DA0002000200020002000200020002000200003
:104DB00020004000400060006000600040004000B3
:104DC000600080086000600040004000400840082B
:104DD00060086000600060004008400860108010BB
:104DE0008010A018C018E120A0182029A0416462FA
:104DF000E6720A944A9C4AA44AAC2AAC49AC49AC33
:104E000029AC48AC28AC89BC28B407B406B4E6ABDE
:104E1000C5ABE5AB26AC26A426A426A426A406A4EE
:104E200006A4E6A3E6A3E6A3E6A306A406A406A4B6
:104E300007A448ACE79BC6A3E7A3C79B6693468B32
:104E40004793668B678B2683436A636A8151003977
:104E5000E03880282018201840188018C120201021
:104E600020102008000000000008200860104010FA
:104E700020084010601060106010801880108010B2
:104E80008010801080108010801840104008401062
:104E900040104010401040106010801080108010B2
:104EA0008010801080108010801080108010801082
:104EB0006010601060106010601060106010601072
:104EC0006010C018C018C018E008C008A008801002
:104ED0008010801080108010801080108010A0083A
:104EE0000119E118E110E010E010E110E110A00854
:104EF000A01080084000400040002000200020005A
:104F000020002000200020002000200000002000C1
:104F10002000200860006000600040004000400861
:104F20008008600060004000600860086000400089
:104F300060006000600060088010A018C020C020E1
:104F4000E020412961318139C249A4626783E99334
:104F50004BA46BACABB46ABC6BBC6AB469B429B487
:104F600028AC07AC68B427AC06ACE5ABC4A3C4A3BB
:104F7000C4A3E5AB05A405A405A405A406ACE5AB54
:104F8000C5A3A49BC59BC59BC5A3E5A3C6A3C5A3F9
:104F9000E5A3C59BA69BE7A307A4E79BA69BA79BAE
:104FA000A79BA89B889B268307836572E351C35107
:104FB0006249C030802880288020801800100010AE
:104FC0004010401060106010411060182010200840
:104FD0002010601060106010801880108010801009
:104FE0008010801080108018401020084008400871
:104FF0004008400840106010801080108010801021
:105000008010801080108010801080108010801020
:1050100080108010601860186018601860186018A0
:10502000E010C010C010C010C008C008A008A00840
:10503000A008A008A008A008A008A008A0080221B5
:10504000E1180011E010E010E010E010A008A00846
:105050008008400040004008200020002000200080
:105060002000200020002000200020002000400020
:105070004000600060006000400020086000800880
:105080006000400840008008A00880088008800870
:10509000800860084008A018002120214031813993
:1050A000024A4352E46A467BE893AAACEBB4CBB421
:1050B000AAB4CABCCAC4A9BC89BC69B428B407AC28
:1050C000E6AB27B4E6ABC5AB84A383A383A383A3DA
:1050D000A4A3A4A3A4A3A4A3A4A3A4A3A4A3A3A399
:1050E000639BA4A3A4A3A3A3C3A3C3A3A4A3849BBC
:1050F000849B849B07A448AC08ACE7A3A69BA69B13
:10510000A69B869B879B669B669B058BC67A436A9C
:10511000C25161490039C030A12040186018801880
:1051200080188018801880108018401020082010E7
:105130006010601060108018801080108010801047
:10514000801080108018400840084008400840083F
:105150004008401060108010801080108010801077
:1051600080108010801080108010801080108010BF
:105170008010801080108010801080108010C00877
:10518000A008A008C008C008C008C008C008C0081F
:10519000C008C008C008C008C008C0080121E11844
:1051A0000011E010E010E010E010A008A008800856
:1051B0004000400040082000200020002000200087
:1051C000200020002000200020002000400040009F
:1051D00060006000600040002008600080086000FF
:1051E00040084000A108A0088010801080106008CE
:1051F000600860088018C0208131C249655A067B6A
:10520000A9830A9C6A9CCBAC2CBD2CC50CBDEBBC05
:10521000AABC8AC448B448B448B427B406B406B497
:10522000E6ABA5A364A3429B229B229B229B42A3A5
:1052300042A3429B629B63A362A383A3629B62A37C
:10524000629B62A363A3A3A3A3A3A4A3A5AB84A30C
:1052500084A306B427B427B406AC859B869B459BE4
:10526000469B669B869BA69B879B678B0683C58216
:105270006472C25961412139E030E030A0288018C1
:1052800080188018A01880182010200820106010A6
:1052900060106010801880108010801080108010C6
:1052A0008010801840084008400840084008400826
:1052B00040106010801080108010801080108010CE
:1052C000801080108010801080108010801080105E
:1052D000801080108010801080108010C008C008DE
:1052E000C008C008C008A010C008C008C108C00895
:1052F000C008C008C008C008C0080121E11800119A
:10530000E010E010E010E010A008A00880084000C5
:105310004000400820002000200020002000200045
:1053200020002000200020002000400040006000FD
:1053300060006000400020086000800860004008B5
:105340004000A108A008A008A108A008A010A0087B
:1053500080082010A020C14183628783499CECAC67
:105360000CB50BB50ABD09BDE9BC09BD09BD67ACEB
:1053700026AC26ACE6AB06B406B4E6B306B4A4ABE2
:1053800084A3239B229B019301930193019B019B87
:10539000019B219B229B42A362A3419B229B22A3B0
:1053A00042A382A382A382AB83A3C5ABA4AB84AB8D
:1053B000E6B306B4E6B3C5AB85A3A3A3839B639B07
:1053C00064A384A3A4AB85A3669B859B8593458B2F
:1053D000E47AC472A46A235AC249213160182018A1
:1053E00040188020801820102008201060106010C5
:1053F0006010801880108010801080108010801045
:105400008018400840084008400840084008401004
:10541000601080108010801080108010801080102C
:1054200080108010801080108010801080108010FC
:1054300080108010801080108010A008A008C00884
:10544000C108A008C110E110A008A008A008A00889
:10545000A008A008A008A0080221E1180011E0108F
:10546000E010E010E010A008A00880084000400014
:105470004008200020002000200020002000200004
:10548000200020002000200040004000600060005C
:105490006000400020086000800860004008400074
:1054A00080088008A008A010C010E110C010E1180A
:1054B000A0280029A56288834A9C0CBD6EC52CBD1E
:1054C0002CBD0ABDA9B4A8B4C8B4C9BC05A4E6AB38
:1054D000E6A3C6A3E6ABE6B3E6B3E6B3A5A3649B37
:1054E000239B0293029302930293E192E09A00932A
:1054F0002193019B419B219B219B009B219B219BF5
:1055000062A382A383AB82A327BCE6B3C5ABE6B399
:1055100006BCA5ABA4A3C5ABC5ABC5A3A4ABE5AB0B
:10552000E5ABC5AB649B6593A69BA69BA79BA79386
:10553000A7938893277B856A035AC0288020601828
:105540008020801820182008201060106010601043
:1055500080188010801080108010801080108018BB
:1055600040084008400840084008400840106010CB
:1055700080108010801080108010801080108010AB
:10558000801080108010801080108010801080109B
:105590008010801080108010A008A010A010C008FB
:1055A000A008E018E010E010E010E010E010E010BB
:1055B000E010E010E0100121E1180011E010E0100F
:1055C000E010E010A008A00880084000400040085B
:1055D00020002000200020002000200020002000CB
:1055E00020002000200040004000600060006000BB
:1055F000400020086000800860004008400060080B
:105600008008A010C118E11801190119E01880499B
:10561000235288830A948BAC0CBD4DC50BC50BBDC2
:105620000AC5E9C4E8BCA7BC87B447AC27B406AC3C
:1056300007ACE6ABE5A3C5ABC5AB649B439B239B23
:105640000293E192E292C292C092E092E092E092E2
:10565000219B21A322A322A3209B21A342A362ABCF
:1056600082ABA3AB83AB06BCA5B3C5ABE6B3E6B3D5
:10567000C5B3A4AB83A383ABC4AB26BC26B405B42B
:10568000E5B3C4A3A59BC5A3E6A3E7A3C79BC79B9C
:10569000C89B878B4783A56A81490031A028802851
:1056A00080102010200820106010601060108018FA
:1056B00080108010801080108010801080184008AA
:1056C0004008400840084008400840106010801022
:1056D000801080108010801080108010801080104A
:1056E000801080108010801080108010801080103A
:1056F000801080108010A008A008A010C008A0088A
:10570000E018E010E018C018C118E010E018C01848
:10571000C018E0100219E1180111E010E010E110CA
:10572000E110800880088008400040004008200008
:105730002000200000002000000000000000000009
:1057400000000000400020084008400840084000D9
:105750004000600080086000400840004008800869
:105760008010C118E118012121212129A46A277381
:105770006B9CCBACECB4EBB4ECB4CBB40ABD0AC5B7
:105780002ACD09CD87B487B467B447BC27B427B402
:1057900006ACC5ABA4A3A4A384A3439B239B019302
:1057A000E192E292C292C092C09AE092E09221A36A
:1057B00021A342A322A3219B21A342AB62A3A3ABBB
:1057C000A3ABA4AB26BCC5ABC4AB06B406BC05B446
:1057D000A4AB229B229BA3A305B425BC05B4E4B3D0
:1057E000E5ABC6A3E6ABE7A3E7A3C69BC79BC89BF5
:1057F000A793A78B6783846AE151E03880288010E3
:105800004010200840106010601060108018601078
:1058100060108010801080108010801840084008B0
:105820004008400840084008401060108010801078
:105830008010801080108010601060106010801048
:1058400080108010801080108010801080108010D8
:1058500060108010011101110111011101110111DC
:10586000001121210221E11801110019E010E010BE
:10587000E110E110E1100219E110C0108008800869
:105880004008400040006000600060006000400090
:105890002000200020002000200800000000000060
:1058A0000008000800080008000020002000600038
:1058B0006000A008C110C010A010C018C020E028CF
:1058C0006139E2498462E472267BE593069CA9ACC7
:1058D000CAACCAACEABCEABC0ABDC9BCA9BC88BC9B
:1058E00088BC88BC88BC47BC27B427B406B4E6B3E0
:1058F000C5AB84A3439BA5AB64A3429B2293019BAE
:1059000002930293C092C09AE092E092E09A219BA7
:10591000419B42A362AB83A3A4ABA3A3A3ABC3AB42
:10592000A3ABA3A301932193C4ABE4B3A3AB629B4A
:1059300084A3E5B346BC46B406B4E5B326B4C5A318
:1059400007A447AC27AC27ACE7A307A427AC8593F3
:10595000448B248B6493428BA17202622129A02084
:105960004010201060106010601060104008400867
:105970004008801080106018601060106010601087
:10598000601060106010601080188010801080100F
:1059900080108010A018601020084010601060185F
:1059A000801080108010801080108010801880106F
:1059B00080100111011101110111011101110011DA
:1059C00021190119E11801110011E010E010E11096
:1059D000E110E110E118E110C010A01080084008AB
:1059E0006000600060006000600060004000000037
:1059F0000008200000000008000800080008000857
:105A0000000800080000200020002000400060087E
:105A1000C010E018E018C018E0200029003140391B
:105A2000E1496362C5724683A59328A4A9B4C9B4A9
:105A3000C9ACE9B4EABC0ABDE9B4A9B488B469B494
:105A400068BC68BC47BC48BC27B406B4E6B3C5AB69
:105A500084A3439BA5AB63A3239B229B0193E19269
:105A6000E192C092E09AE092009B009B219B419BB7
:105A7000629B82A383A3A3A384A3A4ABA3ABC3A36E
:105A8000C3A3008B2193A3A305B4A3A3639BC5ABBE
:105A900005AC27BC27BC05B406AC27B4E6AB27A4ED
:105AA00048AC48AC27AC07A406A427AC6493248B6D
:105AB000238B859B6493A17AE0610029C128601043
:105AC0002010601880186010601060106010601066
:105AD000801080106018801080108010801080105E
