:020000040800F2
:10000000780900208902000807240008CD22000892
:100010000524000875080008ED2F00080000000006
:100020000000000000000000000000009D28000803
:10003000B108000800000000292400089F280008DB
:10004000A3020008A3020008A302000891280008E8
:10005000A3020008A3020008B3080008A3020008D6
:10006000A3020008A3020008A3020008A3020008DC
:10007000A3020008A3020008A3020008A3020008CC
:10008000A3020008A3020008A3020008A3020008BC
:10009000A3020008A3020008A3020008A3020008AC
:1000A000A3020008A3020008A3020008A30200089C
:1000B000A3020008A302000879290008A30200088F
:1000C000A3020008A3020008A3020008A30200087C
:1000D000A3020008A3020008812F0008A302000861
:1000E000B90800084D270008A3020008A302000871
:1000F000A3020008A3020008A3020008A30200084C
:10010000A3020008A3020008A3020008A30200083B
:10011000A3020008A3020008A3020008A30200082B
:10012000A3020008A3020008A3020008A30200081B
:10013000A3020008A3020008A3020008A30200080B
:10014000A3020008A3020008A3020008A3020008FB
:10015000A3020008A3020008A3020008A3020008EB
:10016000A3020008A3020008A3020008A3020008DB
:10017000A3020008A3020008A30200080000000078
:10018000A3020008A302000800F002F800F06DF8D6
:100190000AA090E8000C82448344AAF10107DA45E2
:1001A00001D100F062F8AFF2090EBAE80F0013F0C7
:1001B000010F18BFFB1A43F0010318477C400000F1
:1001C0009C4000000A444FF0000C10F8013B13F073
:1001D000070408BF10F8014B1D1108BF10F8015BA0
:1001E000641E05D010F8016B641E01F8016BF9D193
:1001F00013F0080F1EBF10F8014BAD1C0C1B09D1EA
:100200006D1E58BF01F801CBFAD505E014F8016B5B
:1002100001F8016B6D1EF9D59142D6D370470000ED
:100220000023002400250026103A28BF78C1FBD8FF
:10023000520728BF30C148BF0B607047642900F0E7
:100240001781752900F01481782900F04D81632908
:1002500000F0A482732900F0A982002070471FB526
:1002600003F0F8FE1FBD10B510BD00F0D1FA114625
:10027000FFF7F5FF02F002FF00F0EFFA03B4FFF71B
:10028000F2FF03BC02F0BAFE094880470948004764
:10029000FEE7FEE7FEE7FEE7FEE7FEE7FEE7FEE736
:1002A000FEE7FEE704480549054A064B7047000093
:1002B000352900088901000878030020780900200A
:1002C0007805002078050020704753EA020C00F002
:1002D00069802DE9F04B4FF00006002B1FBFB3FAE9
:1002E00083F503FA05F424FA05F65E4012BF1643BF
:1002F000B2FA82F502FA05F4C5F120051EBF22FA12
:1003000005FC44EA0C04203556EA044C4FEA144438
:1003100018BF641C4FF000084FF00009904271EBC9
:10032000030C39D3002919BFB1FA81F701FA07F696
:10033000B0FA80F700FA07F6C7F120071EBF20FACF
:1003400007FC46EA0C062037B6FBF4FCA7EB0507D2
:10035000103F07F01F0BCBF120060CFA0BFB2CFA19
:1003600006F644BFB3460026202FA4BF5E464FF0DA
:10037000000B5BEA060C08BF4FF0010B19EB0B09F1
:10038000ABFB027C48EB0608C01B06FB02CC0BFB58
:1003900003CC71EB0C01C1E70B46024641464846CF
:1003A000BDE8F08B13B54FF000004FF00001AFF344
:1003B0000080BDE81C4070470FB4044910B503AA83
:1003C000029800F0F7F910BC5DF814FB1000002053
:1003D00070B5044685690068C10601D5302600E085
:1003E0002026C00707D070BDD4E9012130469047D0
:1003F000206A401C20626D1EF6D570BD70B50446A3
:1004000085690078C00707D170BDD4E9012120209B
:100410009047206A401C20626D1EF6D570BD70B5F5
:100420000C460546012A05D02878800600D5EA69E1
:10043000002302E0012305E05B1C934202D2E05C52
:100440000028F9D1A869E618C01AA861286A1844DA
:1004500028622846FFF7BCFF04E0D5E9012114F823
:10046000010B9047B442F8D32846FFF7C7FF70BD91
:100470002DE9F0410646002410687529314616A57D
:1004800010D0AFF30080002802DA404213A507E045
:1004900031688A0701D512A502E0490704D511A5E4
:1004A000012401E0AFF3008000210A2206F12407B5
:1004B00009E0B0FBF2FCB0FBF2F302FB1C003030B1
:1004C00078541846491C0028F3D123462A46304662
:1004D000BDE8F04100F0FFB8000000002D00000072
:1004E0002B0000002000000070B504460D46214698
:1004F0001068AFF300802188090502D50F4A7A44BD
:1005000002E00E4A7A440E32002104F1240305E091
:1005100000F00F060009965D5E54491C0028F7D1D3
:1005200020780023000704D5702D02D009B10223E2
:1005300011322046BDE8704000F0CDB8A63B000067
:100540002DE9F05F894604464FF0000ADFF874B1E8
:10055000FB44C0F820A02046E1688847002874D0FA
:10056000252806D0D4E901219047206A401C20624A
:10057000F1E700265F462046E168884720280546C7
:1005800007DB312D05D2781910F8200C08B106438D
:10059000F1E7B00701D526F00406C4F81CA0002737
:1005A000C4F818A02A2D09D0284602F020FD38B33F
:1005B00004EB8708303DC8F8185019E059F8041BBF
:1005C000204604EB87029161E1688847012F0546C8
:1005D00018D1E069002820DA26F020061DE0D8F8BE
:1005E000180000EB800005EB40003038C8F8180018
:1005F0002046E1688847054602F0F9FC0028EED164
:10060000012F0AD02E2D08D12046E16888477F1C93
:100610000546022F46F02006C4DBA069002803DA55
:10062000404246F00106A061F00701D026F0100616
:100630006C2D0BD0682D09D04C2D39D06A2D35D0BA
:10064000742D35D07A2D33D016E038E0E1682F468E
:1006500020468847B842054609D16C2F26D04FF472
:100660008060E168064320468847054604E06C2F19
:100670001AD04FF4807006430DB3A5F1410019283C
:1006800002D8203546F400664A46294620462660B0
:100690004E46FFF7D3FD80B101280BD0F61D26F0A2
:1006A000070000F1080956E74020E4E78020D8E77A
:1006B0000020D6E706F104094DE7284652E7206AF4
:1006C00000F002B87C3B000030BCBDE8C09F704722
:1006D0007047704770472DE9F0470D46994692469E
:1006E000044600F124080168880604D5E06921F079
:1006F0001001216000E00120A84201DD471B00E05D
:100700000027A1697A1902EB0900081AA061207874
:10071000C00602D42046FFF75BFE002608E0D4E9BD
:1007200001211AF806009047206A401C761C2062BE
:100730004E45F4DB2078C0060AD52046FFF748FE78
:1007400006E0D4E9012130209047206A401C206255
:10075000381EA7F10107F4DC07E0D4E9012118F8FD
:1007600005009047206A401C2062281EA5F1010563
:10077000F3DC2046FFF742FE2078000602D5022077
:10078000BDE8F0870120FBE710B5436913B1AFF373
:10079000008001E0FFF743FE012010BD127800F158
:1007A00024010A7000224A700122EDE711684FF01F
:1007B000FF32E9E7074B70B50D467B4400F011F8B6
:1007C0000446284600F020F810B14FF0FF3070BD0D
:1007D000204670BDA728000001694A1C0261087804
:1007E000704700B58FB0CDE9013100210591054971
:1007F0007944CDE9031011466846FFF7A1FE0FB01A
:1008000000BD0000E5FFFFFF007B00F080007047A7
:10081000754600F02BF8AE4605006946534620F0B9
:100820000700854618B020B5FFF73CFDBDE8204025
:100830004FF000064FF000074FF000084FF0000B9C
:1008400021F00701AC46ACE8C009ACE8C009ACE84F
:10085000C009ACE8C0098D46704710B50446AFF337
:1008600000802046BDE81040FFF708BD00487047F3
:1008700014030020FEE7000000B50C4989B00A48C7
:100880000860084600F09EF80020019002200290C7
:1008900010226946054800F013F81021034800F0C3
:1008A000D4F809B000BD000000740040C40200206C
:1008B0007047012000F046B94FF4005000F042B9F3
:1008C0002DE9F04704464079002715460E460128D9
:1008D00009D04FF0010984F805900220207130689A
:1008E000042803D039E00220BDE8F0874FF0030868
:1008F0000DBB00F027FA074605E000BF00F022FA22
:10090000C01B01280FD82068406B0004F6D40120DA
:1009100000F0EAF82168B069086416E000F012FA05
:10092000C01B012807D9206940F00800206184F825
:1009300004800320D8E72068406B0028EEDB01200C
:1009400000F0D2F82168B0694864F0692168A840D5
:100950008864306A2168A840C8643069012808D1D9
:100960002268916B1F20A84081437069A84008430A
:1009700090632268D16B0720A8408143B368306838
:100980001843F3681843A8400843D06320680168FF
:100990004FF48042AA40914301602268116840F6FA
:1009A000FC70A84081437068A8400843106020682C
:1009B0000168C022AA409143016084F8049000209D
:1009C000607191E770B5040003D02079002510B163
:1009D00005E0012070BD6571204600F007F8022097
:1009E0002071256101202071002070BD0F4800B5E5
:1009F000816D87B041F000518165816D01F000513A
:100A00000591C16C41F00101C164C06C694600F000
:100A1000010005902020009003200190002002900A
:100A20004FF0904000F09AF807B000BD001002406F
:100A300018B5046800940068104421B11430009087
:100A40000360002018BD0830F9E730B54279012A6B
:100A500012D0012242710223037103681D6802FA59
:100A600001F425431D60002901680B6806D0C3F31B
:100A700083430F2B0AD00DE0022030BDC3F3830364
:100A80000F2B07D14B6843F0010302E04B6843F0A2
:100A900002034B60027100214171084630BD10B560
:100AA00090F825100024022903D00421C1630124F9
:100AB00018E001680A6822F00E020A6001680A68FC
:100AC00022F001020A6090F84420036C012101FA2F
:100AD00002F25A6080F82510002180F82410816B02
:100AE00001B18847204610BD70B5054600F02AF9CF
:100AF0004FEA000400F026F9001BA842FAD370BDAB
:100B000070B50546642002F085FA4FF09044012D3F
:100B10000ED04FF400518D4210D1094800F003F976
:100B200000280BD12046BDE87040202100F000B91C
:100B30000121204600F0F7F80128F3D070BD000035
:100B400000080048044910B50A68024202D0086053
:100B5000FFF7D6FF10BD0000140401402DE9F84F47
:100B6000DFF898B100234FF0010C4FF0030A4FF06B
:100B70000F090BF1040EB9E00CFA03F4224070D017
:100B80004D68022D01D0122D0ED1DD0800EB850835
:100B9000D8F820505E07F70E09FA07F6B5430E693C
:100BA000BE402E43C8F8206007685E0091F80480BC
:100BB0000AFA06F508F00308AF4308FA06F848EA0F
:100BC0000708C0F800804F68012F05D0022F03D01E
:100BD000112F01D0122F13D1D0F80880CF6828EA46
:100BE0000508B74047EA08078760D0F804800F7906
:100BF00028EA0408C7F300179F4047EA0807476040
:100C0000D1F804806FEA0807BF0706D1C76AA74377
:100C1000C8F3C0049C403C43C462C468AC438D68C4
:100C2000B5402543C5604C68E4005ED5344C256E64
:100C300045F001052566246E23F0030504F0010448
:100C40000094304C2E19B4689D072F0F09FA07F550
:100C5000AC43B0F1904F05D02B4DA84204D10125F3
:100C60001CE042E0002519E0284DA84201D10225F0
:100C700014E0274DA84201D103250FE0254DA842DD
:100C800001D104250AE0244DA84201D1052505E043
:100C9000224DA84201D1062500E00725BD4025438D
:100CA000B560DBF800405D464E689443F60300D51E
:100CB00014432C60DEF8004075464E689443B6033A
:100CC00000D514432C600D4D08352C684E689443B4
:100CD000F60200D514432C60084D0C352C684E6884
:100CE0009443B60200D514432C605B1C0A6832FAA8
:100CF00003F57FF441AF00F013B800000004014099
:100D000000100240000001400004004800080048B4
:100D1000000C00480010004800140048001800486B
:100D200018BCBDE8E08F0069084000D00120704782
:100D300042694A40426170470AB1816170478162ED
:100D40007047000001480068704700000400002060
:100D500002480168491C016070470000040000203F
:100D6000074810B5016841F480710160052000F06A
:100D700049F8002000F006F800F018F8002010BD37
:100D80000020024010B5044607484FF47A7100680D
:100D9000B0FBF1F001F099F800222146501E00F05E
:100DA00011F8002010BD000000000020704700F086
:100DB0001F02012191404009800000F1E020C0F8AD
:100DC00000117047F0B40E4B1B680C46C3F30223AE
:100DD000C3F10705042D00D90425191D072901D2E7
:100DE000002300E0DB1E012606FA05F1491E214022
:100DF00099409E40761E16403143F0BC01F004BB82
:100E00000CED00E0064900F0070208684FF6FF030A
:100E1000184040EA0220034A10430860704700006F
:100E20000CED00E00000FA050248006800F4C06024
:100E300070470000007000402DE9F84F044600277D
:100E40000088E54D3E46010504F1200B1DD5606E7E
:100E500078B1B0F5800F11D0B0F5000F04D0B0F527
:100E6000400F22D001270FE0E86840F48030E860AE
:100E70001BE00021201D01F0D9FA03E000215846B3
:100E800001F088FB070010D03E462088C00426D51C
:100E9000A06EC0B1B0F1807F1AD0B0F1007F0DD04C
:100EA000B0F1407F19D0012718E0D5F88800616EB5
:100EB00020F440000843C5F88800E6E7E86840F4FD
:100EC0008030E86009E00021201D01F0AFFA03E066
:100ED0000021584601F05EFB0746F7B13E46206808
:100EE00080033AD5A86D4FF00008C00009D4A86D62
:100EF00040F08050A865A86D4FF0010800F08050C8
:100F00000090DFF8D8A2DAF8001041F48071CAF836
:100F10000010FFF717FF814610E0D5F88800A16E9A
:100F200020F040700843C5F88800D8E7FFF70AFFB3
:100F3000A0EB0900022801D9032705E0DAF8000038
:100F4000C005F3D5002F7CD04FEA0706B8F1000F9B
:100F500003D0A86D20F08050A8652078C00707D086
:100F6000D5F88800A16B20F003000843C5F888007D
:100F70002078800707D5D5F88800E16B20F00C00B9
:100F80000843C5F888002078400707D5D5F88800C1
:100F9000216C20F030000843C5F888002078000755
:100FA00007D5D5F88800616C20F0C0000843C5F86B
:100FB00088002078C00607D5D5F88800A16C20F4F9
:100FC00040700843C5F888002078800607D5D5F81A
:100FD0008800E16C20F440600843C5F88800208850
:100FE000800507D5D5F88800E16D20F4402008433E
:100FF000C5F888002088400507D5D5F88800216EFF
:1010000020F440100843C5F888002078400607D532
:10101000D5F88800216D20F440500843C5F88800B9
:101020002078000607D5D5F88800616D20F440408F
:101030000843C5F888002088C00509D5D5F8880080
:1010400000E01CE0A16D20F440300843C5F88800A2
:1010500020884FF0006780044FF080684FD5D5F8A6
:101060008800E16E20F040600843C5F88800E06E1B
:10107000B8423CD1E86840F48010E8603FE0D5F821
:10108000900010F4407015D0D4F88410814211D033
:10109000D5F89000D5F8901020F4407041F48031DC
:1010A000C5F89010D5F8901021F48031C5F8901053
:1010B000C5F89000C00710D0FFF744FE074641F284
:1010C000883906E0FFF73EFEC11B494501D90326DA
:1010D0003CE7D5F890008007F4D5D5F89000D4F817
:1010E000841020F440700843C5F890002EE7404576
:1010F00005D10121201D01F099F900B106462068B3
:10110000000317D5D5F88800216F20F04060084310
:10111000C5F88800206FB84204D1E86840F4801018
:10112000E86007E0404505D10121201D01F07EF96E
:1011300000B106462068400317D5D5F88800616FD6
:1011400020F040600843C5F88800606FB84204D1C1
:10115000E86840F48010E86007E0404505D10121CF
:10116000201D01F063F900B10646208840041AD51D
:10117000D5F88800A16F20F040500843C5F88800DA
:10118000A06FB0F1805F03D0B0F1005F05D00AE03E
:101190000221201D01F04AF903E00221584601F026
:1011A000F9F900B106462088000407D5D5F8880073
:1011B000E16F20F080400843C5F888002068C00334
:1011C00007D555F8880FD4F8801020F00040084368
:1011D0002860304600F004B8001002400070004063
:1011E00018BCBDE8E08F00002DE9F047DFF868810A
:1011F00005460E46D8F8000000F00700B0420CD2B9
:10120000D8F8001021F007013143C8F80010D8F8D1
:10121000000000F00700B04274D128784F4C8007DE
:1012200005D5A068A96820F0F0000843A0602878E0
:10123000C00756D06868022818D0032819D0216842
:10124000D0B1490500295DDAA16821F0030101430D
:10125000A160FFF777FD6968074641F288300229EF
:1012600012D003291ED0814649B335E02168890395
:10127000E8E721688901E5E78907E3E7FFF762FD11
:10128000C11B494501D924E08146A068C0F3810013
:101290000228F3D125E000BFFFF754FDC11B4945EB
:1012A00001D916E08146A068C0F381000328F3D17C
:1012B00017E000BFFFF746FDC11B494509D8A068EC
:1012C00010F00C0FF6D10CE0FFF73CFDC11B4945B7
:1012D00002D90320BDE8F087A068C0F3810001288F
:1012E000F2D1D8F80010404601F00701B1420BD905
:1012F000016821F0070131430160006800F0070038
:10130000B04201D00120E5E72878400705D5A06864
:10131000E96820F4E0600843A0602878000706D55B
:10132000A068296920F4605040EAC100A06000F084
:101330004BF8A168F02292FAA2F201F0F001B2FAA1
:1013400082F2D140064A515CC8400649086000203C
:10135000FFF718FD0020BDE700200240001002400A
:1013600060400008000000200848094900688968BA
:101370004FF4E06292FAA2F201F4E061B2FA82F272
:10138000D140044A515CC840704700000000002072
:1013900000100240A0400008084809490068896818
:1013A0004FF4605292FAA2F201F46051B2FA82F262
:1013B000D140044A515CC840704700000000002042
:1013C00000100240A040000870B53B4900231846B9
:1013D0008A683A4C12F00C0F4FEA640514D08A6800
:1013E000C2F38102032A04D1CA6802F00302012A6F
:1013F0000AD08A68C2F38102012A21D08A68C2F326
:101400008102022A1ED01EE00A68120706D4D1F813
:1014100094204FF4706302F4706203E00A68F023D2
:1014200002F0F00293FAA3F3B3FA83F3DA40244B09
:1014300053F822308A6812F00C0F04D1184602E0EB
:10144000204600E028468A68C2F38102032A31D18F
:10145000C868CA6800F00300702696FAA6F602F083
:101460007002B6FA86F6F240521C4FF4FE4602288D
:1014700004D0032805D0B3FBF2F004E0B4FBF2F093
:1014800001E0B5FBF2F0CA6896FAA6F302F4FE4258
:10149000B3FA83F3DA40C96850434FF0C06292FA5E
:1014A000A2F201F0C061B2FA82F2D140491C4900B7
:1014B000B0FBF1F070BD0000001002400024F40009
:1014C000704000082DE9F84304460078FE4DC00640
:1014D00063D5A86810F00C0F0AD0A069002828680E
:1014E00078D040F001002860FFF72CFC06465AE057
:1014F0002868800702D5A06900286AD0216A286878
:101500004FF0F006000703D5286800F0F00003E074
:10151000D5F8940006EA1010814216D9084601F069
:10152000D7F8002855D1286840F0080028602868BE
:10153000216A20F0F000084328606868E16920F41F
:101540007F4040EA0120686015E0286840F008000C
:1015500028602868216A20F0F00008432860686845
:10156000E16920F47F4040EA01206860206A01F0D0
:10157000AFF80028D6D1FFF727FFA96896FAA6F2A0
:1015800001F0F001B2FA82F2D140D04A515CC84079
:10159000CF4908600020FFF7F5FB2BE0FFF7D2FBF7
:1015A000801B02287ED828688007F7D5286840F07D
:1015B000080028602868216A20F0F00008432860AD
:1015C0006868E16920F47F4040EA0120686011E02A
:1015D00000E0B7E020F001002860FFF7B3FB06460B
:1015E00005E000BFFFF7AEFB801B0228DAD82868B1
:1015F0008007F7D42078C00748D0A868C0F38100DE
:1016000002281DD0A868C0F38100032803D1E86830
:10161000C043800714D06068B0F5803F17D0B0F5A4
:10162000A02F286817D020F480302860286820F484
:10163000802028606068E0B1FFF784FB064614E074
:101640002868800322D5606800287BD01EE02868C7
:1016500040F48030EDE740F480202860F7E700BFD9
:10166000FFF770FB801B64289CD828688003F7D59F
:101670000CE0FFF767FB064605E000BFFFF762FBE3
:10168000801B64288ED828688003F7D420788007D0
:1016900048D5A8684FF0F857C0F38100012816D04C
:1016A000A86800E0AFE0C0F38100032804D1E86837
:1016B00000F0030002280AD0E0680028286821D042
:1016C00040F480702860FFF73DFB06460BE0286879
:1016D00040050BD5E0680028B7D007E0FFF732FBE4
:1016E000801B0228C0D828684005F7D5686897FA9B
:1016F000A7F22169B2FA82F220F0F8509140084333
:1017000068600FE020F480702860FFF71BFB06463E
:1017100005E000BFFFF716FB801B022873D828687E
:101720004005F7D42078000729D560690028D5F84E
:10173000940013D040F00100C5F89400FFF702FBBD
:10174000064606E0FBE000BFFFF7FCFA801B02281C
:1017500059D8D5F894008007F6D510E020F00100A4
:10176000C5F89400FFF7EEFA064604E0FFF7EAFA40
:10177000801B022847D8D5F894008007F6D420783B
:10178000400763D5A86D0026C00008D4A86D40F0BE
:101790008050A865A86D012600F0805000904D484B
:1017A0000168C90511D40168804641F48071016067
:1017B000FFF7C8FA074604E0FFF7C4FAC01B022887
:1017C00021D8D8F80000C005F6D5A068012815D0AA
:1017D0000528D5F8900017D020F00100C5F890003A
:1017E000D5F8900020F00400C5F89000A06841F200
:1017F0008838C8B1FFF7A6FA074610E0D5F8900080
:1018000040F00100F0E75EE040F00400C5F8900011
:10181000F4E700BFFFF796FAC11B414553D8D5F84E
:1018200090008007F6D50CE0FFF78CFA074604E03D
:10183000FFF788FAC11B414579D8D5F89000800799
:10184000F6D41EB1A86D20F08050A865A06AC8B378
:10185000A968C1F38101032972D00228286820F009
:101860008070286011D02868000106D428688000A4
:1018700003D4E86820F00300E860E86816490840EF
:10188000E860FFF75FFA044654E0FFF75BFA0646AC
:1018900005E000BFFFF756FA801B022847D82868EA
:1018A0008001F7D4206BE16A000110380843616BB6
:1018B000A26B0902120941EA42410843A18F074A7B
:1018C00049080DE039E032E00010024060400008B5
:1018D0000000002000700040FFFFEEFE0000E0FF6F
:1018E00002EB4151084394F840104908120102EB01
:1018F00041610843E860286840F080702860E8682B
:1019000040F08070E860FFF71DFA044605E000BF74
:10191000FFF718FA001B022809D828688001F7D5BC
:101920000BE000BFFFF70EFA001B022802D90320CC
:10193000BDE8F88328688001F4D40020F8E7FFE7C9
:101940000120F5E7704700002DE9F74F044690F8B5
:1019500020008B4601281CD04FF0010884F820801D
:10196000022084F821002168CA204862206853219F
:101970004162206880684FF0000540054FF0FF0687
:101980004FF0030A4FF47A790FD5FFF7DBF90746DA
:1019900007E0022000F050B8FFF7D4F9C01B48451B
:1019A00011D82068C0684007F6D42068816821F407
:1019B00080618160FFF7C6F907460CE0FFF7C2F9C6
:1019C000C01B484507D92068466284F821A084F8E6
:1019D00020500320DEE72068C0684007EED521686C
:1019E000C1F814B02068816821F007018160206887
:1019F0008168029A114381600E48016841F48011A8
:101A000001600C480830016841F4801101602068D1
:101A1000816841F4804181602068816841F480617F
:101A200081602068466284F8218084F8205000207C
:101A3000B0E70000000401401EBCBDE8E08F20219B
:101A40004FF09040FFF774B910B50B4904464FF4BE
:101A5000801008602068C168490508D5C16801F098
:101A6000800161F49061C1602046FFF7E8FF01202A
:101A700084F8210010BD00001404014001A0FEF70D
:101A80009BBC0000414C41524D2041210D0A0000F9
:101A900010B51B4904464FF4802008601EE088689A
:101AA000C0040BD5C868C00508D5C86800F0800020
:101AB00060F4C070C8602046FFF7E0FF20688168CE
:101AC00089040BD5C168890508D5C16801F080017A
:101AD00061F42071C1602046FFF734FF21688868F7
:101AE000C00402D5C868C005D9D48868800402D56E
:101AF000C8688005D3D4012084F8210010BD0000FF
:101B0000140401402DE9F05F044690F820000B46D4
:101B1000012849D04FF0010A84F820A0022084F85F
:101B200021002068002680684FEA4060DAB3002870
:101B300057DA187800F010FE93F8200000F00CFE41
:101B400098781978DA7840EA01405978090241EA30
:101B50000241084393F8201040EA0165D8695F68A4
:101B6000054358692168054398690743CA204862BC
:101B7000216853204862586A4FF0FF08B0F5807F13
:101B800020684FF47A7B81682DD021F40071816048
:101B90002068C16801F0800161F42071C160FFF725
:101BA000D1F8814655E002E0022000F07BB8002821
:101BB00000DBDE70187800F0D8FD0204587800F0E1
:101BC000D4FD42EA0022987800F0CFFD0243D87895
:101BD00042EA004293F8200000F0C7FD42EA0065A7
:101BE000BCE7DE70A8E721F4807181602068C168DD
:101BF00001F0800161F4C071C160FFF7A3F8814674
:101C000006E000BFFFF79EF8A0EB0900584517D883
:101C10002068C068C007F5D02068C56120684764A7
:101C20002068816841F4807181602068816841F496
:101C300080511FE0FFF786F8A0EB0900584508D94E
:101C40002168C1F82480032084F8210084F82060F2
:101C5000ABE72068C0688007ECD520680562206883
:101C600087642068816841F4007181602068816820
:101C700041F4005181600A48016841F4802101600B
:101C800007480830016841F4802101602168C1F8EB
:101C9000248084F821A084F82060002085E70000DB
:101CA0000004014030BCBDE8C09F00002DE9F047B2
:101CB000044690F820000B46012826D04FF0010979
:101CC00084F82090022084F82100587802B300F0B4
:101CD00043FD987800F040FD9878D97840EA0145B6
:101CE00058781978000240EA413005432168CA203B
:101CF0004862216853204862204600F041FD0026DA
:101D0000FF274FF0040858BB19E00220BDE8F08718
:101D1000C10603D500F0EF000A305870D87800F003
:101D200024FD0204587800F020FD42EA0022987851
:101D300000F01BFD0243187842EA4035D6E7104810
:101D40000540206845602068C16821F08001C160BD
:101D50002068806880060BD4204600F08FF838B1E8
:101D60002068476284F8218084F820600120CDE754
:101D70002068476284F8219084F820600020C5E73D
:101D80003FFFFF002DE9F047044690F820000D4684
:101D9000012812D04FF0010A84F820A0022084F814
:101DA00021002068002680684FEA406042B1002888
:101DB0001ADA287800F0D0FC17E00220BDE8F0879E
:101DC000002800DBEE70287800F0CFFC0204687871
:101DD00000F0CBFC42EA0022A87800F0C6FC0243E7
:101DE000E87842EA00470AE0EE70A878297840EAED
:101DF00001476878E978000240EA0140074321681A
:101E0000CA204862216853204862204600F0B8FC8E
:101E10004FF0FF084FF00409E0B917480740206869
:101E200007602068816821F480218160D5E9030181
:101E3000084321688A68104388602068C16821F0DF
:101E40008001C1602068806880060CD4204600F0C4
:101E500015F840B12168C1F8248084F8219084F8F5
:101E600020600120AAE72168C1F8248084F821A01D
:101E700084F820600020A1E77F7F7F0070B50446D2
:101E80000068C16821F0A001C160FEF75BFF054654
:101E90004FF47A7607E000BFFEF754FF401BB042D4
:101EA00001D9032070BD2068C0688006F4D50020E9
:101EB00070BD4FF0E0210428086903D020F0040031
:101EC0000861704740F00400FAE710B5401EB0F119
:101ED000807F01D3012010BD4FF0E02460610F210D
:101EE000601700F091FA0020A06107202061002017
:101EF00010BD10B5040003D094F8390010B107E00C
:101F0000012010BD002084F83800204600F00CF8B5
:101F1000022084F83900211D206800F047FD0120CF
:101F200084F83900002010BD70470168CA6842F08B
:101F30000102CA600068016841F0010101600020EF
:101F4000704770477047000070B501680446C86963
:101F50000A6810F00F0508D1830606D5930604D54C
:101F60002046BDE8704000F051BE8B68002D66D061
:101F700003F0010502F490762E4360D0C60707D027
:101F8000D60505D501260E62E16E41F00101E1663C
:101F9000810708D5D90706D0266802213162E16E93
:101FA00041F00401E166410708D5D90706D023684E
:101FB00004211962E16E41F00201E16601070AD5D0
:101FC00002F02001294306D0236808211962E16E3E
:101FD00041F00801E166E16E002929D0800604D5B0
:101FE000900602D5204600F011FEE06E000703D4F3
:101FF0002068806840061CD5204600F0F9FD206866
:102000008168490611D5816821F040018160606EC8
:1020100058B133498163606EFEF741FD002807D057
:10202000606E816BBDE8704008472046FFF78AFF6D
:1020300070BD2046FFF786FF0020E06670BD8D680A
:10204000C6024FF020030CD56D020AD5D8030862F2
:1020500084F8693084F86A302046BDE87040FFF7A4
:1020600070BF05062ED515062CD594F869002128D9
:10207000E4D1B4F8520020B1A068B0F5805F0AD076
:102080000BE0086820F0800008602068016841F0DB
:102090004001016070BD206958B1E06C411CE164F1
:1020A00021680078A1F8280034F8520F401E2080E3
:1020B00070BDE06C0088C0F308000885E06C801CEF
:1020C000E064F1E74006F3D55006F1D5086820F04A
:1020D0004000086084F86930204600F0F6F870BDD2
:1020E000DD2B000810B5040003D094F8690010B18E
:1020F00007E0012010BD002084F86800204600F0B1
:1021000027F8242084F869002068016821F0010183
:102110000160204600F0B6FD0128EBD0606A10B1E6
:10212000204600F0C9FC2068416821F490414160DC
:102130002068816821F02A0181602068016841F0EF
:10214000010101602046BDE8104000F019BD00000B
:1021500030B5044600681F4987B0884237D11E4910
:10216000C86C40F00100C864C86C00F00100059024
:10217000886D40F400308865886D012100F40030DE
:102180000590042000900220CDE901010390072072
:102190004FF09045049069462846FEF7DFFC082082
:1021A000009069462846FEF7D9FC2068016821F0B6
:1021B000400101602068016841F020010160262093
:1021C000FEF7F5FD032211462620FEF7FBFD07B0C2
:1021D00030BD000000440040001002402DE9F84FDF
:1021E000044690F86A009A4616460D46202866D1A5
:1021F000EDB1E6B194F86800012860D0012084F8C0
:1022000068000027E766222084F86A004C34FEF755
:1022100099FDA6818146E68154F8440C4FF480581C
:10222000FF214C3C404508D1206918B10DE0012048
:1022300000F047B840F2FF100DE07F2218B1B0F176
:10224000805F05D009E0206950B9A4F85C1004E073
:10225000206928B13F20A4F85C00B4F85C601DE060
:10226000A4F85C20F9E700BFB4F85A00401EA4F8B7
:102270005A004B46002220212046CDF800A000F055
:102280004DFE08B10320D3E7A068404501D1206985
:1022900078B12068808C304005F8010BB4F85A0002
:1022A0000028E1D1202084F86A0084F868700020BA
:1022B000BEE72068808C304025F8020BEEE7022054
:1022C000B6E718BCBDE8E08F70477047FEE7000036
:1022D00070B5154886B0C16C41F00101C164C16C94
:1022E00001F001010591C16C41F00401C164C06CB1
:1022F000012400F00400009405900326002502202C
:102300000396CDE9015069464FF09040FEF726FC58
:102310006003CDE90005CDE9024669460348FEF7B2
:102320001DFC06B070BD000000100240000800480F
:102330002DE9F04101251D4C6E031D4F4FF09048D3
:10234000012813D0207850B131463846FEF7EBFC17
:1023500070B101214046FEF7E6FC012808D0314665
:102360003846FEF7E0FC012818D01DE02570EBE7A9
:102370000A2000F04FFE0020207031463846FEF75C
:10238000D2FC30B101214046FEF7CDFC012803D03C
:102390000AE00320BDE8F0810420FBE7012140466C
:1023A000FEF7C1FC00B925700020F3E714000020FF
:1023B00000080048124810B5C16C86B041F0010118
:1023C000C164C06C4FF0904400F0010005906020A3
:1023D00000900120019002200290032003906946A2
:1023E0002046FEF7BBFB002220212046FEF7A4FC7E
:1023F000002240212046FEF79FFC06B010BD0000E1
:1024000000100240FEE770470907090E002806DAAF
:1024100000F00F0000F1E02080F8141D704700F17B
:10242000E02080F800147047704700002DE9F0416B
:10243000544C05460F46E0680026820728684FF096
:10244000700112D0E26802F0030282421BD1D0B1C7
:10245000E06891FAA1F100F07000B1FA81F1C84092
:102460006968401C88420ED122E0012804D002286D
:1024700005D0032807D108E02268920701E022680E
:102480005205002A07DB012678E02268920302D475
:1024900022685203F5E7E26891FAA1F122F0730392
:1024A0006A68B1FA81F1521E8A4013430343E36024
:1024B000206820F080602060FEF744FC804605E044
:1024C000FEF740FCA0EB080002284ED8206800016F
:1024D000F6D44FF4FE4017B390FAA0F0A968012F8C
:1024E000B0FA80F04FF0FF3201FA00F12AD06869AB
:1024F00002EB50004FF0C06292FAA2F2B2FA82F2FE
:10250000904001432069204A104001432161206826
:1025100040F080602060FEF715FC074627E090FA47
:10252000A0F0A968B0FA80F08140E8684FF400326A
:1025300092FAA2F20009B2FA82F2904001432069B5
:10254000124AE1E7286902EB50004FF4C00292FA08
:10255000A2F2B2FA82F29040014320690C4AD3E71A
:10256000FEF7F0FBC01B022801D9032606E0206815
:102570000001F5D52069A969084320613046BDE80E
:10258000F081000000100240FF80FFF9FF80FDFF96
:10259000FF809FFF2DE9F0414A4C06468846E068DF
:1025A0000025810730684FF0700312D0E16801F018
:1025B000030181421BD1D0B1E06893FAA3F100F08E
:1025C0007000B1FA81F1C8407168401C88420ED198
:1025D00022E0012804D0022805D0032807D108E012
:1025E0002168890701E021684905002907DB0125E9
:1025F00064E02168890302D421684903F5E7E168B2
:1026000093FAA3F321F073027168B3FA83F3491EBE
:1026100099400A430243E260206820F08050206025
:10262000FEF790FB074604E0FEF78CFBC01B022878
:102630003BD820688000F7D44FF4FE4191FAA1F115
:10264000B068B8F1000FB1FA81F100FA01F019D0C9
:1026500031694FF0FF3202EB51014FF0C06292FA44
:10266000A2F2B2FA82F2914008436169164A11401F
:1026700008436061206840F080502060FEF762FBF4
:10268000074614E0F1684FF4003292FAA2F2090909
:10269000B2FA82F29140084361690C4AE7E700BF51
:1026A000FEF750FBC01B022801D9032506E0206875
:1026B0008000F5D560697169084360612846BDE80E
:1026C000F081000000100240FF80FFF9FF80FDFF55
:1026D000F8B51C4D06460024A86DC00002D5FEF7D3
:1026E000A3FB0DE0A86D40F08050A865A86D00F038
:1026F00080500090FEF798FBA96D21F08051A965EC
:10270000B0F5007F04D0802E07D94FF003040AE013
:10271000802E08D9A02E01D804E001D1022402E0C5
:10272000702E00D101240848016821F007012143DF
:102730000160006800F00700A04201D00120F8BD50
:102740000020F8BD00100240002002400148FFF7C1
:102750009FB90000A0020020010901EB810100F0F7
:102760000F0000EB4100C0B27047002102E00A38C0
:10277000C0B2491C0A28FAD2090740EA1160704722
:1027800070B504460068C168490614D44FF0FF31A3
:10279000C160FEF7D7FA05464FF47A7607E000BF2E
:1027A000FEF7D0FA401BB04201D9032070BD20686B
:1027B000C0684006F4D5002070BD000000B58BB0A5
:1027C0008DF800108DF8012000218DF802308DF871
:1027D0000310019105914FF0706106914FF0804117
:1027E0008DF8200088150791099000226946064857
:1027F000FFF788F9022201212920FEF7E3FA2920B8
:10280000FEF7D5FA0BB000BDA002002008B58DF888
:1028100002208DF801108DF800308DF803000022A1
:1028200069460248FFF742FA08BD0000A0020020F6
:1028300000B585B08DF800008DF8011000208DF8EE
:1028400002200390024604908DF803306946024846
:10285000FFF798FA05B000BDA00200200B4A10B5A2
:102860001268D36803F0800363F49063D360024678
:102870000648FFF769F8022211460320FEF7A2FA84
:10288000BDE810400320FEF792BA0000A00200202D
:102890000148FFF7D9B80000A00200207047FEF7FA
:1028A00057BA000070B5214CBAB03E9DA66D46F0F7
:1028B0008056A665A46D04F0805438941C4C26689C
:1028C00026F4C06646F40076266024682EAE04F432
:1028D000C0643894012422942404239402242C9468
:1028E00003242D94329286E82B0022A8FEF7EAFDFD
:1028F00000B1FEE70F20CDE933040020359036907B
:102900003790042133A8FEF76FFC00B1FEE74FF4C7
:10291000804000904FF040501E906846FEF78CFAC1
:10292000002800D0FEE73AB070BD00000010024061
:10293000007000400D48016841F4700101600C48CE
:10294000016841F001010160002181600268094BCA
:102950001A4002608214C260026822F4802202607F
:1029600081610249C00380390860704788ED00E04A
:1029700000100240FFFFF6EA10B50A4C2068C0685C
:10298000C043C00709D1084800698047216800207A
:10299000486221686420C862E06021686FF001002D
:1029A000086110BDD8020020740000202DE9F04716
:1029B0000268244B244D254E254F264C4FF0804A6B
:1029C000984209D0504507D0A84205D0B04203D064
:1029D000B84201D0A04204D122F0700C4A6842EA09
:1029E0000C02DFF874C0DFF87480DFF8749098424E
:1029F0000FD050450DD0A8420BD0B04209D0B842FC
:102A000007D0A04205D0604503D0404501D04845DD
:102A100003D122F44075CA682A4302608A68C26200
:102A20000A688262984207D0A04205D0604503D070
:102A3000404501D0484501D1096901630121416147
:102A4000BDE8F087002C0140000400400008004071
:102A5000000C0040003401400040014000440140AF
:102A60000048014038B5114A05460C46906D40F0CB
:102A700004009065906D032200F004000090114660
:102A80001E20FEF79FF91E20FEF791F9094A08481B
:102A9000C2E900040020C2E9020510611046FFF7F8
:102AA00028FABDE838400348FFF73FBA001002405B
:102AB00000080040D802002090F82410C90706D072
:102AC00001684A68836A22F400321A434A6090F827
:102AD0002410890706D501684A68C36A22F4803247
:102AE0001A434A6090F82410490706D501684A68DD
:102AF000036B22F480221A434A6090F824100907DD
:102B000006D501684A68436B22F400421A434A60C2
:102B100090F82410C90606D501688A68836B22F4F0
:102B200080521A438A6090F82410890606D50168FD
:102B30008A68C36B22F400521A438A6090F824100A
:102B4000490611D501684A68036C22F480121A43C1
:102B50004A60016CB1F5801F06D101684A68436C78
:102B600022F4C0021A434A6090F82410090606D5E0
:102B700001684A68806C22F4002202434A60704770
:102B8000F8B500260446C666FEF7DCF80546206860
:102B900000686FF07E47000708D52B4600224FF4EF
:102BA00000112046009700F0B9F960B9206800686C
:102BB00040070AD52B4600224FF48001204600979B
:102BC00000F0ACF908B10320F8BD202084F86900BA
:102BD00084F86A0084F868600020F8BD10B5806A47
:102BE0000021A0F85A10A0F85210FFF7ABF910BD61
:102BF00001680A6822F490720A6001688A6822F00B
:102C000001028A60202180F86A10704710B5B0F880
:102C10005C2090F86A300168222B05D0088B40F0C8
:102C200008000883022010BD898C8368B3F5805F9B
:102C300001D103696BB11140426D531C43651170A2
:102C4000B0F85A10491E0904090CA0F85A1007D010
:102C500015E0436D11401980416D891C4165EFE716
:102C600001680A6822F490720A6001688A6822F09A
:102C700001028A60202180F86A10FFF725FB0020FE
:102C800010BD00002DE9F041044601688068266906
:102C9000D4F81CC0304366691025002246EA0C06B1
:102CA0003043924B0E681746DFF844C206EA0C0622
:102CB00006430E6020684168E66821F440513143C4
:102CC00041602168A069994201D0266A30438E682C
:102CD00026F4306606438E60864E21688648B142EF
:102CE0000DD1D0F8880010F0030006D001285AD08A
:102CF000022856D0032859D157E0012556E07F4ECF
:102D0000B1420BD1D0F8880010F00C0047D0042855
:102D100049D0082845D00C2848D146E0784EB14229
:102D20000BD1D0F8880010F0300038D010283AD0FD
:102D3000202836D0302839D137E0724EB1420BD13D
:102D4000D0F8880010F0C00029D040282BD080286F
:102D500027D0C0282AD128E06B4EB1420ED1D0F83E
:102D6000880010F440701AD0B0F5807F1BD0B0F509
:102D7000007F16D0B0F5407F18D116E0994215D1EA
:102D8000D0F8880010F4406009D0B0F5806F0AD008
:102D9000B0F5006F05D0B0F5406F07D105E0002514
:102DA00004E0022502E0042500E00825574E4FF418
:102DB0000040994244D135B1022D07D0042D07D0EF
:102DC000082D10D107E0FEF7CFFA03E0304602E00D
:102DD000FEF7FAFA98B3626802EB4201814202D828
:102DE000B0EB023F01D901277CE000266DB1022D36
:102DF0000ED0042D13D0082D1AD00127444AA0F577
:102E000040719142EFD821686BE0FEF7ADFA08E01F
:102E1000500840490FE00023FDF757FAEEE7FEF7B0
:102E2000D3FA6268010E0302500818187141F2E7E4
:102E300050084FF40001401846F10001EBE751E063
:102E4000E369834227D1092D1ED2DFE805F005088A
:102E5000131D161D1D1D1900FEF786FA01E0FEF771
:102E60009BFA4100D4F8040001EB5001B1FBF0F0F3
:102E700082B20AE028496068F6E7FEF7A5FAF0E7B3
:102E80004FF480316068EFE7012722F00F00C2F3B2
:102E900042010843B7E7092DA5D2DFE805F006098E
:102EA0000C05120505051C009DE7FEF75DFA0AE01A
:102EB000FEF772FA07E0606806EB5002B2FBF0F032
:102EC0000EE0FEF781FA0146606801EB5001B1FBAC
:102ED000F0F080B297E7626800EB5200B0FBF2F0CE
:102EE00080B2C8603846BDE8F08100000080004034
:102EF000F369FFEF00380140001002400044004039
:102F000000480040004C0040005000400024F40005
:102F1000FFFC0F00000024F40048E8012DE9F04117
:102F2000984617460E460446069D1DE0681C1BD0B9
:102F30002DB1FDF707FFA0EB0800A84214D92068C7
:102F4000016821F4D07101602068816821F00101DD
:102F50008160202084F8690084F86A00002084F8E9
:102F600068000320BDE8F0812068C06936EA0000EF
:102F700004D00020B842D9D00020F3E70120F9E7BF
:102F800038B518480068C069C043800622D44FF4A1
:102F90007A73012269461348FFF720F91248018825
:102FA0000A0417D44B049DF800304FF0000204D5FA
:102FB0000A2B0ED141F4004112E00D2B0ED0C1F3CB
:102FC0000D04084D491CC83D89B22B550180C72905
:102FD00000D902800348FEF7B7FF38BD41F48041B5
:102FE0000180F7E7300200200C000020FEE73038B7
:102FF0000A2801D201207047002070477047000066
:1030000010B504460420FEF754FF0148046010BDCB
:103010000800002070B5054600244FF47A7603E0DE
:10302000304600F005F8641CAC42F9D370BD0000D6
:1030300070B54FF0E024002265690949A369096869
:103040004843A1699942FCD002D2A3EB010302E0FC
:10305000A5EB010633441A440B468242F1D370BDFE
:103060000800002004490A685206FCD5024AC1B291
:103070000C321180704700001C44004008B5002449
:10308000FDF76EFE02200246009007231421012066
:10309000FFF708FC5020FFF7B3FF4FF4E13000F0DA
:1030A0003BF815A0FDF788F918484168502088477B
:1030B000FFF780F9FFF70CF9FDF7DEFB4FF47A65B7
:1030C0000020FFF735F9032802D0042804D00FE0D0
:1030D000AC4207D2C83402E0C82C02D9C83CA4B222
:1030E00000E000242346002210210948FDF7A0FC3F
:1030F0000A20FFF78FFFE3E73E3E73797374656D37
:103100002072657365742E0D0A00000074000020A3
:10311000C4020020006870470749064AC1E9002040
:1031200000208860C860086188610C2048610846FA
:10313000FEF7D8BF004400403002002070B596B0C2
:10314000054614AB01AA03A900F0DEF9002824D13A
:103150008DF84C001D4C042615E000BF216806EBDD
:10316000C00014AB08586A460BA900F0CDF900283E
:1031700013D103A90BA800F00CFC80B19DF84C0002
:10318000401C8DF84C00217DC0B28142E6D8207DE4
:103190009DF84C1088420ED1042016B070BD9DF8E9
:1031A00000009DF80410884201D90220F5E79DF83F
:1031B0004C00A075EBE713A9284600F061FA00283F
:1031C000EBD19DF84C0060750020E6E7740000200C
:1031D0002DE9F0417F4C9AB0A57D207DA8427DD994
:1031E0000421206801EBC50119AB405810AA11A9B0
:1031F00000F08AF911A978A0FDF7DEF800270DF19B
:10320000180833E0208B0121B940084217D0222151
:1032100073A0FDF7D1F8384600F09CFA011971A0AF
:103220002431FDF7C9F822216DA0FDF7C5F8384615
:1032300000F090FA2044243048F827000CE038468B
:1032400000F088FA2044416A48F82710E07D08B36E
:1032500065A000BFFDF7B0F89DF84000401E874212
:1032600002D063A0FDF7A8F87F1CFFB29DF84000D4
:103270008742C7D35FA0FDF79FF800F0B1FA607DE9
:103280000B2814D2DFE800F0080D31384048525EB8
:103290006B78880058A0DDE7206850F8350080473B
:1032A00004E0206850F8351006988847064600F07C
:1032B00063FA9DF8640001287DD050A0FDF77CF8EA
:1032C00094F8EC0000280DD0D4F8F0100A20B1FBDF
:1032D000F0F200FB1212B1FBF0F100E002E048A0B6
:1032E000FDF76AF81AB0BDE8F081206850F8352083
:1032F000DDE906019047D9E7206806AE50F8353081
:1033000096E807009847D1E7206806AE50F8355098
:1033100096E80F00A847C9E70A980090206806AE13
:1033200050F8355096E80F00A847BFE7DDE90A01DD
:10333000CDE90001206806AE50F8355096E80F0040
:10334000A847B3E70AAB06AE93E807008DE807008D
:10335000206850F8355096E80F00A847A6E70AAE57
:1033600096E80F008DE80F00206806AE50F8355043
:1033700096E80F00A84799E70BAE96E80F0001AE5C
:1033800086E80F000A980090206806AE50F8355085
:1033900096E80F00A84789E70CAE96E80F0002AE4A
:1033A00086E80F00DDE90A01CDE90001206806AEDC
:1033B00050F8355000E003E096E80F00A84775E7A5
:1033C000E07D314618B116A0FCF7F6FF78E717A0AC
:1033D000FAE70000740000200D0A257328000000A1
:1033E00025630000257300003058255800000000B8
:1033F0002C00000029000000256C64003B0D0A0031
:1034000046756E6374696F6E2052756E2054696DD7
:10341000653A25642E2531646D730D0A00000000A5
:103420003D305825583B0D0A000000003D256C75C5
:103430003B0D0A00F0B50446002007460646054647
:1034400023782C2B03D0292B04D01BB103E015B912
:10345000012700E015B31EB1222B2BD0F7B92FE0C6
:10346000A3F1300CBCF1090F19D92D2B17D02B2B40
:1034700015D0A3F1610CBCF1050F10D9A3F1410CDB
:10348000BCF1050F0BD9582B09D0782B07D0222B74
:103490000CD0202B1DD02C2B1BD0FF260CE05FB9AD
:1034A000612B00D3203B01F8013B12E027B9012634
:1034B00035460EE0002567B100230B701670F0BD95
:1034C0003DB15C2B02D1401CC0B2641C237801F8D2
:1034D000013B401CC0B2641CB2E730B5002515703A
:1034E0000AE001F8014B1478401C641CE4B214702B
:1034F0009C4201D3012030BD0478202C01D0002C47
:10350000EFD10D70002030BD2DE9FF4F002582B0B6
:10351000984604462F462E464FF0010BAA462A46EF
:10352000A94615E0202910D002F07F03052B0CD20C
:1035300002B9802202F07F03042B01D12A290AD18B
:10354000521C0DF80310D2B201E0852A04D0401CB1
:1035500001780029E6D162B102F07F0244A10DF8A2
:103560000290684600F015FA38B1012188F8001081
:1035700000224FF00008234614E088F80090F7E797
:1035800008F1010000F0FF0813F8010F202801D016
:103590002A2807D1184600F089F9282802D02A28BD
:1035A00000D047461878282801D00028E8D10FB16C
:1035B0003C44641C00273946207888B1282804D070
:1035C000292806D022280FD010E079B96D1CEDB261
:1035D0000CE059B925B16D1E15F0FF0501D00CE0C6
:1035E0000127012E32D039E049B100214DB12C28FC
:1035F0000FD020281FD028281DD07AB117E0012134
:10360000F4E7202820D0039B18700398401C0390F7
:103610001AE0521C4FF0010BD2B20CE0BAF1050FC8
:1036200005D20DF80A000AF1010000F0FF0A0BF1C3
:10363000010000F0FF0B012D06D1BBF1020F03D1F9
:10364000761C4FF0030BF6B2641CB5E70DF80A9038
:1036500007A1684600F09DF900B90026049806709D
:10366000039880F8009006B0384600F005B80000D6
:10367000766F69640000000030BCBDE8C08F0000B8
:103680002DE9F04300248946314DB5B0214622464C
:103690006B18491CC9B29A760A29F9D303E000BF16
:1036A00010F8011F91B101782829F9D1461C012792
:1036B00033AA69463046FFF7BDFE06449DF8CC00AC
:1036C00040B1012824D0FF2839D10BE0012035B0CA
:1036D000BDE8F0839DF8000080B334A9684600F08F
:1036E000EDF808B10220F2E7204600F033F8284454
:1036F00034994162288B07FA04F188432883042017
:1037000029198876641CE4B20A2C18D90320DEE754
:10371000684600F053F900F10108204600F01AF85D
:1037200041196846243100F040F9288B07FA04F16A
:1037300008432919288381F81A80E3E7FFE73078E6
:10374000292801D00028B3D189F800400020BEE725
:1037500074000020024610B500200146054B05E02C
:103760005C18491CA47EC9B22044C0B29142F7D370
:1037700010BD000074000020094800680169C943B9
:10378000CA070849D1F8F02004D14FF6FF731A4454
:10379000C1F8F020406A1044C1F8F0007047000002
:1037A000D80200207400002000EBC00101EB0010E3
:1037B0004FF0FF3101EB800010B581B24FF47A7009
:1037C000FFF750F901490120C87510BD74000020B1
:1037D0000246012000E05043491EC9B2FBD27047A7
:1037E00007486FF00101026811610268090CD1629B
:1037F000C1600068002141620248C0F8F0107047C3
:10380000D8020020740000202DE9F041164D2888D0
:10381000010426D51549C0B2154F00260E54B968CB
:103820001248884704000FD0104800F0D1F8012852
:1038300001D0040014D0012C09D0022C09D0032C93
:1038400009D0042C0CD108E0F868804708E009A0F2
:1038500004E00BA002E00DA000E00FA0FCF7ACFD1F
:103860002E80BDE8F08100000C00002068010020DF
:1038700074000020BAAFCAFDB4EDCEF3210D0A00EA
:10388000B2CECAFDB4EDCEF3210D0A00B2CECAFD10
:10389000CCABB6E0210D0A00CEB4D5D2B5BDC6A5DD
:1038A000C5E4B5C4BAAFCAFD210D0A0010F8011F66
:1038B000202901D10028F9D1C8B270472DE9F04381
:1038C0000D4600244FF00A09264601462C600A786E
:1038D000A2F13003092B14D903782D2B01D02B2B07
:1038E00000D174B1A2F14103052B0AD9582A05D0A1
:1038F00012F0FF0F17D00120BDE8F083012C02D099
:10390000F9E7412A01D34FF0100902782D2A04D09B
:103910002B2A04D0641CE4B203E0022600E0012656
:10392000401C491CD3E70746B9F1100F01D084B100
:1039300012E0032C01D20220DEE73878302802D1D1
:103940007878582801D00320D6E7A41EE4B2BF1C23
:1039500001E00420D0E70CB1641EE4B23878A0F195
:103960003001092901D8884601E0A0F13708214635
:103970004846FFF72DFF2A6808FB0020286017F84B
:10398000011F0029E7D1022E01D14042286000200A
:10399000B2E702780B789A4201D00120704712B149
:1039A000401C491CF5E70020704702780A70027835
:1039B000002A02D0401C491CF7E77047002102781A
:1039C0001AB1491CC9B2401CF9E70846704700000B
:1039D000F0B58DB004461E236A4602A9FFF77DFDAF
:1039E0000190002872D19DF80000271800263E4C57
:1039F0008DF800609DF8000054F8201002A8FFF731
:103A0000C8FF38B19DF80000401CC0B28DF800001E
:103A10000728EFD39DF800000425344C072855D221
:103A2000DFE800F00404395A605F5E0030A0FCF764
:103A3000C3FC30A0FCF7C0FC3EA0FCF7BDFC4DA0D1
:103A4000FCF7BAFC5BA0FCF7B7FC6AA0FCF7B4FC7F
:103A500078A0FCF7B1FC86A0FCF7AEFC8BA0FCF7CD
:103A6000ABFC93A0FCF7A8FC97A0FCF7A5FC9CA0DE
:103A7000FCF7A2FCA1A0FCF79FFCA7A0FCF79CFC14
:103A8000B3A0FCF799FCC0A0FCF796FCCBA0FCF718
:103A900093FCD7A01BE016A0FCF78EFCE4A0FCF77B
:103AA0008BFC8DF800600BE0216805EBC000095825
:103AB000EFA0FCF781FC9DF80000401C8DF8000091
:103AC000217D9DF800008142EED856E257E2FCF7D6
:103AD00073FC00200DB0F0BD05A0FCF76DFCCBE140
:103AE0002CE20CE2EBE10000180000207400002042
:103AF0000D0A00002D2D2D2D2D2D2D2D2D2D2D2D93
:103B00002D2D2D2D2D2D2D2D2D2D2D2D55534D4163
:103B100052542056332E332D2D2D2D2D2D2D2D2D60
:103B20002D2D2D2D2D2D2D2D2D2D2D2D2D2D2D20D2
:103B30000D0A00002020202055534D415254CAC781
:103B4000D3C9414C49454E54454BBFAAB7A2B5C451
:103B5000D2BBB8F6C1E9C7C9B5C4B4AEBFDAB5F7D0
:103B6000CAD4BBA5BDBBD7E9BCFE2CCDA8B9FD20EE
:103B70000D0A0000CBFC2CC4E3BFC9D2D4CDA8B938
:103B8000FDB4AEBFDAD6FACAD6B5F7D3C3B3CCD03C
:103B9000F2C0EFC3E6B5C4C8CEBACEBAAFCAFD2CE8
:103BA000B2A2D6B4D0D02ED2F2B4CB2CC4E3BFC9CB
:103BB0000D0A0000D2D4CBE6D2E2B8FCB8C4BAAF4A
:103BC000CAFDB5C4CAE4C8EBB2CECAFD28D6A7B3B5
:103BD000D6CAFDD7D62831302F3136BDF8D6C62CFF
:103BE000D6A7B3D6B8BACAFD29A1A2D7D6B7FBB417
:103BF000AE0D0A00A1A2BAAFCAFDC8EBBFDAB5D8B4
:103C0000D6B7B5C8D7F7CEAAB2CECAFD292CB5A56E
:103C1000B8F6BAAFCAFDD7EEB6E0D6A7B3D6313004
:103C2000B8F6CAE4C8EBB2CECAFD2CB2A2D6A7B38E
:103C3000D60D0A00BAAFCAFDB7B5BBD8D6B5CFD43A
:103C4000CABE2ED6A7B3D6B2CECAFDCFD4CABEBD89
:103C5000F8D6C6C9E8D6C3B9A6C4DC2CD6A7B3D655
:103C6000BDF8D6C6D7AABBBBB9A6C4DC2E0D0A00C8
:103C7000BCBCCAF5D6A7B3D63A7777772E6F7065F6
:103C80006E6564762E636F6D0D0A000055534D41CD
:103C90005254D3D037B8F6CFB5CDB3C3FCC1EE285C
:103CA000B1D8D0EBD0A1D0B4293A0D0A0000000061
:103CB0003F3A202020202020BBF1C8A1B0EFD6FA47
:103CC000D0C5CFA20D0A000068656C703A20202094
:103CD000BBF1C8A1B0EFD6FAD0C5CFA20D0A000043
:103CE0006C6973743A202020BFC9D3C3B5C4BAAF7E
:103CF000CAFDC1D0B1ED0D0A0A00000069643A2086
:103D000020202020BFC9D3C3BAAFCAFDB5C44944DF
:103D1000C1D0B1ED0D0A0A006865783A2020202054
:103D2000B2CECAFD3136BDF8D6C6CFD4CABE2CBA83
:103D3000F3B8FABFD5B8F12BCAFDD7D6BCB4D6B408
:103D4000D0D0BDF8D6C6D7AABBBB0D0A0A0000006A
:103D50006465633A20202020B2CECAFD3130BDF820
:103D6000D6C6CFD4CABE2CBAF3B8FABFD5B8F12B99
:103D7000CAFDD7D6BCB4D6B4D0D0BDF8D6C6D7AA63
:103D8000BBBB0D0A0A00000072756E74696D653A5E
:103D9000312CBFAAC6F4BAAFCAFDD4CBD0D0BCC6B2
:103DA000CAB13B302CB9D8B1D5BAAFCAFDD4CBD04B
:103DB000D0BCC6CAB13B0D0A0A000000C7EBB0B4C4
:103DC000D5D5B3CCD0F2B1E0D0B4B8F1CABDCAE415
:103DD000C8EBBAAFCAFDC3FBBCB0B2CECAFDB2A23B
:103DE000D2D4BBD8B3B5BCFCBDE1CAF82E0D0A00D5
:103DF0002D2D2D2D2D2D2D2D2D2D2D2D2D2D2D2DF3
:103E00002D2D2D2D2D2D2D2D2D2D414C49454E5433
:103E1000454B2D2D2D2D2D2D2D2D2D2D2D2D2D2D9C
:103E20002D2D2D2D2D2D2D2D2D2D2D200D0A00006C
:103E30002D2D2D2D2D2D2D2D2D2D2D2D2D2D2D2DB2
:103E40002D2D2D2D2D2D2D2D2DBAAFCAFDC7E5B54C
:103E5000A52D2D2D2D2D2D2D2D2D2D2D2D2D2D2D1A
:103E60002D2D2D2D2D2D2D2D2D2D2D2D200D0A00FF
:103E700025730D0A0000000042A0FCF79DFA8DF8A2
:103E8000006016E0216805EBC0000BAB08580AAAD9
:103E900002A9FFF739FB9DF80010206850F8312087
:103EA00002A948A0FCF788FA9DF80000401C8DF894
:103EB0000000217D9DF800008142E3D85DE0AFF273
:103EC000D030FCF779FA6A4602A93846FFF7B2FA11
:103ED0009DF80000002843D101A902A8FFF7EEFCDD
:103EE0008DF8000010B104283AD102E03AA00199FF
:103EF0001CE03CA0FCF760FA0120E0753DE038A032
:103F0000FCF75AFA6A4602A93846FFF793FA9DF879
:103F1000000028BB01A902A8FFF7D0FC8DF8000023
:103F200010B104281CD104E033A00199FCF744FA35
:103F300023E034A0FCF740FAE6751EE028A0FCF769
:103F40003BFA6A4602A93846FFF774FA9DF800006A
:103F500030B901A902A8FFF7B1FC8DF8000008B143
:103F60000220B7E5019810F0FF0084F8EC0001D0C2
:103F700029A000E02FA0FCF71FFA19A0A7E5012057
:103F8000A8E500002D2D2D2D2D2D2D2D2D2D2D2D88
:103F90002D2D2D2D2D2D2D2D2D2D2D2D2DBAAFCAA5
:103FA000FD204944202D2D2D2D2D2D2D2D2D2D2D58
:103FB0002D2D2D2D2D2D2D2D2D2D2D2D2D2D2D2D31
:103FC000200D0A0025732069642069733A0D0A30B8
:103FD00058253038580D0A004845583A3058255869
:103FE0000D0A00003136BDF8D6C6B2CECAFDCFD418
:103FF000CABE210D0A0000004445433A256C750DE8
:104000000A0000003130BDF8D6C6B2CECAFDCFD40A
:10401000CABE210D0A00000052756E2054696D65FC
:104020002043616C63756C6174696F6E204F4E0D37
:104030000A00000052756E2054696D652043616C62
:1040400063756C6174696F6E204F46460D0A0000FF
:10405000016070474FF04070E1EE100A70470000B9
:104060000000000000000000010203040607080928
:10407000A0860100400D0300801A060000350C00E8
:1040800040420F0080841E0000093D0000127A00AB
:104090000024F40000366E010048E801006CDC02E8
:1040A000000000000102030430313233343536376A
:1040B000383941424344454640305800303132336C
:1040C000343536373839616263646566403078006C
:1040D00004000008000000000000000200010000D1
:1040E000100000003F000000646563006964000088
:1040F00072756E74696D650068656C700000000013
:104100006C6973740000000068657800766F6964FC
:10411000205254435F5365745F416C61726D412856
:104120007538207765656B2C753820686F75722C33
:104130007538206D696E2C75382073656329000011
:104140007538205254435F5365745F446174652829
:10415000753820796561722C7538206D6F6E7468C2
:104160002C753820646174652C7538207765656B13
:1041700029000000766F69642077726974655F6159
:104180006464722875333220616464722C75333232
:104190002076616C290000007538205254435F532B
:1041A00065745F54696D6528753820686F75722C69
:1041B0007538206D696E2C7538207365632C7538E1
:1041C00020616D706D290000753332207265616465
:1041D0005F616464722875333220616464722900FF
:1041E000766F69642064656C61795F6D73287531E1
:1041F00036206E6D73290000766F69642064656CEB
:1042000061795F757328753332206E7573290000EC
:10421000766F6964205254435F5365745F57616BD6
:1042200065557028753820776B73656C2C75313641
:1042300020636E742900000058420008000000202E
:1042400068010000C4010008C042000868010020A5
:104250001008000020020008110311093D3201136B
:10426000E4401B08F8041112411B08EC081A080866
:104270001AE8081AF0041315311B08C8101A510C5B
:104280001A74081315301B08E0081A31082AF808B8
:1042900012281B0898081A0D081A400813BD271B7E
:1042A000080C081A5D101310422308341420A93793
:1042B0001B083D481AD1041B093860497701D90011
:040000050800018965
:00000001FF
