:020000040800F2
:10000000D0090020A1020008AB3600080536000820
:10001000A9360008FD160008D53F000800000000C2
:100020000000000000000000000000009D380008F3
:10003000FF16000800000000CD3600089F380008B9
:10004000BB020008BB020008BB0200089138000890
:10005000BB020008BB02000801170008BB02000831
:10006000BB020008BB020008BB020008BB0200087C
:10007000BB020008BB020008BB020008BB0200086C
:10008000BB020008BB020008BB020008BB0200085C
:10009000BB020008BB020008BB020008BB0200084C
:1000A000BB020008BB020008BB020008BB0200083C
:1000B000BB020008BB02000861390008BB0200084F
:1000C000BB020008BB020008BB020008BB0200081C
:1000D000BB020008BB020008693F0008BB02000821
:1000E000071700084D370008BB020008BB020008D4
:1000F000BB020008BB020008BB020008BB020008EC
:10010000BB020008BB020008BB020008BB020008DB
:10011000BB020008BB020008BB020008BB020008CB
:10012000BB020008BB020008BB020008BB020008BB
:10013000BB020008BB020008BB020008BB020008AB
:10014000BB020008BB020008BB020008BB0200089B
:10015000BB020008BB020008BB020008BB0200088B
:10016000BB020008BB020008BB020008BB0200087B
:10017000BB020008BB020008BB0200080000000030
:10018000BB020008BB02000800F002F800F078F89B
:100190000AA090E8000C82448344AAF10107DA45E2
:1001A00001D100F06DF8AFF2090EBAE80F0013F0BC
:1001B000010F18BFFB1A43F0010318470855000050
:1001C000285500000A444FF0000C10F8013B13F0D2
:1001D000070408BF10F8014B1D1108BF10F8015BA0
:1001E000641E05D010F8016B641E01F8016BF9D193
:1001F00013F0080F1EBF10F8014BAD1C0C1B09D1EA
:100200006D1E58BF01F801CBFAD505E014F8016B5B
:1002100001F8016B6D1EF9D59142D6D370470000ED
:100220000023002400250026103A28BF78C1FBD8FF
:10023000520728BF30C148BF0B607047662905F0E0
:100240000881642900F02081752900F01D8178293A
:1002500000F05681632900F0BD84732900F0C28448
:10026000002070471FB505F0EAF800F0D1FC04004B
:100270000020002104F01AFFE0601FBD10B510BD82
:1002800000F0DEFD1146FFF7EDFF03F003FF00F085
:10029000FCFD03B4FFF7F2FF03BC03F0BBFE00005C
:1002A0000948804709480047FEE7FEE7FEE7FEE70A
:1002B000FEE7FEE7FEE7FEE7FEE7FEE70448054946
:1002C000054A064B704700001D39000889010008E7
:1002D000D0030020D0090020D0050020D005002048
:1002E000704753EA020C00F069802DE9F04B4FF0A3
:1002F0000006002B1FBFB3FA83F503FA05F424FAB6
:1003000005F65E4012BF1643B2FA82F502FA05F412
:10031000C5F120051EBF22FA05FC44EA0C04203575
:1003200056EA044C4FEA144418BF641C4FF000080E
:100330004FF00009904271EB030C39D3002919BF2B
:10034000B1FA81F701FA07F6B0FA80F700FA07F67A
:10035000C7F120071EBF20FA07FC46EA0C0620372B
:10036000B6FBF4FCA7EB0507103F07F01F0BCBF122
:1003700020060CFA0BFB2CFA06F644BFB346002607
:10038000202FA4BF5E464FF0000B5BEA060C08BFAF
:100390004FF0010B19EB0B09ABFB027C48EB060895
:1003A000C01B06FB02CC0BFB03CC71EB0C01C1E7BD
:1003B0000B46024641464846BDE8F08B13B54FF068
:1003C00000004FF00001AFF30080BDE81C40704713
:1003D0000FB4044910B503AA029800F007FC10BC42
:1003E0005DF814FB1000002070B5044685690068B4
:1003F000C10601D5302600E02026C00707D070BD19
:10040000D4E9012130469047206A401C20626D1ECD
:10041000F6D570BD70B5044685690078C00707D170
:1004200070BDD4E9012120209047206A401C206241
:100430006D1EF6D570BD70B50C460546012A05D077
:100440002878800600D5EA69002302E0012305E050
:100450005B1C934202D2E05C0028F9D1A869E6183F
:10046000C01AA861286A184428622846FFF7BCFF12
:1004700004E0D5E9012114F8010B9047B442F8D308
:100480002846FFF7C7FF70BD2DE9F041064600245E
:1004900010687529314616A510D0AFF300800028EA
:1004A00002DA404213A507E031688A0701D512A598
:1004B00002E0490704D511A5012401E0AFF3008053
:1004C00000210A2206F1240709E0B0FBF2FCB0FB90
:1004D000F2F302FB1C00303078541846491C002807
:1004E000F3D123462A463046BDE8F04100F0FFB87C
:1004F000000000002D0000002B0000002000000084
:1005000070B504460D4621461068AFF3008021887F
:10051000090502D50F4A7A4402E00E4A7A440E32A7
:10052000002104F1240305E000F00F060009965DA8
:100530005E54491C0028F7D120780023000704D519
:10054000702D02D009B1022311322046BDE870405F
:1005500000F0CDB8864F00002DE9F05F89460446D3
:100560004FF0000ADFF874B1FB44C0F820A0204629
:10057000E1688847002874D0252806D0D4E90121F5
:100580009047206A401C2062F1E700265F46204623
:10059000E16888472028054607DB312D05D2781908
:1005A00010F8200C08B10643F1E7B00701D526F09A
:1005B0000406C4F81CA00027C4F818A02A2D09D0EE
:1005C000284603F020FD38B304EB8708303DC8F817
:1005D000185019E059F8041B204604EB870291617A
:1005E000E1688847012F054618D1E069002820DA24
:1005F00026F020061DE0D8F8180000EB800005EB7F
:1006000040003038C8F818002046E16888470546A1
:1006100003F0F9FC0028EED1012F0AD02E2D08D1CD
:100620002046E16888477F1C0546022F46F02006D9
:10063000C4DBA069002803DA404246F00106A0614D
:10064000F00701D026F010066C2D0BD0682D09D0D4
:100650004C2D39D06A2D35D0742D35D07A2D33D02C
:1006600016E038E0E1682F4620468847B842054644
:1006700009D16C2F26D04FF48060E16806432046F4
:100680008847054604E06C2F1AD04FF4807006436B
:100690000DB3A5F14100192802D8203546F40066B3
:1006A0004A462946204626604E46FFF7C7FD80B1E0
:1006B00001280BD0F61D26F0070000F1080956E7C7
:1006C0004020E4E78020D8E70020D6E706F10409BF
:1006D0004DE7284652E7206A00F002B85C4F000060
:1006E00030BCBDE8C09F70477047704770472DE928
:1006F000F0470D4699469246044600F124080168E9
:10070000880604D5E06921F01001216000E0012095
:10071000A84201DD471B00E00027A1697A1902EB1E
:100720000900081AA0612078C00602D42046FFF70D
:100730005BFE002608E0D4E901211AF80600904784
:10074000206A401C761C20624E45F4DB2078C006EF
:100750000AD52046FFF748FE06E0D4E90121302003
:100760009047206A401C2062381EA7F10107F4DC84
:1007700007E0D4E9012118F805009047206A401CE1
:100780002062281EA5F10105F3DC2046FFF742FE9A
:100790002078000602D50220BDE8F0870120FBE7A3
:1007A00070472DE9FF4F0C461E464FF0FF378BB0C8
:1007B000D2E90001DDF860800A908A46C1F30A554B
:1007C00005B93D46002108464FF00000BAF1000F80
:1007D00000F4400005DA00EB80004FF4400101EA2C
:1007E00050004FEA9059B9F1010F00DDB9460A985F
:1007F00050EA4A000ED044F61050A5F2FF354543AA
:100800002F14B8F1000F1ED07542291E1EDDC9F14C
:1008100000021CE0B8F1010F4FF0000001D03021C0
:1008200003E0F24305E02154401CB042FBDB3046BC
:100830000022002121540B99C1F80880C1E9002051
:100840000FB000F0BAB9BD1B6D1CDEE74A4600DAF6
:10085000694206A800F07EFA06AB93E8070003ABF6
:1008600083E8070050460A9900F058FB8DE807001E
:10087000A0F500501F3800900398002D09DD42F2CA
:100880001F014A46084403A90390684600F0B7FDDB
:1008900008E0A0F500504A461F3803A903906846B7
:1008A00000F0C1FD8DE807000004000C03D04FF0FC
:1008B000FF30410800E01046B8F1000F03D00022DD
:1008C000009215461EE0751E05D400F0A5F93032E1
:1008D00062556D1EF9D5B3460122084302D00022AD
:1008E0007F1C04E02078302801D100227F1E002ADE
:1008F000099786D01DE0112D07DA00F08DF930320E
:1009000062556D1C50EA0102F5D1084302D00098EF
:10091000C8B10EE00021681E05E0235C625C6354F0
:100920002254401E491C8142F7DBAB46A81B401EE7
:100930000990002004F80B000B98099AC0F8088071
:10094000C0E9002B7CE711264FF0000859E72DE99C
:10095000F04F88460446D21D22F0070191B0D1E93C
:100960000001CDE90A0103F036FB02460B98C00FE7
:1009700001D02D2007E02068810701D52B2002E05F
:10098000202101EAC000032A099001D0072A05DBD3
:1009900003464146204600F09DF90BE12078800691
:1009A00001D5E06900E00620B8F1650F814606D068
:1009B000B8F1660F18D0B8F1670F70D131E00020A0
:1009C000B9F1110F009001DB112301E009F10103DE
:1009D0000AAA01A90CA8FFF7E4FEDDE90C700026C5
:1009E00009F10105834647E001204B4600904FF096
:1009F00000470AAA01A90CA8FFF7D3FEDDE90DB054
:100A00000C995D46002610B909F101000D18B9EBEB
:100A1000050003D4C0F1FF3609F10105A5EB09007B
:100A20002BE0B9F1010F01DA4FF001090020B9F113
:100A3000110F0090484601DD112300E003460AAA89
:100A400001A90CA8FFF7ADFEDDE90C704D460026AC
:100A50008346207800070AD4AB4500DA5D4601A83A
:100A6000012D04DD411911F8011C302907D04F4533
:100A700002DA17F1040F04DA012082460FE06D1E3E
:100A8000EEE7002F02DCED1B3E4403E0781CA84299
:100A900000DD7D1CB81B00F1010A4FF000472078F3
:100AA000000703D4AA4501DB4FF0FF3A0021B7F15C
:100AB000004F0DF143088DF8431024D002202B2362
:100AC000002F01DA7F422D230A21021EA0F101002E
:100AD00000DC5FB197FBF1FC97FBF1F201FB1C7CA2
:100AE00017460CF1300C08F801CDEEE7A8F1010033
:100AF00003702188090501D5452100E06521A0F199
:100B0000010800F8011C09980FA9A1EB0807FF1DB7
:100B100000B10120411901EBEA70A1693844081ABB
:100B2000401EA0612078C00602D42046FFF75CFC7E
:100B3000099828B1D4E901219047206A401C20621D
:100B40002078C00622D52046FFF74EFC1EE0002E7E
:100B500004DBB34502DD01A8805D00E03020D4E96C
:100B600001219047206A401C2062761CAAF10100F6
:100B70005FEA000A0AD100F04BF8C0680168405CE7
:100B8000D4E901219047206A401C2062281EA5F16B
:100B90000105DCDC07E0D4E9012118F8010B9047DE
:100BA000206A401C2062381EA7F10107F3DC2046B2
:100BB000FFF730FC032011B043E630BCBDE8C08F26
:100BC00010B5436913B1AFF3008001E0FFF733FCC8
:100BD000012010BD127800F124010A7000224A7031
:100BE0000122EDE711684FF0FF32E9E7074B70B5DE
:100BF0000D467B4400F05BF80446284600F018F9E7
:100C000010B14FF0FF3070BD204670BD873400003A
:100C1000004870479003002030B5B0F10A024FEA57
:100C2000900E71F100034EEA817EB0EB0E0061EB95
:100C300091014FEA101E4EEA017E10EB0E0041EBCF
:100C400011114FEA102E4EEA016E10EB0E0041EB2F
:100C500011214FEA104E4EEA014E10EB0E0041EB0F
:100C60001141401841F100014FEAD00040EA4170C3
:100C70004FEAD10110EB80054FEA810444EA9074F9
:100C800044EB01046D1944EB0404521BA3414FF0E3
:100C9000000348BF0A3200D530BD401C41F10001BD
:100CA00030BD000001694A1C02610878704700B538
:100CB0008FB0CDE901310021059105497944CDE995
:100CC000031011466846FFF747FC0FB000BD000057
:100CD000E5FFFFFF2DE9F0411F46044603260168AA
:100CE000072A01F4006004DB08B116A505E016A58B
:100CF00003E008B115A500E015A521F01000206063
:100D0000A069C01EA0610FB1401EA0612046FFF780
:100D10006BFB4FB1D4E9012138469047206A401C53
:100D20002062C01C206206E0206AFAE7D4E90121B3
:100D300015F8010B9047761EF8D22046FFF76AFBA4
:100D4000BDE8F0814E414E006E616E00494E460096
:100D5000696E66002DE9F047814616468AB0334831
:100D600078440DC88DE80D0030487844801C03ACF1
:100D70000DC884E80D0041F69B300844372190FBF4
:100D8000F1F290FBF1F5A5F1800501FB12041B3C8B
:100D900002D56442012000E00020DFF890A08046E8
:100DA0000027FA44AAF1BE0A0DE0E00709D0324656
:100DB000684607EB47010AEB810100F034FB8DE840
:100DC000070064107F1C002CEFD1184F7F44AC3F0C
:100DD00018E0E80714D007EB04100DF1180A90E8AA
:100DE0000E008AE80E00C068F04201D19819089000
:100DF000324606A903A800F016FB03AB83E8070000
:100E00006D10641C002DE4D132466946B8F1000F24
:100E100003A802D000F0F3FA01E000F004FBC9E9F6
:100E20000001C9F808200AB0BDE8F087F4470000C7
:100E3000007B00F08000704700487047700300207E
:100E40007546FFF7F9FFAE4605006946534620F0A8
:100E50000700854618B020B5FFF730FABDE82040FE
:100E60004FF000064FF000074FF000084FF0000B66
:100E700021F00701AC46ACE8C009ACE8C009ACE819
:100E8000C009ACE8C0098D46704710B50446AFF301
:100E900000802046BDE81040FFF7FBB94FF0013C51
:100EA00050F8042B51F8043B9A4221D1A2EB0C03D9
:100EB000934313EACC1317D150F8042B51F8043B99
:100EC0009A4215D1A2EB0C03934313EACC130BD136
:100ED00050F8042B51F8043B9A4209D1A2EB0C03C1
:100EE000934313EACC13DBD04FF00000704700BFF0
:100EF000D01A01BAB1FA81F101F0180122FA01F019
:100F0000CB40C1F12001DBB2C0B2C01A2CFA01F310
:100F1000D11A914311EAC311E6D170475FEA400C40
:100F200008BF91F0000F4FEA8C234FEAC12243EA39
:100F300051514FEA1C5018BF00F5F0404FEA300005
:100F400018BF41F000415FEA6C5C00F02980BCF101
:100F5000FF3F08BF40F080407047130C06BF1204EB
:100F60004FF0100C4FF0000C130E04BF12020CF1E6
:100F7000080C130F04BF12010CF1040C930F04BFF3
:100F800092000CF1020CD30F04BF52000CF1010CC3
:100F900011464FF00002A0F11F00A0EB0C007047BB
:100FA00011F0004F08BF704731F000413FF4D5AF5A
:100FB0000B0C06BF09044FF0100C4FF0000C0B0E89
:100FC00004BF09020CF1080C0B0F04BF09010CF15E
:100FD000040C8B0F04BF89000CF1020CCB0F04BF73
:100FE00049000CF1010CCCF12003A0EB0C0022FA1B
:100FF00003F302FA0CF241EA030100F10100704729
:1010000020F07F4C80EA030023F07F47ACEB07031E
:1010100003F57C5300F0004003F1FF032DE9804904
:101020004FEA154B09B44FEA144325EA0B4E24EA64
:1010300003480FF2042606EB132749083E785FEABF
:10104000320203FB0667C7F5000707FB06F64FEA07
:1010500054374FEAD64606F1020607FB066CCCF180
:10106000005C4FEA1C472CEA074C07FB06F40CFB1C
:1010700006F504EB15464FEA961634BF00204FF0F4
:1010800000404FEAD13706FB07FC4FEA1C4C0CFB33
:101090000BF7D21B03FB0CF761EB07010CFB0EF700
:1010A000B0EB074072EB17420CFB08F734BFA2EB22
:1010B0000742B2EB074261EB17414FEA0C444FEA9B
:1010C000910706FB07FC4FEA1C4C0CFB0BF7B0EB3F
:1010D000C74072EB573203FB0CF734BFA2EBC74299
:1010E000B2EBC74261EB57310CFB0EF7B0EBC70018
:1010F00072EB57720CFB08F734BFA2EBC702B2EBDE
:10110000C70261EB5771039F4FEA816141EA921177
:1011100004EBCC044FEAD1374FEA826206FB07FCAE
:1011200042EA90124FEA80604FEA1C4C0CFB0BF72E
:10113000D21B03FB0CF761EB07010CFB0EF7B0EBC6
:10114000074072EB17420CFB08F734BFA2EB0742D3
:10115000B2EB074261EB17414FEA8C554FEA91071A
:1011600004EB9C2406FB07FC4FEA1C4C0CFB0BF722
:10117000B0EBC74072EB573203FB0CF734BFA2EB66
:10118000C742B2EBC74261EB57310CFB0EF7B0EB35
:10119000C70072EB57720CFB08F734BFA2EBC70213
:1011A000B2EBC70261EB577115EB4C254FEA816139
:1011B00041EA92114FEA82624FEAD13742EA901235
:1011C00006FB07FC44F100044FEA80604FEA1C4C28
:1011D0000CFB0BF7D21B03FB0CF761EB07010CFBBD
:1011E0000EF7B0EB074072EB17420CFB08F734BF69
:1011F000A2EB0742B2EB074261EB174115EB1C155E
:101200004FEA813141EA92414FEA823242EA90420A
:101210004FEA80304FEA0C7644F1000448EA034379
:101220004EEA0B484FF0000EB2EB080C71EB0307CF
:1012300024BF624639464EEB0E0E4FF0000B0018ED
:10124000524149414BEB0B0BB2EB080C71EB03071E
:101250007BF1000B24BF624639464EEB0E0E4FF079
:10126000000B0018524149414BEB0B0BB2EB080C41
:1012700071EB03077BF1000B24BF624639464EEB4E
:101280000E0E51EA020718BF46F0010616EB0E7665
:1012900055F1000254F1000103D5BDE88901BDE814
:1012A0000088BDE88901BDE80048B619524141EB0C
:1012B0000101A3F10103704780807F7E7D7C7B7AF2
:1012C0007978777676757473727171706F6E6E6DF2
:1012D0006C6C6B6A6A696868676666656464636398
:1012E00062616160605F5F5E5E5D5D5C5C5B5B5A1E
:1012F0005A5959585857575656555555545453538B
:1013000052525251515050504F4F4F4E4E4D4D4DE5
:101310004C4C4C4B4B4B4A4A4A4949494848484730
:10132000474747464646454545444444444343436E
:101330004342424242414141002B26D4770021D012
:101340001CB54FEA370703B44FF010004FF01001FF
:101350004FF000000FBCBDE810400BF1010BBBF1DA
:10136000010F08BF5FEA170722BF12F1010211F156
:1013700001014FF0004143F1000300F0004043EA57
:1013800000007047F9D35708DAE746EA064613F13A
:10139000400F4FEA16461FDD13F1200FDFBF164343
:1013A0000A46002120335B42C8D0C3F1200746EA39
:1013B000064602FA07F74FEA164646EA0706C3F161
:1013C000200722FA03F201FA07F721FA03F14FF09E
:1013D000000342EA0702B1E746EA020646EA064689
:1013E0004FEA164646EA0106BCBF46EA0646360CF8
:1013F0004FF000034FF000024FF000019EE72DE98F
:10140000C048934630B491E8380007C831EA400C30
:1014100048BF34EA430C03D5FFF7F2FDFFF78CFF1A
:10142000F0BCBDE800882DE9C048934630B491E88F
:10143000380007C810F0804F08BF13F0804F03D169
:1014400000F005F8FFF778FFF0BCBDE8008820F059
:101450007F4780EA030023F07F4C07EB0C03A3F5E2
:101460007C5300F00040A3F1FE0392F0000F00F067
:10147000B38095F0000F00F077802DE901494FEA25
:1014800011404FEA144621EA004800FB06FC24EA1A
:10149000064708FB06F607FB08F800FB07F718EB02
:1014A00006484CEB164C4FEA124B18EB07484FEA34
:1014B00015464CEB174022EA0B4E0BFB06FC25EAC7
:1014C00006470EFB06F607FB0EFE0BFB07F71EEBAF
:1014D000064E4CEB164C4FF000061EEB074E4CEB45
:1014E000174B18EB0B0840F1000018EB0E0B58EBF4
:1014F000000840F100008F1A4FF000013CBFC943C3
:10150000661B14BFB5EB040C00213CBFC943F61B9E
:101510004FEA17444EEA8E0E27EA04454FEA1C476D
:1015200004FB07622CEA074C05FB07F70CFB05F6EA
:1015300004FB0CFC16EB074642EB174216EB0C467D
:1015400042EB1C421BEB060658EB0202414146EA05
:101550009E0601D5BDE80189B619524141EB010152
:10156000A3F10103BDE801894FEA14454FEA114791
:1015700024EA054621EA074C05FB07F406FB07F7BA
:101580000CFB06F105FB0CFC11EB074144EB174487
:101590004FEA124711EB0C4144EB1C4422EA074C82
:1015A00005FB07F206FB07F70CFB06F605FB0CFC38
:1015B00016EB074642EB174216EB0C4642EB1C4576
:1015C0006A1854F1000148BF7047B619524141EB07
:1015D0000101A3F10103704795F0000F37D04FEAE6
:1015E00011424FEA144721EA024624EA074C02FB63
:1015F00007F106FB07F70CFB06F402FB0CFC14EBEF
:10160000074441EB17414FEA154714EB0C4441EBFB
:101610001C4125EA074C02FB07F506FB07F70CFB0C
:1016200006F602FB0CFC16EB074645EB174516EBDE
:101630000C4645EB1C42121951F1000148BF70479E
:10164000B619524141EB0101A3F1010370474FEA82
:1016500014454FEA114724EA054621EA074C05FBE9
:1016600007F106FB07F70CFB06F24FF0000605FB3F
:101670000CFC12EB074241EB174112EB0C4251EB11
:101680001C4148BF7047921841EB0101A3F10103CF
:101690007047000070B504460068816801F00301DE
:1016A000012902D10168C90723D18168124A114278
:1016B00010D1816841F00101816000F0B7FE05465C
:1016C00012E0816841F00101816000F0AFFE401B33
:1016D000022809D9A06D40F01000A065E06D40F02F
:1016E0000100E065012070BD20680168C943C90799
:1016F000E7D1002070BD00003F000080FEE770478A
:10170000012000F093BD4FF4005000F08FBD0000A9
:1017100000B587B069460090012001900620029034
:101720000020039004900590074800F0A5F80648B3
:1017300000F0C0FC0A21044800F020FC024800F040
:10174000DEFA07B080B200BDCC0200202DE9F041E6
:1017500000250E4607462C4608E03846FFF7D8FF1E
:101760000544052002F062FC641CE4B2B442F4D3E8
:10177000B5FBF6F080B2BDE8F0810000F0B590F85E
:10178000542000239AB0012A2BD0012280F8542043
:10179000364D02680024AA4226D1354D0095926844
:1017A00052075AD4AA68520757D4324A0E6840F6F4
:1017B0001F75B6B396684FF4005C9CFAACFC476B9F
:1017C000BCFA8CFC26F4604607FA0CF73E434F68DF
:1017D0003E4396600668B76807F00307012F0ED1F5
:1017E0000AE002201AB0F0BD816D41F02001816550
:1017F00080F854400120F5E73668F60732D1009EA4
:10180000B66806F00306012E03D1009E3668F6077F
:1018100028D10E6889680E439168A9430E439660EB
:1018200020E0FFE7916821F46041916001688E68D3
:1018300006F00306012E02D10968C90712D10099EA
:10184000896801F00301012903D100990968C907DA
:1018500008D19168A943916004E0816D41F02001B5
:101860008165012380F854401846BBE7000004500E
:1018700000010450000304502DE9F84700260096AB
:1018800090F85420B246012A21D04FF0010980F887
:1018900054900468A26852077DD44A681F254FF40B
:1018A000F863052A16D2276B93FAA3FCBCFA8CFCCA
:1018B00002FB0CFC05FA0CF5AF4393FAA3F3B3FA61
:1018C00083F30D685A4395402F43276344E0022079
:1018D00000F012BA0A2A14D2676B93FAA3FCBCFA7E
:1018E0008CFC521F02FB0CFC05FA0CF5AF4393FA7B
:1018F000A3F3B3FA83F30D685A4395402F4367630C
:101900002AE00F2A14D2A76B93FAA3FCBCFA8CFC32
:101910000A3A02FB0CFC05FA0CF5AF4393FAA3F369
:10192000B3FA83F30D685A4395402F43A76313E03E
:10193000E76B93FAA3FCBCFA8CFC0F3A02FB0CFC9D
:1019400005FA0CF5AF4393FAA3F3B3FA83F30D68EA
:101950005A4395402F43E7630568AA684FF0070490
:1019600012F00C0F4FF038027ED10B680A2B1BD3FC
:10197000AF6992FAA2FCBCFA8CFC0A3B03FB0CFC9C
:1019800092FAA2F804FA0CFCB8FA88F827EA0C07D5
:1019900003FB08F300E06CE1D1F808C00CFA03FC8B
:1019A00047EA0C07AF6117E06F6992FAA2FCBCFA34
:1019B0008CFC03FB0CFC04FA0CFC27EA0C0792FAE3
:1019C000A2F8B8FA88F8D1F808C003FB08F30CFABB
:1019D00003FC47EA0C076F6103684F69DD68D1F8C3
:1019E0001080C5F3C1056D00AF40DFF8F0C24FF0C5
:1019F000F845B8F1010F53D0B8F1020F64D0B8F137
:101A0000030F77D0B8F1040F73D01F6E95FAA5F8C5
:101A100007F0F84C0F68B8FA88F807FA08F7BC45E1
:101A200003D11F6E27F000471F6603685F6E95FAAB
:101A3000A5F807F0F84C0F68B8FA88F807FA08F725
:101A4000BC4503D15F6E27F000475F6603689F6E59
:101A500095FAA5F807F0F84C0F68B8FA88F807FA75
:101A600008F7BC4505D100E013E09F6E27F0004762
:101A70009F660368DF6E95FAA5F507F0F84C0F68CE
:101A8000B5FA85F5AF40BC4503D1DD6E25F00045C4
:101A9000DD6603689D6805F00305012D54D150E013
:101AA000D3F8608095FAA5F508EA0C08D1F800C0D3
:101AB000B5FA85F50CFA05FC4CEA070C48EA0C0867
:101AC00048F000451D66E4E7D3F8648095FAA5F573
:101AD00008EA0C08D1F800C0B5FA85F50CFA05FC47
:101AE0004CEA070C48EA0C0848F000455D66D0E770
:101AF00000E013E0D3F8688095FAA5F508EA0C0831
:101B0000D1F800C0B5FA85F50CFA05FC4CEA070CD3
:101B100048EA0C0848F000459D66BAE7D3F86C80A7
:101B200095FAA5F508EA0C08D1F800C0B5FA85F5D4
:101B30000CFA05FC4CEA070C48EA0C0848F0004592
:101B4000A6E71D68ED0747D1CD68B5F1804F07D0F6
:101B500053F8B04F0D7809FA05F294431C6034E055
:101B600053F8B07F91F800C009FA0CF52F431F60BD
:101B70000B680568092B14D3AF6992FAA2FCBCFA72
:101B80008CFC093B03FB0CFC04FA0CF4A74392FA0F
:101B9000A2F2B2FA82F28C6853439C402743AF61B1
:101BA00013E06F6992FAA2FCBCFA8CFC5B1C03FB8D
:101BB0000CFC04FA0CF4A74392FAA2F2B2FA82F2F5
:101BC0008C6853439C4027436F610C68444B112C35
:101BD00003D0122C04D034B150E09968090204E01B
:101BE0009968C90101E099684902002946DB026849
:101BF000916801F00301012902D11168C90738D1A8
:101C000038498A4212D1D1F8085105F00305012D57
:101C100003D1D1F80051ED072BD1D1F8085205F0CE
:101C20000305012D2ED1D1F8005220E02E4DAA42FD
:101C30008D6805F003050DD1012D02D10D68ED076A
:101C400017D1D1F8085205F00305012D07D1D1F8BD
:101C5000005202E0012D02D10D68ED0709D1D1F843
:101C6000085105F00305012D0CD1D1F80051ED0705
:101C700008D0816D41F020018165012680F854A0D3
:101C8000304625E6194D112C0AD0122C1ED0002CFE
:101C9000F4D18A42F2D1996841F480019960EDE76C
:101CA0008A4201D0AA42E9D1996841F400019960C1
:101CB0000F49104A0968B1FBF2F1C1EB0111C900EB
:101CC00000E0491E00910029FBD1D7E78A4201D0EC
:101CD000AA42D3D1996841F08071DFE700F0FF0399
:101CE000000304500000045000010450000204509E
:101CF0000000002080841E0018BCBDE8E08700685A
:101D0000006C7047F8B54FF0000504002E460095B2
:101D100002D0A06D10B107E00120F8BD204600F010
:101D20000BF9E66584F8546020688168890003D562
:101D3000816821F00051816020688168C90010D459
:101D4000816841F080518160754876490068B0FB38
:101D5000F1F000EB8000400000E0401E0090002801
:101D6000FBD121688868C00008D4A06D40F0100045
:101D7000A065E06D40F00100E0650125A06DC006A2
:101D80007ED4886840077BD4A06D40F00200A06537
:101D9000654A886800F00300012802D10868C0077E
:101DA0003ED16248814212D1D0F8081101F00301FE
:101DB000012903D1D0F80011C90731D1D0F8081298
:101DC00001F00301012925D1D0F8000220E0584B91
:101DD0009942816801F003010DD1012902D1016806
:101DE000C9071DD1D0F8081201F00301012907D15C
:101DF000D0F8001202E0012902D10168C9070FD111
:101E0000D0F8081101F00301012903D1D0F8000135
:101E1000C00705D19068616820F47C100843906089
:101E2000E168A06B4FF40053084393FAA3F3E2690F
:101E3000B3FA83F3A1689A40114308434FF4803208
:101E400092FAA2F2616AB2FA82F201FA02F2104345
:101E5000012909D14FF46022A16A92FAA2F2B2FAE2
:101E600082F2491E91400843E16A012903D0226BA6
:101E70000AB1114308432268D1682E4B194000E093
:101E800047E00143D1602168886810F00C0F1DD134
:101E90004FF4804292FAA2F2A069B2FA82F2904024
:101EA000022393FAA3F3626BB3FA83F39A401043CD
:101EB000CA6844F202039A430243CA60E06B0128F5
:101EC0000CD02068016921F001010161206901281D
:101ED0002068016B21F00F0110D012E0D4E910103E
:101EE0000143D4E91202104301432068026940F221
:101EF000FD739A43114341F00101E6E7226A521E45
:101F000011430163A06D20F0020040F00100A065C4
:101F100004E0A06D40F01000A06501252846F8BD42
:101F20000000002080841E000003045000000450C4
:101F30000001045007C0F0FF0F4800B5C16C87B026
:101F400041F40051C164C16C01F400510591C16CB0
:101F500041F00101C164C06C694600F001000590C8
:101F60001020009003200190002002904FF090403C
:101F700000F068F907B000BD001002402DE9F047FD
:101F8000044640690126DFF820810F46082823D047
:101F900021684046814202D0444A91421ED1D0F885
:101FA0000823D2061AD0D0F8082302F01F02052A0F
:101FB00014D0D0F8082302F01F02092A0ED0D0F85E
:101FC0000813C1F3813102290BD0D0F80803C0F304
:101FD0008130032805D00BE008250AE0C868C00757
:101FE00006D0A06D40F02000A0650120BDE8F0877C
:101FF000042500F01BFA814611E0781C0FD02FB1A8
:1020000000F014FAA0EB0900B84208D9A06D40F026
:102010000400A065002084F854000320E6E720684F
:1020200000682842E9D021680868000700D400262B
:102030004046814224D01E4A914221D0D0F8082344
:10204000D2061DD0D0F8082302F01F02052A17D0AF
:10205000D0F8082302F01F02092A11D0C068082D09
:1020600010D0420401D404220A60A16D41F4007131
:10207000A165B6B12168C96811F4406F04D010E0C1
:10208000C868ECE70822EFE780040AD4A06D20F4CA
:102090008070A065A06DC00403D4A06D40F0010065
:1020A000A0650020A2E700000000045000010450D9
:1020B0000002045070B5044600688068400766D48A
:1020C00094F8540001280AD0012084F854002046D6
:1020D000FFF7E0FA01004FF0000202D044E00220D6
:1020E00070BDA06DC00404D5E06D20F00600E06571
:1020F00000E0E265A06D40F60163984340F4807013
:10210000A06524482368244D834205D0AB4203D008
:10211000D0F80863F60603D1A66D26F48016A665EE
:102120001C261E602368834221D0AB421FD0D0F80A
:102130000853ED061BD0D0F8085305F01F05052DF8
:1021400015D0D0F8085305F01F05092D0FD0A36D49
:1021500043F48013A365C068800105D5A06D20F409
:10216000005040F48050A06584F8542010E0D868F6
:10217000800105D5A06D20F4005040F48050A0658A
:1021800084F85420986840F00400986000E0022130
:10219000084670BD000004500002045010B590F8CD
:1021A00025100024022903D00421C163012418E072
:1021B00001680A6822F00E020A6001680A6822F0CB
:1021C00001020A6090F84420036C012101FA02F236
:1021D0005A6080F82510002180F82410816B01B12D
:1021E0008847204610BD000070B50546642001F008
:1021F0001DFF4FF09044012D0ED04FF400518D4241
:1022000010D1094800F003F900280BD12046BDE8A1
:102210007040202100F000B90121204600F0F7F8BD
:102220000128F3D070BD000000080048044910B533
:102230000A68024202D00860FFF7D6FF10BD000016
:10224000140401402DE9F84FDFF898B100234FF056
:10225000010C4FF0030A4FF00F090BF1040EB9E027
:102260000CFA03F4224070D04D68022D01D0122DDB
:102270000ED1DD0800EB8508D8F820505E07F70E78
:1022800009FA07F6B5430E69BE402E43C8F8206030
:1022900007685E0091F804800AFA06F508F0030862
:1022A000AF4308FA06F848EA0708C0F800804F680C
:1022B000012F05D0022F03D0112F01D0122F13D1DF
:1022C000D0F80880CF6828EA0508B74047EA080731
:1022D0008760D0F804800F7928EA0408C7F3001754
:1022E0009F4047EA08074760D1F804806FEA080773
:1022F000BF0706D1C76AA743C8F3C0049C403C434C
:10230000C462C468AC438D68B5402543C5604C6861
:10231000E4005ED5344C256E45F001052566246E3B
:1023200023F0030504F001040094304C2E19B46826
:102330009D072F0F09FA07F5AC43B0F1904F05D078
:102340002B4DA84204D101251CE042E0002519E0F4
:10235000284DA84201D1022514E0274DA84201D101
:1023600003250FE0254DA84201D104250AE0244DA4
:10237000A84201D1052505E0224DA84201D106253C
:1023800000E00725BD402543B560DBF800405D4611
:102390004E689443F60300D514432C60DEF80040E9
:1023A00075464E689443B60300D514432C600D4D1A
:1023B00008352C684E689443F60200D514432C600F
:1023C000084D0C352C684E689443B60200D5144372
:1023D0002C605B1C0A6832FA03F57FF441AF00F011
:1023E00013B800000004014000100240000001404A
:1023F0000004004800080048000C00480010004895
:10240000001400480018004818BCBDE8E08F0069BF
:10241000084000D00120704742694A40426170473D
:102420000AB181617047816270470000014800680D
:10243000704700000400002002480168491C016048
:102440007047000004000020074810B5016841F4FF
:1024500080710160052000F049F8002000F006F8C6
:1024600000F018F8002010BD0020024010B504460E
:1024700007484FF47A710068B0FBF1F000F0C1FE3C
:1024800000222146501E00F011F8002010BD00006F
:1024900000000020704700F01F0201219140400918
:1024A000800000F1E020C0F800117047F0B40E4B3E
:1024B0001B680C46C3F30223C3F10705042D00D9A2
:1024C0000425191D072901D2002300E0DB1E012687
:1024D00006FA05F1491E214099409E40761E16409D
:1024E0003143F0BC01F0E2B80CED00E0064900F029
:1024F000070208684FF6FF03184040EA0220034A2B
:1025000010430860704700000CED00E00000FA0581
:102510000248006800F4C06070470000007000408E
:102520002DE9F047DFF8688105460E46D8F800002F
:1025300000F00700B0420CD2D8F8001021F00701DB
:102540003143C8F80010D8F8000000F00700B0428E
:1025500074D128784F4C800705D5A068A96820F071
:10256000F0000843A0602878C00756D068680228A9
:1025700018D0032819D02168D0B1490500295DDAA7
:10258000A16821F003010143A160FFF74FFF6968D3
:10259000074641F28830022912D003291ED0814615
:1025A00049B335E021688903E8E721688901E5E757
:1025B0008907E3E7FFF73AFFC11B494501D924E04A
:1025C0008146A068C0F381000228F3D125E000BF56
:1025D000FFF72CFFC11B494501D916E08146A068D1
:1025E000C0F381000328F3D117E000BFFFF71EFFFF
:1025F000C11B494509D8A06810F00C0FF6D10CE0BA
:10260000FFF714FFC11B494502D90320BDE8F0873D
:10261000A068C0F381000128F2D1D8F8001040462C
:1026200001F00701B1420BD9016821F007013143E4
:102630000160006800F00700B04201D00120E5E72A
:102640002878400705D5A068E96820F4E0600843D1
:10265000A0602878000706D5A068296920F460509A
:1026600040EAC100A06000F04BF8A168F02292FAA5
:10267000A2F201F0F001B2FA82F2D140064A515CB6
:10268000C840064908600020FFF7F0FE0020BDE7C3
:1026900000200240001002405854000800000020B2
:1026A00008480949006889684FF4E06292FAA2F28A
:1026B00001F4E061B2FA82F2D140044A515CC840B0
:1026C00070470000000000200010024098540008ED
:1026D00008480949006889684FF4605292FAA2F2EA
:1026E00001F46051B2FA82F2D140044A515CC84010
:1026F00070470000000000200010024098540008BD
:1027000070B53B49002318468A683A4C12F00C0F0A
:102710004FEA640514D08A68C2F38102032A04D107
:10272000CA6802F00302012A0AD08A68C2F3810251
:10273000012A21D08A68C2F38102022A1ED01EE03B
:102740000A68120706D4D1F894204FF4706302F49B
:10275000706203E00A68F02302F0F00293FAA3F338
:10276000B3FA83F3DA40244B53F822308A6812F02C
:102770000C0F04D1184602E0204600E028468A6883
:10278000C2F38102032A31D1C868CA6800F003008D
:10279000702696FAA6F602F07002B6FA86F6F240B5
:1027A000521C4FF4FE46022804D0032805D0B3FB88
:1027B000F2F004E0B4FBF2F001E0B5FBF2F0CA681D
:1027C00096FAA6F302F4FE42B3FA83F3DA40C9683C
:1027D00050434FF0C06292FAA2F201F0C061B2FA27
:1027E00082F2D140491C4900B0FBF1F070BD0000FD
:1027F000001002400024F400685400082DE9F8435A
:1028000004460078FE4DC00663D5A86810F00C0F92
:102810000AD0A0690028286878D040F0010028601C
:10282000FFF704FE06465AE02868800702D5A06933
:1028300000286AD0216A28684FF0F006000703D507
:10284000286800F0F00003E0D5F8940006EA1010C4
:10285000814216D9084600F03BFF002855D1286870
:1028600040F0080028602868216A20F0F000084342
:1028700028606868E16920F47F4040EA01206860D0
:1028800015E0286840F0080028602868216A20F0D8
:10289000F000084328606868E16920F47F4040EA5E
:1028A00001206860206A00F013FF0028D6D1FFF7EE
:1028B00027FFA96896FAA6F201F0F001B2FA82F2B7
:1028C000D140D04A515CC840CF4908600020FFF792
:1028D000CDFD2BE0FFF7AAFD801B02287ED82868DB
:1028E0008007F7D5286840F0080028602868216A2A
:1028F00020F0F000084328606868E16920F47F4018
:1029000040EA0120686011E000E0B7E020F001003B
:102910002860FFF78BFD064605E000BFFFF786FD48
:10292000801B0228DAD828688007F7D42078C007EF
:1029300048D0A868C0F3810002281DD0A868C0F361
:102940008100032803D1E868C043800714D0606881
:10295000B0F5803F17D0B0F5A02F286817D020F42D
:1029600080302860286820F4802028606068E0B10A
:10297000FFF75CFD064614E02868800322D56068F6
:1029800000287BD01EE0286840F48030EDE740F45A
:1029900080202860F7E700BFFFF748FD801B642810
:1029A0009CD828688003F7D50CE0FFF73FFD06466A
:1029B00005E000BFFFF73AFD801B64288ED8286829
:1029C0008003F7D42078800748D5A8684FF0F857DF
:1029D000C0F38100012816D0A86800E0AFE0C0F382
:1029E0008100032804D1E86800F0030002280AD01F
:1029F000E0680028286821D040F480702860FFF744
:102A000015FD06460BE0286840050BD5E068002858
:102A1000B7D007E0FFF70AFD801B0228C0D828685E
:102A20004005F7D5686897FAA7F22169B2FA82F2F1
:102A300020F0F8509140084368600FE020F4807067
:102A40002860FFF7F3FC064605E000BFFFF7EEFC49
:102A5000801B022873D828684005F7D42078000727
:102A600029D560690028D5F8940013D040F0010002
:102A7000C5F89400FFF7DAFC064606E0FBE000BF6D
:102A8000FFF7D4FC801B022859D8D5F894008007A2
:102A9000F6D510E020F00100C5F89400FFF7C6FC61
:102AA000064604E0FFF7C2FC801B022847D8D5F891
:102AB00094008007F6D42078400763D5A86D0026DF
:102AC000C00008D4A86D40F08050A865A86D01260C
:102AD00000F0805000904D480168C90511D401688C
:102AE000804641F480710160FFF7A0FC074604E0D6
:102AF000FFF79CFCC01B022821D8D8F80000C005B5
:102B0000F6D5A068012815D00528D5F8900017D073
:102B100020F00100C5F89000D5F8900020F00400E6
:102B2000C5F89000A06841F28838C8B1FFF77EFC74
:102B3000074610E0D5F8900040F00100F0E75EE0B5
:102B400040F00400C5F89000F4E700BFFFF76EFC0A
:102B5000C11B414553D8D5F890008007F6D50CE04D
:102B6000FFF764FC074604E0FFF760FCC11B41452A
:102B700079D8D5F890008007F6D41EB1A86D20F062
:102B80008050A865A06AC8B3A968C1F38101032970
:102B900072D00228286820F08070286011D0286840
:102BA000000106D42868800003D4E86820F0030000
:102BB000E860E86816490840E860FFF737FC04461B
:102BC00054E0FFF733FC064605E000BFFFF72EFC9C
:102BD000801B022847D828688001F7D4206BE16A5F
:102BE000000110380843616BA26B0902120941EA27
:102BF00042410843A18F074A49080DE039E032E01D
:102C000000100240585400080000002000700040EE
:102C1000FFFFEEFE0000E0FF02EB4151084394F895
:102C200040104908120102EB41610843E86028683E
:102C300040F080702860E86840F08070E860FFF73E
:102C4000F5FB044605E000BFFFF7F0FB001B022880
:102C500009D828688001F7D50BE000BFFFF7E6FB35
:102C6000001B022802D90320BDE8F88328688001F0
:102C7000F4D40020F8E7FFE70120F5E770470000F3
:102C80002DE9F74F044690F820008B4601281CD010
:102C90004FF0010884F82080022084F82100216888
:102CA000CA204862206853214162206880684FF042
:102CB000000540054FF0FF064FF0030A4FF47A7904
:102CC0000FD5FFF7B3FB074607E0022000F050B82E
:102CD000FFF7ACFBC01B484511D82068C06840070F
:102CE000F6D42068816821F480618160FFF79EFB43
:102CF00007460CE0FFF79AFBC01B484507D9206840
:102D0000466284F821A084F820500320DEE7206882
:102D1000C0684007EED52168C1F814B0206881680A
:102D200021F00701816020688168029A1143816067
:102D30000E48016841F4801101600C4808300168B8
:102D400041F4801101602068816841F48041816014
:102D50002068816841F4806181602068466284F85F
:102D6000218084F820500020B0E7000000040140DA
:102D70001EBCBDE8E08F20214FF09040FFF74CBB18
:102D800010B50B4904464FF4801008602068C168F4
:102D9000490508D5C16801F0800161F49061C16006
:102DA0002046FFF7E8FF012084F8210010BD000055
:102DB0001404014001A0FDF70BBB0000414C41523F
:102DC0004D2041210D0A000010B51B4904464FF467
:102DD000802008601EE08868C0040BD5C868C00564
:102DE00008D5C86800F0800060F4C070C860204654
:102DF000FFF7E0FF2068816889040BD5C168890569
:102E000008D5C16801F0800161F42071C1602046DD
:102E1000FFF734FF21688868C00402D5C868C00580
:102E2000D9D48868800402D5C8688005D3D401202D
:102E300084F8210010BD0000140401402DE9F05F6A
:102E4000044690F820000B46012849D04FF0010AB3
:102E500084F820A0022084F82100206800268068E1
:102E60004FEA4060DAB3002857DA187800F074FCB3
:102E700093F8200000F070FC98781978DA7840EA2E
:102E800001405978090241EA0241084393F82010B1
:102E900040EA0165D8695F680543586921680543C0
:102EA00098690743CA204862216853204862586ADB
:102EB0004FF0FF08B0F5807F20684FF47A7B81687F
:102EC0002DD021F4007181602068C16801F080017B
:102ED00061F42071C160FFF7A9FA814655E002E074
:102EE000022000F07BB8002800DBDE70187800F0CC
:102EF0003CFC0204587800F038FC42EA0022987842
:102F000000F033FC0243D87842EA004293F82000F4
:102F100000F02BFC42EA0065BCE7DE70A8E721F474
:102F2000807181602068C16801F0800161F4C07126
:102F3000C160FFF77BFA814606E000BFFFF776FA33
:102F4000A0EB0900584517D82068C068C007F5D025
:102F50002068C561206847642068816841F48071F9
:102F600081602068816841F480511FE0FFF75EFABC
:102F7000A0EB0900584508D92168C1F82480032036
:102F800084F8210084F82060ABE72068C0688007DF
:102F9000ECD520680562206887642068816841F468
:102FA000007181602068816841F4005181600A48A5
:102FB000016841F48021016007480830016841F44C
:102FC000802101602168C1F8248084F821A084F860
:102FD0002060002085E700000004014030BCBDE80F
:102FE000C09F00002DE9F047044690F820000B46F2
:102FF000012826D04FF0010984F82090022084F89F
:103000002100587802B300F0A7FB987800F0A4FBE9
:103010009878D97840EA014558781978000240EA52
:10302000413005432168CA20486221685320486224
:10303000204600F0A5FB0026FF274FF0040858BBF0
:1030400019E00220BDE8F087C10603D500F0EF00CB
:103050000A305870D87800F088FB0204587800F0E5
:1030600084FB42EA0022987800F07FFB0243187844
:1030700042EA4035D6E710480540206845602068A0
:10308000C16821F08001C1602068806880060BD48F
:10309000204600F08FF838B12068476284F821801C
:1030A00084F820600120CDE72068476284F82190F1
:1030B00084F820600020C5E73FFFFF002DE9F047BE
:1030C000044690F820000D46012812D04FF0010A66
:1030D00084F820A0022084F821002068002680685F
:1030E0004FEA406042B100281ADA287800F034FB39
:1030F00017E00220BDE8F087002800DBEE7028789A
:1031000000F033FB0204687800F02FFB42EA002253
:10311000A87800F02AFB0243E87842EA00470AE078
:10312000EE70A878297840EA01476878E9780002CB
:1031300040EA014007432168CA20486221685320C1
:103140004862204600F01CFB4FF0FF084FF00409D6
:10315000E0B917480740206807602068816821F4BB
:1031600080218160D5E90301084321688A68104302
:1031700088602068C16821F08001C1602068806893
:1031800080060CD4204600F015F840B12168C1F843
:10319000248084F8219084F820600120AAE7216827
:1031A000C1F8248084F821A084F820600020A1E7E1
:1031B0007F7F7F0070B504460068C16821F0A001E0
:1031C000C160FFF733F905464FF47A7607E000BF98
:1031D000FFF72CF9401BB04201D9032070BD2068D5
:1031E000C0688006F4D5002070BD4FF0E0210428AF
:1031F000086903D020F004000861704740F0040023
:10320000FAE710B5401EB0F1807F01D3012010BD58
:103210004FF0E02460610F21601700F047FA0020B2
:10322000A06107202061002010BD10B5040003D06C
:1032300094F8390010B107E0012010BD002084F897
:103240003800204600F00CF8022084F83900211DD7
:10325000206800F09FFB012084F83900002010BD99
:1032600070470168CA6842F00102CA6000680168DC
:1032700041F0010101600020704770477047000075
:1032800070B501680446C8690A6810F00F0508D1D6
:10329000830606D5930604D52046BDE8704000F0AD
:1032A000A9BC8B68002D66D003F0010502F490766E
:1032B0002E4360D0C60707D0D60505D501260E627D
:1032C000E16E41F00101E166810708D5D90706D01A
:1032D000266802213162E16E41F00401E166410796
:1032E00008D5D90706D0236804211962E16E41F0A0
:1032F0000201E16601070AD502F02001294306D048
:10330000236808211962E16E41F00801E166E16E6F
:10331000002929D0800604D5900602D5204600F069
:1033200069FCE06E000703D42068806840061CD565
:10333000204600F051FC20688168490611D581685B
:1033400021F040018160606E58B133498163606E45
:10335000FEF724FF002807D0606E816BBDE8704047
:1033600008472046FFF78AFF70BD2046FFF786FF1B
:103370000020E06670BD8D68C6024FF020030CD5BA
:103380006D020AD5D803086284F8693084F86A307F
:103390002046BDE87040FFF770BF05062ED5150624
:1033A0002CD594F869002128E4D1B4F8520020B15A
:1033B000A068B0F5805F0AD00BE0086820F08000BC
:1033C00008602068016841F04001016070BD20691B
:1033D00058B1E06C411CE16421680078A1F8280034
:1033E00034F8520F401E208070BDE06C0088C0F39E
:1033F00008000885E06C801CE064F1E74006F3D526
:103400005006F1D5086820F04000086084F8693063
:10341000204600F0F6F870BDC53B000810B504006A
:1034200003D094F8690010B107E0012010BD00201E
:1034300084F86800204600F027F8242084F869000A
:103440002068016821F001010160204600F00EFCB7
:103450000128EBD0606A10B1204600F021FB206803
:10346000416821F4904141602068816821F02A017F
:1034700081602068016841F0010101602046BDE8DB
:10348000104000F071BB000030B5044600681F49D1
:1034900087B0884237D11E49C86C40F00100C8642B
:1034A000C86C00F001000590886D40F4003088651C
:1034B000886D012100F40030059004200090022066
:1034C000CDE90101039007204FF090450490694633
:1034D0002846FEF7B7FE0820009069462846FEF70A
:1034E000B1FE2068016821F0400101602068016898
:1034F00041F0200101602620FEF7CDFF0322114696
:103500002620FEF7D3FF07B030BD00000044004086
:10351000001002402DE9F84F044690F86A009A46E0
:1035200016460D46202866D1EDB1E6B194F8680044
:10353000012860D0012084F868000027E766222077
:1035400084F86A004C34FEF771FFA6818146E6815B
:1035500054F8440C4FF48058FF214C3C404508D1AE
:10356000206918B10DE0012000F047B840F2FF10CB
:103570000DE07F2218B1B0F1805F05D009E020692D
:1035800050B9A4F85C1004E0206928B13F20A4F8E9
:103590005C00B4F85C601DE0A4F85C20F9E700BFB3
:1035A000B4F85A00401EA4F85A004B4600222021CD
:1035B0002046CDF800A000F0A5FC08B10320D3E719
:1035C000A068404501D1206978B12068808C3040E6
:1035D00005F8010BB4F85A000028E1D1202084F846
:1035E0006A0084F868700020BEE72068808C304054
:1035F00025F8020BEEE70220B6E718BCBDE8E08F25
:1036000070477047FEE70000124810B5C16C86B0E5
:1036100041F00101C164C06C4FF0904400F0010022
:10362000059060200090012001900220029003206C
:10363000039069462046FEF705FE00222021204621
:10364000FEF7EEFE002240212046FEF7E9FE06B01E
:1036500010BD00000010024010B5124810490024AF
:1036600001604FF40021C0E90114C46004614461A9
:10367000C46101218461C0E908148162C0E90B14AE
:1036800044638463C463FEF73DFB06480C3801467F
:1036900004600C30FEF772F8002800D0FEE710BD81
:1036A00000000450CC020020FEE770470907090E15
:1036B000002806DA00F00F0000F1E02080F8141D69
:1036C000704700F1E02080F8001470477047000058
:1036D000F8B51C4D06460024A86DC00002D5FEF7C3
:1036E00017FF0DE0A86D40F08050A865A86D00F0B0
:1036F00080500090FEF70CFFA96D21F08051A96564
:10370000B0F5007F04D0802E07D94FF003040AE003
:10371000802E08D9A02E01D804E001D1022402E0B5
:10372000702E00D101240848016821F007012143CF
:103730000160006800F00700A04201D00120F8BD40
:103740000020F8BD00100240002002400148FFF7B1
:103750003BBB00009C020020010901EB810100F04D
:103760000F0000EB4100C0B27047002102E00A38B0
:10377000C0B2491C0A28FAD2090740EA1160704712
:1037800070B504460068C168490614D44FF0FF3193
:10379000C160FEF74BFE05464FF47A7607E000BFA6
:1037A000FEF744FE401BB04201D9032070BD2068E3
:1037B000C0684006F4D5002070BD000000B58BB095
:1037C0008DF800108DF8012000218DF802308DF861
:1037D0000310019105914FF0706106914FF0804107
:1037E0008DF8200088150791099000226946064847
:1037F000FFF724FB022201212920FEF757FE292092
:10380000FEF749FE0BB000BD9C02002008B58DF804
:1038100002208DF801108DF800308DF80300002291
:1038200069460248FFF7DEFB08BD00009C0200204D
:1038300000B585B08DF800008DF8011000208DF8DE
:1038400002200390024604908DF803306946024836
:10385000FFF734FC05B000BD9C0200200B4A10B5F8
:103860001268D36803F0800363F49063D360024668
:103870000648FFF705FA022211460320FEF716FE5E
:10388000BDE810400320FEF706BE00009C020020A9
:103890000148FFF775BA00009C0200207047FEF750
:1038A000CBBD000070B51B4C98B01C9DA66D46F0BA
:1038B0008056A665A46D04F080541694164C2668B4
:1038C00026F4C06646F40076266024680CAE04F444
:1038D000C0641694012400942404019402240A94E0
:1038E00003240B94109286E82B006846FEF786FFAF
:1038F00000B1FEE70F20CDE91104002013901490D1
:103900001590042111A8FEF70BFE002800D0FEE759
:1039100018B070BD00100240007000400D480168F2
:1039200041F4700101600C48016841F0010101603F
:10393000002181600268094B1A4002608214C26053
:10394000026822F48022026081610249C00380394A
:103950000860704788ED00E000100240FFFFF6EAC3
:1039600010B50A4C2068C068C043C00709D1084898
:103970000069804721680020486221686420C8628D
:10398000E06021686FF00100086110BD3403002081
:10399000700000202DE9F0470268244B244D254E8D
:1039A000254F264C4FF0804A984209D0504507D009
:1039B000A84205D0B04203D0B84201D0A04204D101
:1039C00022F0700C4A6842EA0C02DFF874C0DFF89B
:1039D0007480DFF8749098420FD050450DD0A84203
:1039E0000BD0B04209D0B84207D0A04205D0604504
:1039F00003D0404501D0484503D122F44075CA6840
:103A00002A4302608A68C2620A688262984207D0CA
:103A1000A04205D0604503D0404501D0484501D1C2
:103A20000969016301214161BDE8F087002C014073
:103A30000004004000080040000C00400034014039
:103A400000400140004401400048014038B5114A9F
:103A500005460C46906D40F004009065906D032281
:103A600000F00400009011461E20FEF71FFD1E20EE
:103A7000FEF711FD094A0848C2E900040020C2E926
:103A8000020510611046FFF7D0FBBDE8384003483F
:103A9000FFF7E7BB0010024000080040340300209D
:103AA00090F82410C90706D001684A68836A22F496
:103AB00000321A434A6090F82410890706D501683D
:103AC0004A68C36A22F480321A434A6090F824108C
:103AD000490706D501684A68036B22F480221A431D
:103AE0004A6090F82410090706D501684A68436BBC
:103AF00022F400421A434A6090F82410C90606D501
:103B000001688A68836B22F480521A438A6090F8B5
:103B10002410890606D501688A68C36B22F4005216
:103B20001A438A6090F82410490611D501684A6842
:103B3000036C22F480121A434A60016CB1F5801FB5
:103B400006D101684A68436C22F4C0021A434A60F5
:103B500090F82410090606D501684A68806C22F4A2
:103B6000002202434A607047F8B500260446C66644
:103B7000FEF75CFC0546206800686FF07E47000792
:103B800008D52B4600224FF400112046009700F084
:103B9000B9F960B92068006840070AD52B460022B1
:103BA0004FF480012046009700F0ACF908B10320E3
:103BB000F8BD202084F8690084F86A0084F8686001
:103BC0000020F8BD10B5806A0021A0F85A10A0F8B6
:103BD0005210FFF753FB10BD01680A6822F490727F
:103BE0000A6001688A6822F001028A60202180F858
:103BF0006A10704710B5B0F85C2090F86A30016820
:103C0000222B05D0088B40F008000883022010BD4D
:103C1000898C8368B3F5805F01D103696BB1114072
:103C2000426D531C43651170B0F85A10491E0904C7
:103C3000090CA0F85A1007D015E0436D1140198007
:103C4000416D891C4165EFE701680A6822F49072B2
:103C50000A6001688A6822F001028A60202180F8E7
:103C60006A10FFF7CDFC002010BD00002DE9F041E7
:103C70000446016880682669D4F81CC03043666930
:103C80001025002246EA0C063043924B0E68174678
:103C9000DFF844C206EA0C0606430E60206841685D
:103CA000E66821F44051314341602168A06999429E
:103CB00001D0266A30438E6826F4306606438E6053
:103CC000864E21688648B1420DD1D0F8880010F0A8
:103CD000030006D001285AD0022856D0032859D113
:103CE00057E0012556E07F4EB1420BD1D0F8880055
:103CF00010F00C0047D0042849D0082845D00C28E3
:103D000048D146E0784EB1420BD1D0F8880010F08F
:103D1000300038D010283AD0202836D0302839D179
:103D200037E0724EB1420BD1D0F8880010F0C000DD
:103D300029D040282BD0802827D0C0282AD128E09D
:103D40006B4EB1420ED1D0F8880010F440701AD0FA
:103D5000B0F5807F1BD0B0F5007F16D0B0F5407F66
:103D600018D116E0994215D1D0F8880010F44060BF
:103D700009D0B0F5806F0AD0B0F5006F05D0B0F56E
:103D8000406F07D105E0002504E0022502E004258C
:103D900000E00825574E4FF40040994244D135B118
:103DA000022D07D0042D07D0082D10D107E0FEF713
:103DB00077FC03E0304602E0FEF7A2FC98B36268AD
:103DC00002EB4201814202D8B0EB023F01D9012748
:103DD0007CE000266DB1022D0ED0042D13D0082DED
:103DE0001AD00127444AA0F540719142EFD82168CA
:103DF0006BE0FEF755FC08E0500840490FE0002357
:103E0000FCF76FFAEEE7FEF77BFC6268010E030237
:103E1000500818187141F2E750084FF4000140189B
:103E200046F10001EBE751E0E369834227D1092D18
:103E30001ED2DFE805F00508131D161D1D1D190013
:103E4000FEF72EFC01E0FEF743FC4100D4F804002D
:103E500001EB5001B1FBF0F082B20AE02849606842
:103E6000F6E7FEF74DFCF0E74FF480316068EFE7CE
:103E7000012722F00F00C2F342010843B7E7092DE2
:103E8000A5D2DFE805F006090C05120505051C00A2
:103E90009DE7FEF705FC0AE0FEF71AFC07E0606804
:103EA00006EB5002B2FBF0F00EE0FEF729FC0146F3
:103EB000606801EB5001B1FBF0F080B297E76268F7
:103EC00000EB5200B0FBF2F080B2C8603846BDE8AB
:103ED000F081000000800040F369FFEF00380140EE
:103EE000001002400044004000480040004C0040E8
:103EF000005000400024F400FFFC0F00000024F4F8
:103F00000048E8012DE9F041984617460E46044660
:103F1000069D1DE0681C1BD02DB1FEF787FAA0EBB3
:103F20000800A84214D92068016821F4D07101600A
:103F30002068816821F001018160202084F86900F7
:103F400084F86A00002084F868000320BDE8F0814E
:103F50002068C06936EA000004D00020B842D9D0F9
:103F60000020F3E70120F9E738B518480068C06978
:103F7000C043800622D44FF47A7301226946134865
:103F8000FFF7C8FA124801880A0417D44B049DF8B9
:103F900000304FF0000204D50A2B0ED141F400414D
:103FA00012E00D2B0ED0C1F30D04084D491CC83D85
:103FB00089B22B550180C72900D902800348FFF739
:103FC0005FF938BD41F480410180F7E72C02002001
:103FD0000C000020FEE703B401984100009850EA6D
:103FE000C12018BF04204A0D18BF40F0010040F264
:103FF000FF72B2EB515F08BF40F00200012808BF1A
:10400000052002B0704730380A2801D201207047DD
:10401000002070477047000010B504460420FFF7E9
:10402000E4F80148046010BD0800002070B50546A2
:1040300000244FF47A7603E0304600F005F8641C63
:10404000AC42F9D370BD000070B54FF0E0240022FF
:1040500065690949A36909684843A1699942FCD087
:1040600002D2A3EB010302E0A5EB010633441A449C
:104070000B468242F1D370BD0800002004490A6853
:104080005206FCD5024AC1B20C32118070470000C2
:104090001C4400402DED028B82B0FEF7D5F90220C2
:1040A00002460090072314210120FFF7FBFB50205C
:1040B000FFF7B2FF4FF4E13000F05AF819A0FCF717
:1040C00087F91D48416850208847FFF79DFAFFF7A0
:1040D000C3FA9FED1A8B4FF090454FF47A760A2180
:1040E0000920FDF733FB0446014616A0FCF770F9E2
:1040F000204601F022F853EC182B01F031F800F0C3
:10410000EBFF01F02BF941EC100B14A053EC102B3A
:10411000FCF75EF920212846FEF77EF93046FFF7CE
:1041200085FFDCE73E3E73797374656D20726573BD
:1041300065742E0D0A000000700000206666666639
:1041400066664A3F414443315F4348395F504134DA
:104150005F56414C55453A202564200056414C5548
:10416000453A20252E33660D0A000000006870478E
:104170000749064AC1E9002000208860C86008613C
:1041800088610C2048610846FFF748B900440040A8
:104190002C02002070B596B0054614AB01AA03A905
:1041A00000F0DEF9002824D18DF84C001D4C0426C7
:1041B00015E000BF216806EBC00014AB08586A4642
:1041C0000BA900F0CDF9002813D103A90BA800F02A
:1041D0000CFC80B19DF84C00401C8DF84C00217DFA
:1041E000C0B28142E6D8207D9DF84C1088420ED1A5
:1041F000042016B070BD9DF800009DF804108842A0
:1042000001D90220F5E79DF84C00A075EBE713A952
:10421000284600F061FA0028EBD19DF84C0060754B
:104220000020E6E7700000202DE9F0417F4C9AB0B5
:10423000A57D207DA8427DD90421206801EBC50120
:1042400019AB405810AA11A900F08AF911A978A059
:10425000FCF7BEF800270DF1180833E0208B012190
:10426000B940084217D0222173A0FCF7B1F83846B4
:1042700000F09CFA011971A02431FCF7A9F8222161
:104280006DA0FCF7A5F8384600F090FA20442430E1
:1042900048F827000CE0384600F088FA2044416ACC
:1042A00048F82710E07D08B365A000BFFCF790F840
:1042B0009DF84000401E874202D063A0FCF788F8BA
:1042C0007F1CFFB29DF840008742C7D35FA0FCF778
:1042D0007FF800F0B1FA607D0B2814D2DFE800F01F
:1042E000080D31384048525E6B78880058A0DDE7F1
:1042F000206850F83500804704E0206850F83510F9
:1043000006988847064600F063FA9DF86400012885
:104310007DD050A0FCF75CF894F8EC0000280DD09C
:10432000D4F8F0100A20B1FBF0F200FB1212B1FB3E
:10433000F0F100E002E048A0FCF74AF81AB0BDE84E
:10434000F081206850F83520DDE906019047D9E773
:10435000206806AE50F8353096E807009847D1E758
:10436000206806AE50F8355096E80F00A847C9E718
:104370000A980090206806AE50F8355096E80F0075
:10438000A847BFE7DDE90A01CDE90001206806AED4
:1043900050F8355096E80F00A847B3E70AAB06AED1
:1043A00093E807008DE80700206850F8355096E83C
:1043B0000F00A847A6E70AAE96E80F008DE80F00A9
:1043C000206806AE50F8355096E80F00A84799E7E8
:1043D0000BAE96E80F0001AE86E80F000A98009039
:1043E000206806AE50F8355096E80F00A84789E7D8
:1043F0000CAE96E80F0002AE86E80F00DDE90A0178
:10440000CDE90001206806AE50F8355000E003E029
:1044100096E80F00A84775E7E07D314618B116A071
:10442000FBF7D6FF78E717A0FAE70000700000203E
:104430000D0A257328000000256300002573000085
:1044400030582558000000002C0000002900000012
:10445000256C64003B0D0A0046756E6374696F6ECF
:104460002052756E2054696D653A25642E2531649D
:104470006D730D0A000000003D305825583B0D0AB1
:10448000000000003D256C753B0D0A00F0B50446A8
:10449000002007460646054623782C2B03D0292BFF
:1044A00004D01BB103E015B9012700E015B31EB11C
:1044B000222B2BD0F7B92FE0A3F1300CBCF1090F60
:1044C00019D92D2B17D02B2B15D0A3F1610CBCF1D2
:1044D000050F10D9A3F1410CBCF1050F0BD9582BD6
:1044E00009D0782B07D0222B0CD0202B1DD02C2BC1
:1044F0001BD0FF260CE05FB9612B00D3203B01F8F5
:10450000013B12E027B9012635460EE0002567B1D0
:1045100000230B701670F0BD3DB15C2B02D1401C26
:10452000C0B2641C237801F8013B401CC0B2641C7B
:10453000B2E730B5002515700AE001F8014B147898
:10454000401C641CE4B214709C4201D3012030BDB5
:104550000478202C01D0002CEFD10D70002030BD4C
:104560002DE9FF4F002582B0984604462F462E467F
:104570004FF0010BAA462A46A94615E0202910D083
:1045800002F07F03052B0CD202B9802202F07F03D8
:10459000042B01D12A290AD1521C0DF80310D2B2E2
:1045A00001E0852A04D0401C01780029E6D162B1DF
:1045B00002F07F0244A10DF80290684600F015FA5F
:1045C00038B1012188F8001000224FF0000823467E
:1045D00014E088F80090F7E708F1010000F0FF0808
:1045E00013F8010F202801D02A2807D1184600F01F
:1045F00089F9282802D02A2800D047461878282888
:1046000001D00028E8D10FB13C44641C0027394692
:10461000207888B1282804D0292806D022280FD055
:1046200010E079B96D1CEDB20CE059B925B16D1EE1
:1046300015F0FF0501D00CE00127012E32D039E042
:1046400049B100214DB12C280FD020281FD0282897
:104650001DD07AB117E00121F4E7202820D0039B78
:1046600018700398401C03901AE0521C4FF0010B85
:10467000D2B20CE0BAF1050F05D20DF80A000AF12A
:10468000010000F0FF0A0BF1010000F0FF0B012D0B
:1046900006D1BBF1020F03D1761C4FF0030BF6B22B
:1046A000641CB5E70DF80A9007A1684600F09DF973
:1046B00000B9002604980670039880F8009006B0B0
:1046C000384600F005B80000766F6964000000000D
:1046D00030BCBDE8C08F00002DE9F04300248946BE
:1046E000314DB5B0214622466B18491CC9B29A76A5
:1046F0000A29F9D303E000BF10F8011F91B1017836
:104700002829F9D1461C012733AA69463046FFF70C
:10471000BDFE06449DF8CC0040B1012824D0FF28FE
:1047200039D10BE0012035B0BDE8F0839DF80000E1
:1047300080B334A9684600F0EDF808B10220F2E732
:10474000204600F033F8284434994162288B07FA58
:1047500004F188432883042029198876641CE4B274
:104760000A2C18D90320DEE7684600F053F900F15F
:104770000108204600F01AF841196846243100F07B
:1047800040F9288B07FA04F108432919288381F896
:104790001A80E3E7FFE73078292801D00028B3D159
:1047A00089F800400020BEE770000020024610B5E6
:1047B00000200146054B05E05C18491CA47EC9B2E7
:1047C0002044C0B29142F7D310BD00007000002019
:1047D000094800680169C943CA070849D1F8F020AF
:1047E00004D14FF6FF731A44C1F8F020406A104418
:1047F000C1F8F00070470000340300207000002072
:1048000000EBC00101EB00104FF0FF3101EB800025
:1048100010B581B24FF47A70FFF718F90149012001
:10482000C87510BD700000200246012000E0504312
:10483000491EC9B2FBD2704707486FF001010268F8
:1048400011610268090CD162C160006800214162F7
:104850000248C0F8F01070473403002070000020B8
:104860002DE9F041164D2888010426D51549C0B21E
:10487000154F00260E54B9681248884704000FD01F
:10488000104800F0D1F8012801D0040014D0012C08
:1048900009D0022C09D0032C09D0042C0CD108E03B
:1048A000F868804708E009A004E00BA002E00DA032
:1048B00000E00FA0FBF78CFD2E80BDE8F08100002A
:1048C0000C0000206401002070000020BAAFCAFD77
:1048D000B4EDCEF3210D0A00B2CECAFDB4EDCEF395
:1048E000210D0A00B2CECAFDCCABB6E0210D0A0004
:1048F000CEB4D5D2B5BDC6A5C5E4B5C4BAAFCAFD60
:10490000210D0A0010F8011F202901D10028F9D13A
:10491000C8B270472DE9F0430D4600244FF00A0954
:10492000264601462C600A78A2F13003092B14D9DF
:1049300003782D2B01D02B2B00D174B1A2F14103B0
:10494000052B0AD9582A05D012F0FF0F17D00120E5
:10495000BDE8F083012C02D0F9E7412A01D34FF0E2
:10496000100902782D2A04D02B2A04D0641CE4B24A
:1049700003E0022600E00126401C491CD3E707465D
:10498000B9F1100F01D084B112E0032C01D2022042
:10499000DEE73878302802D17878582801D0032013
:1049A000D6E7A41EE4B2BF1C01E00420D0E70CB19E
:1049B000641EE4B23878A0F13001092901D8884694
:1049C00001E0A0F1370821464846FFF72DFF2A688D
:1049D00008FB0020286017F8011F0029E7D1022EEC
:1049E00001D1404228600020B2E702780B789A4259
:1049F00001D00120704712B1401C491CF5E700208E
:104A0000704702780A700278002A02D0401C491CC4
:104A1000F7E77047002102781AB1491CC9B2401C5F
:104A2000F9E7084670470000F0B58DB004461E2334
:104A30006A4602A9FFF77DFD0190002872D19DF81A
:104A40000000271800263E4C8DF800609DF80000FD
:104A500054F8201002A8FFF7C8FF38B19DF80000F5
:104A6000401CC0B28DF800000728EFD39DF800006D
:104A70000425344C072855D2DFE800F00404395AE5
:104A8000605F5E0030A0FBF7A3FC30A0FBF7A0FC4A
:104A90003EA0FBF79DFC4DA0FBF79AFC5BA0FBF74B
:104AA00097FC6AA0FBF794FC78A0FBF791FC86A02A
:104AB000FBF78EFC8BA0FBF78BFC93A0FBF788FC2D
:104AC00097A0FBF785FC9CA0FBF782FCA1A0FBF75D
:104AD0007FFCA7A0FBF77CFCB3A0FBF779FCC0A090
:104AE000FBF776FCCBA0FBF773FCD7A01BE016A06E
:104AF000FBF76EFCE4A0FBF76BFC8DF800600BE0AD
:104B0000216805EBC0000958EFA0FBF761FC9DF898
:104B10000000401C8DF80000217D9DF800008142BE
:104B2000EED856E257E2FBF753FC00200DB0F0BD83
:104B300005A0FBF74DFCCBE12CE20CE2EBE1000021
:104B400014000020700000200D0A00002D2D2D2DD6
:104B50002D2D2D2D2D2D2D2D2D2D2D2D2D2D2D2D85
:104B60002D2D2D2D55534D4152542056332E332D7E
:104B70002D2D2D2D2D2D2D2D2D2D2D2D2D2D2D2D65
:104B80002D2D2D2D2D2D2D200D0A00002020202033
:104B900055534D415254CAC7D3C9414C49454E544F
:104BA000454BBFAAB7A2B5C4D2BBB8F6C1E9C7C9C5
:104BB000B5C4B4AEBFDAB5F7CAD4BBA5BDBBD7E99F
:104BC000BCFE2CCDA8B9FD200D0A0000CBFC2CC4E6
:104BD000E3BFC9D2D4CDA8B9FDB4AEBFDAD6FACA04
:104BE000D6B5F7D3C3B3CCD0F2C0EFC3E6B5C4C8D3
:104BF000CEBACEBAAFCAFD2CB2A2D6B4D0D02ED285
:104C0000F2B4CB2CC4E3BFC90D0A0000D2D4CBE66A
:104C1000D2E2B8FCB8C4BAAFCAFDB5C4CAE4C8EBA6
:104C2000B2CECAFD28D6A7B3D6CAFDD7D628313012
:104C30002F3136BDF8D6C62CD6A7B3D6B8BACAFD22
:104C400029A1A2D7D6B7FBB4AE0D0A00A1A2BAAF74
:104C5000CAFDC8EBBFDAB5D8D6B7B5C8D7F7CEAA64
:104C6000B2CECAFD292CB5A5B8F6BAAFCAFDD7EEAB
:104C7000B6E0D6A7B3D63130B8F6CAE4C8EBB2CEA8
:104C8000CAFD2CB2A2D6A7B3D60D0A00BAAFCAFD90
:104C9000B7B5BBD8D6B5CFD4CABE2ED6A7B3D6B279
:104CA000CECAFDCFD4CABEBDF8D6C6C9E8D6C3B9F0
:104CB000A6C4DC2CD6A7B3D6BDF8D6C6D7AABBBB34
:104CC000B9A6C4DC2E0D0A00BCBCCAF5D6A7B3D663
:104CD0003A7777772E6F70656E6564762E636F6DA9
:104CE0000D0A000055534D415254D3D037B8F6CF7A
:104CF000B5CDB3C3FCC1EE28B1D8D0EBD0A1D0B4B0
:104D0000293A0D0A000000003F3A202020202020F0
:104D1000BBF1C8A1B0EFD6FAD0C5CFA20D0A0000F2
:104D200068656C703A202020BBF1C8A1B0EFD6FABC
:104D3000D0C5CFA20D0A00006C6973743A20202000
:104D4000BFC9D3C3B5C4BAAFCAFDC1D0B1ED0D0A56
:104D50000A00000069643A2020202020BFC9D3C384
:104D6000BAAFCAFDB5C44944C1D0B1ED0D0A0A00BD
:104D70006865783A20202020B2CECAFD3136BDF8D1
:104D8000D6C6CFD4CABE2CBAF3B8FABFD5B8F12B69
:104D9000CAFDD7D6BCB4D6B4D0D0BDF8D6C6D7AA33
:104DA000BBBB0D0A0A0000006465633A2020202086
:104DB000B2CECAFD3130BDF8D6C6CFD4CABE2CBAE9
:104DC000F3B8FABFD5B8F12BCAFDD7D6BCB4D6B468
:104DD000D0D0BDF8D6C6D7AABBBB0D0A0A000000CA
:104DE00072756E74696D653A312CBFAAC6F4BAAF9C
:104DF000CAFDD4CBD0D0BCC6CAB13B302CB9D8B1D7
:104E0000D5BAAFCAFDD4CBD0D0BCC6CAB13B0D0A0F
:104E10000A000000C7EBB0B4D5D5B3CCD0F2B1E0F6
:104E2000D0B4B8F1CABDCAE4C8EBBAAFCAFDC3FB7F
:104E3000BCB0B2CECAFDB2A2D2D4BBD8B3B5BCFC12
:104E4000BDE1CAF82E0D0A002D2D2D2D2D2D2D2D55
:104E50002D2D2D2D2D2D2D2D2D2D2D2D2D2D2D2D82
:104E60002D2D414C49454E54454B2D2D2D2D2D2D8D
:104E70002D2D2D2D2D2D2D2D2D2D2D2D2D2D2D2D62
:104E80002D2D2D200D0A00002D2D2D2D2D2D2D2DFC
:104E90002D2D2D2D2D2D2D2D2D2D2D2D2D2D2D2D42
:104EA0002DBAAFCAFDC7E5B5A52D2D2D2D2D2D2D64
:104EB0002D2D2D2D2D2D2D2D2D2D2D2D2D2D2D2D22
:104EC0002D2D2D2D200D0A0025730D0A0000000048
:104ED00042A0FBF77DFA8DF8006016E0216805EB33
:104EE000C0000BAB08580AAA02A9FFF739FB9DF8CE
:104EF0000010206850F8312002A948A0FBF768FA9A
:104F00009DF80000401C8DF80000217D9DF80000F8
:104F10008142E3D85DE0AFF2D030FBF759FA6A4640
:104F200002A93846FFF7B2FA9DF80000002843D1E5
:104F300001A902A8FFF7EEFC8DF8000010B10428CB
:104F40003AD102E03AA001991CE03CA0FBF740FAFC
:104F50000120E0753DE038A0FBF73AFA6A4602A965
:104F60003846FFF793FA9DF8000028BB01A902A874
:104F7000FFF7D0FC8DF8000010B104281CD104E02C
:104F800033A00199FBF724FA23E034A0FBF720FAC1
:104F9000E6751EE028A0FBF71BFA6A4602A9384610
:104FA000FFF774FA9DF8000030B901A902A8FFF7D5
:104FB000B1FC8DF8000008B10220B7E5019810F0AF
:104FC000FF0084F8EC0001D029A000E02FA0FBF73F
:104FD000FFF919A0A7E50120A8E500002D2D2D2D32
:104FE0002D2D2D2D2D2D2D2D2D2D2D2D2D2D2D2DF1
:104FF0002D2D2D2D2DBAAFCAFD204944202D2D2D4C
:105000002D2D2D2D2D2D2D2D2D2D2D2D2D2D2D2DD0
:105010002D2D2D2D2D2D2D2D200D0A0025732069D0
:10502000642069733A0D0A3058253038580D0A004B
:105030004845583A305825580D0A00003136BDF819
:10504000D6C6B2CECAFDCFD4CABE210D0A0000001A
:105050004445433A256C750D0A0000003130BDF817
:10506000D6C6B2CECAFDCFD4CABE210D0A000000FA
:1050700052756E2054696D652043616C63756C6177
:1050800074696F6E204F4E0D0A00000052756E203D
:1050900054696D652043616C63756C6174696F6EF2
:1050A000204F46460D0A00000160704710B50029E8
:1050B0000AD00878002807D005487844FBF7EEFEB0
:1050C000002801D0002010BD0248784410BD000027
:1050D0002A0600002206000021F00042A2F16052E0
:1050E000B2F5801F01F0004328BFD2F17F6C0BD9CD
:1050F0005FEA001C43EAC20242EB507018BF7047DF
:1051000028BF20F001007047B2F5801FBCBF1846D1
:1051100070474FEA410C1CF5001F02D2084600F010
:1051200093B970B500F0C6F800000089FFF7F6BF2C
:105130004FF00040A0F580007047B0FA80F310FAFD
:1051400003F10AD0C3F11D0303F580634FEA415018
:105150004FEA035202EBD12170474FF00000704735
:10516000DFF848C170B51CEA111E1EBF1CEA1315FA
:105170009EEA0C0F95EA0C0F00F06F8081EA0304A1
:1051800023EA4C134EEAD47E21EA4C1141F48011FB
:1051900043F48013AE44A1FB024CA0FB0365AEF1C7
:1051A0007F7E361955EB0C05A1FB034C4CF1000337
:1051B000A0FB021C16EB0C06654153F100030942EB
:1051C00018BF46F0010613F4007F0BD14FEA0331FC
:1051D0004FEA0530340341EA155140EA16506FF0AA
:1051E00003020AE04FEAC3214FEAC520F40241EA74
:1051F000555140EA56506FF0020202EB2E4201EB8D
:10520000025585EACE710AD05FEA440C18BF24F03B
:10521000004450F1000041F1000120EAD47040F256
:10522000FE7C624500D270BDA84214BF4FF080449E
:105230004FF04044002E08BF0024BEF1806FA8BF8D
:10524000A1F1C041BDE8704080F282804FF00000C3
:1052500001F1C04101F0004170479EEA0C0F0CEAD9
:10526000131518BF95EA0C0F06D04FF0000081EA25
:10527000030E0EF0004170BD00F01CF88900013EE5
:1052800000F007B800F009B84FEA430C5FEA5C5C35
:1052900008D081EA030100F05BB84FEA410C5FEAF5
:1052A0005C5CF6D14FF00000014970470000FF0739
:1052B0000000F87F0EF1020E2EF0030E5EF8046B74
:1052C000364205D4012A43EB030515F5001F12D819
:1052D000012841EB010C1CF5001F0CD80ED14FEA40
:1052E000D17C15F5001F0CEB4C0C0CF1020C08BF27
:1052F0004CEBD37C04E04FF0080C01E04FEAD37C88
:105300000CEB4C0526FA05F606F00706B6F1040C80
:1053100006D20EEB860CBDE870404CF0010C6047E5
:10532000DFE80CF0090B02024FF000414FF00000E3
:10533000A1F5002170BD19461046012851EB01046A
:1053400018BFD4F5001484BF002001F0004170BDE7
:105350000808A0F500114FEA3101704743004FEAF9
:10536000D30C4FEA3C0C43401FBF40070CF1605187
:1053700013F0FE4F70471CF0006F03D100200CF0BB
:10538000004170470CF0004343EA507010B540EA0A
:10539000CC0000F00EF800BF000000924FEA0001C0
:1053A000FFF7D6BF4FF000414FF00000A1F50021FC
:1053B00070470EF1020E2EF0030E5EF8044B2442ED
:1053C00004D44FEA4102B2F17F4F11D84FEA4003B3
:1053D000B3F17F4F0CD80ED14FEAD07CB2F17F4FA2
:1053E0000CEB4C0C0CF1020C08BF4CEBD17C04E034
:1053F0004FF0080C01E04FEAD17C0CEB4C0324FA8F
:1054000003F404F00704B4F1040C06D20EEB840C90
:10541000BDE810404CF0010C6047DFE80CF00708D5
:1054200002024FF00040A0F5800010BD0846420087
:1054300018BFD2F1807288BF00F0004010BD4FF05D
:105440004070E1EE100A7047FF2141EAD050C005DC
:105450007047FBF77CBA000000000000000000006D
:105460000102030406070809A0860100400D03009D
:10547000801A060000350C0040420F0080841E0098
:1054800000093D0000127A000024F40000366E018D
:105490000048E801006CDC02000000000102030487
:1054A000303132333435363738394142434445465A
:1054B0004030580030313233343536373839616254
:1054C0006364656640307800040000080000000056
:1054D0000000000200010000100000000240000077
:1054E000000000A00000000005400000000000C80F
:1054F000000000000C4000000000409C0000000084
:10550000194000000020BCBE000000003440000034
:10551000BFC91B8E00000004B5400000504BCFD027
:105520006607E2CF010000006C4100003E8251AAF4
:10553000DFEEA73401000000D9420000DCB5A0E294
:105540003A301F97FFFFFFFFB4450000FD25A0C8BC
:10555000E9A3C14FFFFFFFFFFF3F000000000080F5
:1055600000000000FF3F000000000080000000007D
:105570003F000000646563006964000072756E742A
:10558000696D650068656C70000000006C6973747B
:105590000000000068657800766F6964205254430B
:1055A0005F5365745F416C61726D41287538207777
:1055B00065656B2C753820686F75722C7538206D99
:1055C000696E2C7538207365632900007538205288
:1055D00054435F5365745F4461746528753820795E
:1055E0006561722C7538206D6F6E74682C7538206B
:1055F000646174652C7538207765656B290000003F
:10560000766F69642077726974655F61646472287B
:1056100075333220616464722C7533322076616C8C
:10562000290000007538205254435F5365745F545D
:10563000696D6528753820686F75722C7538206D16
:10564000696E2C7538207365632C753820616D7018
:105650006D29000075333220726561645F61646496
:10566000722875333220616464722900766F696430
:105670002064656C61795F6D7328753136206E6DBD
:1056800073290000766F69642064656C61795F75C9
:105690007328753332206E7573290000766F696444
:1056A000205254435F5365745F57616B6555702892
:1056B000753820776B73656C2C75313620636E748A
:1056C00029000000005700080000002064010000CD
:1056D000C401000868570008640100206C0800003D
:1056E000200200081C00000043000000F8FFFFFF3C
:1056F0000C0000000E0000000F0000002E00000053
:10570000110311093D1370551B0884041A8C041AE7
:1057100078041A94041A74041A7C04136D41140852
:1057200054561408A95012081908132D401B086C70
:10573000081A49081A84081331381B0824081A0D5E
:10574000081ACC3013BD371B0898081A5D101A9C34
:10575000182230142001481B0895481329421B08C1
:08576000610C220802DC0100CB
:040000050800018965
:00000001FF
