:020000040800F2
:10000000C8190020890200082F2700086B25000866
:100010002D27000875080008893500080000000039
:100020000000000000000000000000003D2E00085D
:100030007708000800000000512700083F2E000844
:10004000A3020008A3020008A30200081D2C000858
:10005000A3020008A302000879080008A302000810
:10006000A3020008A3020008A3020008A3020008DC
:10007000A3020008A3020008A3020008A3020008CC
:10008000A3020008A3020008A3020008A3020008BC
:10009000A3020008A3020008A3020008A3020008AC
:1000A000A3020008A3020008A3020008A30200089C
:1000B000A3020008A3020008192F0008A3020008E9
:1000C000A3020008A3020008A3020008A30200087C
:1000D000A30200081D350008A3020008A3020008BF
:1000E0007F080008792A0008A3020008A30200087C
:1000F000A3020008A3020008A3020008A30200084C
:10010000A3020008A3020008A3020008A30200083B
:10011000A3020008A3020008A3020008A30200082B
:10012000A3020008A3020008A3020008A30200081B
:10013000A3020008A3020008A3020008A30200080B
:10014000A3020008A3020008A3020008A3020008FB
:10015000A3020008A3020008A3020008A3020008EB
:10016000A3020008A3020008A3020008A3020008DB
:10017000A3020008A3020008A30200080000000078
:10018000A3020008A302000800F002F800F06DF8D6
:100190000AA090E8000C82448344AAF10107DA45E2
:1001A00001D100F062F8AFF2090EBAE80F0013F0C7
:1001B000010F18BFFB1A43F001031847BC4A0000A7
:1001C000DC4A00000A444FF0000C10F8013B13F029
:1001D000070408BF10F8014B1D1108BF10F8015BA0
:1001E000641E05D010F8016B641E01F8016BF9D193
:1001F00013F0080F1EBF10F8014BAD1C0C1B09D1EA
:100200006D1E58BF01F801CBFAD505E014F8016B5B
:1002100001F8016B6D1EF9D59142D6D370470000ED
:100220000023002400250026103A28BF78C1FBD8FF
:10023000520728BF30C148BF0B607047642900F0E7
:100240001781752900F01481782900F04D81632908
:1002500000F0A482732900F0A982002070471FB526
:1002600004F00CFC1FBD10B510BD00F0D1FA114612
:10027000FFF7F5FF03F05EFB00F0EFFA03B4FFF7C2
:10028000F2FF03BC03F017FB094880470948004709
:10029000FEE7FEE7FEE7FEE7FEE7FEE7FEE7FEE736
:1002A000FEE7FEE704480549054A064B7047000093
:1002B000D52E000889010008C8130020C8190020A5
:1002C000C8150020C8150020704753EA020C00F042
:1002D00069802DE9F04B4FF00006002B1FBFB3FAE9
:1002E00083F503FA05F424FA05F65E4012BF1643BF
:1002F000B2FA82F502FA05F4C5F120051EBF22FA12
:1003000005FC44EA0C04203556EA044C4FEA144438
:1003100018BF641C4FF000084FF00009904271EBC9
:10032000030C39D3002919BFB1FA81F701FA07F696
:10033000B0FA80F700FA07F6C7F120071EBF20FACF
:1003400007FC46EA0C062037B6FBF4FCA7EB0507D2
:10035000103F07F01F0BCBF120060CFA0BFB2CFA19
:1003600006F644BFB3460026202FA4BF5E464FF0DA
:10037000000B5BEA060C08BF4FF0010B19EB0B09F1
:10038000ABFB027C48EB0608C01B06FB02CC0BFB58
:1003900003CC71EB0C01C1E70B46024641464846CF
:1003A000BDE8F08B13B54FF000004FF00001AFF344
:1003B0000080BDE81C4070470FB4044910B503AA83
:1003C000029800F0F7F910BC5DF814FB1000002053
:1003D00070B5044685690068C10601D5302600E085
:1003E0002026C00707D070BDD4E9012130469047D0
:1003F000206A401C20626D1EF6D570BD70B50446A3
:1004000085690078C00707D170BDD4E9012120209B
:100410009047206A401C20626D1EF6D570BD70B5F5
:100420000C460546012A05D02878800600D5EA69E1
:10043000002302E0012305E05B1C934202D2E05C52
:100440000028F9D1A869E618C01AA861286A1844DA
:1004500028622846FFF7BCFF04E0D5E9012114F823
:10046000010B9047B442F8D32846FFF7C7FF70BD91
:100470002DE9F0410646002410687529314616A57D
:1004800010D0AFF30080002802DA404213A507E045
:1004900031688A0701D512A502E0490704D511A5E4
:1004A000012401E0AFF3008000210A2206F12407B5
:1004B00009E0B0FBF2FCB0FBF2F302FB1C003030B1
:1004C00078541846491C0028F3D123462A46304662
:1004D000BDE8F04100F0FFB8000000002D00000072
:1004E0002B0000002000000070B504460D46214698
:1004F0001068AFF300802188090502D50F4A7A44BD
:1005000002E00E4A7A440E32002104F1240305E091
:1005100000F00F060009965D5E54491C0028F7D1D3
:1005200020780023000704D5702D02D009B10223E2
:1005300011322046BDE8704000F0CDB8E64500001D
:100540002DE9F05F894604464FF0000ADFF874B1E8
:10055000FB44C0F820A02046E1688847002874D0FA
:10056000252806D0D4E901219047206A401C20624A
:10057000F1E700265F462046E168884720280546C7
:1005800007DB312D05D2781910F8200C08B106438D
:10059000F1E7B00701D526F00406C4F81CA0002737
:1005A000C4F818A02A2D09D0284603F07DF938B3E5
:1005B00004EB8708303DC8F8185019E059F8041BBF
:1005C000204604EB87029161E1688847012F0546C8
:1005D00018D1E069002820DA26F020061DE0D8F8BE
:1005E000180000EB800005EB40003038C8F8180018
:1005F0002046E1688847054603F056F90028EED109
:10060000012F0AD02E2D08D12046E16888477F1C93
:100610000546022F46F02006C4DBA069002803DA55
:10062000404246F00106A061F00701D026F0100616
:100630006C2D0BD0682D09D04C2D39D06A2D35D0BA
:10064000742D35D07A2D33D016E038E0E1682F468E
:1006500020468847B842054609D16C2F26D04FF472
:100660008060E168064320468847054604E06C2F19
:100670001AD04FF4807006430DB3A5F1410019283C
:1006800002D8203546F400664A46294620462660B0
:100690004E46FFF7D3FD80B101280BD0F61D26F0A2
:1006A000070000F1080956E74020E4E78020D8E77A
:1006B0000020D6E706F104094DE7284652E7206AF4
:1006C00000F002B8BC45000030BCBDE8C09F7047D8
:1006D0007047704770472DE9F0470D46994692469E
:1006E000044600F124080168880604D5E06921F079
:1006F0001001216000E00120A84201DD471B00E05D
:100700000027A1697A1902EB0900081AA061207874
:10071000C00602D42046FFF75BFE002608E0D4E9BD
:1007200001211AF806009047206A401C761C2062BE
:100730004E45F4DB2078C0060AD52046FFF748FE78
:1007400006E0D4E9012130209047206A401C206255
:10075000381EA7F10107F4DC07E0D4E9012118F8FD
:1007600005009047206A401C2062281EA5F1010563
:10077000F3DC2046FFF742FE2078000602D5022077
:10078000BDE8F0870120FBE710B5436913B1AFF373
:10079000008001E0FFF743FE012010BD127800F158
:1007A00024010A7000224A700122EDE711684FF01F
:1007B000FF32E9E7074B70B50D467B4400F011F8B6
:1007C0000446284600F020F810B14FF0FF3070BD0D
:1007D000204670BD5F31000001694A1C0261087843
:1007E000704700B58FB0CDE9013100210591054971
:1007F0007944CDE9031011466846FFF7A1FE0FB01A
:1008000000BD0000E5FFFFFF007B00F080007047A7
:10081000754600F02BF8AE4605006946534620F0B9
:100820000700854618B020B5FFF73CFDBDE8204025
:100830004FF000064FF000074FF000084FF0000B9C
:1008400021F00701AC46ACE8C009ACE8C009ACE84F
:10085000C009ACE8C0098D46704710B50446AFF337
:1008600000802046BDE81040FFF708BD00487047F3
:1008700064130020FEE77047012000F04BB84FF4EE
:10088000005000F047B810B590F825100024022958
:1008900003D00421C163012418E001680A6822F032
:1008A0000E020A6001680A6822F001020A6090F8EC
:1008B0004420012303FA02F1026C516080F82530D4
:1008C000002180F82410816B01B18847204610BDBB
:1008D00070B50446642002F0F9FF4FF480754FF0C4
:1008E0009046012C0DD069018C4210D1084800F0CF
:1008F00006F900280BD129463046BDE8704000F0CB
:1009000003B90121304600F0FAF80128F3D070BD98
:1009100000080048044910B50A68024202D0086085
:10092000FFF7D6FF10BD0000140401402DE9F84F79
:10093000DFF8A091002209F1040A0AF1040B4FF03C
:100940000F080BF1040EBEE001249440234075D043
:100950004D68022D01D0122D11D1D50800EB85076D
:100960003E6A5507ED0E08FA05FC26EA0C06D1F89A
:1009700010C00CFA05FC4CEA060CC7F820C007684A
:100980005500032691F804C0AE400CF0030CB743A9
:100990000CFA05FC4CEA070CC0F800C04F68012FA8
:1009A00005D0022F03D0112F01D0122F15D1876847
:1009B000D1F80CC0B7430CFA05FC4CEA070CC0F8A0
:1009C00008C0476891F804C0A743CCF3001C0CFA98
:1009D00002FC4CEA070CC0F804C0D1F804C06FEA6E
:1009E0000C07BF0706D1C76AA743CCF3C0049440E5
:1009F0003C43C462C468B4438E68AE402643C660BC
:100A00004C68E4005ED5344C256E45F00105256642
:100A1000246E22F0030504F0010400942F4C2E19DB
:100A2000B7689407250F08FA05F4A743B0F1904F73
:100A300005D02B4CA04204D101241CE042E000244C
:100A400019E0284CA04201D1022414E0264CA04217
:100A500001D103240FE0254CA04201D104240AE077
:100A6000234CA04201D1052405E0224CA04201D133
:100A7000062400E00724AC403C43B460D9F80040B1
:100A80004D464E689C43F60300D51C432C60DAF8B3
:100A9000004055464E689C43B60300D51C432C606D
:100AA000DBF800405D464E689C43F60200D51C43CF
:100AB0002C60DEF8004075464E689C43B60200D5B7
:100AC0001C432C60521C0B6833FA02F47FF43CAFD9
:100AD00000F012B800040140001002400000014084
:100AE0000004004800080048000C004800100048BE
:100AF000001400480018004818BCBDE8E08F0069E9
:100B0000084000D00120704742694A404261704766
:100B10000AB1816170478162704700000148006836
:100B2000704700000400002002480168491C016071
:100B30007047000004000020074810B5016841F428
:100B400080710160052000F049F8002000F006F8EF
:100B500000F018F8002010BD0020024010B5044637
:100B600007484FF47A710068B0FBF1F001F0FCFA2D
:100B700000222146501E00F011F8002010BD000098
:100B800000000020704700F01F0201219140400941
:100B9000800000F1E020C0F800117047F0B40E4B67
:100BA0001B68C3F30223C3F10704042C00D90424F7
:100BB0001D1D072D01D2002300E0DB1E012606FAD1
:100BC00004F56D1E0D409D409E40761E164045EA80
:100BD0000601F0BC01F0ACBD0CED00E0064A00F0EF
:100BE000070110684FF6FF03184040EA012003494F
:100BF00008431060704700000CED00E00000FA05AB
:100C00000248006800F4C0607047000000700040B7
:100C10000248016841F48071016070470070004033
:100C20002DE9F84F044600250088E44E2F460105C3
:100C300004F1200B1DD5606E78B1B0F5800F11D096
:100C4000B0F5000F04D0B0F5400F22D001250FE021
:100C5000F06840F48030F0601BE00021201D01F0BE
:100C600079FD03E00021584601F02AFE050010D06E
:100C70002F462088C00426D5A06EC0B1B0F1807F79
:100C80001AD0B0F1007F0DD0B0F1407F19D001250E
:100C900018E0D6F88800616E20F440000843C6F8DA
:100CA0008800E6E7F06840F48030F06009E0002159
:100CB000201D01F04FFD03E00021584601F000FE29
:100CC0000546F5B12F462068800366D5B06D4FF01C
:100CD0000009C00009D4B06D40F08050B065B06D1F
:100CE0004FF0010900F080500090DFF8D4A2DAF84C
:100CF000001041F48071CAF80010FFF70FFF804622
:100D000010E0D6F88800A16E20F040700843C6F8C5
:100D10008800D8E7FFF702FFA0EB0800022801D9FE
:100D2000032532E0DAF80000C005F3D56DBBD6F834
:100D3000900010F4407015D0D4F88410814211D086
:100D4000D6F89000D6F8901020F4407041F480312D
:100D5000C6F89010D6F8901021F48031C6F89010A3
:100D6000C6F89000C0074ED0FFF7D8FE804641F28B
:100D7000883A05E0FFF7D2FEA0EB08015145CFD835
:100D8000D6F890008007F5D5EDB32F46B9F1000FE6
:100D900003D0B06D20F08050B0652078C00707D038
:100DA000D6F88800A16B20F003000843C6F888003D
:100DB0002078800707D5D6F88800E16B20F00C007A
:100DC0000843C6F888002078400707D5D6F8880081
:100DD000216C20F030000843C6F888002078000716
:100DE00007D5D6F88800616C20F0C0000843C6F82B
:100DF00088002078C00609D5D6F88800A16C20F4B8
:100E00004070084300E05AE0C6F888002078800669
:100E100007D5D6F88800E16C20F440600843C6F896
:100E200088002088800507D5D6F88800E16D20F479
:100E300040200843C6F888002088400507D5D6F82A
:100E40008800216E20F440100843C6F888002078FE
:100E5000400607D5D6F88800216D20F4405008439D
:100E6000C6F888002078000607D5D6F88800616D9E
:100E700020F440400843C6F888002088C00507D504
:100E8000D6F88800A16D20F440300843C6F88800E9
:100E900020884FF0006580044FF0806821D5D6F897
:100EA0008800E16E20F040600843C6F88800E06EDC
:100EB000A8420ED1F06840F48010F06011E0D6F83E
:100EC0009000D4F8841020F440700843C6F89000D5
:100ED0005CE7404505D10121201D01F03BFC00B13C
:100EE00007462068000317D5D6F88800216F20F048
:100EF00040600843C6F88800206FA84204D1F0681B
:100F000040F48010F06007E0404505D10121201D2C
:100F100001F020FC00B107462068400317D5D6F841
:100F20008800616F20F040600843C6F88800606F59
:100F3000A84204D1F06840F48010F06007E040451A
:100F400005D10121201D01F005FC00B107462088D4
:100F500040041AD5D6F88800A16F20F0405008430D
:100F6000C6F88800A06FB0F1805F03D0B0F1005FD9
:100F700005D00AE00221201D01F0ECFB03E0022174
:100F8000584601F09DFC00B107462088000407D5B3
:100F9000D6F88800E16F20F080400843C6F888004A
:100FA0002068C00307D556F8880FD4F8801020F0C9
:100FB000004008433060384600F004B8001002409A
:100FC0000070004018BCBDE8E08F00002DE9F0473C
:100FD000DFF8648104460E46D8F8000000F00700F0
:100FE000B0420CD2D8F8001021F007013143C8F804
:100FF0000010D8F8000000F00700B04272D120784D
:101000004E4F800705D5B868A16820F0F00008436E
:10101000B8602078C00754D06068022818D0032830
:1010200019D03968D0B1490500295BDAB96821F0D7
:1010300003010143B960FFF771FD0546606841F2A5
:101040008831022812D003281DD0894638B333E0F6
:1010500039688903E8E739688901E5E78907E3E743
:10106000FFF75CFD411B494501D922E08946B8687C
:10107000C0F381000228F3D123E0FFF74FFD411BAD
:10108000494501D915E08946B868C0F381000328B5
:10109000F3D116E0FFF742FD411B494509D8B86876
:1010A00010F00C0FF6D10CE0FFF738FD411B49455D
:1010B00002D90320BDE8F087B868C0F38100012899
:1010C000F2D1D8F80010404601F00701B1420BD927
:1010D000016821F0070131430160006800F007005A
:1010E000B04201D00120E5E72078400705D5B86877
:1010F000E16820F4E0600843B8602078000706D576
:10110000B868216920F4605040EAC100B86000F07E
:101110004BF8B968F02292FAA2F201F0F001B2FAAB
:1011200082F2D140064A515CC8400649086000205E
:10113000FFF714FD0020BDE7002002400010024030
:10114000A04A000800000020084809490068896892
:101150004FF4E06292FAA2F201F4E061B2FA82F294
:10116000D140044A515CC840704700000000002094
:1011700000100240E04A00080848094900688968F0
:101180004FF4605292FAA2F201F46051B2FA82F284
:10119000D140044A515CC840704700000000002064
:1011A00000100240E04A000870B53B4B0022104698
:1011B00099683A4C11F00C0F4FEA640514D0996805
:1011C000C1F38101032904D1D96801F00301012988
:1011D0000AD09968C1F38101012921D09968C1F32E
:1011E000810102291ED01EE01968090706D4D3F830
:1011F00094104FF4706201F4706103E01968F022FA
:1012000001F0F00192FAA2F2B2FA82F2D140244A3D
:1012100052F82120996811F00C0F04D1104602E019
:10122000204600E028469968C1F38101032931D1A5
:10123000D868D96800F00300702696FAA6F601F087
:101240007001B6FA86F6F140491C4FF4FE460228BA
:1012500004D0032805D0B2FBF1F004E0B4FBF1F0B8
:1012600001E0B5FBF1F0D96896FAA6F201F4FE416F
:10127000B2FA82F2D1404843D9684FF0C06292FA84
:10128000A2F201F0C061B2FA82F2D140491C4900D9
:10129000B0FBF1F070BD0000001002400024F4002B
:1012A000B04A00082DE9F84304460078FD4DC00619
:1012B00063D5A86810F00C0F0AD0A0690028286830
:1012C00078D040F001002860FFF728FC06465AE07D
:1012D0002868800702D5A06900286AD0216A28689A
:1012E0004FF0F006000703D5286800F0F00003E097
:1012F000D5F8940006EA1010814216D9084601F08C
:101300007DFB002855D1286840F008002860286837
:10131000216A20F0F000084328606868E16920F441
:101320007F4040EA0120686015E0286840F008002E
:1013300028602868216A20F0F00008432860686867
:10134000E16920F47F4040EA01206860206A01F0F2
:1013500055FB0028D6D1FFF727FFA96896FAA6F219
:1013600001F0F001B2FA82F2D140CF4A515CC8409C
:10137000CE4908600020FFF7F1FB2AE0FFF7CEFB23
:10138000801B02287ED828688007F7D5286840F09F
:10139000080028602868216A20F0F00008432860CF
:1013A0006868E16920F47F4040EA0120686010E04D
:1013B00000E0B3E020F001002860FFF7AFFB064635
:1013C00004E0FFF7ABFB801B0228DBD8286880070E
:1013D000F7D42078C00746D0A868C0F3810002285F
:1013E0001DD0A868C0F38100032803D1E868C0437A
:1013F000800714D06068B0F5803F17D0B0F5A02FFB
:10140000286817D020F480302860286820F48020D5
:1014100028606068D8B1FFF781FB064613E02868B2
:10142000800320D56068002878D01CE0286840F44C
:101430008030EDE740F480202860F7E7FFF76EFB8F
:10144000801B64289ED828688003F7D50BE0FFF73F
:1014500065FB064604E0FFF761FB801B642891D81A
:1014600028688003F7D42078800747D5A8684FF014
:10147000F857C0F38100012816D0A868C0F3810096
:10148000032800E0AAE004D1E86800F00300022885
:101490000AD0E0680028286821D040F480702860D5
:1014A000FFF73CFB06460BE0286840050BD5E068DB
:1014B0000028B9D007E0FFF731FB801B022884D851
:1014C00028684005F7D5686897FAA7F22169B2FA4B
:1014D00082F220F0F8509140084368600EE020F45A
:1014E00080702860FFF71AFB064604E0FFF716FB42
:1014F000801B022872D828684005F7D4207800079E
:1015000028D560690028D5F8940012D040F0010079
:10151000C5F89400FFF702FB064605E0F6E0FFF78A
:10152000FDFA801B022859D8D5F894008007F6D51B
:1015300010E020F00100C5F89400FFF7EFFA06462E
:1015400004E0FFF7EBFA801B022847D8D5F8940097
:101550008007F6D42078400762D5A86D0027C00028
:1015600008D4A86D40F08050A865A86D012700F050
:10157000805000904E480168C90511D4016880462A
:1015800041F480710160FFF7C9FA064604E0FFF7F5
:10159000C5FA801B022821D8D8F80000C005F6D56E
:1015A000A068012815D00528D5F8900017D020F0A4
:1015B0000100C5F89000D5F8900020F00400C5F8AF
:1015C0009000A06841F28838C0B1FFF7A7FA06463C
:1015D0000FE0D5F8900040F00100F0E761E040F046
:1015E0000400C5F89000F4E7FFF798FA811B414525
:1015F00057D8D5F890008007F6D50CE0FFF78EFAA3
:10160000064604E0FFF78AFA811B414576D8D5F8F3
:1016100090008007F6D41FB1A86D20F08050A86517
:10162000A06AE8B3A968C1F3810103296ED002283A
:10163000286820F08070286011D02868000106D446
:101640002868800003D4E86820F00300E860E868B8
:1016500018490840E860FFF761FA044651E0FFF7D7
:101660005DFA064604E0FFF759FA801B022845D8C8
:1016700028688001F7D4206BE16A00011038084324
:10168000616BA26B0902120941EA42410843A18F32
:10169000094A490802EB4151084394F840100DE013
:1016A00032E02BE000100240A04A000800000020B9
:1016B00000700040FFFFEEFE0000E0FF490812014D
:1016C00002EB41610843E860286840F080702860C0
:1016D000E86840F08070E860FFF720FA044604E014
:1016E000FFF71CFA001B022808D828688001F7D5EC
:1016F0000AE0FFF713FA001B022802D90320BDE815
:10170000F88328688001F4D40020F8E70120F6E788
:1017100070470068503050F8210070470068503022
:1017200040F82120704700002DE9F74F044690F85B
:1017300020008B4601281CD04FF0010884F820803F
:10174000022084F821002168CA20486220685321C1
:101750004162206880684FF0000640054FF0FF07A7
:101760004FF0030A4FF47A790FD5FFF7D7F9054602
:1017700007E0022000F050B8FFF7D0F9401B4845C1
:1017800011D82068C0684007F6D42068816821F429
:1017900080618160FFF7C2F905460CE0FFF7BEF9F2
:1017A000401B484507D92068476284F821A084F887
:1017B00020600320DEE72068C0684007EED521687E
:1017C000C1F814B02068816821F0070181602068A9
:1017D0008168029A114381600E48016841F48011CA
:1017E00001600C480830016841F4801101602068F4
:1017F000816841F4804181602068816841F48061A2
:1018000081602068476284F8218084F8206000208D
:10181000B0E70000000401401EBCBDE8E08F4FF4BB
:1018200080714FF09040FFF76FB9000010B50B4981
:1018300004464FF4801008602168C868400508D548
:10184000C86800F0800060F49060C8602046FFF730
:10185000E6FF012084F8210010BD000014040140BF
:1018600001A0FEF7A9BD0000414C41524D2041218D
:101870000D0A000010B51B4904464FF48020086093
:101880001EE08868C0040BD5C868C00508D5C868C4
:1018900000F0800060F4C070C8602046FFF7E0FFF1
:1018A0002168886880040BD5C868800508D5C86899
:1018B00000F0800060F42070C8602046FFF728FF29
:1018C00021688868C00402D5C868C005D9D4886872
:1018D000800402D5C8688005D3D4012084F8210093
:1018E00010BD00001404014010B500680B464168AB
:1018F0000D480140080CD870C1F304245C7001F05D
:101900003F049C70C1F34231197052B901F0BAF82A
:10191000D870587801F0B6F85870987801F0B2F89D
:101920009870002010BD00003FFFFF0010B50B466F
:101930000168896A596001680969C1F30E019960FB
:10194000006801680E480140C1F305401870C1F3FA
:1019500006245C7001F07F049C70402404EA11416D
:10196000D97052B901F08EF81870587801F08AF8E1
:101970005870987801F086F89870002010BD00002B
:101980007F7F7F0070B5040003D094F8210010B170
:1019900007E0012070BD002084F82000204600F000
:1019A00045F8022084F821002168CA204862216895
:1019B00053204862204601F079F8FF210028206872
:1019C00004D04162042084F82100E2E78268164BCB
:1019D0001A408260206882686368A5691A43236997
:1019E0002B431A4382602268E06810612068026914
:1019F000238942EA034202612068C26822F0800221
:101A0000C2602068C26C22F00302C264E2696069AD
:101A100002432068C36C1A43C264206841620120FB
:101A200084F82100002070BDBFFF8FFF10B5124C5D
:101A3000B4B054F8580F40F080502060206800F097
:101A400080503390FFF7E4F80420229000202C907F
:101A50000120249022A8FFF725FC4FF400300090CD
:101A6000401221906846FFF7DBF8A06B40F400407D
:101A7000A06334B010BD0000001002402DE9F05FFB
:101A8000044690F820000B46012849D04FF0010A87
:101A900084F820A0022084F82100206800268068B5
:101AA0004FEA4060DAB3002857DA187800F0EAFF0E
:101AB00093F8200000F0E6FF98781978DA7840EA89
:101AC00001405978090241EA0241084393F8201085
:101AD00040EA0165D8695F68054358692168054394
:101AE00098690743CA204862216853204862586AAF
:101AF0004FF0FF09B0F5807F20684FF47A7B816852
:101B00002DD021F4007181602068C16801F080014E
:101B100061F42071C160FFF701F8804654E002E0F3
:101B2000022000F079B8002800DBDE70187800F0A1
:101B3000B2FF0204587800F0AEFF42EA0022987823
:101B400000F0A9FF0243D87842EA004293F820004F
:101B500000F0A1FF42EA0065BCE7DE70A8E721F4CF
:101B6000807181602068C16801F0800161F4C071FA
:101B7000C160FEF7D3FF804605E0FEF7CFFFA0EB84
:101B80000800584517D82068C068C007F5D02068FD
:101B9000C561206847642068816841F48071816074
:101BA0002068816841F480511FE0FEF7B7FFA0EB89
:101BB0000800584508D92168C1F82490032084F80A
:101BC000210084F82060ACE72068C0688007ECD56D
:101BD00020680562206887642068816841F400718C
:101BE00081602068816841F4005181600948016882
:101BF00041F48021016007480830016841F48021E8
:101C000001602168C1F8249084F821A084F8206044
:101C1000002086E70004014030BCBDE8C09F000002
:101C20002DE9F047044690F820000B46012826D005
:101C30004FF0010984F82090022084F821005878A0
:101C400002B300F01FFF987800F01CFF9878D97855
:101C500040EA014558781978000240EA41300543CE
:101C60002168CA204862216853204862204600F05B
:101C70001DFF0026FF274FF0040858BB19E0022083
:101C8000BDE8F087C10603D500F0EF000A305870B8
:101C9000D87800F000FF0204587800F0FCFE42EA19
:101CA0000022987800F0F7FE0243187842EA4035A7
:101CB000D6E710480540206845602068C16821F0DB
:101CC0008001C1602068806880060BD4204600F047
:101CD0008FF838B12068476284F8218084F820604A
:101CE0000120CDE72068476284F8219084F82060C5
:101CF0000020C5E73FFFFF002DE9F047044690F8BC
:101D000020000D46012812D04FF0010A84F820A0CF
:101D1000022084F821002068002680684FEA406095
:101D200042B100281ADA287800F0ACFE17E0022051
:101D3000BDE8F087002800DBEE70287800F0ABFEED
:101D40000204687800F0A7FE42EA0022A87800F0BA
:101D5000A2FE0243E87842EA00470AE0EE70A87863
:101D6000297840EA01476878E978000240EA0140B2
:101D700007432168CA2048622168532048622046F0
:101D800000F094FE4FF0FF084FF00409E0B9174847
:101D90000740206807602068816821F48021816005
:101DA000D5E90310014320688268114381602068EF
:101DB000C16821F08001C1602068806880060CD471
:101DC000204600F015F840B12168C1F8248084F85D
:101DD000219084F820600120AAE72168C1F82480BE
:101DE00084F821A084F820600020A1E77F7F7F0095
:101DF00070B505460068C16821F0A001C160FEF71A
:101E00008DFE04464FF47A7606E0FEF787FE001B4F
:101E1000B04201D9032070BD2868C0688006F4D59F
:101E2000002070BD2DE9F041040005D00025A56219
:101E300094F85D0018B107E00120BDE8F08184F856
:101E40005C50204600F044F8022684F85D6020686B
:101E5000016821F040010160E0684FF4E0629042C7
:101E600001D9002101E04FF48051B0F5706F02D02C
:101E7000904200D0A562276B012327B9904201D977
:101E8000266300E02363D4E901021043D4E9042669
:101E900032431043228B02F400721043E269104374
:101EA000226A1043A26A104322681060626B606A63
:101EB000A66910430427E26807EA16463243104336
:101EC000084321684860256684F85D300020B4E747
:101ED000114800B5C16C87B041F00101C164C16C0B
:101EE00001F001010591016E41F480510166006E1F
:101EF000012100F480500590E02000900220CDE9FF
:101F0000010103900520049069464FF09040FEF7D0
:101F10000DFD07B000BD0000001002402DE9F05F8C
:101F2000044690F85C000127DDF828809A461646A2
:101F30000D464FF0000901280ED0012084F85C0006
:101F4000FEF7ECFD834694F85D00616801280CD033
:101F5000B1F5827F07D102E0022000F0F6B8A16857
:101F600009B9042801D002206EE035B32EB3BAF1CE
:101F7000000F22D094F85D00042802D0052084F8D8
:101F80005D00002020662664A4F846A0A4F844A0C2
:101F9000A563A4F83EA0A4F83CA0E0642065E06836
:101FA0004FF4E061884203D8B4F84600012806D90E
:101FB0002068426822F4805205E0012044E0206855
:101FC000426842F48052426020680268520603D49C
:101FD000026842F040020260E0688842606844D9CA
:101FE00010B1E08F012838D1216835F8020BC860A4
:101FF000E08F401EE08730E067B1E08F50B120688D
:102000008168890706D535F8021BC160E08F401E44
:10201000E0870027B4F8460060B120688168C907EE
:1020200008D0C06826F8020BB4F84600401EA4F899
:1020300046000127B8F1FF3F0FD0FEF76FFDA0EB80
:102040000B01414509D303208146012084F85D003E
:10205000002084F85C0048467FE7E08F0028CBD161
:10206000B4F846000028C7D162E010B1E08F012823
:1020700057D1E08F012806D9216835F8020BC860D6
:10208000E08F801E05E0216815F8010B0873E08FD2
:10209000401EE08745E0AFB1E08F98B120688168CD
:1020A00089070FD5E18F012905D935F8021BC160D9
:1020B000E08F801E04E015F8011B0173E08F401EC5
:1020C000E0870027B4F8460010B320688168C9078C
:1020D0001ED0B4F84610012911D9C06826F8020BA9
:1020E000B4F84600801EA4F84600B4F84600012863
:1020F0000DD82068416841F48051416007E0007BC1
:1021000006F8010BB4F84600401EA4F8460001276B
:10211000B8F1FF3F05D0FEF701FDA0EB0B014145F3
:1021200091D2E08F0028B6D1B4F846000028B2D191
:102130005A464146204600F0CBFD08B120202066DB
:10214000206E00287FF439AF7FE730BCBDE8C09F28
:102150004FF0E0210428086903D020F00400086152
:10216000704740F00400FAE710B5401EB0F1807FE0
:1021700001D3012010BD4FF0E02460610F216017F2
:1021800000F0D6FA0020A06107202061002010BDD9
:1021900010B5040003D094F8390010B107E0012015
:1021A00010BD002084F83800204600F00CF8022012
:1021B00084F83900211D206800F0C8FE012084F851
:1021C0003900002010BD70470168CA6842F0010262
:1021D000CA600068016841F0010101600020704799
:1021E0007047704770B501680446C8690A6810F006
:1021F0000F0508D1830606D5930604D52046BDE811
:10220000704000F0D3BF8B68002D66D003F001054D
:1022100002F490762E4360D0C60707D0D60505D5C8
:1022200001260E62E16E41F00101E166810708D5E9
:10223000D90706D0266802213162E16E41F004011F
:10224000E166410708D5D90706D023680421196241
:10225000E16E41F00201E16601070AD502F02001BA
:10226000294306D0236808211962E16E41F0080174
:10227000E166E16E002929D0800604D5900602D5DA
:10228000204600F093FFE06E000703D420688068CA
:1022900040061CD5204600F07BFF20688168490677
:1022A00011D5816821F040018160606E58B13349D9
:1022B0008163606EFEF7E7FA002807D0606E816BDD
:1022C000BDE8704008472046FFF78BFF70BD2046F1
:1022D000FFF787FF0020E06670BD8B68C6024FF0F5
:1022E00020050CD55B020AD5E803086284F8695022
:1022F00084F86A502046BDE87040FFF771BF0306BE
:102300002DD513062BD594F869002128E4D1B4F813
:10231000520020B1A068B0F5805F0AD00BE00868D9
:1023200020F0800008602068016841F040010160F1
:1023300070BD206950B1E06C411CE16421680078F7
:10234000088534F8520F401E208070BDE06C008874
:10235000C0F308000885E06C801CE064F1E74006EB
:10236000F3D55006F1D50A68204622F040020A60F3
:1023700084F8695000F0F8F870BD00007D31000865
:1023800010B5040003D094F8690010B107E00120F3
:1023900010BD002084F86800204600F027F82420B3
:1023A00084F869002068016821F00101016020467D
:1023B00000F038FF0128EBD0606A10B1204600F031
:1023C0004BFE2068416821F490414160206881689B
:1023D00021F02A0181602068016841F0010101605B
:1023E0002046BDE8104000F09BBE000030B504461A
:1023F00000681F4987B0884238D11E49C86C40F038
:102400000100C864C86C00F001000590086E40F43B
:1024100080400866086E4FF0904500F480400590BB
:102420004815009002200121CDE901010390072009
:10243000049069462846FEF779FA4FF480600090D0
:1024400069462846FEF772FA2068016821F04001CB
:1024500001602068016841F0200101602520FEF73D
:1024600092FB032211462520FEF798FB07B030BDF2
:1024700000380140001002402DE9F84F044690F862
:102480006A00984616460D46202867D1FDB1F6B180
:1024900094F86800012861D0012084F868004FF0AA
:1024A0000009C4F86C90222084F86A004C34FEF7CE
:1024B00035FBA6818246E68154F8440C4FF48057E0
:1024C000FF214C3CB84208D1206918B10DE0012031
:1024D00000F046B840F2FF100DE07F2218B1B0F1D5
:1024E000805F05D009E0206950B9A4F85C1004E0D1
:1024F000206928B13F20A4F85C00B4F85C601CE0BF
:10250000A4F85C20F9E7B4F85A00401EA4F85A0079
:102510005346002220212046CDF8008000F0CCFF59
:1025200008B10320D4E7A068B84201D1206978B18E
:102530002068808C304005F8010BB4F85A00002860
:10254000E1D1202084F86A0084F868900020BFE779
:102550002068808C304025F8020BEEE70220B7E7B8
:1025600018BCBDE8E08F70477047FEE770B51A48A9
:1025700086B0C16C41F00101C164C16C01F0010180
:102580000591C16C41F00401C164C06C032500F0E9
:102590000400059048F201000024022603958DE80E
:1025A000510069464FF09040FEF7C0F92020039596
:1025B0008DE85100094E69463046FEF7B7F94FF4F1
:1025C0000050CDE900040120CDE9020569463046FE
:1025D000FEF7ACF906B070BD0010024000080048DC
:1025E0002DE9F0470127304C304E4FF400484FF4AE
:1025F00000594FF0904501281DD02078A0B120212E
:102600003046FEF77CFAC0B141462846FEF777FA1D
:1026100098B149463046FEF772FA70B1012128465A
:10262000FEF76DFA012808D020213046FEF767FA40
:10263000012825D036E02770E1E70A2001F046F9AD
:102640000020207020213046FEF759FA002811D0D2
:1026500041462846FEF753FA58B149463046FEF740
:102660004EFA48B101212846FEF749FA012805D063
:1026700018E00120BDE8F0870320FBE70420F9E71C
:1026800041462846FEF73BFA01280BD14946304621
:10269000FEF735FA012805D101212846FEF72FFA69
:1026A00000B927700020E5E714000020000800486A
:1026B0002DE9F0411B4886B0C16C41F00101C164B5
:1026C000C16C01F001010591C16C41F00801C164C8
:1026D000C06C4FF4807500F00800059001260227B9
:1026E0000324CDE90274CDE900564FF090486946C5
:1026F0004046FEF71BF9CDE902740420CDE900063F
:10270000094C69462046FEF711F901222946404648
:10271000FEF7FEF9012204212046FEF7F9F906B082
:10272000BDE8F08100100240000C0048FEE7704751
:102730000907090E002806DA00F00F0000F1E0207A
:1027400080F8141D704700F1E02080F800147047F5
:10275000704700002DE9F041554E05468846F06867
:102760000024820728684FF0700113D0F26802F04D
:10277000030282420CD158B1F06891FAA1F100F045
:102780007000B1FA81F1C8406968401C884221D0CC
:1027900001248AE0012809D002280AD00328F7D1B1
:1027A0003268920309D43268520304E03268920717
:1027B00001E032685205002AEADAF26891FAA1F1E2
:1027C00022F073036A68B1FA81F1521E8A40134302
:1027D0000343F360306820F080603060FEF79EF9BC
:1027E000074604E0FEF79AF9C01B022853D8306868
:1027F0000001F7D4DCBB4FF4FE40B8F1000F23D04A
:1028000090FAA0F0A968B8F1010FB0FA80F04FF08B
:10281000FF3201FA00F12BD0686902EB50004FF053
:10282000C06292FAA2F2B2FA82F290400143306999
:10283000204A104001433161306840F080603060D0
:10284000FEF76CF9074628E090FAA0F0A968B0FA04
:1028500080F08140E8684FF4003292FAA2F2000959
:10286000B2FA82F2904001433069134AE1E71CE07A
:10287000286902EB50004FF4C00292FAA2F2B2FAB9
:1028800082F29040014330690C4AD2E7FEF746F9E4
:10289000C01B022801D9032407E030680001F5D5E8
:1028A0001CB93069A969084330612046BDE8F08150
:1028B00000100240FF80FFF9FF80FDFFFF809FFFB7
:1028C0002DE9F0414A4E05468846F068002481070C
:1028D00028684FF0700213D0F16801F003018142C3
:1028E0000CD158B1F06892FAA2F100F07000B1FA80
:1028F00081F1C8406968401C884221D0012473E0FE
:10290000012809D002280AD00328F7D131688903A9
:1029100009D43168490304E03168890701E031686E
:1029200049050029EADAF16892FAA2F221F073036C
:102930006968B2FA82F2491E91400B430343F36087
:10294000306820F080503060FEF7E8F8074604E079
:10295000FEF7E4F8C01B02283CD830688000F7D4AA
:1029600094BB4FF4FE4191FAA1F1A868B8F1000FB1
:10297000B1FA81F100FA01F019D029694FF0FF3264
:1029800002EB51014FF0C06292FAA2F2B2FA82F267
:10299000914008437169174A1140084370613068DB
:1029A00040F080503060FEF7B9F8074614E0E9685F
:1029B0004FF4003292FAA2F20909B2FA82F291407F
:1029C000084371690C4AE7E70EE0FEF7A7F8C01B61
:1029D000022801D9032407E030688000F5D51CB92E
:1029E00070696969084370612046BDE8F0810000A4
:1029F00000100240FF80FFF9FF80FDFFF8B51C4E7C
:102A000005460024B06DC00002D5FEF7F9F80DE0D0
:102A1000B06D40F08050B065B06D00F08050009017
:102A2000FEF7EEF8B16D21F08051B165B0F5007F91
:102A300004D0802D07D94FF003040AE0802D08D977
:102A4000A02D01D804E001D1022402E0702D00D1B4
:102A500001240848016821F0070121430160006852
:102A600000F00700A04201D00120F8BD0020F8BD11
:102A700000100240002002400148FEF7FBBE0000AB
:102A8000A0020020010901EB810100F00F0000EB22
:102A90004100C0B27047002102E00A38C0B2491CB0
:102AA0000A28FAD2090740EA1160704770B5054656
:102AB0000068C168490613D44FF0FF31C160FEF7CA
:102AC0002DF804464FF47A7606E0FEF727F8001B4F
:102AD000B04201D9032070BD2868C0684006F4D513
:102AE000002070BD174810B51549016000217F22F4
:102AF000C0E90112FF22C0E903218161C161FEF733
:102B000041FF08B1022010BD00210E48FEF701FE72
:102B100045F25004A04210D0402332223A210E2028
:102B200000F04CF8012317221946102000F034F869
:102B3000224600210348FEF7F1FD002010BD0000F1
:102B400000280040A002002000B58BB08DF80010D6
:102B50008DF8012000218DF802308DF803100191CD
:102B600005914FF0706106914FF080418DF8200083
:102B7000881507910990002269460648FEF77EFFF6
:102B8000022201212920FEF709F82920FDF7FBFF89
:102B90000BB000BDA002002008B58DF802208DF812
:102BA00001108DF800308DF80300002269460248BC
:102BB000FFF736F808BD0000A002002000B585B080
:102BC0008DF800008DF8011000208DF80220039090
:102BD000024604908DF8033069460248FFF78CF8EE
:102BE00005B000BDA00200200B4B10B51B68DC68CF
:102BF00004F0800464F49064DC6002460648FEF74A
:102C000093FD022211460320FDF7C8FFBDE81040E6
:102C10000320FDF7B8BF0000A00200200148FEF726
:102C200005BE0000A002002010B5134C11484FF45F
:102C3000E06120604FF4827060600020C4E902010E
:102C400002212161012161614902A1613821C4E9A8
:102C500007106062A0620720E0622046FFF7E2F8FA
:102C60002068016841F040010160BDE81040FF208C
:102C700000F004B800300140C402002001B582B069
:102C80004FF47A700090012301AA02A90248FFF7CD
:102C900045F99DF804000EBDC40200200B4A10B592
:102CA00011680B6823F040030B6011680B684FF646
:102CB000C77423400B6011680B6803430B601068F6
:102CC000016841F04001016010BD0000C402002015
:102CD000F8B515460E460B460092044600224FF406
:102CE000C05100F010F840B9334600228021204640
:102CF000009500F058F8002804D0206E40F0200025
:102D000020660320F8BD2DE9F8431D4616460F4600
:102D100004464FF4C069DDF820803DE04F4505D101
:102D200026B9007B8DF800009DF80000681C33D0A8
:102D30002DB1FDF7F3FEA0EB0800A8422CD32068CC
:102D4000416821F0E00141606068B0F5827F0BD1FD
:102D5000A068B0F5004F02D0B0F5806F04D12068B4
:102D6000016821F040010160A06AB0F5005F0AD15E
:102D7000206801684DF6FF7211400160206801680B
:102D800041F400510160012084F85D00002084F8C6
:102D90005C000320BDE8F883206881683940B142B7
:102DA000BCD10020F6E72DE9F0411D4617460E463E
:102DB0000446DDF8188035E0681C33D02DB1FDF7EE
:102DC000ADFEA0EB0800A8422CD32068416821F09A
:102DD000E00141606068B0F5827F0BD1A068B0F57A
:102DE000004F02D0B0F5806F04D12068016821F057
:102DF00040010160A06AB0F5005F0AD12068016857
:102E00004DF6FF72114001602068016841F40051E5
:102E10000160012084F85D00002084F85C0003203C
:102E2000BDE8F0812068806836EA000004D0002008
:102E3000B842C1D10020F3E70120F9E77047FDF760
:102E400073BE000070B5214CBAB03E9DA66D46F031
:102E50008056A665A46D04F0805438941C4C2668F6
:102E600026F4C06646F40076266024682EAE04F48C
:102E7000C0643894012422942404239402242C94C2
:102E800003242D94329286E82B0022A8FEF70AFA3A
:102E900000B1FEE70F20CDE93304002035903690D5
:102EA0003790042133A8FEF791F800B1FEE74FF404
:102EB000804000904FF040501E906846FDF7B0FEF5
:102EC000002800D0FEE73AB070BD000000100240BC
:102ED000007000400D48016841F4700101600C4829
:102EE000016841F001010160002181600268094B25
:102EF0001A4002608214C260026822F480220260DA
:102F000081610249C00380390860704788ED00E0A4
:102F100000100240FFFFF6EA10B50A4C2068C068B6
:102F2000C043C00709D108480069804721680020D4
:102F3000486221686420C862E06021686FF0010087
:102F4000086110BD28130020740000202DE9F0470F
:102F50000268244C244D254E254F264B4FF0804AC5
:102F6000A04209D0504507D0A84205D0B04203D0B6
:102F7000B84201D0984204D122F0700C4A6842EA6B
:102F80000C02DFF874C0DFF87480DFF87490A042A0
:102F90000FD050450DD0A8420BD0B04209D0B84256
:102FA00007D0984205D0604503D0404501D0484540
:102FB00003D122F44075CA682A4302608A68C2625B
:102FC0000A688262A04207D0984205D0604503D0CB
:102FD000404501D0484501D10969016301214161A2
:102FE000BDE8F087002C01400004004000080040CC
:102FF000000C00400034014000400140004401400A
:103000000048014038B5114A04460D46906D40F025
:1030100004009065906D032200F0040000901146BA
:103020001E20FDF7BBFD1E20FDF7ADFD094A002166
:103030000748C2E902141161C2E900051046FFF712
:10304000A7F8BDE838400348FFF7BEB800100240BB
:10305000000800402813002090F82410C90706D06B
:1030600001684A68836A22F400321A434A6090F881
:103070002410890706D501684A68C36A22F48032A1
:103080001A434A6090F82410490706D501684A6837
:10309000036B22F480221A434A6090F82410090737
:1030A00006D501684A68436B22F400421A434A601D
:1030B00090F82410C90606D501688A68836B22F44B
:1030C00080521A438A6090F82410890606D5016858
:1030D0008A68C36B22F400521A438A6090F8241065
:1030E000490611D501684A68036C22F480121A431C
:1030F0004A60016CB1F5801F06D101684A68436CD3
:1031000022F4C0021A434A6090F82410090606D53A
:1031100001684A68806C22F4002202434A607047CA
:10312000F8B500250446C566FDF7F8FC074620689B
:1031300000686FF07E46000708D53B4600224FF43A
:1031400000112046009600F0B7F960B920680068C9
:1031500040070AD53B4600224FF4800120460096E6
:1031600000F0AAF908B10320F8BD202084F8690016
:1031700084F86A0084F868500020F8BD10B5806AB1
:103180000021A0F85A10A0F85210FFF72AF810BD3D
:1031900001680A6822F490720A6001688A6822F065
:1031A00001028A60202180F86A10704710B5B0F8DB
:1031B0005C2090F86A300168222B05D0088B40F023
:1031C00008000883022010BD898C8368B3F5805FF6
:1031D00001D103696BB11140426D531C43651170FD
:1031E000B0F85A10491E0904090CA0F85A1007D06B
:1031F00015E0436D11401980416D891C4165EFE771
:1032000001680A6822F490720A6001688A6822F0F4
:1032100001028A60202180F86A10FFF7A4F90020DB
:1032200010BD00002DE9F041044600682769A1683F
:10323000D4F81CC0394367691025002247EA0C07FF
:103240003943914B07681646DFF840C207EA0C077E
:103250000F43076020684168E76821F44051394313
:1032600041602168A069994201D0276A38438F687C
:1032700027F4306707438F60854F21688548B9423E
:103280000DD1D0F8880010F0030006D001285AD0E4
:10329000022856D0032859D157E0012556E07E4F29
:1032A000B9420BD1D0F8880010F00C0047D00428A8
:1032B00049D0082845D00C2848D146E0774FB9427C
:1032C0000BD1D0F8880010F0300038D010283AD058
:1032D000202836D0302839D137E0714FB9420BD190
:1032E000D0F8880010F0C00029D040282BD08028CA
:1032F00027D0C0282AD128E06A4FB9420ED1D0F891
:10330000880010F440701AD0B0F5807F1BD0B0F563
:10331000007F16D0B0F5407F18D116E0994215D144
:10332000D0F8880010F4406009D0B0F5806F0AD062
:10333000B0F5006F05D0B0F5406F07D105E000256E
:1033400004E0022502E0042500E00825564F4FF472
:103350000040994244D135B1022D07D0042D07D049
:10336000082D10D107E0FDF7EFFE03E0384602E03C
:10337000FDF71AFF98B3626802EB4201814202D85E
:10338000B0EB023F01D901267BE000276DB1022D91
:103390000ED0042D13D0082D1AD00126434AA0F5D3
:1033A00040719142EFD821686AE0FDF7CDFE08E058
:1033B00050083F490FE00023FCF787FFEEE7FDF7D9
:1033C000F3FE6268010E0302500818187941F2E713
:1033D00050084FF40001401847F10001EBE750E0BE
:1033E000E369834226D1092D1DD2DFE805F00508E7
:1033F000121C151C1C1C1800FDF7A6FE01E0FDF7B1
:10340000BBFE4100606801EB5001B1FBF0F082B2FD
:103410000AE028496068F6E7FDF7C6FEF1E74FF4D9
:1034200080316068EFE7012622F00F00C2F342010D
:103430000843B8E7092DA6D2DFE805F006090C0518
:10344000120505051C009EE7FDF77EFE0AE0FDF76C
:1034500093FE07E0606807EB5002B2FBF0F00EE06D
:10346000FDF7A2FE0146606801EB5001B1FBF0F0F0
:1034700080B298E7626800EB5200B0FBF2F080B2D5
:10348000C8603046BDE8F08100800040F369FFEF7E
:103490000038014000100240004400400048004055
:1034A000004C0040005000400024F400FFFC0F00DE
:1034B000000024F40048E8012DE9F0411E461746BB
:1034C00088460446069D1CE0681C1AD025B1FDF70D
:1034D00025FB801BA84214D92068016821F4D07113
:1034E00001602068816821F001018160202084F85A
:1034F000690084F86A00002084F868000320BDE8B1
:10350000F0812068C16938EA010004D00020B84287
:10351000DAD00020F3E70120F9E7000038B51848B9
:103520000068C069C043800622D44FF47A73012238
:1035300069461348FEF7A0FF124A1088010417D409
:1035400041049DF800104FF0000304D50A290ED164
:1035500040F4004012E00D290ED0C0F30D04084DD8
:10356000401CC83D80B229551080C72800D913805F
:103570000348FEF737FE38BD40F480401080F7E77F
:10358000300200200C000020FEE7000070B50403AC
:1035900000F027F900F0CDF84FF084450020C5F881
:1035A00088022020FFF76AFB0D480088A0F56F41D4
:1035B000183902D1200EFFF761FBC4F30740FFF773
:1035C0005DFBC4F30720FFF759FBE0B2FFF756FBA2
:1035D0000120C5F88802BDE8704000F0AAB80000DC
:1035E0001600002030B51A4887B0C16C41F00101C7
:1035F000C164C06C012400F0010005900420CDE9F5
:1036000000040220CDE9024069464FF09040FDF7EA
:103610008DF94FF08445C5F88842FFF705FB00207F
:10362000FFF73CFB00F04AF80A490880A0F56F411B
:1036300018390BD1032000F061F8C00706D1C5F896
:103640008802B720FFF71AFBC5F8884207B030BDE3
:1036500000100240160000202DE9F04106464FF010
:103660008447002015460C46C7F888020320FFF760
:1036700005FB11480088A0F56F41183902D1200ED2
:10368000FFF7FCFAC4F30740FFF7F8FAC4F307208A
:10369000FFF7F4FAE0B2FFF7F1FA002405E0FF20AB
:1036A000FFF7ECFA3055641CA4B2AC42F7D301200A
:1036B000C7F88802BDE8F0811600002070B54FF011
:1036C00084450024C5F88842902005F52275FFF74F
:1036D000D5FA0020FFF7D2FA0020FFF7CFFA00203A
:1036E000FFF7CCFAFF20FFF7C9FA44EA0024FF20D5
:1036F000FFF7C4FA20430121296070BD10B50128ED
:1037000003D0022803D0032803D0052002E035208F
:1037100000E015204FF084440021C4F8881204F51D
:103720002274FFF7ABFAFF20FFF7A8FA012121600E
:1037300010BD10B50120FFF7E1FFC007FAD110BDA1
:103740002DE9F05FC1F30B06DFF88C800F0BC6F597
:1037500080548A4681461546A24200D81446390351
:103760008B464FF480524046FFF776FF002006E07C
:10377000321818F80210FF2903D1401C80B2A04271
:10378000F6D3A04221D23846FFF700FF002006E022
:1037900019F800208319401C08F8032080B2A042C9
:1037A000F6D359464FF48052404600F028F8A5421F
:1037B0000FD0281BA144A244002685B24FF48054A8
:1037C0007F1CA542CBD82C46C9E722465146484625
:1037D000EBE700F003B800002803002030BCBDE890
:1037E000C09F10B54FF084440020C4F88802062022
:1037F00004F52274FFF742FA0120206010BD2DE984
:10380000F0410746C8B2C0F580740E461546A24284
:1038100000D814464FF4807822463146384600F0EE
:103820000DF8A54208D0281B2744264485B24446FB
:10383000A542F1D82C46EFE7BDE8F0812DE9F04133
:1038400015460C460646FFF7CCFF4FF08447002094
:10385000C7F888020220FFF711FA12480088A0F585
:103860006F41183902D1200EFFF708FAC4F3074060
:10387000FFF704FAC4F30720FFF700FAE0B2FFF7FE
:10388000FDF9002404E0305DFFF7F8F9641CA4B2F0
:10389000AC42F8D30120C7F88802BDE8F041FFF739
:1038A00048BF00001600002030380A2801D201204D
:1038B000704700207047704710B504460420FEF79B
:1038C00047FC0148046010BD0800002070B50546A3
:1038D00000244FF47A7603E0304600F005F8641CCB
:1038E000AC42F9D370BD000070B54FF0E025002167
:1038F0006C69094AAB6912685043AA699A42FCD0C4
:1039000002D2A3EB020302E0A4EB02063344194403
:1039100013468142F1D370BD0800002004490A68B3
:103920005206FCD5024AC1B20C3211807047000029
:103930001C3801408EB00024FDF7FEF802200090F4
:103940000723042214210120FFF77CFA2820FFF727
:10395000B3FF4FF4E13000F0FBF843A0FCF72CFD7F
:103960004648416828208847FEF7A2FEFEF7FEFD84
:10397000FFF7B8F800210420FFF736F9FFF732FE11
:103980004FF4FA763E4F4EF6177509E03DA0FCF76E
:1039900013FD3046FFF79AFF04213846FDF7B4F8CF
:1039A000FFF78CFEA842F1D13FA0FCF705FD4FF0D8
:1039B0000075002207A93F48FDF7B8FF9DF81E30AB
:1039C0009DF81D209DF81C103BA0FCF7F5FC002283
:1039D0000CA93848FDF788FF9DF832309DF831205A
:1039E0009DF833103AA0FCF7E7FC9DF830103EA09C
:1039F000FCF7E2FC0020FEF7F3FD012801D068B1DE
:103A000022E03CA0FCF7D8FC1722A5F164013E4857
:103A1000FFF796FE3DA0FCF7CFFC15E03FA0FCF7BA
:103A2000CBFC1722A5F1640101A8FFF715FE40A009
:103A3000FCF7C2FC002401AE43A0315DFCF7BCFCE6
:103A4000641CA4B2172CF7D3641CA4B20A20FFF79D
:103A50003DFF142CADD14FF480714FF09040FDF735
:103A600053F80024A5E700003E3E73797374656D3A
:103A70002072657365742E0D0A000000740000202A
:103A8000000C00483E3E436865636B204661696CEC
:103A9000656421202020706C656173652063686512
:103AA000636B210D0A0000003E3E7265616479215E
:103AB0000D0A0000A00200203E3E54696D653A25C3
:103AC0003032643A253032643A25303264200000C6
:103AD000446174653A3230253032642D25303264C9
:103AE0002D253032642000005765656B3A2564202F
:103AF000200D0A0053746172742057726974652036
:103B00002E2E2E2E00000000864A0008577269747F
:103B1000652046696E69736865642100537461723B
:103B2000742052656164202E2E2E2E20000000008D
:103B30005468652044617461205265616465642045
:103B400049733A2020000000256300000068704798
:103B50000749064AC1E9002000208860C860086162
:103B600088610C2048610846FEF70ABC0038014015
:103B70003002002070B594B0064613AB11AA694616
:103B800000F0DCF9002824D18DF840001D4C0425FC
:103B900014E0206805EBC10113AB405812AA08A934
:103BA00000F0CCF9002814D1694608A800F005FC03
:103BB00088B19DF84000401C8DF84000207D9DF8A4
:103BC00040108842E5D8207D9DF8401088420ED1F3
:103BD000042014B070BD9DF848009DF84410884240
:103BE00001D90220F5E79DF84000A075EBE710A988
:103BF000304600F05BFA0028EBD19DF8400060757C
:103C00000020E6E7740000202DE9F0417E4E9AB0D6
:103C1000B57D307DA8427CD90421306801EBC50117
:103C200019AB405818AA10A900F088F910A977A07C
:103C3000FCF7C2FB00240DF1180832E0308B0121A3
:103C4000A140084217D0222172A0FCF7B5FB204604
:103C500000F094FA811970A02431FCF7ADFB222109
:103C60006CA0FCF7A9FB204600F088FA3044243011
:103C700048F824000BE0204600F080FA3044416A06
:103C800048F82410F07D00B364A0FCF795FB9DF884
:103C90006000401E844202D062A0FCF78DFB641CD1
:103CA000E4B29DF860008442C8D35FA0FCF784FBB7
:103CB00000F0AAFA707D0B2814D2DFE800F0080D9E
:103CC00031384048525E6B78890058A0DDE7306893
:103CD00050F83500804704E0306850F835100698F9
:103CE0008847074600F05CFA9DF8640001286ED012
:103CF0004FA0FCF761FB96F8EC0000280DD0D6F839
:103D0000F0000A21B0FBF1F201FB1202B0FBF1F16D
:103D100000E002E047A0FCF74FFB1AB0BDE8F081DD
:103D2000306850F83520DDE906019047D9E7306862
:103D300006AC50F8353094E807009847D1E7306872
:103D400006AF50F8354097E80F00A047C9E70A983A
:103D50000090306806AF50F8354097E80F00A04754
:103D6000BFE7DDE90A01CDE90001306806AF50F890
:103D7000354097E80F00A047B3E70AAB06AF93E8DA
:103D800007008DE80700306850F8354097E80F00CD
:103D9000A047A6E70AAC06AF94E80F008DE80F0035
:103DA000306850F8354097E80F00A04799E70BAC12
:103DB00006AF94E80F0001AC84E80F000A98009069
:103DC000306850F8354097E80F00A04789E711E0C8
:103DD0000CAC06AF94E80F0002AC84E80F00DDE9FC
:103DE0000A01CDE90001306850F8354097E80F002E
:103DF000A04776E7F07D394618B116A0FCF7DCFA4B
:103E000079E717A0FAE70000740000200D0A257377
:103E10002800000025630000257300003058255855
:103E2000000000002C00000029000000256C640048
:103E30003B0D0A0046756E6374696F6E2052756E95
:103E40002054696D653A25642E2531646D730D0A21
:103E5000000000003D305825583B0D0A00000000CE
:103E60003D256C753B0D0A00F0B500252E462F460A
:103E70002C4603782C2B03D0292B04D01BB103E054
:103E800014B9012600E00CB317B1222B2AD02AE086
:103E9000A3F1300CBCF1090F19D92D2B17D02B2B06
:103EA00015D0A3F1610CBCF1050F10D9A3F1410CA1
:103EB000BCF1050F0BD9582B09D0782B07D0222B3A
:103EC0000CD0202B1ED02C2B1CD0FF270CE05EB971
:103ED000612B00D3203B01F8013B13E026B90127F9
:103EE0003C460FE0002426B10020087017702846D9
:103EF000F0BD3CB15C2B02D16D1CEDB2401C0378CF
:103F000001F8013B6D1CEDB2401CB2E730B5002555
:103F100015700AE001F8014B1478401C641CE4B2EF
:103F200014709C4201D3012030BD0478202C01D0B4
:103F3000002CEFD10D70002030BD00002DE9FF4FA7
:103F4000002482B089469846A24627460125264687
:103F50002246EB46029915E0202810D002F07F039C
:103F6000052B0CD202B9802202F07F03042B01D171
:103F70002A280AD1521C0BF80300D2B201E0852A8C
:103F800004D0491C08780028E6D16AB102F07F020B
:103F900000200BF8020041A1584600F00EFA38B19B
:103FA000012188F8001000224FF00008029B15E064
:103FB000002088F80000F6E708F1010000F0FF0893
:103FC00013F8010F202801D02A2807D1184600F045
:103FD00081F9282802D02A2800D0C246187828283B
:103FE00001D00028E8D10299BAF1000F01D0514464
:103FF000491C4FF000084346087888B1282804D0AF
:10400000292806D0222810D011E083B9641CE4B21C
:104010000DE063B924B1641E14F0FF0402D00DE07A
:104020004FF00108012F27D02FE04BB100234CB1F6
:104030002C280CD0202816D0282814D05AB110E0F3
:104040000123F4E7202815D009F8010B12E001251F
:10405000521CD2B207E0052E03D20BF80600761CE4
:10406000F6B26D1CEDB2012C04D1022D02D1032554
:104070007F1CFFB2491CBFE700200BF8060007A118
:10408000684600F09AF900B90027049807700020EC
:1040900089F8000006B0404600F004B8766F696405
:1040A0000000000030BCBDE8C08F00002DE9F043E7
:1040B00000248946304DB5B0214622466B18491C74
:1040C000C9B29A760A29F9D302E010F8011F99B112
:1040D00001782829F9D1461C4FF0010833AA694616
:1040E0003046FFF7C1FE06449DF8CC0040B10128E0
:1040F00024D0FF2836D10BE0012035B0BDE8F08395
:104100009DF8000070B334A9684600F0EBF808B1E0
:104110000220F2E7204600F031F828443499416249
:10412000298B08FA04F08143298304202919887611
:10413000641CE4B20A2C15D90320DEE7684600F0BF
:1041400051F9471C204600F019F8411968462431FE
:1041500000F03FF9298B08FA04F00143281929835C
:104160008776E5E73078292801D00028B6D189F88C
:1041700000400020C1E7000074000020024610B596
:1041800000200146054B05E05C18491CA47EC9B21D
:104190002044C0B29142F7D310BD0000740000204B
:1041A000094800680169C943CA070849D1F8F020E5
:1041B00004D14FF6FF731A44C1F8F020406A10444E
:1041C000C1F8F000704700002813002074000020A0
:1041D00000EBC00101EB00104FF0FF3101EB80005C
:1041E00010B581B24FF47A70FEF70CFF014901203F
:1041F000C87510BD740000200346012000E058433C
:10420000491EC9B2FBD2704707486FF0010102682E
:1042100011610268090CD162C1600068002141622D
:104220000248C0F8F01070472813002074000020E6
:104230002DE9F041164E3088010426D51549C0B24B
:10424000154F00250D54B9681248884704000FD057
:10425000104800F0D1F8012801D0040014D0012C3E
:1042600009D0022C09D0032C09D0042C0CD108E071
:10427000F868804708E009A004E00BA002E00DA068
:1042800000E00FA0FCF798F83580BDE8F081000051
:104290000C0000206801002074000020BAAFCAFDA5
:1042A000B4EDCEF3210D0A00B2CECAFDB4EDCEF3CB
:1042B000210D0A00B2CECAFDCCABB6E0210D0A003A
:1042C000CEB4D5D2B5BDC6A5C5E4B5C4BAAFCAFD96
:1042D000210D0A0010F8011F202901D10028F9D171
:1042E000C8B270472DE9F0430E4600244FF00A088B
:1042F0002546014634600A78A2F13003092B14D90F
:1043000003782D2B01D02B2B00D174B1A2F14103E6
:10431000052B0AD9582A05D012F0FF0F17D001201B
:10432000BDE8F083012C02D0F9E7412A01D34FF018
:10433000100802782D2A04D02B2A04D0641CE4B281
:1043400003E0022500E00125401C491CD3E7074695
:10435000B8F1100F01D084B112E0032C01D2022079
:10436000DEE73878302802D17878582801D0032049
:10437000D6E7A41EE4B2BF1C01E00420D0E70CB1D4
:10438000641EE4B2387801463038092801D88146E5
:1043900001E0A1F1370921464046FFF72DFF3268C1
:1043A00009FB0020306017F8011F0029E7D1022D1A
:1043B00001D1404230600020B2E702780B789A4287
:1043C00001D00120704712B1401C491CF5E70020C4
:1043D000704702780A700278002A02D0401C491CFB
:1043E000F7E77047002102781AB1491CC9B2401C96
:1043F000F9E7084670470000F0B58DB004461E236B
:1044000008AA6946FFF782FD0990002872D19DF83D
:104410002000271800253E4C8DF820509DF82000E4
:1044200054F820106846FFF7C8FF38B19DF8200007
:10443000401CC0B28DF820000728EFD39DF8200063
:104440000426344C072855D2DFE800F00404395A1A
:10445000605F5E0030A0FBF7AFFF30A0FBF7ACFF62
:104460003EA0FBF7A9FF4DA0FBF7A6FF5BA0FBF763
:10447000A3FF6AA0FBF7A0FF78A0FBF79DFF86A033
:10448000FBF79AFF8BA0FBF797FF93A0FBF794FF36
:1044900097A0FBF791FF9CA0FBF78EFFA1A0FBF775
:1044A0008BFFA7A0FBF788FFB3A0FBF785FFC0A099
:1044B000FBF782FFCBA0FBF77FFFD7A01BE016A086
:1044C000FBF77AFFE4A0FBF777FF8DF820500BE0B5
:1044D000216806EBC0000958EFA0FBF76DFF9DF8BF
:1044E0002000401C8DF82000217D9DF82000814295
:1044F000EED856E257E2FBF75FFF00200DB0F0BDAB
:1045000005A0FBF759FFCBE12CE20CE2EBE1000048
:1045100018000020740000200D0A00002D2D2D2D04
:104520002D2D2D2D2D2D2D2D2D2D2D2D2D2D2D2DBB
:104530002D2D2D2D55534D4152542056332E332DB4
:104540002D2D2D2D2D2D2D2D2D2D2D2D2D2D2D2D9B
:104550002D2D2D2D2D2D2D200D0A00002020202069
:1045600055534D415254CAC7D3C9414C49454E5485
:10457000454BBFAAB7A2B5C4D2BBB8F6C1E9C7C9FB
:10458000B5C4B4AEBFDAB5F7CAD4BBA5BDBBD7E9D5
:10459000BCFE2CCDA8B9FD200D0A0000CBFC2CC41C
:1045A000E3BFC9D2D4CDA8B9FDB4AEBFDAD6FACA3A
:1045B000D6B5F7D3C3B3CCD0F2C0EFC3E6B5C4C809
:1045C000CEBACEBAAFCAFD2CB2A2D6B4D0D02ED2BB
:1045D000F2B4CB2CC4E3BFC90D0A0000D2D4CBE6A1
:1045E000D2E2B8FCB8C4BAAFCAFDB5C4CAE4C8EBDD
:1045F000B2CECAFD28D6A7B3D6CAFDD7D628313049
:104600002F3136BDF8D6C62CD6A7B3D6B8BACAFD58
:1046100029A1A2D7D6B7FBB4AE0D0A00A1A2BAAFAA
:10462000CAFDC8EBBFDAB5D8D6B7B5C8D7F7CEAA9A
:10463000B2CECAFD292CB5A5B8F6BAAFCAFDD7EEE1
:10464000B6E0D6A7B3D63130B8F6CAE4C8EBB2CEDE
:10465000CAFD2CB2A2D6A7B3D60D0A00BAAFCAFDC6
:10466000B7B5BBD8D6B5CFD4CABE2ED6A7B3D6B2AF
:10467000CECAFDCFD4CABEBDF8D6C6C9E8D6C3B926
:10468000A6C4DC2CD6A7B3D6BDF8D6C6D7AABBBB6A
:10469000B9A6C4DC2E0D0A00BCBCCAF5D6A7B3D699
:1046A0003A7777772E6F70656E6564762E636F6DDF
:1046B0000D0A000055534D415254D3D037B8F6CFB0
:1046C000B5CDB3C3FCC1EE28B1D8D0EBD0A1D0B4E6
:1046D000293A0D0A000000003F3A20202020202027
:1046E000BBF1C8A1B0EFD6FAD0C5CFA20D0A000029
:1046F00068656C703A202020BBF1C8A1B0EFD6FAF3
:10470000D0C5CFA20D0A00006C6973743A20202036
:10471000BFC9D3C3B5C4BAAFCAFDC1D0B1ED0D0A8C
:104720000A00000069643A2020202020BFC9D3C3BA
:10473000BAAFCAFDB5C44944C1D0B1ED0D0A0A00F3
:104740006865783A20202020B2CECAFD3136BDF807
:10475000D6C6CFD4CABE2CBAF3B8FABFD5B8F12B9F
:10476000CAFDD7D6BCB4D6B4D0D0BDF8D6C6D7AA69
:10477000BBBB0D0A0A0000006465633A20202020BC
:10478000B2CECAFD3130BDF8D6C6CFD4CABE2CBA1F
:10479000F3B8FABFD5B8F12BCAFDD7D6BCB4D6B49E
:1047A000D0D0BDF8D6C6D7AABBBB0D0A0A00000000
:1047B00072756E74696D653A312CBFAAC6F4BAAFD2
:1047C000CAFDD4CBD0D0BCC6CAB13B302CB9D8B10D
:1047D000D5BAAFCAFDD4CBD0D0BCC6CAB13B0D0A46
:1047E0000A000000C7EBB0B4D5D5B3CCD0F2B1E02D
:1047F000D0B4B8F1CABDCAE4C8EBBAAFCAFDC3FBB6
:10480000BCB0B2CECAFDB2A2D2D4BBD8B3B5BCFC48
:10481000BDE1CAF82E0D0A002D2D2D2D2D2D2D2D8B
:104820002D2D2D2D2D2D2D2D2D2D2D2D2D2D2D2DB8
:104830002D2D414C49454E54454B2D2D2D2D2D2DC3
:104840002D2D2D2D2D2D2D2D2D2D2D2D2D2D2D2D98
:104850002D2D2D200D0A00002D2D2D2D2D2D2D2D32
:104860002D2D2D2D2D2D2D2D2D2D2D2D2D2D2D2D78
:104870002DBAAFCAFDC7E5B5A52D2D2D2D2D2D2D9A
:104880002D2D2D2D2D2D2D2D2D2D2D2D2D2D2D2D58
:104890002D2D2D2D200D0A0025730D0A000000007E
:1048A00042A0FBF789FD8DF8205016E0216806EB49
:1048B000C0000BAB08580AAA6946FFF73FFB9DF8FA
:1048C0002010206850F83120694648A0FBF774FD9D
:1048D0009DF82000401C8DF82000217D9DF82000CF
:1048E0008142E3D85DE0AFF2D030FBF765FD08AA66
:1048F00069463846FFF7B8FA9DF82000002843D1F2
:1049000009A96846FFF7EEFC8DF8200010B10428D5
:104910003AD102E03AA009991CE03CA0FBF74CFD1B
:104920000120E0753DE038A0FBF746FD08AA694686
:104930003846FFF799FA9DF8200028BB09A9684678
:10494000FFF7D0FC8DF8200010B104281CD104E042
:1049500033A00999FBF730FD23E034A0FBF72CFDD1
:10496000E5751EE028A0FBF727FD08AA6946384632
:10497000FFF77AFA9DF8200030B909A96846FFF7D9
:10498000B1FC8DF8200008B10220B7E5099810F0BD
:10499000FF0084F8EC0001D029A000E02FA0FBF775
:1049A0000BFD19A0A7E50120A8E500002D2D2D2D58
:1049B0002D2D2D2D2D2D2D2D2D2D2D2D2D2D2D2D27
:1049C0002D2D2D2D2DBAAFCAFD204944202D2D2D82
:1049D0002D2D2D2D2D2D2D2D2D2D2D2D2D2D2D2D07
:1049E0002D2D2D2D2D2D2D2D200D0A002573206907
:1049F000642069733A0D0A3058253038580D0A0082
:104A00004845583A305825580D0A00003136BDF84F
:104A1000D6C6B2CECAFDCFD4CABE210D0A00000050
:104A20004445433A256C750D0A0000003130BDF84D
:104A3000D6C6B2CECAFDCFD4CABE210D0A00000030
:104A400052756E2054696D652043616C63756C61AD
:104A500074696F6E204F4E0D0A00000052756E2073
:104A600054696D652043616C63756C6174696F6E28
:104A7000204F46460D0A0000016070474FF040701D
:104A8000E1EE100A70474E55434C454F2D4C3437DC
:104A900036524720494943205445535400000000F2
:104AA00000000000000000000102030406070809DE
:104AB000A0860100400D0300801A060000350C009E
:104AC00040420F0080841E0000093D0000127A0061
:104AD0000024F40000366E010048E801006CDC029E
:104AE0000000000001020304303132333435363720
:104AF0003839414243444546403058003031323322
:104B00003435363738396162636465664030780021
:104B10000400000800000000000000020001000086
:104B2000100000003F00000064656300696400003D
:104B300072756E74696D650068656C7000000000C8
:104B40006C6973740000000068657800766F6964B2
:104B5000205254435F5365745F416C61726D41280C
:104B60007538207765656B2C753820686F75722CE9
:104B70007538206D696E2C753820736563290000C7
:104B80007538205254435F5365745F4461746528DF
:104B9000753820796561722C7538206D6F6E746878
:104BA0002C753820646174652C7538207765656BC9
:104BB00029000000766F69642077726974655F610F
:104BC0006464722875333220616464722C753332E8
:104BD0002076616C290000007538205254435F53E1
:104BE00065745F54696D6528753820686F75722C1F
:104BF0007538206D696E2C7538207365632C753897
:104C000020616D706D29000075333220726561641A
:104C10005F616464722875333220616464722900B4
:104C2000766F69642064656C61795F6D7328753196
:104C300036206E6D73290000766F69642064656CA0
:104C400061795F757328753332206E7573290000A2
:104C5000766F6964205254435F5365745F57616B8C
:104C600065557028753820776B73656C2C753136F7
:104C700020636E7429000000984C0008000000209A
:104C800068010000C4010008044D0008680100200C
:104C90006018000020020008110311093D120115DF
:104CA00018EF244B1B0838041A40041A2C041A4825
:104CB000041A28041A3004134D3B1408084C140835
:104CC000794A1B08B41013CD381B0820101AE908C4
:104CD0001A380813BD2B1B08D8181A99081A80080F
:104CE0001A49081A4C081AE9081A502022341420CC
:104CF000D1411B08754813093C1C083142502977E3
:044D000001DB0000D3
:040000050800018965
:00000001FF
