:020000040800F2
:10000000500500209D010008231200086F11000810
:10001000211200088D02000881180008000000006D
:10002000000000000000000000000000C5120008F1
:100030008F0200080000000045120008C7120008E7
:10004000B7010008B7010008B7010008B7010008B0
:10005000B7010008B7010008B7010008B7010008A0
:10006000B7010008B7010008B7010008B701000890
:10007000B7010008B7010008B7010008B701000880
:10008000B7010008B7010008B7010008B701000870
:10009000B7010008B7010008B7010008B701000860
:1000A000B7010008B7010008B7010008B701000850
:1000B000B7010008B7010008B7010008B701000840
:1000C000B7010008B7010008B7010008B701000830
:1000D000B7010008B701000855180008B70100086B
:1000E000B7010008B7010008B7010008B701000810
:1000F000B7010008B7010008B7010008B701000800
:10010000B7010008B7010008B7010008B7010008EF
:10011000B7010008B7010008B7010008B7010008DF
:10012000B7010008B7010008B7010008B7010008CF
:10013000B7010008B7010008B7010008B7010008BF
:10014000B7010008B7010008B7010008B7010008AF
:10015000B7010008B7010008B7010008B70100089F
:10016000B7010008B7010008B7010008B70100088F
:10017000B7010008B7010008B7010008000000003F
:10018000B7010008B7010008DFF80CD000F06CF8E8
:1001900000480047511900085005002006488047D4
:1001A00006480047FEE7FEE7FEE7FEE7FEE7FEE75C
:1001B000FEE7FEE7FEE7FEE74913000889010008B5
:1001C0002DE9F05F0546002092469B46884606468C
:1001D000814640241BE0284641464746224600F01F
:1001E00032F853465A46C01A914110D31146184668
:1001F000224600F019F82D1A67EB01084F462246F7
:100200000120002100F010F817EB00094E41201EDC
:10021000A4F10104DFDC484631462A46434600F09B
:1002200000B830BCBDE8C09F202A04DB203A00FAA9
:1002300002F1002070479140C2F1200320FA03F33D
:10024000194390407047202A04DB203A21FA02F03B
:100250000021704721FA02F3D040C2F12002914000
:100260000843194670470000064C074D06E0E06859
:1002700040F0010394E8070098471034AC42F6D3ED
:10028000FFF786FF341B0008541B0008FEE7704789
:1002900010B590F825100024022903D00421C16371
:1002A000012418E001680A6822F00E020A60016861
:1002B0000A6822F001020A6090F84420036C0121D0
:1002C00001FA02F25A6080F82510002180F824100B
:1002D000816B01B18847204610BD00002DE9F84F21
:1002E000DFF898B100234FF0010C4FF0030A4FF0F4
:1002F0000F090BF1040EB9E00CFA03F4224070D0A0
:100300004D68022D01D0122D0ED1DD0800EB8508BD
:10031000D8F820505E07F70E09FA07F6B5430E69C4
:10032000BE402E43C8F8206007685E0091F8048044
:100330000AFA06F508F00308AF4308FA06F848EA97
:100340000708C0F800804F68012F05D0022F03D0A6
:10035000112F01D0122F13D1D0F80880CF6828EACE
:100360000508B74047EA08078760D0F804800F798E
:1003700028EA0408C7F300179F4047EA08074760C8
:10038000D1F804806FEA0807BF0706D1C76AA74300
:10039000C8F3C0049C403C43C462C468AC438D684D
:1003A000B5402543C5604C68E4005ED5344C256EED
:1003B00045F001052566246E23F0030504F00104D1
:1003C0000094304C2E19B4689D072F0F09FA07F5D9
:1003D000AC43B0F1904F05D02B4DA84204D101257C
:1003E0001CE042E0002519E0284DA84201D1022579
:1003F00014E0274DA84201D103250FE0254DA84266
:1004000001D104250AE0244DA84201D1052505E0CB
:10041000224DA84201D1062500E00725BD40254315
:10042000B560DBF800405D464E689443F60300D5A6
:1004300014432C60DEF8004075464E689443B603C2
:1004400000D514432C600D4D08352C684E6894433C
:10045000F60200D514432C60084D0C352C684E680C
:100460009443B60200D514432C605B1C0A6832FA30
:1004700003F57FF441AF00F013B800000004014021
:10048000001002400000014000040048000800483D
:10049000000C0048001000480014004800180048F4
:1004A00018BCBDE8E08F42694A40426170470AB11A
:1004B00081617047816270470148006870470000A1
:1004C0000400002002480168491C016070470000D8
:1004D00004000020074810B5016841F480710160F4
:1004E000052000F049F8002000F006F800F018F8A8
:1004F000002010BD0020024010B5044607484FF40C
:100500007A710068B0FBF1F000F00AFC002221468D
:10051000501E00F011F8002010BD00000000002067
:10052000704700F01F02012191404009800000F156
:10053000E020C0F800117047F0B40E4B1B680C4669
:10054000C3F30223C3F10705042D00D90425191DA7
:10055000072901D2002300E0DB1E012606FA05F17F
:10056000491E214099409E40761E16403143F0BC02
:1005700000F058BE0CED00E0064900F007020868E4
:100580004FF6FF03184040EA0220034A1043086078
:10059000704700000CED00E00000FA05024800681A
:1005A00000F4C06070470000007000402DE9F04783
:1005B000DFF8688105460E46D8F8000000F0070015
:1005C000B0420CD2D8F8001021F007013143C8F82E
:1005D0000010D8F8000000F00700B04274D128786D
:1005E0004F4C800705D5A068A96820F0F0000843AB
:1005F000A0602878C00756D06868022818D0032861
:1006000019D02168D0B1490500295DDAA16821F02F
:1006100003010143A160FFF74FFF6968074641F2FC
:100620008830022912D003291ED0814649B335E013
:1006300021688903E8E721688901E5E78907E3E79D
:10064000FFF73AFFC11B494501D924E08146A06864
:10065000C0F381000228F3D125E000BFFFF72CFF93
:10066000C11B494501D916E08146A068C0F381004D
:100670000328F3D117E000BFFFF71EFFC11B494558
:1006800009D8A06810F00C0FF6D10CE0FFF714FFAA
:10069000C11B494502D90320BDE8F087A068C0F31B
:1006A00081000128F2D1D8F80010404601F007017E
:1006B000B1420BD9016821F00701314301600068A4
:1006C00000F00700B04201D00120E5E7287840079C
:1006D00005D5A068E96820F4E0600843A0602878A8
:1006E000000706D5A068296920F4605040EAC100DF
:1006F000A06000F04BF8A168F02292FAA2F201F09B
:10070000F001B2FA82F2D140064A515CC840064973
:1007100008600020FFF7F0FE0020BDE70020024047
:1007200000100240EC1A00080000002008480949A7
:10073000006889684FF4E06292FAA2F201F4E06185
:10074000B2FA82F2D140044A515CC84070470000BE
:1007500000000020001002402C1B00080848094936
:10076000006889684FF4605292FAA2F201F4605175
:10077000B2FA82F2D140044A515CC840704700008E
:1007800000000020001002402C1B000870B53B49FF
:10079000002318468A683A4C12F00C0F4FEA6405A1
:1007A00014D08A68C2F38102032A04D1CA6802F015
:1007B0000302012A0AD08A68C2F38102012A21D0E9
:1007C0008A68C2F38102022A1ED01EE00A6812075C
:1007D00006D4D1F894204FF4706302F4706203E001
:1007E0000A68F02302F0F00293FAA3F3B3FA83F35A
:1007F000DA40244B53F822308A6812F00C0F04D1EF
:10080000184602E0204600E028468A68C2F38102CA
:10081000032A31D1C868CA6800F00300702696FA2E
:10082000A6F602F07002B6FA86F6F240521C4FF4B9
:10083000FE46022804D0032805D0B3FBF2F004E002
:10084000B4FBF2F001E0B5FBF2F0CA6896FAA6F349
:1008500002F4FE42B3FA83F3DA40C96850434FF022
:10086000C06292FAA2F201F0C061B2FA82F2D14003
:10087000491C4900B0FBF1F070BD000000100240BF
:100880000024F400FC1A00082DE9F843044600781F
:10089000FE4DC00663D5A86810F00C0F0AD0A06901
:1008A0000028286878D040F001002860FFF704FE97
:1008B00006465AE02868800702D5A06900286AD059
:1008C000216A28684FF0F006000703D5286800F079
:1008D000F00003E0D5F8940006EA1010814216D922
:1008E000084600F0B1FC002855D1286840F0080007
:1008F00028602868216A20F0F000084328606868B2
:10090000E16920F47F4040EA0120686015E0286832
:1009100040F0080028602868216A20F0F0000843B1
:1009200028606868E16920F47F4040EA012068603F
:10093000206A00F089FC0028D6D1FFF727FFA968BC
:1009400096FAA6F201F0F001B2FA82F2D140D04A52
:10095000515CC840CF4908600020FFF7CDFD2BE077
:10096000FFF7AAFD801B02287ED828688007F7D5EC
:10097000286840F0080028602868216A20F0F0000C
:10098000084328606868E16920F47F4040EA01205C
:10099000686011E000E0B7E020F001002860FFF798
:1009A0008BFD064605E000BFFFF786FD801B022891
:1009B000DAD828688007F7D42078C00748D0A8681C
:1009C000C0F3810002281DD0A868C0F3810003286D
:1009D00003D1E868C043800714D06068B0F5803F59
:1009E00017D0B0F5A02F286817D020F480302860E9
:1009F000286820F4802028606068E0B1FFF75CFD83
:100A0000064614E02868800322D5606800287BD061
:100A10001EE0286840F48030EDE740F48020286034
:100A2000F7E700BFFFF748FD801B64289CD82868C3
:100A30008003F7D50CE0FFF73FFD064605E000BF59
:100A4000FFF73AFD801B64288ED828688003F7D40E
:100A50002078800748D5A8684FF0F857C0F3810088
:100A6000012816D0A86800E0AFE0C0F38100032899
:100A700004D1E86800F0030002280AD0E0680028EA
:100A8000286821D040F480702860FFF715FD0646E5
:100A90000BE0286840050BD5E0680028B7D007E0D8
:100AA000FFF70AFD801B0228C0D828684005F7D54B
:100AB000686897FAA7F22169B2FA82F220F0F8503A
:100AC0009140084368600FE020F480702860FFF7D1
:100AD000F3FC064605E000BFFFF7EEFC801B022892
:100AE00073D828684005F7D42078000729D56069B5
:100AF0000028D5F8940013D040F00100C5F8940008
:100B0000FFF7DAFC064606E0FBE000BFFFF7D4FC87
:100B1000801B022859D8D5F894008007F6D510E03C
:100B200020F00100C5F89400FFF7C6FC064604E07B
:100B3000FFF7C2FC801B022847D8D5F89400800735
:100B4000F6D42078400763D5A86D0026C00008D4ED
:100B5000A86D40F08050A865A86D012600F0805077
:100B600000904D480168C90511D40168804641F4E0
:100B700080710160FFF7A0FC074604E0FFF79CFCD2
:100B8000C01B022821D8D8F80000C005F6D5A068FF
:100B9000012815D00528D5F8900017D020F00100C5
:100BA000C5F89000D5F8900020F00400C5F890003A
:100BB000A06841F28838C8B1FFF77EFC074610E014
:100BC000D5F8900040F00100F0E75EE040F004004E
:100BD000C5F89000F4E700BFFFF76EFCC11B41456C
:100BE00053D8D5F890008007F6D50CE0FFF764FCE9
:100BF000074604E0FFF760FCC11B414579D8D5F8F2
:100C000090008007F6D41EB1A86D20F08050A86532
:100C1000A06AC8B3A968C1F38101032972D0022870
:100C2000286820F08070286011D02868000106D460
:100C30002868800003D4E86820F00300E860E868D2
:100C400016490840E860FFF737FC044654E0FFF718
:100C500033FC064605E000BFFFF72EFC801B022890
:100C600047D828688001F7D4206BE16A000110386A
:100C70000843616BA26B0902120941EA4241084331
:100C8000A18F074A49080DE039E032E00010024028
:100C9000EC1A00080000002000700040FFFFEEFE8C
:100CA0000000E0FF02EB4151084394F8401049086E
:100CB000120102EB41610843E860286840F080704F
:100CC0002860E86840F08070E860FFF7F5FB0446B4
:100CD00005E000BFFFF7F0FB001B022809D82868D9
:100CE0008001F7D50BE000BFFFF7E6FB001B0228F1
:100CF00002D90320BDE8F88328688001F4D40020DD
:100D0000F8E7FFE70120F5E74FF0E0210428086944
:100D100003D020F004000861704740F00400FAE7B7
:100D200010B5401EB0F1807F01D3012010BD4FF0FF
:100D3000E02460610F21601700F074FA0020A061C8
:100D400007202061002010BD7047704710F8691F10
:100D5000407808437047000070B501680446C869D0
:100D60000A6810F00F0508D1830606D5930604D54E
:100D70002046BDE8704000F0B3BB8B68002D66D004
:100D800003F0010502F490762E4360D0C60707D029
:100D9000D60505D501260E62E16E41F00101E1663E
:100DA000810708D5D90706D0266802213162E16E95
:100DB00041F00401E166410708D5D90706D0236850
:100DC00004211962E16E41F00201E16601070AD5D2
:100DD00002F02001294306D0236808211962E16E40
:100DE00041F00801E166E16E002929D0800604D5B2
:100DF000900602D5204600F073FBE06E000703D496
:100E00002068806840061CD5204600F05BFB206807
:100E10008168490611D5816821F040018160606ECA
:100E200058B133498163606EFFF732FA002807D06A
:100E3000606E816BBDE8704008472046FFF785FF74
:100E400070BD2046FFF781FF0020E06670BD8D6811
:100E5000C6024FF020030CD56D020AD5D8030862F4
:100E600084F8693084F86A302046BDE87040FFF7A6
:100E70006BBF05062ED515062CD594F869002128E0
:100E8000E4D1B4F8520020B1A068B0F5805F0AD078
:100E90000BE0086820F0800008602068016841F0DD
:100EA0004001016070BD206958B1E06C411CE164F3
:100EB00021680078A1F8280034F8520F401E2080E5
:100EC00070BDE06C0088C0F308000885E06C801CF1
:100ED000E064F1E74006F3D55006F1D5086820F04C
:100EE0004000086084F86930204600F03FF970BD8A
:100EF000B114000810B5040003D094F8690010B1D3
:100F000007E0012010BD002084F86800204600F0B2
:100F100027F8242084F869002068016821F0010185
:100F20000160204600F018FB0128EBD0606A10B188
:100F3000204600F02BFA2068416821F4904141607E
:100F40002068816821F02A0181602068016841F0F1
:100F5000010101602046BDE8104000F07BBA0000AE
:100F600010B50068194986B088422DD11848C16C67
:100F700041F00101C164C16C01F001010591816D75
:100F800041F400318165806D012100F4003005904D
:100F9000042000900220CDE90101039007204FF0CA
:100FA0009044049069462046FFF798F90820009085
:100FB00069462046FFF792F92620FFF7B2FA03228E
:100FC00011462620FFF7B8FA06B010BD00440040D5
:100FD0000010024090F86A30202B3FD1B9B1B2B175
:100FE00090F86830012B39D0012380F868304165D2
:100FF000A0F85820A0F85A208168FF22B1F5805F40
:1010000007D07F2351B1B1F1805F0CD010E00120F7
:101010007047016921B940F2FF1107E00169D1B9B8
:10102000A0F85C2004E00169A9B13F21A0F85C10A0
:101030000021C166222280F86A2080F868100168C9
:101040008A6842F001028A600068016841F4907188
:10105000016000207047A0F85C30E9E7022070478B
:1010600030B50068114988420CD1114841880A0402
:1010700008D402464C0412784FF0000306D50A2A21
:1010800001D0438030BD41F400410DE00D2A09D06C
:10109000C1F30D04074D491C89B22A554180C72967
:1010A000EFD830BD41F48041418030BD0044004064
:1010B0000C000020140000202DE9F843044690F8AD
:1010C00069001F4616460D4620284DD1CDB1C6B148
:1010D00094F86800012847D0012084F868004FF098
:1010E0000008C4F86C80212084F869005034FFF7B0
:1010F000E3F924F8026B814624F852694FF48056D4
:1011000018E00120BDE8F883B4F85200401EA4F8AE
:1011100052004B46002280212046009700F068FBD9
:10112000A0B9A068B04201D1206988B115F8010BBF
:1011300021680885B4F852000028E5D14B4600220A
:1011400040212046009700F053FB30B10320D9E73F
:1011500035F8020BC0F30800EAE7202084F86900A4
:1011600084F868800020CDE70220CBE77047FEE7D7
:1011700070B5154886B0C16C41F00101C164C16C05
:1011800001F001010591C16C41F00401C164C06C22
:10119000012400F00400009405900326002502209D
:1011A0000396CDE9015069464FF09040FFF796F85D
:1011B0006003CDE90005CDE9024669460348FFF723
:1011C0008DF806B070BD0000001002400008004815
:1011D000124810B5C16C86B041F00101C164C06C09
:1011E0004FF0904400F00100059060200090012035
:1011F0000190022002900320039069462046FFF7E9
:101200006DF8002220212046FFF751F900224021ED
:101210002046FFF74CF906B010BD00000010024058
:10122000FEE770470907090E002806DA00F00F00F4
:1012300000F1E02080F8141D704700F1E02080F8F4
:101240000014704770470000F8B51C4D0646002496
:10125000A86DC00002D5FFF7A1F90DE0A86D40F020
:101260008050A865A86D00F080500090FFF796F9B7
:10127000A96D21F08051A965B0F5007F04D0802EC2
:1012800007D94FF003040AE0802E08D9A02E01D818
:1012900004E001D1022402E0702E00D101240848AC
:1012A000016821F0070121430160006800F0070098
:1012B000A04201D00120F8BD0020F8BD001002407E
:1012C000002002407047FFF7FDB8000070B51C4CCD
:1012D00098B01C9DA66D46F08056A665A46D04F0DE
:1012E00080541694174C266826F4C06646F400769F
:1012F000266024680DAE04F4C064169401240094A2
:101300002404019402240A94109286E829000324FC
:10131000CDE90B416846FFF7B7FA00B1FEE70F20B1
:10132000CDE911040020139014901590042111A808
:10133000FFF73CF9002800D0FEE718B070BD0000B0
:1013400000100240007000400D48016841F4700137
:1013500001600C48016841F00101016000218160D9
:101360000268094B1A4002608214C260026822F4CB
:101370008022026081610249C003803908607047A1
:1013800088ED00E000100240FFFFF6EA90F824101C
:10139000C90706D001684A68836A22F400321A43FA
:1013A0004A6090F82410890706D501684A68C36A24
:1013B00022F480321A434A6090F82410490706D577
:1013C00001684A68036B22F480221A434A6090F84D
:1013D0002410090706D501684A68436B22F40042CD
:1013E0001A434A6090F82410C90606D501688A6835
:1013F000836B22F480521A438A6090F82410890685
:1014000006D501688A68C36B22F400521A438A60C9
:1014100090F82410490611D501684A68036C22F43B
:1014200080121A434A60016CB1F5801F06D1016831
:101430004A68436C22F4C0021A434A6090F82410B0
:10144000090606D501684A68806C22F4002202432E
:101450004A607047F8B500260446C666FFF72CF8C8
:101460000546206800686FF07E47000708D52B46C8
:1014700000224FF400112046009700F0B9F960B93E
:101480002068006840070AD52B4600224FF48001EF
:101490002046009700F0ACF908B10320F8BD2020E9
:1014A00084F8690084F86A0084F868600020F8BD58
:1014B00010B5806A0021A0F85A10A0F85210FFF76A
:1014C00044FC10BD01680A6822F490720A60016849
:1014D0008A6822F001028A60202180F86A10704731
:1014E00010B5B0F85C2090F86A300168222B05D066
:1014F000088B40F008000883022010BD898C8368A7
:10150000B3F5805F01D103696BB11140426D531C8B
:1015100043651170B0F85A10491E0904090CA0F86F
:101520005A1007D015E0436D11401980416D891C98
:101530004165EFE701680A6822F490720A60016869
:101540008A6822F001028A60202180F86A10FFF781
:1015500087FD002010BD00002DE9F0410446016820
:1015600080682669D4F81CC03043666910250022C3
:1015700046EA0C063043924B0E681746DFF844C229
:1015800006EA0C0606430E6020684168E66821F40E
:101590004051314341602168A069994201D0266AD7
:1015A00030438E6826F4306606438E60864E21688E
:1015B0008648B1420DD1D0F8880010F0030006D063
:1015C00001285AD0022856D0032859D157E00125C6
:1015D00056E07F4EB1420BD1D0F8880010F00C00DD
:1015E00047D0042849D0082845D00C2848D146E0E7
:1015F000784EB1420BD1D0F8880010F0300038D0CE
:1016000010283AD0202836D0302839D137E0724E11
:10161000B1420BD1D0F8880010F0C00029D040288A
:101620002BD0802827D0C0282AD128E06B4EB14289
:101630000ED1D0F8880010F440701AD0B0F5807F39
:101640001BD0B0F5007F16D0B0F5407F18D116E062
:10165000994215D1D0F8880010F4406009D0B0F557
:10166000806F0AD0B0F5006F05D0B0F5406F07D19C
:1016700005E0002504E0022502E0042500E008253D
:10168000574E4FF40040994244D135B1022D07D056
:10169000042D07D0082D10D107E0FFF747F803E02D
:1016A000304602E0FFF772F898B3626802EB42013D
:1016B000814202D8B0EB023F01D901277CE000262D
:1016C0006DB1022D0ED0042D13D0082D1AD0012794
:1016D000444AA0F540719142EFD821686BE0FFF7D2
:1016E00025F808E0500840490FE00023FEF768FDA8
:1016F000EEE7FFF74BF86268010E03025008181876
:101700007141F2E750084FF40001401846F1000122
:10171000EBE751E0E369834227D1092D1ED2DFE8D0
:1017200005F00508131D161D1D1D1900FEF7FEFF0F
:1017300001E0FFF713F84100D4F8040001EB500179
:10174000B1FBF0F082B20AE028496068F6E7FFF7E3
:101750001DF8F0E74FF480316068EFE7012722F0D1
:101760000F00C2F342010843B7E7092DA5D2DFE815
:1017700005F006090C05120505051C009DE7FEF79E
:10178000D5FF0AE0FEF7EAFF07E0606806EB5002CB
:10179000B2FBF0F00EE0FEF7F9FF0146606801EBE6
:1017A0005001B1FBF0F080B297E7626800EB5200A5
:1017B000B0FBF2F080B2C8603846BDE8F0810000AE
:1017C00000800040F369FFEF003801400010024044
:1017D0000044004000480040004C004000500040E1
:1017E0000024F400FFFC0F00000024F40048E8018E
:1017F0002DE9F041984617460E460446069D1DE029
:10180000681C1BD02DB1FEF757FEA0EB0800A842C4
:1018100014D92068016821F4D071016020688168C2
:1018200021F001018160202084F8690084F86A00B9
:10183000002084F868000320BDE8F0812068C069BA
:1018400036EA000004D00020B842D9D00020F3E7E7
:101850000120F9E710B50848FFF77EFA0648FFF7C0
:1018600075FA2028FAD1012204490348FFF7B2FB98
:101870000028F8D110BD0000DC0000200C00002082
:10188000FEE70000014A024900F013B839190008C8
:101890001000002002E008C8121F08C1002AFAD177
:1018A00070477047002001E001C1121F002AFBD1E0
:1018B00070472DE9F04116460F460446002503E027
:1018C0003946B047641C6D1C20780028F8D12846A2
:1018D000BDE8F08110B504460420FFF715FA014871
:1018E000046010BD0800002070B5054600244FF4C8
:1018F0007A7603E0304600F005F8641CAC42F9D378
:1019000070BD000070B54FF0E02400226569094900
:10191000A36909684843A1699942FCD002D2A3EBAC
:10192000010302E0A5EB010633441A440B46824250
:10193000F1D370BD0800002004490A685206FCD5A6
:10194000024AC1B20C321180704700001C440040B2
:101950001FB5324A01AB002407CA83E80700FEF72F
:10196000B9FD042001230090022214211846FFF73C
:10197000ADFC5020FFF7AEFF4FF4E13000F094F8DB
:10198000FFF726FCFFF7F4FB254D4FF47A77288804
:10199000010415D5C6B223A0FFF774FF3B463246BB
:1019A00025492648FFF788FB24480068C169C943D8
:1019B0004906FBD422A0FFF765FF00202880E6E758
:1019C000641CA4B241F28830B4FBF0F100FB11407A
:1019D00058B93B46324601A91848FFF76DFB1AA0DB
:1019E000FFF750FF23A0FFF74DFFC820B4FBF0F135
:1019F00000FB114010B925A0FFF744FF1E20B4FBE7
:101A0000F0F100FB114020B920214FF09040FEF78B
:101A10004AFD0A20FFF768FFB9E70000E01A000856
:101A20000E0000200D0AC4FAB7A2CBCDB5C4CFFB7F
:101A3000CFA2CEAA3A0D0A0014000020DC0000203C
:101A40000D0A0D0A000000000D0A414C49454E5494
:101A5000454B20B0A2B2A8C2DE53544D33324634B7
:101A60003239BFAAB7A2B0E520B4AEBFDACAB5D149
:101A7000E90D0A00D5FDB5E3D4ADD7D340414C49BB
:101A8000454E54454B0D0A0D0A0D0A00C7EBCAE43A
:101A9000C8EBCAFDBEDD2CD2D4BBD8B3B5BCFCBDEF
:101AA000E1CAF80D0A0000000B4910B5094AC1E966
:101AB000002000208860C860086188610C204861AF
:101AC0000846FFF717FABDE8104001220349024813
:101AD000FFF780BA00440040DC0000200C0000202A
:101AE00001000000000000000000000000000000F5
:101AF000000000000102030406070809A086010097
:101B0000400D0300801A060000350C0040420F0013
:101B100080841E0000093D0000127A000024F400B9
:101B200000366E010048E801006CDC020000000095
:101B300001020304541B00080000002014000000F0
:101B400094180008681B0008140000203C050000E1
:101B5000A418000800093D0000000000000000007B
:081B600000000000000000007D
:040000050800018965
:00000001FF
