:020000040800F2
:1000000008080020290200085B15000807150008F1
:100010005915000861040008E51F000800000000F1
:10002000000000000000000000000000FD150008B6
:1000300063040008000000007D150008FF1500089B
:10004000430200084302000843020008430200087C
:100050004302000843020008650400084302000848
:10006000430200084302000843020008430200085C
:10007000430200084302000843020008430200084C
:10008000430200084302000843020008430200083C
:10009000430200084302000843020008430200082C
:1000A000430200084302000843020008430200081C
:1000B000430200084302000843020008430200080C
:1000C00043020008430200084302000843020008FC
:1000D0004302000843020008B91F00084302000859
:1000E0006B040008430200084302000843020008B2
:1000F00043020008430200084302000843020008CC
:1001000043020008430200084302000843020008BB
:1001100043020008430200084302000843020008AB
:10012000430200084302000843020008430200089B
:10013000430200084302000843020008430200088B
:10014000430200084302000843020008430200087B
:10015000430200084302000843020008430200086B
:10016000430200084302000843020008430200085B
:100170004302000843020008430200080000000098
:10018000430200084302000800F002F800F03CF8C7
:100190000AA090E8000C82448344AAF10107DA45E2
:1001A00001D100F031F8AFF2090EBAE80F0013F0F8
:1001B000010F18BFFB1A43F001031847CC1F0000C2
:1001C000EC1F0000103A24BF78C878C1FAD8520753
:1001D00024BF30C830C144BF04680C6070470000C1
:1001E0000023002400250026103A28BF78C1FBD840
:1001F000520728BF30C148BF0B6070471FB501F0E0
:1002000099FF1FBD10B510BD00F0E4F81146FFF7CF
:10021000F5FF01F027FF00F016F903B4FFF7F2FF36
:1002200003BC01F0E0FE0000094880470948004790
:10023000FEE7FEE7FEE7FEE7FEE7FEE7FEE7FEE796
:10024000FEE7FEE704480549054A064B70470000F3
:100250007D16000889010008080200200808002017
:100260000804002008040020704753EA020C00F044
:1002700069802DE9F04B4FF00006002B1FBFB3FA49
:1002800083F503FA05F424FA05F65E4012BF16431F
:10029000B2FA82F502FA05F4C5F120051EBF22FA72
:1002A00005FC44EA0C04203556EA044C4FEA144499
:1002B00018BF641C4FF000084FF00009904271EB2A
:1002C000030C39D3002919BFB1FA81F701FA07F6F7
:1002D000B0FA80F700FA07F6C7F120071EBF20FA30
:1002E00007FC46EA0C062037B6FBF4FCA7EB050733
:1002F000103F07F01F0BCBF120060CFA0BFB2CFA7A
:1003000006F644BFB3460026202FA4BF5E464FF03A
:10031000000B5BEA060C08BF4FF0010B19EB0B0951
:10032000ABFB027C48EB0608C01B06FB02CC0BFBB8
:1003300003CC71EB0C01C1E70B460246414648462F
:10034000BDE8F08B13B54FF000004FF00001AFF3A4
:100350000080BDE81C4070470FB4044910B503AAE3
:10036000029800F009F810BC5DF814FB10000020A2
:100370007047704770477047074B70B50D467B4418
:1003800000F011F80446284600F020F810B14FF0B4
:10039000FF3070BD204670BDCB1C000001694A1CB7
:1003A00002610878704700B58FB0CDE901310021B6
:1003B000059105497944CDE903101146684600F0DE
:1003C0002EF80FB000BD0000E5FFFFFF007B00F03E
:1003D00080007047754600F03FF8AE46050069465C
:1003E000534620F00700854618B020B5FFF72AFFD6
:1003F000BDE820404FF000064FF000074FF0000826
:100400004FF0000B21F00701AC46ACE8C009ACE8A6
:10041000C009ACE8C009ACE8C0098D4670472DE9B9
:10042000F04106460024D6E90170F5688046304662
:1004300003E04146B847641C3046A8470028F8D17D
:100440002046BDE8F08110B50446AFF30080204699
:10045000BDE81040FFF7E1BE00487047A40100204E
:10046000FEE77047012000F04BB84FF4005000F059
:1004700047B810B590F825100024022903D00421B4
:10048000C163012418E001680A6822F00E020A60C4
:1004900001680A6822F001020A6090F84420036CA7
:1004A000012101FA02F25A6080F82510002180F83B
:1004B0002410816B01B18847204610BD70B50546F8
:1004C000642001F09BFD4FF09044012D0ED04FF4BD
:1004D00000518D4210D1094800F003F900280BD1DA
:1004E0002046BDE87040202100F000B901212046DF
:1004F00000F0F7F80128F3D070BD000000080048B4
:10050000044910B50A68024202D00860FFF7D6FF1E
:1005100010BD0000140401402DE9F84FDFF898B138
:1005200000234FF0010C4FF0030A4FF00F090BF1BD
:10053000040EB9E00CFA03F4224070D04D68022D8D
:1005400001D0122D0ED1DD0800EB8508D8F820501F
:100550005E07F70E09FA07F6B5430E69BE402E4353
:10056000C8F8206007685E0091F804800AFA06F572
:1005700008F00308AF4308FA06F848EA0708C0F88D
:1005800000804F68012F05D0022F03D0112F01D01A
:10059000122F13D1D0F80880CF6828EA0508B74099
:1005A00047EA08078760D0F804800F7928EA040832
:1005B000C7F300179F4047EA08074760D1F8048057
:1005C0006FEA0807BF0706D1C76AA743C8F3C0048C
:1005D0009C403C43C462C468AC438D68B54025432D
:1005E000C5604C68E4005ED5344C256E45F00105CD
:1005F0002566246E23F0030504F001040094304CBA
:100600002E19B4689D072F0F09FA07F5AC43B0F116
:10061000904F05D02B4DA84204D101251CE042E0AB
:10062000002519E0284DA84201D1022514E0274DEC
:10063000A84201D103250FE0254DA84201D1042590
:100640000AE0244DA84201D1052505E0224DA8422B
:1006500001D1062500E00725BD402543B560DBF844
:1006600000405D464E689443F60300D514432C6069
:10067000DEF8004075464E689443B60300D5144337
:100680002C600D4D08352C684E689443F60200D559
:1006900014432C60084D0C352C684E689443B60208
:1006A00000D514432C605B1C0A6832FA03F57FF412
:1006B00041AF00F013B800000004014000100240F8
:1006C000000001400004004800080048000C0048F9
:1006D00000100048001400480018004818BCBDE88D
:1006E000E08F0069084000D00120704742694A400D
:1006F000426170470AB181617047816270470000B2
:1007000001480068704700000400002002480168AA
:10071000491C01607047000004000020074810B524
:10072000016841F480710160052000F049F8002063
:1007300000F006F800F018F8002010BD002002407C
:1007400010B5044607484FF47A710068B0FBF1F029
:1007500000F00AFC00222146501E00F011F8002093
:1007600010BD000000000020704700F01F020121B2
:1007700091404009800000F1E020C0F8001170476E
:10078000F0B40E4B1B680C46C3F30223C3F10705FC
:10079000042D00D90425191D072901D2002300E0EA
:1007A000DB1E012606FA05F1491E214099409E40B4
:1007B000761E16403143F0BC00F0D0BE0CED00E0D8
:1007C000064900F0070208684FF6FF03184040EAA8
:1007D0000220034A10430860704700000CED00E05F
:1007E0000000FA050248006800F4C060704700008D
:1007F000007000402DE9F047DFF8688105460E469D
:10080000D8F8000000F00700B0420CD2D8F8001071
:1008100021F007013143C8F80010D8F8000000F0BB
:100820000700B04274D128784F4C800705D5A068E6
:10083000A96820F0F0000843A0602878C00756D0CF
:100840006868022818D0032819D02168D0B149055A
:1008500000295DDAA16821F003010143A160FFF7DF
:100860004FFF6968074641F28830022912D00329F8
:100870001ED0814649B335E021688903E8E7216845
:100880008901E5E78907E3E7FFF73AFFC11B49451F
:1008900001D924E08146A068C0F381000228F3D189
:1008A00025E000BFFFF72CFFC11B494501D916E029
:1008B0008146A068C0F381000328F3D117E000BF90
:1008C000FFF71EFFC11B494509D8A06810F00C0FA7
:1008D000F6D10CE0FFF714FFC11B494502D90320F4
:1008E000BDE8F087A068C0F381000128F2D1D8F8F4
:1008F0000010404601F00701B1420BD9016821F018
:10090000070131430160006800F00700B04201D0E8
:100910000120E5E72878400705D5A068E96820F4BC
:10092000E0600843A0602878000706D5A068296920
:1009300020F4605040EAC100A06000F04BF8A168CC
:10094000F02292FAA2F201F0F001B2FA82F2D14062
:10095000064A515CC840064908600020FFF7F0FED7
:100960000020BDE7002002400010024040210008A6
:100970000000002008480949006889684FF4E062D7
:1009800092FAA2F201F4E061B2FA82F2D140044A92
:10099000515CC84070470000000000200010024079
:1009A0008021000808480949006889684FF46052AE
:1009B00092FAA2F201F46051B2FA82F2D140044AF2
:1009C000515CC84070470000000000200010024049
:1009D0008021000870B53B49002318468A683A4CCC
:1009E00012F00C0F4FEA640514D08A68C2F381023A
:1009F000032A04D1CA6802F00302012A0AD08A68D5
:100A0000C2F38102012A21D08A68C2F38102022A3C
:100A10001ED01EE00A68120706D4D1F894204FF4C5
:100A2000706302F4706203E00A68F02302F0F002DF
:100A300093FAA3F3B3FA83F3DA40244B53F822304A
:100A40008A6812F00C0F04D1184602E0204600E03C
:100A500028468A68C2F38102032A31D1C868CA686D
:100A600000F00300702696FAA6F602F07002B6FABD
:100A700086F6F240521C4FF4FE46022804D00328AA
:100A800005D0B3FBF2F004E0B4FBF2F001E0B5FBFB
:100A9000F2F0CA6896FAA6F302F4FE42B3FA83F3C0
:100AA000DA40C96850434FF0C06292FAA2F201F0F6
:100AB000C061B2FA82F2D140491C4900B0FBF1F0AA
:100AC00070BD0000001002400024F4005021000816
:100AD0002DE9F84304460078FE4DC00663D5A868AA
:100AE00010F00C0F0AD0A0690028286878D040F0D8
:100AF00001002860FFF704FE06465AE028688007D8
:100B000002D5A06900286AD0216A28684FF0F00653
:100B1000000703D5286800F0F00003E0D5F8940042
:100B200006EA1010814216D9084600F029FD002877
:100B300055D1286840F0080028602868216A20F014
:100B4000F000084328606868E16920F47F4040EACB
:100B50000120686015E0286840F0080028602868D7
:100B6000216A20F0F000084328606868E16920F4F9
:100B70007F4040EA01206860206A00F001FD002803
:100B8000D6D1FFF727FFA96896FAA6F201F0F00187
:100B9000B2FA82F2D140D04A515CC840CF490860D5
:100BA0000020FFF7CDFD2BE0FFF7AAFD801B0228F8
:100BB0007ED828688007F7D5286840F008002860AC
:100BC0002868216A20F0F000084328606868E1691D
:100BD00020F47F4040EA0120686011E000E0B7E0C7
:100BE00020F001002860FFF78BFD064605E000BFFE
:100BF000FFF786FD801B0228DAD828688007F7D423
:100C00002078C00748D0A868C0F3810002281DD012
:100C1000A868C0F38100032803D1E868C0438007B7
:100C200014D06068B0F5803F17D0B0F5A02F2868C9
:100C300017D020F480302860286820F480202860B5
:100C40006068E0B1FFF75CFD064614E028688003A9
:100C500022D5606800287BD01EE0286840F48030F0
:100C6000EDE740F480202860F7E700BFFFF748FD7C
:100C7000801B64289CD828688003F7D50CE0FFF718
:100C80003FFD064605E000BFFFF73AFD801B6428E4
:100C90008ED828688003F7D42078800748D5A868C4
:100CA0004FF0F857C0F38100012816D0A86800E083
:100CB000AFE0C0F38100032804D1E86800F003002E
:100CC00002280AD0E0680028286821D040F480700B
:100CD0002860FFF715FD06460BE0286840050BD598
:100CE000E0680028B7D007E0FFF70AFD801B022864
:100CF000C0D828684005F7D5686897FAA7F2216937
:100D0000B2FA82F220F0F8509140084368600FE098
:100D100020F480702860FFF7F3FC064605E000BF72
:100D2000FFF7EEFC801B022873D828684005F7D433
:100D30002078000729D560690028D5F8940013D0E1
:100D400040F00100C5F89400FFF7DAFC064606E023
:100D5000FBE000BFFFF7D4FC801B022859D8D5F870
:100D600094008007F6D510E020F00100C5F894004B
:100D7000FFF7C6FC064604E0FFF7C2FC801B022812
:100D800047D8D5F894008007F6D42078400763D57B
:100D9000A86D0026C00008D4A86D40F08050A8655A
:100DA000A86D012600F0805000904D480168C905EB
:100DB00011D40168804641F480710160FFF7A0FC06
:100DC000074604E0FFF79CFCC01B022821D8D8F896
:100DD0000000C005F6D5A068012815D00528D5F873
:100DE000900017D020F00100C5F89000D5F89000D1
:100DF00020F00400C5F89000A06841F28838C8B11E
:100E0000FFF77EFC074610E0D5F8900040F00100A7
:100E1000F0E75EE040F00400C5F89000F4E700BFA2
:100E2000FFF76EFCC11B414553D8D5F890008007F1
:100E3000F6D50CE0FFF764FC074604E0FFF760FC22
:100E4000C11B414579D8D5F890008007F6D41EB172
:100E5000A86D20F08050A865A06AC8B3A968C1F346
:100E60008101032972D00228286820F08070286050
:100E700011D02868000106D42868800003D4E868EF
:100E800020F00300E860E86816490840E860FFF7D2
:100E900037FC044654E0FFF733FC064605E000BF8C
:100EA000FFF72EFC801B022847D828688001F7D462
:100EB000206BE16A000110380843616BA26B0902E4
:100EC000120941EA42410843A18F074A49080DE04F
:100ED00039E032E00010024040210008000000200C
:100EE00000700040FFFFEEFE0000E0FF02EB41510A
:100EF000084394F840104908120102EB416108438D
:100F0000E860286840F080702860E86840F08070F1
:100F1000E860FFF7F5FB044605E000BFFFF7F0FBD4
:100F2000001B022809D828688001F7D50BE000BF14
:100F3000FFF7E6FB001B022802D90320BDE8F88377
:100F400028688001F4D40020F8E7FFE70120F5E7E6
:100F50004FF0E0210428086903D020F00400086164
:100F6000704740F00400FAE710B5401EB0F1807FF2
:100F700001D3012010BD4FF0E02460610F21601704
:100F800000F0ECFA0020A06107202061002010BDD5
:100F900070B5044690F838000D4601280ED00126A1
:100FA00084F83860022084F839000C2A45D007DC28
:100FB0005AB1042A1BD0082A78D12CE0022070BD37
:100FC000102A4ED0142A71D15DE0206800F004FC94
:100FD0002068816941F0080181612068816921F000
:100FE00004018161206881692A69114311E0206848
:100FF00000F040FC2068816941F400618161206853
:10100000816921F480618161206881692A6941EAEE
:10101000022181614AE0206800F074FC2068C16907
:1010200041F00801C1612068C16921F00401C1617A
:101030002068C1692A69114311E0206800F0AAFC08
:101040002068C16941F40061C1612068C16921F46F
:101050008061C1612068C1692A6941EA0221C161D8
:1010600024E0206800F0D0FC2068416D41F00801C8
:1010700041652068416D21F0040141652068416DA2
:101080002A69114311E0206800F0F6FC2068416DE8
:1010900041F4006141652068416D21F48061416542
:1010A0002068416D2A6941EA0221416584F839606E
:1010B000002084F8380070BD10B5040003D094F807
:1010C000390010B107E0012010BD002084F838007D
:1010D000204600F00DF8022084F83900211D206818
:1010E00000F012FB012084F83900002010BD000040
:1010F000114800B5816D87B041F001018165816DB6
:1011000001F001010591C16C41F00101C164C06CA5
:10111000032100F0010005902020009002200190A2
:101120000120CDE90201049069464FF09040FFF79D
:10113000F3F907B000BD00000010024010B50446EE
:101140000068012200F03CFB0D48216881420BD071
:101150000C48814208D00C48814205D00B4881429E
:1011600002D00B48814203D1486C40F400404864EF
:101170002068016841F001010160002010BD0000FD
:10118000002C014000340140004001400044014077
:10119000004801407047704710F8691F40780843C5
:1011A0007047000070B501680446C8690A6810F00D
:1011B0000F0508D1830606D5930604D52046BDE861
:1011C000704000F03FBD8B68002D66D003F0010534
:1011D00002F490762E4360D0C60707D0D60505D519
:1011E00001260E62E16E41F00101E166810708D53A
:1011F000D90706D0266802213162E16E41F0040170
:10120000E166410708D5D90706D023680421196291
:10121000E16E41F00201E16601070AD502F020010A
:10122000294306D0236808211962E16E41F00801C4
:10123000E166E16E002929D0800604D5900602D52A
:10124000204600F0FFFCE06E000703D420688068B1
:1012500040061CD5204600F0E7FC2068816849065E
:1012600011D5816821F040018160606E58B1334929
:101270008163606EFFF7FDF8002807D0606E816B18
:10128000BDE8704008472046FFF785FF70BD204647
:10129000FFF781FF0020E06670BD8D68C6024FF049
:1012A00020030CD56D020AD5D803086284F8693092
:1012B00084F86A302046BDE87040FFF76BBF050632
:1012C0002ED515062CD594F869002128E4D1B4F860
:1012D000520020B1A068B0F5805F0AD00BE008682A
:1012E00020F0800008602068016841F04001016042
:1012F00070BD206958B1E06C411CE1642168007840
:10130000A1F8280034F8520F401E208070BDE06C18
:101310000088C0F308000885E06C801CE064F1E7F9
:101320004006F3D55006F1D5086820F0400008606B
:1013300084F86930204600F0E5F870BD151C0008FF
:1013400010B5040003D094F8690010B107E0012043
:1013500010BD002084F86800204600F027F8242003
:1013600084F869002068016821F0010101602046CD
:1013700000F0A4FC0128EBD0606A10B1204600F018
:10138000B7FB2068416821F4904141602068816882
:1013900021F02A0181602068016841F001010160AB
:1013A0002046BDE8104000F007BC000010B5006802
:1013B000194986B088422DD11848C16C41F001010D
:1013C000C164C16C01F001010591816D41F40031EE
:1013D0008165806D012100F40030059004200090AB
:1013E0000220CDE90101039007204FF090440490C2
:1013F00069462046FFF790F808200090694620468D
:10140000FFF78AF82620FFF7B0F9032211462620BD
:10141000FFF7B6F906B010BD0044004000100240CE
:1014200090F86A30202B3FD1B9B1B2B190F8683052
:10143000012B39D0012380F868304165A0F858208D
:10144000A0F85A208168FF22B1F5805F07D07F2382
:1014500051B1B1F1805F0CD010E0012070470169FB
:1014600021B940F2FF1107E00169D1B9A0F85C2071
:1014700004E00169A9B13F21A0F85C100021C16618
:10148000222280F86A2080F8681001688A6842F099
:1014900001028A600068016841F4907101600020D7
:1014A0007047A0F85C30E9E70220704730B500686B
:1014B000114988420CD1114841880A0408D40246D7
:1014C0004C0412784FF0000306D50A2A01D043805D
:1014D00030BD41F400410DE00D2A09D0C1F30D04E7
:1014E000074D491C89B22A554180C729EFD830BD24
:1014F00041F48041418030BD004400400C00002098
:10150000140000207047FEE7124810B5C16C86B089
:1015100041F00101C164C06C4FF0904400F0010043
:10152000059060200090012001900220029003208D
:10153000039069462046FEF7EFFF00222021204657
:10154000FFF7D8F8002240212046FFF7D3F806B075
:1015500010BD000000100240FEE770470907090EA9
:10156000002806DA00F00F0000F1E02080F8141DDA
:10157000704700F1E02080F80014704770470000C9
:10158000F8B51C4D06460024A86DC00002D5FFF733
:1015900029F90DE0A86D40F08050A865A86D00F015
:1015A00080500090FFF71EF9A96D21F08051A965C8
:1015B000B0F5007F04D0802E07D94FF003040AE075
:1015C000802E08D9A02E01D804E001D1022402E027
:1015D000702E00D101240848016821F00701214341
:1015E0000160006800F00700A04201D00120F8BDB2
:1015F0000020F8BD00100240002002407047FFF7B5
:1016000085B8000070B51B4C98B01C9DA66D46F0C7
:101610008056A665A46D04F080541694164C266876
:1016200026F4C06646F40076266024680CAE04F406
:10163000C0641694012400942404019402240A94A2
:1016400003240B94109286E82B006846FFF740FABB
:1016500000B1FEE70F20CDE9110400201390149093
:101660001590042111A8FFF7C5F8002800D0FEE767
:1016700018B070BD00100240007000400D480168B5
:1016800041F4700101600C48016841F00101016002
:10169000002181600268094B1A4002608214C26016
:1016A000026822F48022026081610249C00380390D
:1016B0000860704788ED00E000100240FFFFF6EA86
:1016C00010B5104A04464FF08040C2E900010020E6
:1016D000C2E9020410611046FFF7EEFC09486021E0
:1016E0003C300022016061084160022181600146B6
:1016F0003C38FFF74DFCBDE8104000210148FFF7E2
:101700001DBD00004C0100202DE9F0470268244B6C
:10171000244D254E254F264C4FF0804A984209D043
:10172000504507D0A84205D0B04203D0B84201D0FE
:10173000A04204D122F0700C4A6842EA0C02DFF8A1
:1017400074C0DFF87480DFF8749098420FD0504571
:101750000DD0A8420BD0B04209D0B84207D0A04269
:1017600005D0604503D0404501D0484503D122F45F
:101770004075CA682A4302608A68C2620A68826247
:10178000984207D0A04205D0604503D0404501D023
:10179000484501D10969016301214161BDE8F08734
:1017A000002C01400004004000080040000C0040F4
:1017B0000034014000400140004401400048014025
:1017C00010B50123046A8B409C430462036A8A407B
:1017D0001343036210BD00002DE9F043026A22F0BA
:1017E00001020262056A436882691C4C25F0020509
:1017F00022400C6822F0030214438A68194E2A43DF
:10180000174D194FDFF864C0DFF86490A84207D085
:10181000B04205D0B84203D0604501D0484506D15A
:1018200022F00808CA6842EA080222F00402A8422C
:1018300007D0B04205D0B84203D0604501D048453A
:1018400005D14D6923F440731D438B692B434360DD
:101850008461496841630262BDE8F0838FFFFEFF47
:10186000002C014000340140004001400044014090
:1018700000480140F0B5026A22F010020262056AD7
:1018800042688369194C1B4E23400C6823F4407353
:1018900043EA042425F020038D6843EA0513144D20
:1018A000A84201D0B04206D1CF6823F0800343EABA
:1018B000071323F04003A8420AD0B04208D00E4DCF
:1018C000A84205D00D4DA84202D00D4DA84207D127
:1018D0004D6922F4406242EA85028D6942EA85023E
:1018E00042608461496881630362F0BDFF8FFFFE3F
:1018F000002C014000340140004001400044014000
:1019000000480140F0B5026A22F480720262056A62
:101910004368C269194C1B4E22400C6822F0030236
:10192000144325F400728D6842EA0522144DA84242
:1019300001D0B04206D1CF6822F4006242EA072209
:1019400022F48062A8420AD0B04208D00E4DA842CC
:1019500005D00E4DA84202D00D4DA84207D14D69C9
:1019600023F4405343EA05138D6943EA05134360AA
:10197000C4614968C1630262F0BD00008FFFFEFFD1
:10198000002C01400034014000400140004401406F
:101990000048014030B5026A22F480520262046AB3
:1019A0004268C369124D24F400542B400D6823F49F
:1019B000407343EA05238D6844EA05340D4DA8427F
:1019C0000BD00D4DA84208D00C4DA84205D00C4DAF
:1019D000A84202D00B4DA84204D14D6922F48042A6
:1019E00042EA85124260C36149680164046230BD05
:1019F000FF8FFFFE002C01400034014000400140F9
:101A0000004401400048014030B5026A22F48032AF
:101A10000262046A4268436D114D2B400D681D43FC
:101A200024F400330C8943EA04430E4CA0420BD04B
:101A30000D4CA04208D00D4CA04205D00C4CA04249
:101A400002D00C4CA04204D14C6922F4803242EA0C
:101A500004224260456549688165036230BD00002B
:101A60008FFFFEFF002C0140003401400040014088
:101A7000004401400048014030B5026A22F480125F
:101A80000262046A4268436D114D24F400142B4035
:101A90000D6843EA05230D8944EA05540D4DA8421B
:101AA0000BD00D4DA84208D00C4DA84205D00C4DCE
:101AB000A84202D00B4DA84204D14D6922F48022E5
:101AC00042EA8522426043654968C165046230BDCF
:101AD000FF8FFFFE002C0140003401400040014018
:101AE00000440140004801404FF080414863704786
:101AF00090F82410C90706D001684A68836A22F466
:101B000000321A434A6090F82410890706D501680C
:101B10004A68C36A22F480321A434A6090F824105B
:101B2000490706D501684A68036B22F480221A43EC
:101B30004A6090F82410090706D501684A68436B8B
:101B400022F400421A434A6090F82410C90606D5D0
:101B500001688A68836B22F480521A438A6090F885
:101B60002410890606D501688A68C36B22F40052E6
:101B70001A438A6090F82410490611D501684A6812
:101B8000036C22F480121A434A60016CB1F5801F85
:101B900006D101684A68436C22F4C0021A434A60C5
:101BA00090F82410090606D501684A68806C22F472
:101BB000002202434A607047F8B500260446C66614
:101BC000FEF79EFD0546206800686FF07E4700071F
:101BD00008D52B4600224FF400112046009700F054
:101BE000B9F960B92068006840070AD52B46002281
:101BF0004FF480012046009700F0ACF908B10320B3
:101C0000F8BD202084F8690084F86A0084F86860D0
:101C10000020F8BD10B5806A0021A0F85A10A0F885
:101C20005210FFF7B8FA10BD01680A6822F49072EA
:101C30000A6001688A6822F001028A60202180F827
:101C40006A10704710B5B0F85C2090F86A300168EF
:101C5000222B05D0088B40F008000883022010BD1D
:101C6000898C8368B3F5805F01D103696BB1114042
:101C7000426D531C43651170B0F85A10491E090497
:101C8000090CA0F85A1007D015E0436D11401980D7
:101C9000416D891C4165EFE701680A6822F4907282
:101CA0000A6001688A6822F001028A60202180F8B7
:101CB0006A10FFF7FBFB002010BD00002DE9F0418A
:101CC0000446016880682669D4F81CC03043666900
:101CD0001025002246EA0C063043924B0E68174648
:101CE000DFF844C206EA0C0606430E60206841682D
:101CF000E66821F44051314341602168A06999426E
:101D000001D0266A30438E6826F4306606438E6022
:101D1000864E21688648B1420DD1D0F8880010F077
:101D2000030006D001285AD0022856D0032859D1E2
:101D300057E0012556E07F4EB1420BD1D0F8880024
:101D400010F00C0047D0042849D0082845D00C28B2
:101D500048D146E0784EB1420BD1D0F8880010F05F
:101D6000300038D010283AD0202836D0302839D149
:101D700037E0724EB1420BD1D0F8880010F0C000AD
:101D800029D040282BD0802827D0C0282AD128E06D
:101D90006B4EB1420ED1D0F8880010F440701AD0CA
:101DA000B0F5807F1BD0B0F5007F16D0B0F5407F36
:101DB00018D116E0994215D1D0F8880010F440608F
:101DC00009D0B0F5806F0AD0B0F5006F05D0B0F53E
:101DD000406F07D105E0002504E0022502E004255C
:101DE00000E00825574E4FF40040994244D135B1E8
:101DF000022D07D0042D07D0082D10D107E0FEF7E3
:101E0000B9FD03E0304602E0FEF7E4FD98B36268F6
:101E100002EB4201814202D8B0EB023F01D9012717
:101E20007CE000266DB1022D0ED0042D13D0082DBC
:101E30001AD00127444AA0F540719142EFD8216899
:101E40006BE0FEF797FD08E0500840490FE00023E3
:101E5000FEF70BFAEEE7FEF7BDFD6268010E030226
:101E6000500818187141F2E750084FF4000140186B
:101E700046F10001EBE751E0E369834227D1092DE8
:101E80001ED2DFE805F00508131D161D1D1D1900E3
:101E9000FEF770FD01E0FEF785FD4100D4F8040077
:101EA00001EB5001B1FBF0F082B20AE02849606812
:101EB000F6E7FEF78FFDF0E74FF480316068EFE75B
:101EC000012722F00F00C2F342010843B7E7092DB2
:101ED000A5D2DFE805F006090C05120505051C0072
:101EE0009DE7FEF747FD0AE0FEF75CFD07E060684E
:101EF00006EB5002B2FBF0F00EE0FEF76BFD014680
:101F0000606801EB5001B1FBF0F080B297E76268C6
:101F100000EB5200B0FBF2F080B2C8603846BDE87A
:101F2000F081000000800040F369FFEF00380140BD
:101F3000001002400044004000480040004C0040B7
:101F4000005000400024F400FFFC0F00000024F4C7
:101F50000048E8012DE9F041984617460E46044630
:101F6000069D1DE0681C1BD02DB1FEF7C9FBA0EB40
:101F70000800A84214D92068016821F4D0710160DA
:101F80002068816821F001018160202084F86900C7
:101F900084F86A00002084F868000320BDE8F0811E
:101FA0002068C06936EA000004D00020B842D9D0C9
:101FB0000020F3E70120F9E710B50848FFF7F2F831
:101FC0000648FFF7E9F82028FAD10122044903481E
:101FD000FFF726FA0028F8D110BD0000DC00002031
:101FE0000C000020FEE7704710B504460420FEF701
:101FF000AFFF0148046010BD0800002070B5054621
:1020000000244FF47A7603E0304600F005F8641CB3
:10201000AC42F9D370BD000070B54FF0E02400224F
:1020200065690949A36909684843A1699942FCD0D7
:1020300002D2A3EB010302E0A5EB010633441A44EC
:102040000B468242F1D370BD0800002004490A68A3
:102050005206FCD5024AC1B20C3211807047000012
:102060001C44004008B501250024FEF757FB022060
:1020700002460090072314210120FFF7C3FA5020E5
:10208000FFF7B2FF4FF4E13000F038F8FFF73CFA09
:102090004F2141F28730FFF713FB0A20FFF7AEFF15
:1020A00040F6B836641C00E0641EA4B2B44203D902
:1020B00000250CA0FEF750F944B12046FFF714FDAF
:1020C0000A20FFF79BFF002DECD1EDE7012508A0CA
:1020D000FEF742F92046FFF707FD0A20FFF78EFFC3
:1020E000E0E700002D2D207570636F756E740000A1
:1020F0002B2B207570636F756E7400000B4910B543
:10210000094AC1E9002000208860C8600861886130
:102110000C2048610846FFF713F9BDE81040012282
:1021200003490248FFF77CB900440040DC0000206E
:102130000C0000204FF04070E1EE100A70470000E4
:102140000000000000000000010203040607080967
:10215000A0860100400D0300801A060000350C0027
:1021600040420F0080841E0000093D0000127A00EA
:102170000024F40000366E010048E801006CDC0227
:102180000000000001020304A82100080000002054
:1021900014000000C4010008BC2100081400002045
:1021A000F4070000E001000800093D000000000005
:0C21B00000000000000000000000000023
:040000050800018965
:00000001FF
